S016000044485431315F426172656D6574616C2E733337B0
S3150800000000100020452D0008955B0408955B040840
S31508000010955B0408955B0408955B0408955B0408E2
S31508000020955B0408955B0408955B0408955B0408D2
S31508000030955B0408955B040831810008955B040804
S31508000040955B0408955B0408955B0408955B0408B2
S31508000050955B0408955B0408955B0408955B0408A2
S31508000060955B0408955B0408955B04084521000820
S3150800007035210008955B0408955B0408955B040820
S31508000080955B0408955B0408955B0408955B040872
S31508000090955B0408955B040835360008955B0408EB
S315080000A0955B0408955B04080D320008E5310008E5
S315080000B0955B0408955B0408DDEE0108D5F901088F
S315080000C0F3190508EF1905084DF10108091A05087D
S315080000D0F7190508A5F90108FB19050815FA010815
S315080000E001FB0108955B0408955B0408955B040809
S315080000F0955B0408955B0408955B0408955B040802
S31508000100955B0408955B0408955B0408955B0408F1
S31508000110955B0408955B0408955B0408955B0408E1
S31508000120955B0408955B0408955B0408955B0408D1
S31508000130955B0408955B0408955B0408955B0408C1
S31508000140955B0408955B0408955B040851890008CB
S31508000150955B0408955B040879F2050829D201081D
S31508000160955B0408955B0408E3190508E919050871
S31108000170955B0408955B0408955B040881
S3150800017C194A5AB3194BDB6913F0040F29D110B479
S3150800018C0AE003EA00048C4210D0013AB2B1134BD0
S3150800019CDB6913F0040F14D110F0010FF1D1104CD8
S315080001AC1C40002CEDD06FF001000CE00C4A1A40F4
S315080001BC0AB9002007E06FF0010004E06FF00200B6
S315080001CC01E04FF0FF305DF8044B70476FF002000A
S315080001DC70474FF0FF307047809698000000035028
S315080001EC020001000D4BDB6913F4803F12D170B588
S315080001FC0A4B03F580560124F46003F500552C646C
S3150800020C4FF480721A6100212046FFF7B1FF34645F
S3150800021CEC6070BD6FF00100704700BF0000035022
S3150800022C38B50446C0F30C03FBB9154B4FF48032B2
S3150800023C9A6603F51C33DD69154041F67132DA63AB
S3150800024C03F580520121D1605C6102221A610021FA
S3150800025C2120FFF78DFF70B10A4B0122DA601DB120
S3150800026CA3F500530022DA6338BD40F21A2106487A
S3150800027C00F096F8D9E700212120FFF779FFEBE784
S3150800028C0090005000200350780C060838B51A4B1D
S3150800029C5861DB6913F0040F2AD10C4654F8041B79
S315080002AC154B9961151F06E0214651F8042B124B84
S315080002BC9A61043D0C465DB108210846FFF758FFC4
S315080002CC03460028F0D00C4A04211161184638BDA3
S315080002DC094B04221A6100212120FFF749FF034626
S315080002EC0028F3D100212120FFF742FF0346EDE752
S315080002FC4FF0FF33EAE700BF000003502DE9F04149
S3150800030C0F461646054610F0030F14D116F0030FC8
S3150800031C17D1204B4FF480329A6603F51C33DA69F1
S3150800032C02F4803841F67132DA6303F58053012200
S3150800033CDA6000230EE040F26621174800F030F828
S3150800034CE4E74FF41A71144800F02AF8E1E725445B
S3150800035C2744361B8EB105F5005424F4FF5424F0BB
S3150800036C1F04641BB44228BF344622463946284625
S3150800037CFFF78CFF03460028E9D0084A0121D16013
S3150800038CB8F1000F03D0A2F500520021D16318462C
S3150800039CBDE8F08100900050780C06080020035048
S30D080003AC5FF800F0AB5B0408E2
S315080003B82DE9F04180460F461546106051604FF406
S315080003C87A72002344F032FA06460C461FA3D3E98C
S315080003D800234046394644F029FA83B22B81184A45
S315080003E802FB03F3F61A64F100044FF46162002372
S315080003F83046214644F01AFAC0B2A8724FF461632F
S3150800040803FB00F0301A64F100040022031915D220
S3150800041813440C4AA2FB0312D208C2EB02129B1A17
S31508000428C31A094AA3FB0232C3F38703EB72C3EB69
S315080004380313A0EB83002873BDE8F0810122E7E7E0
S315080004488051010089888888EFEEEEEE005C260563
S3150800045800000000000000002DE9F04F2DED028B8A
S3150800046893B082460C4693461D4657EC106B8DEDA5
S31508000478080B32463B463046394643F0AFFF00285C
S3150800048800F009814FF0FF32B14B3046394643F048
S31508000498CDFF002840F0FF804FF0FF326FF480133D
S315080004A83046394643F0A4FF002840F0F48000227D
S315080004B80023DDE908673046394643F099FF0028E6
S315080004C840F0FC809DED087B8DED067B209B13F4A0
S315080004D88063119301D106231E93DDE906010246BE
S315080004E8C1F30A50C1F31303904643F07F5949F400
S315080004F84019A0F2FF3043F09FFC83A3D3E90023F9
S3150800050843F004FD82A3D3E9002343F049FB0646DA
S315080005180F4600228F4B4046494643F03FFB7EA3D1
S31508000528D3E9002343F0F2FC02460B463046394627
S3150800053843F036FB43F084FF064643F07DFC8046CD
S31508000548894677A3D3E9002343F0E0FC0022824BCF
S3150800055843F026FB43F074FF074673A3D3E9002349
S315080005684046494643F0D2FC80468946384643F019
S3150800057863FC6FA3D3E9002343F0C8FC02460B4685
S315080005884046494643F00AFB8046894602460B46DA
S3150800059843F0BCFCCDE90C0107F2FF370021002225
S315080005A8CDE90A123B050B9300230A9342464B46AC
S315080005B84046494643F0F4FACDE90E0142464B4611
S315080005C800204FF0804143F0E9FA80468946002228
S315080005D8624BDDE90C0143F0C3FD0022604B43F092
S315080005E8DFFA02460B46DDE90C0143F0B9FD0022A5
S315080005F85C4B43F0D5FA02460B46DDE90C0143F09D
S31508000608AFFD02460B464046494643F0C9FA02463C
S315080006180B46DDE90E0143F0A3FD0022524B43F0D9
S31508000628BFFADDE90A2343F071FC8046894649EC9E
S31508000638188BDDE9062343F0F9FE40B1013E002296
S31508000648474B4046494643F08BFD41EC180B06F1EB
S315080006586303C62B3BD80427209B13F4006F40D0AE
S3150800066835A3D3E90023DDE906894046494643F020
S31508000678D3FE00283BD032A3D3E900234046494697
S3150800068843F0B6FE002832D01E9BB34221DD9E1BDE
S31508000698731E1E931FE0209B02931F9B01931E9BAC
S315080006A800939DED080B2B465A462146504600F006
S315080006B8CBF813B0BDEC028BBDE8F08F9FED227B1B
S315080006C88DED067B069607F100430793FEE6052798
S315080006D8C2E700231E93209B43F4806320930027D8
S315080006E83E461F9B9F4241D2A3EB070840E01E9B4C
S315080006F8002BF6D0119B002BF3D01E9B013B1E93B3
S31508000708EFE700BFAFF30080FB799F501344D33F50
S31508000718B3C8608B288AC63F61436F63A787D23FF1
S3150800072871A379094F930A401655B5BBB16B0240B8
S31508000738EF39FAFE422EE63F2D431CEBE2361A3F06
S315080007480000000080842E41000000000000000020
S31508000758FFFFEF7F0000F83F0000E03F00002C4055
S3150800076800002440000018400000F03F4FF0000841
S31508000778209B13F0020902D00FB14FF000083EB1D2
S3150800078853EC182BDDE9060143F0EAFCCDE906012E
S3150800079800220023DDE9080143F02AFE00283BD1A0
S315080007A8209B23F400630293CDF804801E9B0093D4
S315080007B89DED060B2B465A462146504600F044F84E
S315080007C8002F3FF476AF209B13F0200F2CD04FF064
S315080007D8450C00F101082B46024621466046D047DB
S315080007E886EAE672A2EBE67205230593013F0497AB
S315080007F8002303930A230293F30F019300922B46CF
S3150800080842462146504650F05FFBB9F1000F3FF4C7
S3150800081850AF02461F9F10E0DDE90601024601F1C6
S315080008280043CDE90623BBE74FF0650CD1E7561C14
S315080008382B4621462020D0473246A2EB0B03BB4263
S31508000848F5D3104635E700BF2DE9F04F2DED028B9D
S3150800085893B00590089192469B4659EC108B1E9DBD
S3150800086842464B464046494643F0B8FD002840D024
S315080008784FF0FF326FF480134046494643F0B8FDFF
S31508000888002845D14FF0FF32B14B4046494643F060
S31508000898CDFD00284BD1AAA3D3E9002340464946F3
S315080008A843F0C4FD00285AD1A7A3D3E9002340463C
S315080008B8494643F09DFD002851D1002200234046B1
S315080008C8494643F095FD002857D100230993209BF4
S315080008D813F4806F5CD000241F2C5BD8092D59D9D6
S315080008E804F148036B44302203F8202C013D0134F7
S315080008F8F2E7209B03931F9B029303230193954BCF
S3150800090800935B4652460899059850F003FA10E199
S31508000918209B03931F9B0293042301938E4B0093FA
S315080009285B4652460899059850F0F4F901E1209B70
S3150800093813F004030FD0894A7BB104232099039145
S315080009481F990291019300925B46524608990598A9
S3150800095850F0E0F9EDE0824AEEE70323EEE7209B44
S3150800096802931F9B0193009549EC108B5B465246F0
S3150800097808990598FFF770FDDBE042464B460020CC
S31508000988002143F00BF980468946012309939EE71F
S315080009980625A0E74046494643F052FD064643F079
S315080009A84BFA02460B464046494643F0F7F86D4B64
S315080009B803EBC50393ED008B53EC182B43F0A6FA0B
S315080009C802460B46CDE9062343F062FD074643F087
S315080009D823FA02460B46DDE9060143F0DFF802462C
S315080009E80B46CDE9062300225F4B43F01FFD50B3A3
S315080009F80137384643F010FA02460B4651EC180BF5
S31508000A0843F000FD08B10136002755BB304643F0D0
S31508000A1813FA02460B464046494643F0BFF8804655
S31508000A2889460022504B43F0E3FC38B100224E4B6E
S31508000A384046494643F0FAFC002842D016F0010F12
S31508000A483FD001363DE00022474BDDE9060143F079
S31508000A58CFFC0028D9D117B117F0010FD5D0013727
S31508000A68D3E71F2C17D8013D404BA3FB0723DB0808
S31508000A78194603EB8303A7EB4303621C303304F1DF
S31508000A8848000DEB000404F8203C092F02D90F464C
S31508000A981446E6E714461F2C0AD86B1E45B104F11E
S31508000AA848026A44302102F8201C1D460134F2E740
S31508000AB81F2C06D804F148036B442E2203F8202C71
S31508000AC801341F2C17D82A4A82FB0632F317C3EBC0
S31508000AD8A2031A4603EB8303A6EB4303611C3033D0
S31508000AE804F148000DEB000404F8203C16460AB148
S31508000AF80C46E6E70C46209B03F00303012B39D086
S31508000B081F2C09D8099B002B51D004F148036B44C4
S31508000B182D2203F8202C0134209B03931F9B029354
S31508000B2801940AAB00935B4652460899059850F01B
S31508000B38F1F813B0BDEC028BBDE8F08FAFF3008077
S31508000B480000000065CDCD410000000065CDCDC18F
S31508000B58FFFFEF7F2C2E0608302E0608202E0608E3
S31508000B68282E0608382E06080000E03FCDCCCCCC47
S31508000B78676666661F9BB3B1099B1BB9209B13F072
S31508000B880C0F12D01F9B013B1F93194606E004F170
S31508000B9848036B44302203F8202C01348C42AFD228
S31508000BA81F2CF4D9ACE71F99F8E71F99F6E7209B9D
S31508000BB813F0040F07D004F148036B442B2203F8FB
S31508000BC8202C0134A8E7209B13F0080FA4D004F1C1
S31508000BD848036B44202203F8202C01349CE700BF05
S31508000BE8F0B5934C9FB02288A3780021ADF80C2065
S31508000BF813A82C228DF80E305BF001FC4FF0023357
S31508000C08159340F20B130AAD0434ADF874300FCCC3
S31508000C180FC50FCC0FC52368864A2B60864B874DB0
S31508000C2806930023CDE9073309934FF0FF33284687
S31508000C3883492B601FF06CF80446002853D12868AE
S31508000C48431C06D140F2A4417E4B7F4A7F4843F0B5
S31508000C587DFF03A91FF09AF80446002843D128689F
S31508000C6850F09DFA7A4E7B4F3070286850F099FA02
S31508000C783870286850F097FA774B784918702868BA
S31508000C881FF082FB044600282DD13378744E4BB9E1
S31508000C98744822F0B3FF3060D0B940F2DC41724B99
S31508000CA8694AD3E7714822F0A9FF30600028EFD0D7
S31508000CB8C18928681FF0CCFA33682146586822F09B
S31508000CC8D7FF044678B9674822F098FF306090B194
S31508000CD8C18928681FF0BCFA33680421586822F0CD
S31508000CE8C7FF044638B1234622210220604A59F034
S31508000CF86FFC1FB0F0BD05F093FF5E4BCDE904010C
S31508000D0804AAA3F1080112F8010B03F8010D994288
S31508000D18F9D13B78002B46D15749286850F06BFF24
S31508000D2804460028DFD15549286850F04EFF044686
S31508000D380028D8D1524928681FF02AF904460028FD
S31508000D48D1D139A3D3E90023CDE90023286850F087
S31508000D5854FF04460028C6D14A4A4B49286850F029
S31508000D68ACFF04460028BED1484A4949286850F0CD
S31508000D78A8FF04460028B6D1012128681FF024F8E0
S31508000D8804460028AFD1A023424A06A8D380424A7F
S31508000D98136006F057F8414B186088B940F2255198
S31508000DA83F4B294A52E71C22002116A85BF027FB6D
S31508000DB8286813A91FF0EEFC04460028ACD092E771
S31508000DC822460121082006F019FA364B186020B980
S31508000DD84FF4A561344B1C4A38E7224601210820FE
S31508000DE806F00CFA314B186020B940F22B51304BFB
S31508000DF8154A2BE72F4A3049304824F02FFD2F484B
S31508000E083AF05EFF00212E480AAA06F0F9F82D4B9B
S31508000E18186000287FF46DAF40F237512A4B0A4A0A
S31508000E2814E700BFAFF30080C88D01C10340000076
S31508000E38E0A8060865390208FB9D0608F86600203A
S31508000E4864800020109E0608E1A70608CA9B0608C3
S31508000E584B7000204A7000204970002007001100D6
S31508000E68B45600200B2E0508379E0608F52D0508EA
S31508000E78C29E060854700020DEA80608DCA80608E4
S31508000E88FC66002054820020481400205682002060
S31508000E98F0560020A48000206467002078670020A8
S31508000EA84F9E0608746700206B9E06087067002028
S31508000EB8889E0608A89E0608213E0208186700208C
S31508000EC8894F02087C670020B19E060800000000CA
S31508000ED82DE9F34705465A4C22211020594A59F05C
S31508000EE877FB1422294620465BF0E0FAA27B564B8C
S31508000EF8DFF8A0A11A70637C00228AF80030002364
S31508000F08CDE90023DFF8908100224FF40073D8F862
S31508000F18000050F072FE064620B10126304602B09F
S31508000F28BDE8F087494B4A4F1B787BB9494822F0F8
S31508000F3865FE04463C60FCB9474A2221022059F05E
S31508000F4847FB0122454B21261A70E7E7444B454CD7
S31508000F581A88454BD8F8000053F82210434A8B687C
S31508000F6821603B601EF0FEFF2268414B94682422EC
S31508000F781B8802FB0344DDE73E4B1C60394BD3F85C
S31508000F880090B9F1000F07D000232420D9F80C10D7
S31508000F988B4208D100251AE040F2ED71364B374AE4
S31508000FA8374843F0D3FDD9F8085000FB0355EA69DA
S31508000FB85278120912F00E0F2BD0052A29D8314B70
S31508000FC80021EA89B3F900003D6022F089FE1AA3D8
S31508000FD8D3E90023CDE90023D8F8000050F00DFE28
S31508000FE8D9F80820AA4207D0274B3A600421D289A3
S31508000FF8B3F9000022F074FE244BE2893C601A809B
S31508001008234B1B783BB923F073FE012023F0FEFA25
S3150800101884E70133BCE79AF800301B0913F00E0F72
S31508001028F1D101220721D8F8000050F014FF002852
S31508001038E9D072E7AFF30080C88D01C1034200000A
S31508001048B856002097A20608407000204470002071
S31508001058B4560020613D0208B3A206084270002073
S31508001068BC6F0020A8560020BC7B002071390208F6
S31508001078BA6F0020B0560020EFA206089FA60608F9
S31508001088CA9B0608588200205A8200204E820020F1
S315080010984A7000203F700020F86600200000000013
S315080010A82DE9F84390F8E861054644683EB90220F8
S315080010B82721414A59F08CFA3046BDE8F88394F955
S315080010C80130002B1ADA731E5BB2637000EB431308
S315080010D893F825302370A06842F0C0FE32A3D3E9FE
S315080010E800238046894694F9017043F09FF9F8B1C0
S315080010F8002F1DDD013F0023677024E09E422278F9
S3150800110805DD00EB431393F825309342E3D000231B
S3150800111805F1250163705801085C904208BF6370A1
S3150800112801339E42F7D8731E637000232371D2E7F2
S3150800113840461FA3D3E90023494643F077F9F0B19F
S315080011482379E3B1013B237194F9013005F5F5706C
S3150800115805EB431393F82530237085F8EA31052300
S3150800116895F8022285F8EC3185F8F02100230E223D
S3150800117885F8EB3185F8F22185F8F1319DE7404687
S315080011880BA3D3E90023494643F032F90028DBD0FC
S3150800119823790133DBB2092B2371D5D9013EBE4227
S315080011A8D2DD0137A7E700BF666666666666E63F6C
S315080011B89A9999999999B93F564A070800000000DB
S315080011C82DE9F8432DED028B8768054638461646FD
S315080011D80C4642F043FE28A3D3E9002380468946F5
S315080011E843F024F988BB26A3D3E900234046494699
S315080011F843F0FEF860BBF7EE007A07EE107A87EE42
S31508001208878A6B7F607F0122834224D000213BF0C6
S31508001218C1F9012204463146687F3BF0BBF904440C
S3150800122804F2D5702860D8B107EE900AF8EE677A06
S315080012389FED0D7A67EE887A87EE270ABDEC028B52
S3150800124810EE103AEB60BDE8F8839FED088AD8E7F8
S315080012589FED078AD5E7314618463BF09BF9E1E743
S315080012689FED040AEAE700BF00007A44E4388E3F97
S3150800127800401C4600000000CDCCCCCCCCCCEC3FC2
S315080012889A9999999999B93F2DE9F74F064690F889
S31508001298E8010D469146A0B37468A3690133A361B2
S315080012A8A37D06EB43131A7F02441A77D4E907325B
S315080012B8C3EB520207EE902A4000B8EE677A07EEAB
S315080012C8900AF8EEE76AF4EEC76AF1EE10FA0BD55B
S315080012D807EE903A37EE667AF8EE677A77EE877A07
S315080012E8FCEEE77AC4ED077A4FF0000BD9450BD820
S315080012F842F21073A2699A4282BF0023C4E90633F0
S31508001308236203B0BDE8F08FB5F802A02F79BAF1C9
S31508001318000F2ED0384642F08FFDCDE90001504621
S3150800132842F08AFD02460B46DDE9000142F018FF45
S3150800133802460B4600204C4942F030FC43F0C8F8F8
S3150800134807EE100A96F80332AAEB0700034486F854
S31508001358033294F8243033B394F825305B4522D108
S31508001368BAF1000F08D1C4F820A00BF1010B063515
S31508001378BCE7B7EE007AE5E7E3690133E3612A7863
S31508001388002AF2D00023984696F8E8C106F1080123
S315080013989C450FD8B8F1000F14D127210220334AEB
S315080013A859F016F9E1E72A78002ADED0BAF1000FD3
S315080013B8DBD0E7E791F81DE00133964508BF884674
S315080013C82031E5E7002288F81420B8F81020D8F864
S315080013D8043017440133BAB2C8F80430A8F81070B4
S315080013E81AB198F81D2086F81422F7EE007A012B10
S315080013F877EEC77A8CBFB3EE097A9FED1D7AB8F8EF
S31508001408122088BF67EE877A0244A8F81220D8F80F
S3150800141808208CBF9FED177A67EE877A06EE102AA2
S31508001428DFED156AE6EE077A87EEA67A17EE103A22
S3150800143817EE100AC8F8083042F010FD08A3D3E9D9
S31508001448002342F0D5FF18B1FF2388F815308CE73A
S3150800145898F91530013388D10423F6E7AFF30080ED
S31508001468666666666666EE3F0000F03F764A0708D7
S3150800147800004842000096420000C84200000000EA
S315080014882DE9F04F2DED028B054600274FF0200A6F
S315080014984FF0080B0B4608204D4A87B08846272187
S315080014A859F096F895F8E83127210820494A59F05D
S315080014B88FF86C6805F10806E37D23716371637517
S315080014C895F8E891B9450DDC3FA7D7E900674FF0CD
S315080014D80008AA46C346C14546D807B0BDEC028BE4
S315080014E8BDE8F08FE17D42461AFB01B13046294432
S315080014F8FFF766FE96F81D900495F06842F0AEFC74
S31508001508CDE90201B06842F0A9FC4B46CDE90001D5
S31508001518314A2721082059F05BF82379D6ED037A52
S3150800152805EB431292ED057AF4EEC77AF1EE10FA56
S3150800153802DB327F22710EE017B995F82420F9E705
S31508001548637905EB431393ED057AF4EEC77AF1EE62
S3150800155810FA04DB337F637101372036B0E7012FB1
S31508001568FAD195F84430F6E7E37D434515D09AED68
S31508001578048A18EE100A42F071FC32463B4642F0DD
S315080015884BFF10B9BBF1000F0CD19AF82430227919
S315080015989A4202D062799A4211D108F101080AF1F1
S315080015A8200A98E7637D05EB4313D3ED047AB4EE76
S315080015B8E78AF1EE10FAE8DA4FF0010BEDE7637502
S315080015C8FAE700BFAFF30080666666666666EE3FB2
S315080015D88E4A0708B04A0708BF4A070800000000ED
S315080015E82DE9F047D0F8048000EB411393F824500E
S315080015F898F817300446AB422DD098F81530AB4208
S3150800160829D000EB411ADAF810004FEA411942F0DE
S3150800161825FC13A3D3E9002306460F4642F0F2FE3B
S3150800162810B99AF91D00A0B198F80430AB4212D047
S3150800163898F80530AB420ED009A3D3E90023304603
S31508001648394642F0F3FE18B14C44637F013B637791
S315080016580120BDE8F0870020FBE700BFAFF3008054
S31508001668666666666666EE3F2DE9F34704460E46E5
S31508001678456827210820804A58F0AAFF204631469F
S31508001688FFF7FEFE284659F017FB002800F0BA8037
S31508001698204659F024FB061EC0F2B48094F8E831B7
S315080016A89E4280F2AF8004EB46173346272108206E
S315080016B8724A58F08DFF2721082097F82530704A76
S315080016C858F086FF012295F804C085F8242004EB13
S315080016D84C13386A196A884297F8250002D8397F60
S315080016E8322977D9012284F8EC21002284F8EA0104
S315080016F884F8EB21A97D297093F8251084F8F01150
S3150800170893F8263084F8F12184F8F231697D85F852
S3150800171801C004EB411393F82500012684F8F60165
S3150800172893F8263084F8F831002384F8F731A9703D
S3150800173885F82520A04605F1FF3904F1120A19F89B
S31508001748013F5F1C002E00F0898004EB43131869DB
S3150800175842F084FB02460B46CDE9002342A3D3E9AF
S31508001768002342F063FE40B941A3D3E90023DDE92B
S31508001778000142F03DFE002870D004EB4717BB79FC
S31508001788042B8EBF02230133C3F3460388F8EC31D2
S3150800179808F10608C245D2D1EA7D04F5F57004EBCE
S315080017A8421393F8253084F8FC31002384F8FD3178
S315080017B8EA7085F8243094F8F22194F8EC31134449
S315080017C894F8F821C3F113039B1A84F8FE3102B082
S315080017D8BDE8F08793F82570697D84F8EA7193F86F
S315080017E8263084F8EC31002384F8EB3185F800C0FC
S315080017F884F8F13184F8F00184F8F22104EB4113F6
S315080018086E7088E700262A7904EB421393F82510A8
S3150800181884F8EA1193F8263084F8EB6184F8EC31F9
S315080018282A706A7904EB421393F8251084F8F011A4
S3150800183893F8263084F8F16184F8F2316A706A7D83
S3150800184804EB421393F8251084F8F61193F826301A
S3150800185884F8F76184F8F831AA706BE704EB471740
S31508001868BB7993E7AFF30080666666666666EE3F01
S315080018789A9999999999B93FE34A0708F14A07083D
S31508001888014B0708000000002DE9F8432DED028BEF
S3150800189887680546384616460C4642F0DFFA2EA3F0
S315080018A8D3E900238046894642F0C0FD00283DD189
S315080018B82BA3D3E900234046494642F099FDC0BB0D
S315080018C8F7EE007A07EE107AAB7F87EE878A07EE7F
S315080018D8903AB8EEE77AB4EEC87AF1EE10FA01D57E
S315080018E8B8EE678A6B7F607F0122834224D0002185
S315080018F83AF050FE012204463146687F3AF04AFE1D
S31508001908044404F2D5702860D8B107EE900AF8EEB8
S31508001918677A9FED0D7A67EE887A87EE270ABDEC17
S31508001928028B10EE103AEB60BDE8F8839FED078A44
S31508001938D8E79FED078AD5E7314618463AF02AFED2
S31508001948E1E79FED040AEAE700007A44E4388E3FA7
S3150800195800401C4600000000CDCCCCCCCCCCEC3FDB
S315080019689A9999999999B93F2DE9F04F2DED028BD6
S3150800197890F8E83105460E46934689B0002B00F0E4
S31508001988238127210820964A58F022FE00226C68EF
S31508001998A1690131A16195F8E80190423DD8D4E9D9
S315080019A807230A2779436427B1FBF7F1C2EB5303E8
S315080019B80B4407EE903A430006EE903AF8EE677A3B
S315080019C8F8EEE66AF4EEE76AF1EE10FA0BD507EEDA
S315080019D8102A77EEE67AB8EE477A77EE277AFCEE9B
S315080019E8E77AC4ED077A0027B846BB451DD8B8F18B
S315080019F8010F00F0E680B8F1130F40F2B980002312
S31508001A08A3612721082095F80332764A09B0BDEC68
S31508001A18028BBDE8F04F58F0DBBDA37D013205EB1C
S31508001A2843131F7F01371F77B7E7B6F8029096F872
S31508001A3804A0B9F1000F41D0504642F0FDF9CDE9AE
S31508001A480601484642F0F8F902460B46DDE9060162
S31508001A5842F086FB02460B460020634942F09EF890
S31508001A6842F036FD08EE100A337818EE100A069387
S31508001A78049542F0F3F9069BCDE902015B4A272152
S31508001A880820CDE9009A58F0A3FD7288337995F8AD
S31508001A980312D31A0B4485F8033294F82430C3B1D9
S31508001AA894F82530BB4214D15AB922622721082056
S31508001AB84F4A58F08DFD0137063696E7B7EE008A85
S31508001AC8D2E7E3692721013308204A4AE36158F037
S31508001AD87FFDB6F802A0BAF1000FECD00023E25D4C
S31508001AE805EB4211C8680B770130C86096F804C040
S31508001AF80B8B4FEA421963449BB20B831BB191F8CF
S31508001B08253085F81432F7EE007A05EB0902538B6F
S31508001B1801285344A3EB0C0377EEC87A53830DD9EF
S31508001B28B2EE0E7AD2ED046A27EE877ADFED327ABC
S31508001B38A6EEA77ADFED316AC7EE267AA944C9ED7B
S31508001B48047A17EE900A42F089F923A3D3E9002309
S31508001B5842F04EFC30B1FF2389F81D30C2441FFA03
S31508001B688AF8A8E799F91D300133F7D10423F3E772
S31508001B78B8F1020FD4ED0B7AB1EE047A15D977EEDF
S31508001B88877AB3EE047AF4EE477AF1EE10FA77FE1E
S31508001B98277A42F21073A269C4ED0B7A9A4282BF79
S31508001BA80023C4E9063323622BE7F2EE046A77EECC
S31508001BB8E67AF4EE477AF1EE10FA48BFF0EE477A7D
S31508001BC8E7E7DFED0F7AE4E709B0BDEC028BBDE87D
S31508001BD8F08F00BFAFF30080666666666666EE3FFE
S31508001BE8464B0708AC4B07080000F03F5C4B070854
S31508001BF88D4B07089C4B07080000AA420000C842FC
S31508001C0800000000000000002DE9F84F2DED028BBA
S31508001C180546884600274FF020094FF0080B446808
S31508001C2800F10806E37D23716371637595F8E8A1E9
S31508001C38BA450CDC0FF2D009D9E9008900262F46E7
S31508001C48B346B24532D8BDEC028BBDE8F88FE17DC4
S31508001C58424619FB01B130462944FFF715FE237998
S31508001C68D6ED037A05EB431292ED057AF4EEC77AB8
S31508001C78F1EE10FA02DB327F22710EE017B995F8F9
S31508001C882420F9E7637905EB431393ED057AF4EE17
S31508001C98C77AF1EE10FA04DB337F63710137203611
S31508001CA8C4E7012FFAD195F84430F6E7E37DB34245
S31508001CB815D097ED048A18EE100A42F0CFF8424676
S31508001CC84B4642F0A9FB10B9BBF1000F0AD197F8A9
S31508001CD8243022799A4202D062799A420FD1013683
S31508001CE82037AEE7637D05EB4313D3ED047AB4EEEC
S31508001CF8E78AF1EE10FAEADA4FF0010BEFE76375B7
S31508001D08FAE700BFAFF30080666666666666EE3F6A
S31508001D182DE9F047456890F8E821AB690446B3EB26
S31508001D28420F2ED900EB411393F82480EB7D4345E7
S31508001D382AD06B7D434527D000EB411ADAF8100004
S31508001D484FEA411942F08AF811A3D3E90023064657
S31508001D580F4642F057FB10B99AF91D0090B12B7936
S31508001D68434511D06B7943450ED009A3D3E900231F
S31508001D783046394642F05AFB18B14C44637F013B5A
S31508001D8863770120BDE8F0870020FBE7AFF3008002
S31508001D98666666666666EE3F0348044B834202D06B
S31508001DA8034B03B118477047548D0020548D002003
S31508001DB800000000064B0749C91A891048BF0131B7
S31508001DC8491003D0044B0BB101481847704700BFA8
S31508001DD8548D0020548D00200000000010B5064CD4
S31508001DE8237843B9FFF7D8FF044B13B10448AFF378
S31508001DF800800123237010BDC46F00200000000076
S31508001E08F863070808B5054B1BB105490548AFF33C
S31508001E180080BDE80840FFF7CDBF00BF00000000FE
S31508001E28581E0020F8630708A3F5803A704700BFD4
S31508001E38174B002B08BF134B9D46FFF7F5FF0021EC
S31508001E488B460F461348144A121A5AF0D8FA0E4BFC
S31508001E58002B00D098470D4B002B00D09847002040
S31508001E68002104000D000D48002802D00C48AFF3E5
S31508001E78008043F019FA2000290043F00FFD42F0CC
S31508001E8883FE00BF000008000000000000000000F4
S31508001E9800100020001000207479002000000000BF
S31508001EA80000000000B585B0104816F09FFB43F007
S31508001EB863FE08E00E4816F099FB00230193019A81
S31508001EC80C4B9A420CDB02A800F07AFE0028F1D0E7
S31508001ED89DF808209DF80A10074816F087FBECE7D6
S31508001EE800BF019B01330193E9E700BFE8F2050843
S31508001EF820F3050800127A0004F3050800B58BB02C
S31508001F082422002101A85AF07AFA0B4B01934FF4C0
S31508001F18007306931823079301AA0021074805F0BA
S31508001F286FF810B10BB05DF804FB054B054A4D2157
S31508001F38054842F00BFE00BF38F30508AD1E000839
S31508001F4840F3050864F3050854F3050810B503F0CB
S31508001F589FFB03F00BFE294A136F23F0070343F090
S31508001F6803031367012003F027FE254B9B6A13F02A
S31508001F78807F03D1234B4FF480329A621F4CD4F8E2
S31508001F88203123F0070343F00203C4F82031D4F8BC
S31508001F98283123F0070343F00203C4F82831D4F89C
S31508001FA8403123F0030343F00203C4F84031D4F860
S31508001FB8603123F0030343F00203C4F860310121BA
S31508001FC83E2003F053F8D4F8403223F0030343F0D5
S31508001FD80203C4F84032D4F8003223F0070343F06A
S31508001FE80203C4F80032D4F8083223F0070343F092
S31508001FF80203C4F80832002010BD00BF0080005054
S315080020080040005A0060005A0023062073B1704742
S3150800201854B224B9013353B15DF8044B704702280A
S31508002028F8D008680A4908601046F3E710B4094A60
S3150800203852F823100A7A022AEAD9032AEAD1441E50
S31508002048E4B2012CE6D90868014908601046E1E7B8
S31508002058701E0020CC7B002010B5A2B00DF1680CCC
S31508002068294C0FCCACE80F0094E80F008CE80F0059
S315080020780021159116911791189119914FF480130B
S315080020881593224B1993109111911291139114914A
S315080020981F4B10931F4B14933C2201A85AF0AFF913
S315080020A801AC0DF1540CBCE80F000FC4DCF8003085
S315080020B8236006AC0DF1400CBCE80F000FC4DCF831
S315080020C800302360144B0B9320230C9301238DF8BF
S315080020D834308DF835308DF83630104B0F93104B59
S315080020E81AAA01A90F480AF083FC044638B9002140
S315080020F84FF4E13043F01AFD204622B010BD8D2179
S31508002108094843F04EFDF2E71C0006083C00015B4F
S31508002118010010004400015B741E0020E07B0020CB
S31508002128941E0020A41F0020E4FF050808B50248ED
S315080021380AF07EFD08BD00BFA41F002008B50248A6
S315080021480AF076FD08BD00BFA41F0020F8B50646AC
S315080021580C461546022904D1104B93F82430012B56
S3150800216814D0294620464FF07DFF0746284600F03A
S315080021789FFB0546033CE4B2012C04D93FB131461E
S31508002188074816F033FA284643F092FCF8BD02468B
S315080021983146044816F02AFAF5E700BFC81F00209A
S315080021A83C0006085C00060810B5134C50220021AE
S315080021B820465AF024F9114816F018FA04F11002C4
S315080021C801210F48FFF7C2FF224600210D48FFF7F5
S315080021D8BDFF04F1200202210B48FFF7B7FF04F1FF
S315080021E8300203210948FFF7B1FF04F14002042130
S315080021F80748FFF7ABFF10BD082000206C0006084B
S315080022087C0006088400060890000608A000060850
S31508002218B000060870B582B0044600220023CDE94E
S3150800222800235CF0EFF86A465CF00CF9324A9368CA
S31508002238D2680098C01A019961EB020100900191D1
S315080022482E4D2A46FEF7B4F8284600F053FB0646F4
S31508002258F8B16368002B3ED1A36813F0010F1AD1B1
S315080022680025A36813F0020F25D1A36813F0040FFD
S3150800227832D0234D2A4604212248FFF767FF28460D
S3150800228800F016FB0546024631461F4816F0AEF919
S3150800229822E01E4EDDE71E4D2A4601211D48FFF79E
S315080022A855FF284600F004FB0546024631461A48FB
S315080022B816F09CF9D5E7194D2A4603211848FFF761
S315080022C845FF284600F0F4FA054602463146154801
S315080022D816F08CF9C9E70025284643F0E9FB30468D
S315080022E843F0E6FB62680AB902B070BD0E490F48AA
S315080022F816F07CF9F8E700BF10100020001000203F
S3150800230848200020B8010608C4010608D82006088F
S31508002318182000207C0006086401060838200020DA
S31508002328840106089001060868040608F0010608EC
S3150800233870B582B000220023CDE900234168002940
S315080023483AD10446FFF730FF5CF05CF86A465CF061
S3150800235879F8224B186A0099019ADD689E68B1EBEC
S31508002368060C62EB050510EB0C005E6A46EB0505E4
S3150800237818625D6219605A609960DA60986A013075
S3150800238898629869DB69091A62EB0302009101925F
S31508002398134BA3FB01318909124816F027F9124D88
S315080023A8012128685CF0C5F9022128685CF001FA61
S315080023B8626872B902B070BD0C4816F017F90A4C73
S315080023C8022120685CF0B5F9012120685CF0F1F972
S315080023D8F0E70749074816F009F9EBE71010002057
S315080023E8D34D621030020608042000200C020608A5
S315080023F848040608F0010608F0B583B00546002229
S315080024080023CDE90023164816F0F0F85BF0FAFF2A
S315080024186A465CF017F8134B1A695869009C019EBE
S315080024289969611ADF6966EB070C521840EB0C00CC
S315080024381A6158611C605E609C61DE616A684AB907
S315080024480221094B18685CF074F9084B00221A70C7
S3150800245803B0F0BD0649074816F0C8F8F0E700BF0C
S315080024683C0206081010002004200020C56F002032
S3150800247828040608F001060838B504460F49A1F1EC
S3150800248828004FF0A6FD78B10D4D042128685CF0A8
S3150800249850F9022128685CF04CF9012128685CF09B
S315080024A888F962682AB938BD0649074816F09EF8B9
S315080024B8EAE70649064816F099F8F4E7F01F0020F7
S315080024C804200020C81F00204C0206080404060839
S315080024D8F001060808B54168014816F087F808BDEE
S315080024E87402060810B504468068C0B2084B18700E
S315080024F800F0F8F920B10146A268064816F076F801
S31508002508626802B910BD0449044816F06FF8F9E77D
S31508002518C56F0020A4020608E4030608F0010608A9
S31508002528426802B9704708B50249034816F05EF8CA
S3150800253808BD00BFC8030608F0010608426802B9C4
S31508002548704708B50249034816F050F808BD00BF99
S31508002558A4030608F0010608426802B9704708B5D8
S315080025680249034816F042F808BD00BF8403060866
S31508002578F0010608426802B9704708B502490348D7
S3150800258816F034F808BD00BF6C030608F001060803
S31508002598426802B9704708B50249034816F026F892
S315080025A808BD00BF40030608F0010608426802B9DC
S315080025B8704708B50249034816F018F808BD00BF61
S315080025C81C030608F0010608426802B9704708B5F0
S315080025D80249034816F00AF808BD00BF04030608AE
S315080025E8F001060808B50D4804F072FC0C4B186093
S315080025F830B10C4804F026FC0B4B186038B108BDFE
S315080026080A4B0B4A4FF4DE710A4842F09FFA0A4B06
S31508002618074A40F2BF11074842F098FAC00406086C
S3150800262858200020B004060804200020BC0206082A
S31508002638EC020608FC000608D402060808B54FF09E
S31508002648FF31064B18685CF047F900B908BD044B1A
S31508002658044A40F20521044842F078FA5C20002032
S3150800266844050608B4060608D804060808B5064B3D
S3150800267818685CF068F900B908BD044B044A40F2CA
S315080026880B21044842F062FA5C20002084050608FB
S3150800269890060608D804060810B582B0174804F04C
S315080026A817FC174B186008B1002412E0154B164A98
S315080026B84FF48671154842F049FA04EB4400C00005
S315080026C80830134B18440121043000F02BF9013463
S315080026D8A4B2132CF1D9502300930E4B08220A21D1
S315080026E80D4843F07AF908B902B010BD0B4B064AF3
S315080026F84FF48A71054842F029FA00BF0807060808
S315080027085C200020B8050608D4060608D80406087A
S31508002718F47B00207820002060200020DC050608CD
S315080027282DE9F0410646807843F016F90746FFF783
S3150800273885FFB7F1FF3F15D007EB4703294C04EB94
S31508002748C304636830469847A3680BB13046984770
S3150800275807EB4702234B03EBC203D3F81080224B3F
S315080027681C6905E0B178214815F040FF2EE0646839
S31508002778F4B125682A78B3789A42F8D16B68002BA1
S31508002788F5D0304698470028F1D16A7828FA02F336
S3150800279813F0010FEBD007EB4701124B03EBC1030C
S315080027A81969012000FA02F221EA02011961DEE735
S315080027B807EB47020B4B03EBC2031B6953B907EB3D
S315080027C84707084B03EBC703C3F81080FFF74EFF0C
S315080027D8BDE8F081D0000830024B1844043043F0B5
S315080027E87DF9ECE7F47B00206020002078060608CF
S315080027F82DE9F8430E46024600270124FF2507E07F
S315080028081346ACEB0702A2421BD8674601371A469D
S31508002818072F1AD8134613F8021B527852EA0122D0
S31508002828F4D107F1010CBCF1070FEAD81A4612F8D9
S31508002838021B5B7853EA0123E2D10CF1010C13461B
S31508002848F1E714463D466746E0E737464FF0000885
S315080028580BE0B8F1000F02D13A2307F8013B3A23F7
S3150800286807F8013B00EB4400A044B8F1070F18D855
S315080028784545EED0814619F8022B437808F1010838
S3150800288843EA02220949384615F0C6FE0744B8F154
S31508002898080F04D03A2307F8013B4846E5E74846B7
S315080028A8E3E700233B70B81BBDE8F883180706085A
S315080028B838B578B10546282043F0F6F8044660B1DD
S315080028C801462846FFF794FF28B9204643F0F0F852
S315080028D8034C00E0024C204638BD014CFBE700BF1C
S315080028E81C07060808B50146014843F0D4F808BD90
S315080028F8C408060830B585B00446202043F0D4F845
S31508002908054650B1A37AE27A217B02910192009397
S315080029182389034A202115F095FE284605B030BDBF
S315080029282007060858B110B504460023436081609D
S31508002938054804F087FA206018B1002010BD012068
S3150800294870470120FAE700BFB408060808B5034827
S315080029585CF083FB42F0AAFF08BD00BF4C180608C6
S3150800296808B502485CF079FB08BD00BF4C18060894
S315080029782DE9F04180460E46082904D106F10905D5
S3150800298800273C460AE040F26311214843F009F95A
S31508002998F4E75B21082000F0FFFA0134AC4233D291
S315080029A8052C1BD801A353F824F000BF9B2900085F
S315080029B8CD290008012A0008D5290008D9290008C0
S315080029C8DD290008F3B20433D9B2E3E78021E1E749
S315080029D80021DFE77B1C3946DFB2DBE7B31DA342DC
S315080029E80CD0F31DA3420BD006F10803A34209D065
S315080029F8A31F18F80310CDE7D121CBE75A21C9E759
S31508002A085A21C7E75D21C5E70020BDE8F08100BF68
S31508002A18FC08060800B583B000220092019202213C
S31508002A288DF80010054843F06BF8019008216846B0
S31508002A38FFF79EFF03B05DF804FB00BF00D4300023
S31508002A480B4AD2F8FC3043F08073C2F8FC30094BC5
S31508002A5800225A601A6842F001021A60064B1B687F
S31508002A68064AA2FB03239B0C054A1360704700BF5E
S31508002A7800ED00E0001000E0D47D002083DE1B4353
S31508002A88C82000200D4B59680D4B1B6803B9012354
S31508002A98B1FBF3F109E0B3FBF2F35B1A4FF47A7270
S31508002AA800FB02F2934208D200BF044B5B68044A53
S31508002AB81268002AEFD10122EDE77047001000E0FE
S31508002AC8C820002038B504460D46032803D8DFE891
S31508002AD800F00B040609002308E00F2306E040F27D
S31508002AE8FF3303E03F2301E040F2FF73EB4013F0A6
S31508002AF8010F07D00122AA4004EB44042401044B21
S31508002B081A5138BD40F25641024843F04AF8F1E7EF
S31508002B1840E003506409060838B504460D460328FC
S31508002B2803D8DFE800F00B040609002308E00F23A2
S31508002B3806E040F2FF3303E03F2301E040F2FF736B
S31508002B48EB4013F0010F09D004EB440424011434B4
S31508002B58054BE058E84000F0010038BD40F227412F
S31508002B68024843F01EF8EFE730C003506409060828
S31508002B7870B504460E46104B5D68104B1B6803B9C2
S31508002B880123B5FBF3F504E0B3FBF2F35B1BB34291
S31508002B980FD801210220FFF7BFFFA04207D0064B36
S31508002BA85B68064A1268002AEED10122ECE7012082
S31508002BB870BD0020FCE700BF001000E0C820002018
S31508002BC82DE9F04385B00546002402948DF80C409B
S31508002BD842F0BEFF2BE000BF009B01330093009A2A
S31508002BE84B4B9A42F7DD42F0BBFF1420FFF74AFF2A
S31508002BF8012304221946022003F012FD002301933B
S31508002C0803E000BF019B01330193019B4F2BF8DDBD
S31508002C1842F09EFF78210020FFF7AAFF30B17821FD
S31508002C280120FFF7A5FF804600284ED10134022C63
S31508002C3868DC002CD7DD00230093D0E70136072E81
S31508002C4832DC50210020FFF793FF60B3782101207A
S31508002C58FFF78EFFA8B32F4B5A682F4B1B6803B98B
S31508002C680123B2FBF3F94FF496710020FFF780FFB2
S31508002C7848B3284B5B68284A126802B90122B3FB95
S31508002C88F2F3A3EB0903322BD8D907F110030DEB9E
S31508002C98030111F8083CC6F10700012282401343D4
S31508002CA801F8083CCAE780460137042F0FDCB8F15B
S31508002CB8000F0CD0002607F110036B4403F8086CC4
S31508002CC8BDE78046F0E78046EEE70027EDE7B8F16E
S31508002CD8000FABD09DF808302B709DF809606E7010
S31508002CE89DF80A00A8709DF80B10E9709DF80C204D
S31508002CF82A71334450FA83F351FA83F3DBB29A42C2
S31508002D0802D093E74FF00008404605B0BDE8F083C7
S31508002D183F0D0300001000E0C820002008B504484D
S31508002D28044A121A9210044942F031FF08BD00BF3E
S31508002D387C010008B40300087879002008B5154B0B
S31508002D4883F30A8800F030F8FFF7E8FF124A0AE02A
S31508002D581068516850F8230041F823000133916838
S31508002D688B42F5D30C320D4B9A4201D20023F6E773
S31508002D780B4A08E01168002041F82300013351681E
S31508002D888B42F7D30832074B9A4201D20023F6E75B
S31508002D98FFF74EF800000020006407080C640708CF
S31508002DA80C6407080C64070870B5134B134A9A6035
S31508002DB8D3F8882042F47002C3F88820104A4FF4E2
S31508002DC8804191660F4D05F500544FF0FF32226693
S31508002DD80D4A62660222C3F8D020BFF34F8FBFF3AD
S31508002DE86F8F002009F0ECFC4FF44036E6600020AF
S31508002DF809F0BCFC2E6170BD00ED00E0000000087B
S31508002E0800900050008000447FFF7F0308B5064BFA
S31508002E181860064B1B6F03F00703032B00D008BD89
S31508002E2859F09EFDFBE700BFE07D002000800050BA
S31508002E3838B504460D4601B128B94521054842F07A
S31508002E48B0FE00E01C462368002BFBD12B602560EA
S31508002E5838BD00BFB809060810B5044630B1206861
S31508002E6818B1036823600023036010BD5621024881
S31508002E7842F097FEF3E700BFB809060810B582B016
S31508002E88002401943B485CF0E8F88DF800400323D9
S31508002E988DF8013001220421684600F0EDF8364B1A
S31508002EA80122C3F84424A3F550334FF400225A6686
S31508002EB8324BD3F8FC2012F0807206D01946D3F8A4
S31508002EC8FC3023F08073C1F8FC302D49D1F88030E6
S31508002ED823F0030343F00203C1F8803032B1274ACE
S31508002EE8D2F8FC3043F08073C2F8FC3001A90520FB
S31508002EF85CF0ACF800283BD1204BD3F8F02042F020
S31508002F080102C3F8F020D3F8FC2042F08072C3F817
S31508002F18FC20A3F55D431B4A1A60019B03F5D523DC
S31508002F2803F2FC43DB08184AA2FB03239B0A013B6E
S31508002F38164A13610223C2F8F0304FF48073C2F8B8
S31508002F4804334FF06043124AC3F8B02F114AC3F846
S31508002F58802ED3F8002E42F48072C3F8002EFF2282
S31508002F6883F82020D3F8002E22F48072C3F8002EA6
S31508002F7802B010BD4C18060800D0035000ED00E05A
S31508002F8800800050FF03004017916502000004E026
S31508002F9855CEACC5090001004FF06043D3F8803E12
S31508002FA813F0010F01D1112070470E4AD2F8FC30F0
S31508002FB843F08073C2F8FC304FF06043D3F8002E14
S31508002FC84FF0010C0CFA00FC42EA0C02C3F8002E7A
S31508002FD853F82030002BE8D04FF0604303F8201050
S31508002FE80020704700ED00E010B504460FE0012305
S31508002FF8834024EA03040F2814D800EB40020E4B3A
S3150800300803EB82035A6812B19968C0B2904794B123
S31508003018234600201F28EAD813F0010FE7D101300C
S315080030285B08F7E7103800EB40039B00B033024A09
S3150800303813440433E6E710BDCC20002008B50D4834
S315080030485CF00BF81A2009F0A1FB28B91B2009F037
S315080030589DFB40B9002008BD1A2009F0B1FB1A20CB
S3150800306809F084FBF2E71B2009F0AAFB1B2009F0EC
S315080030787DFBEFE74C1806082DE9F04170B10C46C0
S31508003088154606460F292FD803787BB1022B26D07A
S31508003098032B27D0012B07D0002309E093211848D2
S315080030A842F07FFD222717E00F2301E040F2FF7365
S315080030B87278D34013F0010F16D0124BD3F8107359
S315080030C8C7B95BF005FB80462A462146304605F017
S315080030D84FF940465BF0F7FA3846BDE8F08140F20A
S315080030E8FF33E5E73F23E3E79721054842F059FD13
S315080030F82127F1E79B21024842F053FD0227EBE717
S315080031080C0A060800C0035038B550B104460378BF
S315080031187BB1022B1FD0032B20D0012B07D000230D
S3150800312809E0E421114842F03CFD222012E00F2371
S3150800313801E040F2FF736278D34013F0010F0FD015
S315080031485BF0C6FA054620465AF016FE28465BF096
S31508003158BAFA002038BD40F2FF33ECE73F23EAE726
S31508003168E821024842F01DFD2120F3E70C0A06086B
S3150800317838B550B1044603787BB1022B1FD0032B10
S3150800318820D0012B07D0002309E0FC21124842F081
S3150800319808FD222012E00F2301E040F2FF7362784F
S315080031A8D34013F0010F0FD05BF092FA054620467C
S315080031B805F0A8F828465BF086FA002038BD40F2E4
S315080031C8FF33ECE73F23EAE74FF48071024842F001
S315080031D8E8FC2120F2E700BF0C0A060808B5084BE8
S315080031E8D3F82404D3F82024104000F0553020F0F2
S315080031F8A04003F50053C3F82004FFF7F5FE08BD01
S3150800320800C0035008B5084BD3F82404D3F8202483
S31508003218104000F0AA3020F0204003F50053C3F808
S315080032282004FFF7E1FE08BD00C00350F0B585B0DD
S315080032380C4694469DF83410664A1278002A00F01F
S31508003248BD800546BCF1070F00F2BA800A9A002A23
S3150800325800F0B8800B9A002A00F0B6800E9AB2F5EC
S31508003268006F00F3B38001285BD05B4A02EB0C12AF
S31508003278127B002A00F0AC8000220092019202928A
S315080032880392564A02EB4C1E002C4FD14FEA4C16B5
S3150800329800209051CEF80400CEF80800CEF80C00AD
S315080032A89EF8020040F010008EF802009EF803000F
S315080032B840F030008EF8030021B9C1B241F003018D
S315080032C88EF8031000930E9B013B444A4FEA4C10B4
S315080032D802EB4C11165A63F30E1616520A9B8B60AC
S315080032E80B9B4B60CB789DF83C2062F38303CB702D
S315080032F8012D36D0109B002B56D0374A4FEA0C11B1
S3150800330802EB0C1310985050119A5A6000249C60CE
S315080033185D7372466946604603F06CFA204605B046
S31508003328F0BD0C9A002AA0D12D48F8E72B4F4FEA92
S315080033384C1607EB4C120020B85150609060D060CC
S31508003348907840F010009070D07840F00300D07064
S315080033580029B7D107EB4C12C1B241F03001D17040
S31508003368B0E70E460A7B42F001020A73D2B242F06F
S3150800337802020A73CA68042161F39F02F26006F121
S31508003388100796E80F0087E80F00F2696FF0030147
S3150800339861F39F02F2610C9B7361012CAAD10B9A07
S315080033A8B2610C9A7260A5E7002DA6D10B4B03EB08
S315080033B84C139A786FF304129A709EE70948AEE799
S315080033C80748ACE70648AAE70548A8E70448A6E771
S315080033D80548A4E7C66F00203423002034220020BD
S315080033E8018000F0028000F0078000F0134B1B787C
S315080033F8FBB110B50446F0B15BF06AF90023072B58
S3150800340813D80F4A02EB0312127B0AB10133F6E707
S3150800341823600B4A190102EB031301241C730024C9
S3150800342854505BF050F9204602E05BF04CF9054829
S3150800343810BD054870470548FAE700BFC66F002063
S3150800344834230020048000F0028000F0018000F098
S3150800345838B55BF03DF904460023072B06DC0C4A11
S3150800346802EB0312127B12B90133F6E7002222B1E6
S3150800347820465BF028F9074838BD03F045F90025CA
S31508003488054B1D7020465BF01EF92846F4E700BF79
S3150800349834230020058000F0C66F00200F4B1B78E8
S315080034A8BBB110B50446072815D85BF011F90C4BC3
S315080034B803EB04131B7B1BB95BF005F909480BE002
S315080034C8074B03EB041300241C735BF0FCF8204637
S315080034D802E005487047054810BD00BFC66F0020C2
S315080034E834230020068000F0028000F0018000F0F6
S315080034F800B583B0134B1B68019300238DF804307D
S315080035085BF0E6F8104B1B7833B90F4B01221A709B
S315080035185BF0D9F8002309E05BF0D5F80B480EE014
S315080035280B4A02EB0312002111730133072BF7DD4F
S3150800353808238DF8073001A803F012F9002003B014
S315080035485DF804FB640A0608C66F0020038000F0CD
S315080035583423002010B5104C2478BCB1072817DC92
S315080035680E4C04EB0014247BA4B10C4C4FEA001E45
S3150800357804EB001C44F80E30029BCCF804300024F7
S31508003588CCF8084003F036F9204610BD0448FCE795
S315080035980448FAE70448F8E7C66F002034230020F1
S315080035A8028000F0018000F0078000F008B50A4B99
S315080035B81B785BB107280BD8084B03EB00131B7B5A
S315080035C843B1002103F0B6F8002008BD0448FCE71B
S315080035D80448FAE70448F8E7C66F002034230020B1
S315080035E8028000F0018000F0078000F008B50A4B59
S315080035F81B785BB107280BD8084B03EB00131B7B1A
S3150800360843B1012103F096F8002008BD0448FCE7F9
S315080036180448FAE70448F8E7C66F00203423002070
S31508003628028000F0018000F0078000F0F8B5194B19
S315080036381F6D5B6D1F4002D40125002402E0FEE7DA
S3150800364801346D00072C24D83D42F9D0124B1D656C
S315080036582301124AD358002BF2D002EB0416B1689C
S315080036680131B16072682046984780F00100C0B2FF
S31508003678737B012BE4D10028E2D0094B03EB4413F2
S315080036881A7B6FF341021A731A7F6FF341021A778E
S31508003698D6E7F8BD00000450002004503423002063
S315080036A8342200202DE9F04F89B005460E46144607
S315080036B89846C36B5B69012207A960689847EB6B54
S315080036C85B69012206A93046984707A843F08BFC90
S315080036D848B10027A77567754FF0FF33A3603846CA
S315080036E809B0BDE8F08F074606A843F08CFC01230D
S315080036F8A375237E033304EBC3035E6000221A8195
S315080037086368B3422AD02368834201D00023A3758D
S3150800371806A843F09DFC237D984201D00023A37593
S3150800372806A843F074FC814607A843F070FC814557
S3150800373801D00023A37506A843F071FC814607A8A3
S3150800374843F06DFC814501D00023A375237D043B16
S31508003758DBB2022B0BD80023A375C0E7206006A8A6
S3150800376843F076FC20754FF0FF33A360EEE706A812
S3150800377843F04DFC80B1EB6B5B69022204A9304625
S31508003788984704A843F056FC0346207D032867D8C3
S31508003798DFE800F0605A070D06A843F04BFC03461D
S315080037A8F3E7237E033304EBC303CC221A8143F0E1
S315080037B85FFC129B187094F8189006A843F01AFC38
S315080037C809F1030904EBC90989F80A00237E0333BA
S315080037D804EBC303B3F808A093F80AB006A843F0A5
S315080037E816FC814606A843F01AFC0390B9F1000FA7
S315080037F83CD0EB6B5B69022204A93046984704A8BB
S3150800380843F0D4FB6075637D03B9A375A37DA3B1A3
S31508003818BAF1000F11D0039BF1186B6C5B4286EA6C
S3150800382801021A4201D00023A3756B6C5A1E0A407E
S315080038389B1A9A4501D90023A375A37D8BB3BBF1BF
S31508003848000F18D1E77D2DE0227E033204EBC20271
S315080038581381ACE7227E033204EBC2021381A6E782
S31508003868227E033204EBC2021381A0E706A843F0BE
S3150800387886FB6075C7E70122E275627E42B9BBF12D
S31508003888010F01D01F460DE001216176174609E0B0
S31508003898BBF1010F37D0BBF1030F03D10122A27682
S315080038A800E01F4653B117B1BBF1010F06D95346BD
S315080038B8039A3146284642F0DFFCA060A37D13B17F
S315080038C8236953442361237E114A127893421CD2F2
S315080038D801332376B8F1000F13D0A37D8BB1E37DAE
S315080038E87BB177B9BBF1030F0BD0A168B1F1FF3FE4
S315080038F807D0129B0093012322462846FFF7D2FEDB
S31508003908A075A77DEBE61746CCE70023A375E1E784
S31508003918880A06082DE9F04F89B005460F469246EB
S315080039289B4600238DF80B304FF0FF31104600F008
S31508003938AFFFB7F5801F1DD30023009317F1020FB9
S3150800394807D0009B002B40F09E802B7C002B00F0B4
S315080039588C80EB6AB3F1FF3F2CD02A689B1A6A6CF5
S31508003968B3FBF2F917F1020818BF4FF00108002354
S3150800397801935DE00DF10A02394605F1080000F0E9
S31508003988D7FE0146B0F1FF3F11D0504600F080FF40
S315080039980DF10B0301225146284642F0ECFC009033
S315080039A80028CBD09DF80B308BF80030C6E70023EB
S315080039B80093C3E7696A284642F07FFB8146D1E748
S315080039C80123019337E09DF80B308BF80030324B12
S315080039D81A683249504658F069FD00942F4B996881
S315080039E8B1F1FF3F1BD06B6C5B4281EA06021A42B3
S315080039F815D12A4C204600F04BFF0DF10B03424621
S31508003A082146284642F0B7FC04460028E6D017F1B6
S31508003A18020FD8D0214B1B68BB42DFD1D3E74946F2
S31508003A28284642F04AFB8146019BCBB9009BBBB9A5
S31508003A386B6A4B45C4D02C686B6C03FB0944EB6B6B
S31508003A485B69052203A92046984703A843F0A7FB04
S31508003A5843F0CCFB204643F0D5FB06460146BFE7B4
S31508003A68009BA3B1B7F5801F03D3009B8BB1002039
S31508003A780AE09BF80030DAF80420394605F1080010
S31508003A8800F074FEF1E7002009B0BDE8F08F2D209C
S31508003A98FAE72D20F8E700BF840A0608282A002036
S31508003AA870B582B004464FF0FF33C3620DF10703C1
S31508003AB81A4A6FF00101FFF72DFF20BB174B9B68C9
S31508003AC8E362E56A2946204642F0E8F82063E8B149
S31508003AD82946204642F0C0FB0546A36AAB421BD0DE
S31508003AE82946204642F0DAF80646236B0344236340
S31508003AF82946204642F0B0FB0546002EEDD10023A4
S31508003B082363E062E9E7A36AE362DAE7E16A204643
S31508003B1842F0A2FBE062DBE702B070BD542A00203F
S31508003B2830B583B01C46032A14BF002201221B7E27
S31508003B389A4202D0012003B030BD0D4609682368B1
S31508003B489942F7D363689942F4D80DF10703114AE5
S31508003B58FFF7E0FE0028EDD10E4B5A686B689A42CB
S31508003B68E8D19DF80730032B14BF00230123227ED2
S31508003B789342DFD16369013363612369E26893423B
S31508003B88D8D2A268296842F8231023690133236129
S31508003B98D0E700BF542A00202DE9F04182B0044638
S31508003BA80E4690461F46816A06E01A4B9968B1F197
S31508003BB8FF3F1FD0012E23D0E06A884217D0B1F103
S31508003BC8FF3F14D0134D284600F062FE0DF1070397
S31508003BD801222946204642F0CEFB0028E5D03B467E
S31508003BE89DF8072029462046C0470028DDD102B09F
S31508003BF8BDE8F0815968204642F02EFB0146D9E710
S31508003C08044B5A68636C5B424A401A42D4D04FF058
S31508003C18FF31D1E7FC29002010B50446083000F02A
S31508003C284DFD0023024A19462046FFF7B5FF10BD89
S31508003C386D63040838B50446037C0BBB0246134972
S31508003C48083000F0DDFD616A204642F058FA421C49
S31508003C58616A204642F0A9F9054620B9236B626CC9
S31508003C681344143B2363A16A204642F0F5FAA0627E
S31508003C782368C01A636CB0FBF3F06062284638BD47
S31508003C880023034A0121FFF787FFDCE705670408D5
S31508003C98D3660408F0B589B080B30F4616461D46A4
S31508003CA8044690F834301BB90025284609B0F0BDFB
S31508003CB8012142F04FF901950E9B0293039704964A
S31508003CC80023059306939DF83C308DF81C30237C19
S31508003CD85BB901AA0A4904F1080000F091FD5EB92A
S31508003CE8069D204642F0D8FBDFE701AB054A0021CE
S31508003CF82046FFF751FFF2E7059DF2E70025D4E7CE
S31508003D08215F0408293B0008F0B58BB004460D4628
S31508003D18406AE36B5B69052205A92668676C07FB99
S31508003D280060984705A843F03AFA012836D0009467
S31508003D38002301938DF80850039301238DF810305A
S31508003D48A16AE36A99420FD0237CBBB96A4614492B
S31508003D5804F1080000F054FD019B13B99DF81030D2
S31508003D689BB901980BB0F0BD204642F075FAE0629F
S31508003D78236B626C9B1A14332363EDE76B46094A77
S31508003D8801212046FFF708FFE6E7626A2368616CA7
S31508003D9801FB0231E06B43F0B4F9E2E70020E1E702
S31508003DA8B53F0008353F00082DE9F04F89B00446AD
S31508003DB88A4691461D46002307930969026BCB1D5F
S31508003DC8406C1438B3FBF0F3013301EBC30191429D
S31508003DD800F2A7804E4677E03D2840F0928004908E
S31508003DE8BB4605961EE04FF000092368616C01FB87
S31508003DF80631E06B43F071F9204642F0B5F82046E3
S31508003E0842F051FA2063B9F1000F76D0DAF810209B
S31508003E18D31D616C1439B3FBF1F3013302EBC3020A
S31508003E2890423AD32368ABEB0309606CB9FBF0F907
S31508003E3809FB003043F0E6F98046E16A204642F07D
S31508003E480BFAA36A83422CD0E062374B9A68616CF6
S31508003E584B1E1340226B5B1A13442363ABEB08070C
S31508003E682368079EF61AB6FBF1F6B145BBD197B19A
S31508003E78E36B9B69BA08414698478146E36A3B441F
S31508003E88E362236BA8EB0B084344236304F1080099
S31508003E9800F014FCA9E7B946A7E7DDF810B0059EB7
S31508003EA802E0DDF810B0059EBBF1000F29D0DAF85C
S31508003EB81000226BC31D616C1439B3FBF1F301338F
S31508003EC800EBC30082421CD3E76ADFF85C803946F8
S31508003ED8404600F0DDFC07AB0293019500963B4689
S31508003EE842465146204642F002FD834600287FF4A2
S31508003EF873AFD8F80830E362D6E7DDF810B0059E48
S31508003F08D2E75F461FB1384609B0BDE8F08F2B46A1
S31508003F18054A5268DAF8001004F1080000F026FC91
S31508003F28F1E71C27EFE700BF282A0020F0B583B081
S31508003F381C46032A05D1237A012B33D0012003B066
S31508003F48F0BD06460F4615460DF10703164A0968D9
S31508003F58FFF7E0FC60600028EDD19DF80730032BD9
S31508003F68E9D0114B5A687B689A42E4D1237A012B27
S31508003F7808D13B69E26813447269934202D900235F
S31508003F882374D8E7E3683A6913440833E3602B4691
S31508003F98012239463046FFF707FF60600028CAD075
S31508003FA80020CCE7207CCAE7542A0020F0B583B065
S31508003FB8089C2668032A05D1237A012B4DD00120AF
S31508003FC803B0F0BD15460DF10703254A3046FFF73D
S31508003FD8A1FC60600028EFD12168214B5A688B6ADA
S31508003FE8486CC0F1000C5A4012EA0C0FE4D1227A48
S31508003FF8012A19D00F68DB1BB3FBF0F3CA6AD21B78
S31508004008B2FBF0F29A4219D0E36815490A691344D3
S315080040180833E3602B4601222068FFF7C5FE606077
S315080040280028C9D00020CBE70D4A1269E7683A4448
S315080040387769BA42DED900232374BDE7726CF16A40
S31508004048531E0B40316B9B1A0B4433632668B16ABF
S31508004058304642F001F9F062D6E7207CB0E700BFA7
S31508004068542A0020F8B56E4B1E6800221A600028EC
S3150800407800F0B6800D46044690F8343013B30A6843
S3150800408803689A4240F0AE804A6843689A4240F00C
S31508004098AC808A6883689A4240F0A980CA68C3686F
S315080040A89A4240F0A6800A6943699A4240F0A3807A
S315080040B88A69C36B9A4201D05D2594E04B6983618E
S315080040C8002590E0876B6822002158F098F9A763C5
S315080040D82B6823606B6863602B6963616B69A361EE
S315080040E8EA68A96804F1080000F0FAFAAB69E3631C
S315080040F89B6804F14000984730B9636C23B162683D
S31508004108B2FBF3F2E26101E00023E36194F843307D
S31508004118002B72D000232366656C002D6FD0E369E7
S31508004128002B6ED02368B3FBF5F205FB1233002B80
S3150800413869D16768B7FBF5F305FB1373002B64D1E0
S31508004148204641F09BFDA369034404339F425ED38E
S315080041586369B3F5805F5CD8CB2B5CD9B5F5805F0E
S315080041685BD30321204641F0F5FEE36B1B686168C3
S31508004178206898470546E36BDB6802209847EDB147
S31508004188636C143B5DB9266A03FB06F6204641F0C4
S3150800419875FDA369034404339E4200D25A25B5FA2D
S315080041A885F35B0984F834301BB11E4A136801335A
S315080041B8136085B1204642F06FF914E0314620466F
S315080041C842F0EDF805466428DAD13146204642F031
S315080041D8E6F80546D4E76168206842F079FEE9E71B
S315080041E8212500E05D252846F8BD5D25FBE75D2508
S315080041F8F9E75D25F7E75D25F5E72125F3E75B256B
S31508004208F1E75B25EFE75925EDE75925EBE75A2549
S31508004218E9E75F25E7E75F25E5E75B25E3E700BF0D
S31508004228B8230020B4230020F0B585B0A8B30C46FF
S3150800423817461E46054690F8343083B3B1F5801FF5
S315080042482FD2012141F086FE0DF10F03164A2146A9
S315080042582846FFF75FFB044630B99DF80F30012B57
S3150800426808D0022B17D02D24284642F015F92046E7
S3150800427805B0F0BD0C4B1B69B34201D06324F3E7C4
S3150800428800220192084B009333463946284642F0E5
S315080042980BF90446E8E76024E6E72124E7E7112452
S315080042A8E5E72924E3E700BF802A0020F0B585B0B2
S315080042B8002838D00C4617461E46054690F834306E
S315080042C89BB3B1F5801F32D2012141F043FE0DF1AF
S315080042D80F03184A21462846FFF71CFB044630B93F
S315080042E89DF80F30012B08D0022B1AD02D2428460A
S315080042F842F0D2F8204605B0F0BD0E4B1A690A9B63
S31508004308F3189A4201D26324F1E700230193094B73
S3150800431800930A9B32463946284642F0C5F80446B1
S31508004328E5E76024E3E72124E4E71124E2E7292402
S31508004338E0E700BF802A002070B582B058B30C4663
S315080043481646054690F834303BB3B1F5801F26D299
S31508004358012141F0FFFD0DF10703124A21462846BF
S31508004368FFF7D8FA044668B99DF80730032B10D02A
S31508004378022B01D0612406E00A49284642F07BFA56
S31508004388306000E02D24284642F086F8204602B020
S3150800439870BD2D24F7E72124F8E71124F6E7292428
S315080043A8F4E700BF802A0020F0B583B01C46002336
S315080043B8236070B30E461746054690F8343053B353
S315080043C8B1F5801F29D2012141F0C4FD0DF107037B
S315080043D8134A31462846FFF79DFA064680B99DF8DE
S315080043E80730032B13D0022B05D000233B600C4B58
S315080043F81B69236005E001233B600423236000E072
S315080044082D26284642F048F8304603B0F0BD2D263A
S31508004418F7E72126F8E71126F6E72926F4E700BF85
S31508004428802A002000B583B0044B009300231A465F
S31508004438194642F051FC03B05DF804FBFFFF0F0074
S3150800444800B583B0044B009300231A46194642F078
S315080044584DFC03B05DF804FBFFFF0F002DE9F84398
S315080044681D469DF820704369AB422FD304468846FB
S31508004478914642F0FFF8032F06D0266B29462046B8
S3150800448841F0ECFB864225D3134E4FF0FF313046F8
S3150800449800F0FEF9C6F800803561C6F80C903B4670
S315080044A8002231462046FFF77FFC0546236E73B186
S315080044B8204642F025FC94F8503013B994F8583041
S315080044C82BB1236E04F15000984700E06225284670
S315080044D8BDE8F8831C25FAE7542A00202DE9F0419F
S315080044E884B000283AD00C4690461F46054690F8F0
S315080044F83430ABB3B1F5801F34D2022141F02AFD1E
S315080045080DF10F03184A21462846FFF703FA18B98A
S315080045189DF80F30012B0FD0012300933B464246E6
S3150800452821462846FFF79AFF0646284641F0B4FF73
S31508004538304604B0BDE8F0810B4B1B69BB42EBD192
S3150800454801230193084B00933B460022414628461F
S3150800455841F0AAFF06460028E7D0DDE72126E7E767
S315080045681126E5E72926E3E7802A002070B586B0F4
S315080045780392C0B30C46054690F83430ABB3B1F590
S31508004588801F34D2022141F0E5FC0DF11703194AC0
S3150800459821462846FFF7BEF9064638B99DF817306A
S315080045A8032B03D0022B10D0612608E002230093C0
S315080045B8CC2303AA21462846FFF750FF0646284675
S315080045C841F06AFF304606B070BD0A49284642F0EF
S315080045D852F9039A8242F2D003460649284642F01F
S315080045E8BCFB0646EBE72126ECE71126EAE729266F
S315080045F8E8E700BF802A002030B585B048B30C46E6
S31508004608054690F8343033B3B1F5801F25D2022118
S3150800461841F0A0FC0DF10F03114A21462846FFF781
S3150800462879F978B99DF80F30032B01D12D240AE0C2
S315080046380323009300231A4621462846FFF70EFF50
S31508004648044600E02D24284641F026FF204605B0FA
S3150800465830BD2124FAE71124F8E72924F6E700BF34
S31508004668802A0020036853F83100C0F31300704706
S31508004678036853F83100C0F307507047036803EB23
S31508004688C1035868704700BF006850F831301B0DE1
S315080046981B05134340F83130704700BF006850F8CF
S315080046A83130C3F3130343EA025340F831307047F5
S315080046B8036803EBC1035A60704700BF002309E08B
S315080046C802684FF0FF3142F83310026802EBC30262
S315080046D85160013342689A42F2D800230372704740
S315080046E808B501604260FFF7E9FF08BD0023426884
S315080046F89A421BD910B403E0013342689A4212D988
S3150800470804684FEAC30C54F83320B2F1FF3FF3D0DC
S31508004718C2F313029142EFD14FF0FF3244F80C204E
S31508004728036863445A605DF8044B7047704700BFD6
S3150800473810B5002300E0013344689C4212D9046886
S315080047484FEAC30E54F83340B4F1FF3FF3D0C4F32D
S31508004758130C6145EFD1C4F3075414700368734406
S31508004768586801E04FF0FF3010BD00BF2DE9F0474B
S31508004778456806467DB30F46914698460024D0F804
S3150800478800A05AF83430013305D021463046FFF7E1
S3150800479869FFB84210D00134A542F2D1002402E0DC
S315080047A80134A54214D05AF834300133F8D13A46C0
S315080047B821463046FFF768FF424621463046FFF74E
S315080047C86DFF4A4621463046BDE8F047FFF770BFF9
S315080047D8B8F1030F03D101233372BDE8F08700242B
S315080047E802E00134A542F6D021463046FFF740FFDD
S315080047F80328F6D13A4621463046FFF745FFDBE758
S315080048082DE9F0439146426883B00AB305468846BF
S3150800481800242B6853F83430013316D0214628462D
S31508004828FFF720FF214607462846FFF721FF2146BE
S3150800483806462846FFF722FF3946034632462846E3
S31508004848CDF80090C04718B16A6801349442E0D39D
S3150800485803B0BDE8F08300BF08B5034B1968034BDE
S315080048681868FFF7FFFB08BDE47D0020047E0020DA
S3150800487808B559F024FF014B186008BDAC2A00207A
S3150800488808B5024B186859F015FF08BDAC2A002070
S3150800489838B504460D46094B1A68002157F0AFFD8E
S315080048A84FF0FF32226065600023A3752361A2607A
S315080048B8E3756376A376237638BD00BF840A0608AF
S315080048C82DE9F04186B006460D46174698465868BB
S315080048D842F0DCFB4403A4B298F803301B0303F444
S315080048E880531C4498F80230DB0203F400631C4426
S315080048F8B8F80030C3F30A031C441B4B0193002184
S31508004908384642F0CDFB02900121384642F0C8FBF2
S3150800491803904FF0FF3304936FEA04446FEA144494
S315080049280594B369012205A905F1100098470446BC
S31508004938B369012203A905F108009847074600B993
S315080049482746B369012202A9281D9847044600B9D3
S315080049583C46B369012201A92846984700B920466A
S3150800496806B0BDE8F08100BF01009AB2024B4FF4C9
S3150800497880321A67704700BF0090005070B5044629
S315080049880D4616461F2906D856B104F58054012344
S31508004998AB40236070BD9121034841F002F9F3E763
S315080049A804F50054F3E700BF8C0A060838B505462F
S315080049B80C46114BD3F8803003F00303022B13D0AF
S315080049C8032B15D0012B07D041F214210B4841F0CF
S315080049D8E8F80023184602E057F0A8FF0D2305B1AA
S315080049E8286004B1236038BD57F0DAFF0723F6E7D5
S315080049F857F096FF0623F2E700800050DC0A0608FF
S31508004A0838B505460C46194BD3F8200100F00700BF
S31508004A1806281DD8DFE800F0240408100C1418002E
S31508004A2857F07EFF05231CE057F0B4FF032318E070
S31508004A3857F0B6FF072314E057F0A8FF022310E043
S31508004A4857F06EFF06230CE057F0A4FF042308E08E
S31508004A5841F29121064841F0A4F80023184600E0DF
S31508004A68012305B1286004B1236038BD00800050D1
S31508004A78DC0A060838B505460C46184BD3F828311B
S31508004A8803F00703013B052B20D8DFE803F00313DF
S31508004A981B0F0B1757F044FF052305B1286004B10F
S31508004AA8236038BD57F03CFF0623F6E757F078FF32
S31508004AB80723F2E757F06EFF0323EEE757F06AFF7E
S31508004AC80423EAE757F062FF0223E6E741F2990171
S31508004AD8034841F066F800231846DEE700800050D0
S31508004AE8DC0A060830B583B005460C460023019350
S31508004AF8174BD3F8203203F00703042B19D8DFE83D
S31508004B0803F01F03090E1300002101A8FFF7B2FFDF
S31508004B18112316E057F044FF0190072311E059F0D6
S31508004B28C3FD01900A230CE057F084FF019009237E
S31508004B3807E041F25601074841F033F8002300E040
S31508004B4801230DB1019A2A6004B1236003B030BD70
S31508004B5800800050DC0A060870B582B006460D4685
S31508004B6800230193134BD3F8804104F00304022C65
S31508004B781BD0032C14D0012C06D041F2E6310E487E
S31508004B8841F00FF8002404E0002101A8FFF738FFD8
S31508004B980F240EB1019B336005B12C6002B070BDBD
S31508004BA857F0FEFE01900724F3E757F0EFFE019051
S31508004BB8EFE700BF00800050DC0A060838B505464E
S31508004BC80C46124BD3F8400100F0030003280FD80F
S31508004BD8DFE800F01602060A59F066FD0A2310E017
S31508004BE857F028FF09230CE059F061FD0B2308E06C
S31508004BF841F2C321064840F0D4FF0023184600E0D6
S31508004C08012305B1286004B1236038BD008000502F
S31508004C18DC0A060838B505460C46154BD3F80002D3
S31508004C2800F00700042815D8DFE800F01C03070B76
S31508004C380F0059F039FD0A2315E057F0FBFE092342
S31508004C4811E059F034FD0B230DE057F089FE800A70
S31508004C580E2308E041F2A441064840F0A2FF0023CB
S31508004C68184600E0012305B1286004B1236038BD61
S31508004C7800800050DC0A060838B505460C46154B70
S31508004C88D3F8080200F00700042815D8DFE800F072
S31508004C981C03070B0F0059F007FD0A2315E057F008
S31508004CA8C9FE092311E059F002FD0B230DE057F060
S31508004CB857FE800A0E2308E041F2DC41064840F018
S31508004CC870FF0023184600E0012305B1286004B1E7
S31508004CD8236038BD00800050DC0A060838B505464A
S31508004CE80C46124BD3F8400200F0030003280FD8ED
S31508004CF8DFE800F01602060A59F0D6FC0A2310E087
S31508004D0857F098FE09230CE059F0D1FC0B2308E06C
S31508004D1841F26341064840F044FF0023184600E084
S31508004D28012305B1286004B1236038BD008000500E
S31508004D38DC0A060838B505460C46114BD3F8503236
S31508004D4803F00303022B17D0032B09D0012B0FD02E
S31508004D5841F2C9010B4840F024FF0023184602E037
S31508004D6859F0A5FC0B2305B1286004B1236038BDAA
S31508004D7859F09AFC0A23F6E757F05CFE0923F2E78E
S31508004D8800800050DC0A060830B583B005460C4694
S31508004D9800230193174BD3F8603203F00703013B4E
S31508004DA8032B1FD8DFE803F0020E1914002101A807
S31508004DB8FFF726FE0F230DB1019A2A6004B1236076
S31508004DC803B030BD002101A8FFF7F8FE1023F2E76B
S31508004DD857F0E6FD01900723EDE757F0D7FD019058
S31508004DE80223E8E741F2FD01034840F0DAFE002312
S31508004DF8E1E700BF00800050DC0A060830B583B03A
S31508004E0805460C46002301930E4BD3F8703203F07F
S31508004E180303012B08D0022B0CD041F25B110A4878
S31508004E2840F0BFFE002306E0002101A8FFF7C6FEF2
S31508004E38102300E014230DB1019A2A6004B12360F7
S31508004E4803B030BD00800050DC0A060838B50546B0
S31508004E580C460E4BD3F8903203F00303012B09D006
S31508004E68022B0BD157F09CFD072305B1286004B126
S31508004E78236038BD57F08AFD0223F6E741F285110B
S31508004E88034840F08EFE00231846EEE700800050DF
S31508004E98DC0A060838B505460C46124BD3F86001F5
S31508004EA800F0030003280FD8DFE800F01602060A08
S31508004EB859F0FAFB0A2310E057F0BCFD09230CE069
S31508004EC859F0F5FB0B2308E041F2F521064840F0B6
S31508004ED868FE0023184600E0012305B1286004B1DE
S31508004EE8236038BD00800050DC0A060838B5054638
S31508004EF80C46124BD3F8000100F0030003280FD81C
S31508004F08DFE800F01602060A57F044FD032310E00E
S31508004F1857F090FD09230CE059F0C4FB082308E074
S31508004F2841F24A21064840F03CFE0023184600E0B4
S31508004F38012305B1286004B1236038BD00800050FC
S31508004F48DC0A0608F8B505460F46144659F0B7FBB5
S31508004F58064645B12B685C403C405C402C603046B0
S31508004F6859F0A8FBF8BD4FF49C71024840F019FEA9
S31508004F78F0E700BF8C0A060810B5B0F5207F2FD0D9
S31508004F881DD8B0F5007F25D02FD810B1B0F5C07F51
S31508004F9813D1174B1C6F230BC4F3033413F00E0FEE
S31508004FA824D048F28803E34013F0010F1ED14FF4CA
S31508004FB82271104840F0F5FD18E0002416E0B0F517
S31508004FC8607F05D10A4BD3F88040C4F301140DE07D
S31508004FD800240BE0064BD3F89040C4F3046405E0BC
S31508004FE8034B1C6FC4F3802400E00024601C10BD2A
S31508004FF800800050DC0A060838B505460C46174BEB
S315080050084FF480329A660020FFF7B6FF05FB00F0DA
S31508005018134BDA6902F4803241F67131D9635B6859
S3150800502823F440136CB90F49884207D800210B436B
S315080050380B494B600AB10022CA6338BD4FF4801188
S31508005048F5E7002C07DD0849884201D80021EEE774
S315080050584FF48011EBE74FF44011E8E70090005051
S3150800506800000350005A6202002D310138B5044683
S315080050780D46430905D0012B16D0022B0DD10B4836
S3150800508805E040F235310A4840F08BFD00202A46F3
S3150800509804F01F01FFF772FC38BD40F2433104489B
S315080050A840F07FFD0020F2E70248F0E768800050EC
S315080050B8DC0A06086480005010B582B00023019304
S315080050C80093B0F5807F00F20781B0F5807F00F283
S315080050D8D381DFE810F08901D101D101D101D101CD
S315080050E8D101D101D101D101D101D101D101D1011A
S315080050F8D101D101D101D101D101D101D101D1010A
S31508005108D101D101D101D101D101D101D101D101F9
S31508005118D101D101D10189018D0189018D01A4012E
S31508005128A401A401A401A4018D0163019801B30196
S31508005138B80198018D018D018D01D101D101D101E7
S31508005148D101D101D101D101B3018D018D018D01A3
S31508005158CC012F018D01D101D101D101D101D10194
S31508005168D101D101D101D101D101D101D1016E01FC
S31508005178A401890189018901BD0198019801C20123
S315080051887E01A90118011801D101D101D101D10166
S315080051988901D101D101D101D101D101D101D101B1
S315080051A8D101D101D101D101D101D101D101D10159
S315080051B8D101D101D101D101D101D101D101D10149
S315080051C8D101D101D101D101D101D101D101D10139
S315080051D8D101D101D1018301D101D101D101D10177
S315080051E8D101D101D101D101D101D101D101D10119
S315080051F8D101D101D101D101D101D101D101D10109
S31508005208D101D101D101D101D101D101D101D101F8
S31508005218D101D101D101D101D101D101D101D101E8
S31508005228D101D101D101D101D101D101D101D101D8
S31508005238D101D101D101D101D101D101D101D101C8
S31508005248D101D101D101D101D101D101D101D101B8
S31508005258D101D101D101D101D101D101D101D101A8
S31508005268D101D101D101D101D101D101D101D10198
S31508005278D101D101D101D101D101D101D101D10188
S31508005288D101D101D101D101D101D101D101D10178
S31508005298D101D101D101D101D101D101D101D10168
S315080052A8D101D101D101D101D101D101D101D10158
S315080052B8D101D101D101D101D101D101D101D10148
S315080052C8D101D101D101D101D101D101D101D10138
S315080052D8D101D101D101AE01B0F5F06F00F0C78058
S315080052E816D9B0F5206F00F0B8805CD9B0F5306FE4
S315080052F800F0B8806AD9B0F5386F00F09F80B0F52D
S31508005308406F40F0B980002101A8FFF7B3FB68E0B9
S31508005318B0F5806F00F0838011D9B0F5C06F00F042
S315080053288D8035D9B0F5D06F00F08D80B0F5E06F77
S3150800533840F0A280002101A8FFF7D0FC51E0B0F5A3
S31508005348207F55D013D9B0F5407F5CD0B0F5607F83
S3150800535840F0928000216846FFF728FB009C4FF42E
S315080053686070FFF709FEB4FBF0F4019439E0B0F574
S31508005378C07F39D0B0F5007F7ED157F0D7FA0446FA
S315080053884FF40070FFF7F8FDB4FBF0F4019428E039
S31508005398B0F5A06F48D0B0F5B06F6DD1002101A85F
S315080053A8FFF7DAFB1DE0B0F5106F51D0B0F5186FAE
S315080053B804D1002101A8FFF7BDFC12E0B0F5086F7B
S315080053C85AD1002101A8FFF791FD0AE0B0F5286F28
S315080053D852D1002101A8FFF711FD02E057F0A6FAFD
S315080053E80190019802B010BD57F0BAFA0190F8E793
S315080053F857F0B6FA04464FF42070FFF7BDFDB4FB24
S31508005408F0F40194EDE757F0ABFA04464FF4207030
S31508005418FFF7B2FDB4FBF0F464080194E1E7002154
S3150800542801A8FFF7EDFADCE7002101A8FFF75AFB08
S31508005438D7E7002101A841F027FFD2E7002101A8F4
S31508005448FFF7BCFBCDE7002101A8FFF7E3FBC8E798
S31508005458002101A8FFF710FCC3E7002101A8FFF700
S3150800546893FCBEE7002101A8FFF7F0FCB9E7002185
S3150800547801A8FFF70FFDB4E740F2A441014840F040
S3150800548890FBAEE7DC0A060808B58020FFF714FE8D
S31508005498034B984203D8034B4FF480321A6708BD6A
S315080054A8005A620200A0005000B583B00023019399
S315080054B8B0F5607F00F0C88042D8802837D82428FD
S315080054C8C0F0DB8024385C2800F2D780DFE800F0DB
S315080054D86969696969D55ED5B271D5D5D5D5D5D580
S315080054E8D5D5D5D5D5B2D5D5D553C6D5D5D5D5D50A
S315080054F8D5D5D5D5D5D5D5D5CB69D5D5D584D5D50D
