S016000044485431315F434F41505F5A4732382E733337B0
S3150800000000100020095C00081BE604081BE604082B
S315080000101BE604081BE604081BE604081BE604089E
S315080000201BE604081BE604081BE604081BE604088E
S315080000301BE604081BE60408B9A800081BE6040822
S315080000401BE604081BE604081BE604081BE604086E
S315080000501BE604081BE604081BE604081BE604085E
S315080000601BE604081BE604081BE604081D3C0008FA
S3150800007035D804081BE604081BE604081BE6040832
S315080000801BE604081BE604081BE604081BE604082E
S315080000901BE604081BE60408716400081BE604084E
S315080000A01BE604081BE604087D6000085D6000087E
S315080000B01BE604081BE60408C9ED0108C1F8010897
S315080000C0097705080577050839F001081F77050837
S315080000D00D77050891F801081177050801F9010857
S315080000E0EDF901081BE604081BE604081BE60408EC
S315080000F01BE604081BE604081BE604081BE60408BE
S315080001001BE604081BE604081BE604081BE60408AD
S315080001101BE604081BE604081BE604081BE604089D
S315080001201BE604081BE604081BE604081BE604088D
S315080001301BE604081BE604081BE604081BE604087D
S315080001401BE604081BE604081BE6040821AF0008A2
S315080001501BE604081BE604083B86060815D10108B9
S315080001601BE604081BE60408F9760508FF76050869
S311080001701BE604081BE604081BE604084E
S3150800017CF0B5114A114C124E00F00105E3695F0700
S3150800018C13D40DB9334213D103EA00078F4207D1B2
S3150800019C0B4A1A40002A0CBF00206FF00100F0BD74
S315080001AC013AEBD16FF00200F9E74FF0FF30F6E7B2
S315080001BC6FF00100F3E700BF80969800000003502B
S315080001CC0200010070B50B4BD96911F480310DD1C1
S315080001DC01244FF48072084E084DF46020462C64B6
S315080001EC1A61FFF7C5FF3464EC6070BD6FF001004F
S315080001FCFBE700BF0000035000100350002003501B
S3150800020C38B54FF480320E4B0E4C9A66E56941F6BA
S3150800021C713315400122E3630B4B0021DA6002238C
S3150800022C606121202361FFF7A3FF10B92120FFF796
S3150800023C9FFF0122054BDA600DB10023E36338BD3D
S3150800024C009000500000035000100350002003508B
S3150800025C70B5134C6061E3695B071ED40E4656F8FD
S3150800026C043B8D18A361AE420BD104230021212037
S3150800027C2361FFF77DFF58B9BDE870402120FFF7D1
S3150800028C77BF08210846FFF773FF10B104232361D3
S3150800029C70BD56F8043BA361E5E74FF0FF30F7E76E
S315080002AC000003502DE9F84315464FF48032184BDD
S315080002BC89469A6603F51C33DF690646174041F6EC
S315080002CC7132DA63012203F58053DFF84C80DA6069
S315080002DC55B9284601220F4BDA601FB10022A3F547
S315080002EC0053DA63BDE8F88306F5005404EA0804FB
S315080002FCA41BAC4228BF2C46494622463046FFF77B
S3150800030CA7FF0028E6D12644A1442D1BE0E700BF31
S3110800031C009000500020035000E0FFFF96
S315080003282DE9F04100231546C2E900014FF47A7217
S3150800033880460F464CF0CAF918A3D3E900230446A9
S315080003480E46404639464CF0C1F9134B80B228810F
S315080003585843241A66F100064FF4616200232046C2
S3150800036831464CF0B3F94FF46163C0B2A8725843EA
S31508000378241A20464FF03C024FF0000366F10001AC
S315080003884CF0A4F9C0B2E872C0EB0010A4EB8004E4
S315080003982C73BDE8F08100BF80510100005C26057A
S315080003A800000000000000002DE9F04F93B0CDE9E9
S315080003B80A32DDE91C530E9353EC102BCDE90801DC
S315080003C8104619468DED060B1E9E4BF057FF80B159
S315080003D8DDE906014FF0FF32C54B4BF077FF40B910
S315080003E8DDE906014FF0FF326FF480134BF050FF3A
S315080003F870B1DDE908019DED060B0E9B1E96CDE949
S315080004081C53DDE90A3213B0BDE8F04F00F088B98D
S315080004180022DDE9060100234BF03AFF002800F028
S315080004283381DDE906A303F1004BCBF30A5016F432
S315080004388063A0F2FF3008BF06250F934BF04CFCEB
S315080004489BA3D3E900234BF0B1FC9BA3D3E9002374
S315080004584BF0F6FACBF31304894644F07F518046ED
S315080004680022A44B504641F440114BF0E7FA94A3F6
S31508000478D3E900234BF09AFC02460B464046494608
S315080004884BF0DEFA4BF02CFF04464BF025FC8EA306
S31508000498D3E90023804689464BF088FC0022964B10
S315080004A84BF0CEFA4BF01CFF89A3D3E90023074685
S315080004B8494640464BF07AFC8046384689464BF012
S315080004C80BFC85A3D3E900234BF070FC02460B46C8
S315080004D8404649464BF0B2FA02460B46CDE90C238C
S315080004E84BF064FCDDE90C2380468946104619461C
S315080004F84BF0A6FA0022CDE91001804B4046494642
S315080005084BF07EFD00227E4B4BF09AFA02460B46CC
S31508000518404649464BF074FD00227A4B4BF090FA58
S3150800052802460B46404649464BF06AFDDDE90C2370
S315080005388046894600204FF080414BF07FFA0246F4
S315080005480B46404649464BF07BFA02460B46DDE920
S3150800055810014BF055FD07F2FF3700226A4B4BF0A6
S315080005686FFA00223B054BF021FC52465B46804653
S3150800057889464BF0ABFE002840F08980CDE90C8906
S3150800058804F16303C72B34BF0427052731051BD598
S3150800059853A3D3E90023504659464BF08DFE00284D
S315080005A87FD051A3D3E90023504659464BF070FE35
S315080005B8002876D00027A542C6BF2C1B04F1FF35B4
S315080005C800253C4646F480660E9B9F422CBF4FF09A
S315080005D80008A3EB070816F0020903D0002F18BF76
S315080005E84FF000083CB1DDE90C23504659464BF05C
S315080005F807FD82468B46DDE90601002200234BF0FB
S3150800060847FE10B10BF100439B46DDE9080126F4C5
S315080006180063CDE90183DDE90A324BEC10AB00959E
S3150800062800F07EF802465FB3DDE9091316F0200FDD
S3150800063800F10105089E0CBF65204520B047DDE995
S3150800064808010523002205930A23002CCDE9023266
S3150800065807F1FF374FEAD473B8BF64422A460193B5
S3150800066804970A9B009456F0BAFA0246B9F1000FA5
S3150800067806D00B9BC41A0B9B1A190E9BA34245D886
S31508000688104613B0BDE8F08FDDE906ABCDE60022CB
S31508000698404649461A4B4BF0B3FC013CCDE90C01E0
S315080006A86EE7002D90D00F9B002B8DD0013D8BE770
S315080006B8FB799F501344D33FB3C8608B288AC63F3B
S315080006C861436F63A787D23F71A379094F930A409D
S315080006D81655B5BBB16B0240EF39FAFE422EE63F16
S315080006E82D431CEBE2361A3F0000000080842E4199
S315080006F8FFFFEF7F0000F83F0000E03F00002C40B6
S3150800070800002440000018400000F03F2020DDE9E2
S315080007180913089DA8470134ADE700BF000000008B
S315080007282DE9F04F97B05BEC10ABDDE92057CDE922
S315080007380501CDE90723504652465B465946229E8F
S315080007484BF09CFD70B90323CDE902760193B04BB3
S315080007580093DDE90501DDE9072356F060F917B0CE
S31508000768BDE8F08F4FF0FF326FF4801350465946B4
S315080007784BF08EFD28B10423CDE902760193A54BEB
S31508000788E6E74FF0FF3250465946A34B4BF09EFD1D
S3150800079868B1A24A06F00403002B08BF0322A04B3F
S315080007A81CBF13460422CDE902760192D0E75046CB
S315080007B893A3D3E9002359464BF088FD38B992A389
S315080007C8D3E90023504659464BF062FD68B1DDE986
S315080007D80723DDE905014BEC10ABCDE92176209519
S315080007E817B0BDE8F04FFFF7DFBD002200235046DB
S315080007F859464BF04DFD002800F09A805B46524654
S31508000808002000214BF01AF9012382468B460993EA
S3150800081816F4806400F08E80092D40F28E8000243C
S3150800082830210EABA5F109020134202C03F8011B6F
S31508000838A5EB040901D09442F6D1594650464BF027
S315080008484FFD784B054603EBC90393ED007B8DED09
S315080008580A7B4BF041FA02460B46504659464BF07E
S31508000868EDF8DDE90A234BF0A1FA02460B46CDE975
S315080008780C234BF05DFD80464BF01EFA02460B46EC
S31508000888DDE90C014BF0DAF802460B46CDE90C23F4
S315080008980022654B4BF01AFD002851D008F10108D3
S315080008A840464BF009FA02460B46DDE90A014BF0C9
S315080008B8F9FC10B14FF000080135B9F1000F50D115
S315080008C828464BF009FA02460B46504659464BF05D
S315080008D8B5F80022544B804689464BF0D9FC30B10E
S315080008E8002240464946504B4BF0F0FC10B1E80749
S315080008F800D501350A210EAB1A19202C0AD095FB0A
S31508000908F1F001FB1055303502F8015B0134054654
S315080009180028F2D106F00302012A57D1002F55D034
S31508000928099A12B916F00C0F00D0013F302245E09B
S3150800093809906DE74FF006097FE7A94600247CE78A
S315080009480022DDE90C01384B4BF0A2FC0028B4D193
S31508000958B8F1000F02D018F0010FAED008F101085F
S31508000968ABE70A210EAB2344202C0ED0B8FBF1F0D6
S3150800097801FB1082B8F1090F02F1300209F1FF39BB
S3150800098804F1010403F8012B11D83021A1440EAA59
S31508000998202CAFD0A14504F101030AD11C4609F160
S315080009A858030DEB03092E2309F8203CA2E78046D5
S315080009B8DAE7A1541C46EBE71A550134A74205D9CC
S315080009C8202CF9D1CDE902760194C1E6202CF9D07C
S315080009D8099A3AB12D2104F158026A4402F8201CF2
S315080009E80134EFE7710704D504F158022B216A444C
S315080009F8F4E73207E6D504F1580220216A44EDE700
S31508000A080000000065CDCD410000000065CDCDC1D0
S31508000A1843D8060847D80608FFFFEF7F3AD80608DE
S31508000A283FD8060850D806080000E03F0000000036
S31508000A38F0B5934C9FB02288A3780021ADF80C2016
S31508000A4813A82C228DF80E3065F00AF84FF00233F9
S31508000A58159340F20B130AAD0434ADF874300FCC75
S31508000A680FC50FCC0FC52368864A2B60864B874D62
S31508000A7806930023CDE9073309934FF0FF33284639
S31508000A8883492B601FF0BAF80446002853D1286812
S31508000A98431C06D140F2A4417E4B7F4A7F484BF05F
S31508000AA8A5FF03A91FF0E8F80446002843D12868DB
S31508000AB856F000FA7A4E7B4F3070286856F0FCF9E3
S31508000AC83870286856F0FAF9774B78491870286804
S31508000AD81FF0D0FB044600282DD13378744E4BB945
S31508000AE8744823F0CFFD3060D0B940F2DC41724B30
S31508000AF8694AD3E7714823F0C5FD30600028EFD06E
S31508000B08C18928681FF01AFB33682146586823F0FC
S31508000B18F3FD044678B9674823F0B4FD306090B110
S31508000B28C18928681FF00AFB33680421586823F02E
S31508000B38E3FD044638B1234622210220604A57F0CD
S31508000B4851F91FB0F0BD08F0E3FD5E4BCDE904018D
S31508000B5804AAA3F1080112F8010B03F8010D99423A
S31508000B68F9D13B78002B46D15749286856F0CEFE6E
S31508000B7804460028DFD15549286856F0B1FE0446D0
S31508000B880028D8D1524928681FF078F90446002861
S31508000B98D1D139A3D3E90023CDE90023286856F033
S31508000BA8B7FE04460028C6D14A4A4B49286856F073
S31508000BB80FFF04460028BED1484A4949286856F016
S31508000BC80BFF04460028B6D1012128681FF072F8E1
S31508000BD804460028AFD1A023424A06A8D380424A31
S31508000BE8136008F069FE414B186088B940F2255130
S31508000BF83F4B294A52E71C22002116A864F030FF09
S31508000C08286813A91FF03CFD04460028ACD092E7D3
S31508000C1822460121082008F0A9FF364B186020B99A
S31508000C284FF4A561344B1C4A38E7224601210820AF
S31508000C3808F09CFF314B186020B940F22B51304B15
S31508000C48154A2BE72F4A3049304825F04BFB2F48E1
S31508000C583FF0A8FF00212E480AAA08F0E1FE2D4B0E
S31508000C68186000287FF46DAF40F237512A4B0A4ABC
S31508000C7814E700BFAFF30080C88D01C10340000028
S31508000C8858560708ED430208734B0708444E0020D8
S31508000C9870B40020884B07085955070842490708C1
S31508000CA83BA400203AA4002039A40020070011001C
S31508000CB8003E00203F910508AF4B07082991050813
S31508000CC83A4C070844A400205656070854560708FD
S31508000CD8484E002006B60020D814002008B6002082
S31508000CE83C3E0020B0B40020B04E0020C44E002080
S31508000CF8C74B0708C04E0020E34B0708BC4E002028
S31508000D08004C0708204C0708A9480208644E00202A
S31508000D18115A0208C84E0020294C0708000000008E
S31508000D282DE9F34705465A4C22211020594A57F00F
S31508000D3859F814222946204664F0FBFEA27B564B36
S31508000D48DFF8A0A11A70637C00228AF80030002315
S31508000D58CDE90023DFF8908100224FF40073D8F814
S31508000D68000056F0D5FD064620B10126304602B0E9
S31508000D78BDE8F087494B4A4F1B787BB9494823F0A9
S31508000D8881FC04463C60FCB9474A2221022057F0F8
S31508000D9829F80122454B21261A70E7E7444B454CAA
S31508000DA81A88454BD8F8000053F82210434A8B682E
S31508000DB821603B601FF04CF82268414B9468242256
S31508000DC81B8802FB0344DDE73E4B1C60394BD3F80E
S31508000DD80090B9F1000F07D000232420D9F80C1089
S31508000DE88B4208D100251AE040F2ED71364B374A96
S31508000DF837484BF0FBFDD9F8085000FB0355EA695C
S31508000E085278120912F00E0F2BD0052A29D8314B21
S31508000E180021EA89B3F900003D6023F0A5FC1AA36E
S31508000E28D3E90023CDE90023D8F8000056F070FD71
S31508000E38D9F80820AA4207D0274B3A600421D28954
S31508000E48B3F9000023F090FC244BE2893C601A8031
S31508000E58234B1B783BB924F08FFC012024F01AF9A0
S31508000E6884E70133BCE79AF800301B0913F00E0F24
S31508000E78F1D101220721D8F8000056F077FE00289C
S31508000E88E9D072E7AFF30080C88D01C103420000BC
S31508000E98043E00200F50070830A4002034A4002080
S31508000EA8003E0020E94702082B50070832A4002014
S31508000EB8B6570020F43D002058AF0020F943020831
S31508000EC8B4570020FC3D0020675007081754070848
S31508000ED8424907080AB600200CB6002000B60020CA
S31508000EE83AA400202FA40020444E00200000000049
S31508000EF82DE9F84390F8E861054644683EB90220AA
S31508000F082721414A56F06EFF3046BDE8F88394F922
S31508000F180130002B1ADA731E5BB2637000EB4313B9
S31508000F2893F825302370A0684AF0E8FE32A3D3E97F
S31508000F3800238046894694F901704BF0C7F9F8B141
S31508000F48002F1DDD013F0023677024E09E422278AA
S31508000F5805DD00EB431393F825309342E3D00023CD
S31508000F6805F1250163705801085C904208BF637053
S31508000F7801339E42F7D8731E637000232371D2E7A4
S31508000F8840461FA3D3E9002349464BF09FF9F0B121
S31508000F982379E3B1013B237194F9013005F5F5701E
S31508000FA805EB431393F82530237085F8EA310523B2
S31508000FB895F8022285F8EC3185F8F02100230E22EF
S31508000FC885F8EB3185F8F22185F8F1319DE7404639
S31508000FD80BA3D3E9002349464BF05AF90028DBD07E
S31508000FE823790133DBB2092B2371D5D9013EBE42D9
S31508000FF8D2DD0137A7E700BF666666666666E63F1E
S315080010089A9999999999B93FE21708080000000032
S315080010182DE9F8432DED028B8768054638461646AE
S315080010280C464AF06BFE28A3D3E900238046894676
S315080010384BF04CF988BB26A3D3E90023404649461A
S315080010484BF026F960BBF7EE007A07EE107A87EEC2
S31508001058878A6B7F607F0122834224D0002140F073
S315080010683BFA012204463146687F40F035FA0444C3
S3150800107804F2D5702860D8B107EE900AF8EE677AB8
S315080010889FED0D7A67EE887A87EE270ABDEC028B04
S3150800109810EE103AEB60BDE8F8839FED088AD8E7AA
S315080010A89FED078AD5E73146184640F015FAE1E775
S315080010B89FED040AEAE700BF00007A44E4388E3F49
S315080010C800401C4600000000CDCCCCCCCCCCEC3F74
S315080010D89A9999999999B93F2DE9F74F064690F83B
S315080010E8E8010D469146A0B37468A3690133A36164
S315080010F8A37D06EB43131A7F02441A77D4E907320D
S31508001108C3EB520207EE902A4000B8EE677A07EE5C
S31508001118900AF8EEE76AF4EEC76AF1EE10FA0BD50C
S3150800112807EE903A37EE667AF8EE677A77EE877AB8
S31508001138FCEEE77AC4ED077A4FF0000BD9450BD8D1
S3150800114842F21073A2699A4282BF0023C4E90633A1
S31508001158236203B0BDE8F08FB5F802A02F79BAF17B
S31508001168000F2ED038464AF0B7FDCDE900015046A3
S315080011784AF0B2FD02460B46DDE900014AF040FF97
S3150800118802460B4600204C494AF058FC4BF0F0F84A
S3150800119807EE100A96F80332AAEB0700034486F806
S315080011A8033294F8243033B394F825305B4522D1BA
S315080011B8BAF1000F08D1C4F820A00BF1010B0635C7
S315080011C8BCE7B7EE007AE5E7E3690133E3612A7815
S315080011D8002AF2D00023984696F8E8C106F10801D5
S315080011E89C450FD8B8F1000F14D127210220334A9D
S315080011F856F0F8FDE1E72A78002ADED0BAF1000FA2
S31508001208DBD0E7E791F81DE00133964508BF884625
S315080012182031E5E7002288F81420B8F81020D8F815
S31508001228043017440133BAB2C8F80430A8F8107065
S315080012381AB198F81D2086F81422F7EE007A012BC1
S3150800124877EEC77A8CBFB3EE097A9FED1D7AB8F8A0
S31508001258122088BF67EE877A0244A8F81220D8F8C1
S3150800126808208CBF9FED177A67EE877A06EE102A54
S31508001278DFED156AE6EE077A87EEA67A17EE103AD4
S3150800128817EE100AC8F808304AF038FD08A3D3E95B
S3150800129800234AF0FDFF18B1FF2388F815308CE7BC
S315080012A898F91530013388D10423F6E7AFF300809F
S315080012B8666666666666EE3F0000F03F021808082E
S315080012C800004842000096420000C842000000009C
S315080012D82DE9F04F2DED028B054600274FF0200A21
S315080012E84FF0080B0B4608204D4A87B08846272139
S315080012F856F078FD95F8E83127210820494A56F02E
S3150800130871FD6C6805F10806E37D237163716375E1
S3150800131895F8E891B9450DDC3FA7D7E900674FF07E
S315080013280008AA46C346C14546D807B0BDEC028B95
S31508001338BDE8F08FE17D42461AFB01B130462944E3
S31508001348FFF766FE96F81D900495F0684AF0D6FCF5
S31508001358CDE90201B0684AF0D1FC4B46CDE9000157
S31508001368314A2721082056F03DFD2379D6ED037A20
S3150800137805EB431292ED057AF4EEC77AF1EE10FA08
S3150800138802DB327F22710EE017B995F82420F9E7B7
S31508001398637905EB431393ED057AF4EEC77AF1EE14
S315080013A810FA04DB337F637101372036B0E7012F63
S315080013B8FAD195F84430F6E7E37D434515D09AED1A
S315080013C8048A18EE100A4AF099FC32463B464AF057
S315080013D873FF10B9BBF1000F0CD19AF824302279A3
S315080013E89A4202D062799A4211D108F101080AF1A3
S315080013F8200A98E7637D05EB4313D3ED047AB4EE28
S31508001408E78AF1EE10FAE8DA4FF0010BEDE76375B3
S31508001418FAE700BFAFF30080666666666666EE3F63
S315080014281A1808083C1808084B180808000000008D
S315080014382DE9F047D0F8048000EB411393F82450BF
S3150800144898F817300446AB422DD098F81530AB42B9
S3150800145829D000EB411ADAF810004FEA41194AF088
S315080014684DFC13A3D3E9002306460F464AF01AFF94
S3150800147810B99AF91D00A0B198F80430AB4212D0F9
S3150800148898F80530AB420ED009A3D3E900233046B5
S3150800149839464AF01BFF18B14C44637F013B637712
S315080014A80120BDE8F0870020FBE700BFAFF3008006
S315080014B8666666666666EE3F2DE9F34704460E4697
S315080014C8456827210820804A56F08CFC2046314674
S315080014D8FFF7FEFE284663F063FA002800F0BA8094
S315080014E8204663F070FA061EC0F2B48094F8E83114
S315080014F89E4280F2AF8004EB461733462721082020
S31508001508724A56F06FFC2721082097F82530704A4A
S3150800151856F068FC012295F804C085F8242004EBE7
S315080015284C13386A196A884297F8250002D8397F11
S31508001538322977D9012284F8EC21002284F8EA01B5
S3150800154884F8EB21A97D297093F8251084F8F01101
S3150800155893F8263084F8F12184F8F231697D85F804
S3150800156801C004EB411393F82500012684F8F60117
S3150800157893F8263084F8F831002384F8F731A970EF
S3150800158885F82520A04605F1FF3904F1120A19F84D
S31508001598013F5F1C002E00F0898004EB431318698D
S315080015A84AF0ACFB02460B46CDE9002342A3D3E931
S315080015B800234AF08BFE40B941A3D3E90023DDE9AD
S315080015C800014AF065FE002870D004EB4717BB797E
S315080015D8042B8EBF02230133C3F3460388F8EC3184
S315080015E808F10608C245D2D1EA7D04F5F57004EB80
S315080015F8421393F8253084F8FC31002384F8FD312A
S31508001608EA7085F8243094F8F22194F8EC311344FA
S3150800161894F8F821C3F113039B1A84F8FE3102B033
S31508001628BDE8F08793F82570697D84F8EA7193F820
S31508001638263084F8EC31002384F8EB3185F800C0AD
S3150800164884F8F13184F8F00184F8F22104EB4113A7
S315080016586E7088E700262A7904EB421393F825105A
S3150800166884F8EA1193F8263084F8EB6184F8EC31AB
S315080016782A706A7904EB421393F8251084F8F01156
S3150800168893F8263084F8F16184F8F2316A706A7D35
S3150800169804EB421393F8251084F8F61193F82630CC
S315080016A884F8F76184F8F831AA706BE704EB4717F2
S315080016B8BB7993E7AFF30080666666666666EE3FB3
S315080016C89A9999999999B93F6F1808087D18080839
S315080016D88D180808000000002DE9F8432DED028B47
S315080016E887680546384616460C464AF007FB2EA371
S315080016F8D3E90023804689464AF0E8FD00283DD10B
S315080017082BA3D3E90023404649464AF0C1FDC0BB8E
S31508001718F7EE007A07EE107AAB7F87EE878A07EE30
S31508001728903AB8EEE77AB4EEC87AF1EE10FA01D52F
S31508001738B8EE678A6B7F607F0122834224D0002136
S315080017483FF0CAFE012204463146687F3FF0C4FED0
S31508001758044404F2D5702860D8B107EE900AF8EE6A
S31508001768677A9FED0D7A67EE887A87EE270ABDECC9
S31508001778028B10EE103AEB60BDE8F8839FED078AF6
S31508001788D8E79FED078AD5E7314618463FF0A4FE05
S31508001798E1E79FED040AEAE700007A44E4388E3F59
S315080017A800401C4600000000CDCCCCCCCCCCEC3F8D
S315080017B89A9999999999B93F2DE9F04F2DED028B88
S315080017C890F8E83105460E46934689B0002B00F096
S315080017D8238127210820964A56F004FB00226C68C4
S315080017E8A1690131A16195F8E80190423DD8D4E98B
S315080017F807230A2779436427B1FBF7F1C2EB53039A
S315080018080B4407EE903A430006EE903AF8EE677AEC
S31508001818F8EEE66AF4EEE76AF1EE10FA0BD507EE8B
S31508001828102A77EEE67AB8EE477A77EE277AFCEE4C
S31508001838E77AC4ED077A0027B846BB451DD8B8F13C
S31508001848010F00F0E680B8F1130F40F2B9800023C3
S31508001858A3612721082095F80332764A09B0BDEC1A
S31508001868028BBDE8F04F56F0BDBAA37D013205EBF1
S3150800187843131F7F01371F77B7E7B6F8029096F824
S3150800188804A0B9F1000F41D050464AF025FACDE92F
S31508001898060148464AF020FA02460B46DDE90601E3
S315080018A84AF0AEFB02460B46002063494AF0C6F8E2
S315080018B84AF05EFD08EE100A337818EE100A069309
S315080018C804954AF01BFA069BCDE902015B4A2721D3
S315080018D80820CDE9009A56F085FA7288337995F882
S315080018E80312D31A0B4485F8033294F82430C3B18B
S315080018F894F82530BB4214D15AB922622721082008
S315080019084F4A56F06FFA0137063696E7B7EE008A59
S31508001918D2E7E3692721013308204A4AE36156F0EA
S3150800192861FAB6F802A0BAF1000FECD00023E25D1E
S3150800193805EB4211C8680B770130C86096F804C0F1
S315080019480B8B4FEA421963449BB20B831BB191F880
S31508001958253085F81432F7EE007A05EB0902538B21
S3150800196801285344A3EB0C0377EEC87A53830DD9A1
S31508001978B2EE0E7AD2ED046A27EE877ADFED327A6E
S31508001988A6EEA77ADFED316AC7EE267AA944C9ED2D
S31508001998047A17EE900A4AF0B1F923A3D3E900238B
S315080019A84AF076FC30B1FF2389F81D30C2441FFA85
S315080019B88AF8A8E799F91D300133F7D10423F3E724
S315080019C8B8F1020FD4ED0B7AB1EE047A15D977EE91
S315080019D8877AB3EE047AF4EE477AF1EE10FA77FED0
S315080019E8277A42F21073A269C4ED0B7A9A4282BF2B
S315080019F80023C4E9063323622BE7F2EE046A77EE7E
S31508001A08E67AF4EE477AF1EE10FA48BFF0EE477A2E
S31508001A18E7E7DFED0F7AE4E709B0BDEC028BBDE82E
S31508001A28F08F00BFAFF30080666666666666EE3FAF
S31508001A38D2180808381908080000F03FE8180808F6
S31508001A4819190808281908080000AA420000C842F7
S31508001A5800000000000000002DE9F84F2DED028B6C
S31508001A680546884600274FF020094FF0080B4468BA
S31508001A7800F10806E37D23716371637595F8E8A19B
S31508001A88BA450CDC0FF2D009D9E9008900262F4699
S31508001A98B346B24532D8BDEC028BBDE8F88FE17D76
S31508001AA8424619FB01B130462944FFF715FE23794A
S31508001AB8D6ED037A05EB431292ED057AF4EEC77A6A
S31508001AC8F1EE10FA02DB327F22710EE017B995F8AB
S31508001AD82420F9E7637905EB431393ED057AF4EEC9
S31508001AE8C77AF1EE10FA04DB337F637101372036C3
S31508001AF8C4E7012FFAD195F84430F6E7E37DB342F7
S31508001B0815D097ED048A18EE100A4AF0F7F84246F7
S31508001B184B464AF0D1FB10B9BBF1000F0AD197F82A
S31508001B28243022799A4202D062799A420FD1013634
S31508001B382037AEE7637D05EB4313D3ED047AB4EE9D
S31508001B48E78AF1EE10FAEADA4FF0010BEFE7637568
S31508001B58FAE700BFAFF30080666666666666EE3F1C
S31508001B682DE9F047456890F8E821AB690446B3EBD8
S31508001B78420F2ED900EB411393F82480EB7D434599
S31508001B882AD06B7D434527D000EB411ADAF81000B6
S31508001B984FEA41194AF0B2F811A3D3E900230646D9
S31508001BA80F464AF07FFB10B99AF91D0090B12B79B8
S31508001BB8434511D06B7943450ED009A3D3E90023D1
S31508001BC8304639464AF082FB18B14C44637F013BDC
S31508001BD863770120BDE8F0870020FBE7AFF30080B4
S31508001BE8666666666666EE3F0348044B834202D01D
S31508001BF8034B03B1184770470CC100200CC10020DD
S31508001C0800000000064B0749C91A891048BF013168
S31508001C18491003D0044B0BB101481847704700BF59
S31508001C280CC100200CC100200000000010B5064CAD
S31508001C38237843B9FFF7D8FF044B13B10448AFF329
S31508001C4800800123237010BDC6570020000000003D
S31508001C58C830080808B5054B1BB105490548AFF350
S31508001C680080BDE80840FFF7CDBF00BF00000000B0
S31508001C78B81E0020C8300808A3F5803A704700BF88
S31508001C88174B002B08BF134B9D46FFF7F5FF00219E
S31508001C988B460F461348144A121A63F0E1FE0E4B98
S31508001CA8002B00D098470D4B002B00D098470020F2
S31508001CB8002104000D000D48002802D00C48AFF397
S31508001CC800804BF041FA200029004BF052FD4AF0FB
S31508001CD8ABFE00BF0000080000000000000000007E
S31508001CE800100020001000203CAD00200000000075
S31508001CF8000000002DE9F0439BB000AF002304461E
S31508001D08F81CC7E9013356F0E3F918B181B2184847
S31508001D1816F04EFA6A46FB78F81CA2EBC3039D46F2
S31508001D286946E84656F0E9F918B181B2114816F03D
S31508001D383FFA0026FB78F5B2AB4210D908EBC5097D
S31508001D48484607F10C0156F0F1F9FB6A0136002BF3
S31508001D58F0D158F83500D9F804103B1D03C33B1DCC
S31508001D6803CB206020466C376160BD46BDE8F0832A
S31508001D78A8860608E186060813B56846FFF7BAFF77
S31508001D88064C009B06492360019B06486360E37975
S31508001D98A27902B0BDE8104016F01EBA7760002096
S31508001DA8158706083869002030B597B010A856F088
S31508001DB805FA4BF0D7FC11AD02461749284616F026
S31508001DC80BFAFFF7D9FF154BBDF84020D3E90A01EE
S31508001DD8CDE90E01D3E90801CDE90C01D3E90601DD
S31508001DE8CDE90A01D3E90401CDE90801D3E90201DD
S31508001DF80B4B0C4C01930C4BCDE90601CDE903229C
S31508001E0800934FF480612046084B094A029516F05C
S31508001E18F7F9204617B030BD706007080010002093
S31508001E283869002087640020B987060840690020B9
S31508001E382C8706082DE9F04FA9B080464BF092FC8E
S31508001E48654C0FAF02466549384616F0C5F9FFF7DF
S31508001E5893FF2378052B65D101F0AAFC604ADFF8C1
S31508001E68B0B1D2E90045041B61EB050529462046B1
S31508001E7801F078FC5949024619A816F0ADF9DBE9CC
S31508001E880001201845EB010101F06CFC554E0DF1D7
S31508001E98780902465149484616F09EF9D6E90001DE
S31508001EA801F060FC0DF18C0A02464C49504616F0C2
S31508001EB893F9DBE90032E41845EB02052046294682
S31508001EC8CDE90A9A49F03CFF0022474B49F06EFFD4
S31508001ED882468B46D6E90001201845EB010149F0F0
S31508001EE82FFF0B460246594650464AF089F8CDE96F
S31508001EF808013E4B1B8806933D4B059319ABCDE964
S31508001F0803733C4B4FF4806102933B4B3B4A019366
S31508001F183B4B3C480093434616F072F9394829B0BA
S31508001F28BDE8F08F01F044FC374ADFF8E490D2E9BF
S31508001F380056451B61EB06062278344914A816F0A4
S31508001F484BF93146284601F00DFC2449024619A8E2
S31508001F5816F042F9D9E9000101F004FCDFF884A07B
S31508001F680DF1780B02461D49584616F035F9DAE997
S31508001F780001281846EB010101F0F4FB23AB0246E1
S31508001F881649184616F028F9D9E9004923AB204618
S31508001F984946CDE90AB349F0D3FE0022124B49F067
S31508001FA805FFCDE90C01DAE90031E41849EB01012E
S31508001FB8601946EB010149F0C3FE0B460246DDE906
S31508001FC80C014AF01DF8CDE90801084B1B88069351
S31508001FD819AB059314AB92E7876800207060070869
S31508001FE87810002060100020000059409057002003
S31508001FF89388060838690020B9870608BE87060840
S31508002008406900208764002070100020968806081A
S315080020186810002037B56049012055F086FF054647
S315080020285E495D4803F004FC5D4C002D00F09C8079
S315080020384FF480615B4A206816F0E2F84BF092FB91
S31508002048236802465849002054F0E9FE4BF08AFBFB
S3150800205822680146544816F0ABF84FF48061534A93
S31508002068ABB2206816F0CCF80020216854F0D7FEE9
S31508002078206816F09DF84FF480614D4B4D4A20684C
S3150800208816F0BEF84BF06EFB236802464649002058
S3150800209854F0C5FE4BF066FB22680146424816F026
S315080020A887F8434863F052FD434A014640484CF0D6
S315080020B8BBF94249404803F0BBFB40F2D5430093BD
S315080020C84FF480613D4B3E4A206816F099F84BF06C
S315080020D849FB236802463449002054F0A0FE4BF019
S315080020E841FB22680146304816F062F84FF48061D1
S315080020F8344B354A206816F083F84BF033FB2368CF
S3150800210802462949002054F08AFE4BF02BFB226828
S315080021180146254816F04CF82A4863F017FD2B4A5D
S31508002128014628484CF080F92949284803F080FBDD
S3150800213841F2356300934FF48061254B254A2068A0
S3150800214816F05EF84BF00EFB236802461649002087
S3150800215854F065FE4BF006FB22680146124816F055
S3150800216827F8284603B030BD4FF480610B4B1A4A4E
S31508002178206816F045F84BF0F5FA236802460A492E
S31508002188284654F04CFE4BF0EDFA226801460648FC
S3150800219816F00EF86FE700BF676000203F60002062
S315080021A8841F0020A4CF0608AA880608B28806084D
S315080021B8128906081F890608041F0020EF5F0020F9
S315080021C83A890608618906086E890608E41E002009
S315080021D8C75F00208A890608EF880608F8B5FFF75A
S315080021E819FF0322022100201EF070FF514A411CE4
S315080021F80346514C106023D14FF480614F4A20683A
S3150800220815F0FEFF4BF0AEFA236802464C4900204B
S3150800221854F005FE4BF0A6FA22680146484815F020
S31508002228C7FF484A4FF48061206815F0E9FF21681E
S31508002238002054F0F4FD206815F0BAFF0120F8BD17
S315080022484FF48061404A206815F0DAFF4BF08AFAA5
S31508002258236802463A49002054F0E1FD4BF082FA19
S31508002268002501462268394E354815F0A1FF40F287
S31508002278D540356055F0C3FD0322B08002212846B3
S315080022881EF024FF324E421C0346306016D14FF426
S3150800229880612A4A206815F0B3FF4BF063FA236871
S315080022A802462749284654F0BAFD4BF05BFA2268DD
S315080022B80146234815F07CFF264AB3E74FF48061A8
S315080022C8254A206815F09CFF4BF04CFA236802460D
S315080022D81B49284654F0A3FD4BF044FA1F4F014604
S315080022E8226817481E4C15F063FF41F235602560D1
S315080022F855F085FD33683E46A08046F8043B0FCC6A
S315080023080FC694E80F0086E80F0041F20303FB8422
S315080023183223BB6242F22A3312484FF48C71BB85CA
S31508002328B8634CF096F97D63F88587F824502846F3
S315080023383D6484E7D41E0020841F0020A4CF060825
S31508002348AA880608B1890608E7890608F81E00203B
S31508002358D01E0020178A06084E8A0608F4AE002002
S31508002368D81E00207E8A060873B53C4D4FF48C713A
S31508002378E8634CF06EF9288605F124004BF029FF2E
S3150800238806464BF00FFF0446E8B9354D009640F26D
S3150800239876334FF48061334A286815F031FF4BF0DD
S315080023A8E1F92B6802463049204654F038FD4BF0CF
S315080023B8D9F92A6801462C4815F0FAFE4FF45E75D5
S315080023C8284602B070BD05F124014BF004FF002829
S315080023D81CDA234D4FF45F734FF48061234A28684B
S315080023E815F00EFF4BF0BEF91F4902462B68002070
S315080023F854F015FD4BF0B6F92A6801461A4815F047
S31508002408D7FE002520464BF0D9FED9E720230193AD
S31508002418174B324600932146002328681EF0C6FE4D
S315080024280130EED12B680E4E00934FF480614FF4BD
S315080024386273104A306815F0E3FE4BF093F9336877
S3150800244802460949002054F0EAFC4BF08BF9326839
S315080024580146054815F0ACFE3125D3E7F4AE002051
S31508002468841F0020918A0608AA880608D18A0608C1
S31508002478D81E00200B8B06082DE9F04385B00546C3
S315080024881C469DF830609DF83470002A00F08F804D
S31508002498002978D04BF066F90146714815F088FE90
S315080024A8284615F085FE002C40F09A800124002E57
S315080024B83CD02B464FF480616A4A6B4815F0A0FE5B
S315080024C820230193694BDFF8D091009386B2002345
S315080024D832466549D9F800001EF068FE013040F01A
S315080024E8838040F2D5430293614B03960193D9F84A
S315080024F80030DFF88C8100934FF4806140F2BA33DC
S315080025085C4AD8F8000015F07BFE4BF02BF95A49BF
S315080025180246D8F80030002054F081FC4BF022F926
S31508002528D8F800200146544815F042FE3FB32B461A
S315080025384FF480614B4A514815F062FE83B2B3F5F1
S315080025488C7F54D94FF48C734D4D80B2019300900B
S3150800255840F2C7334FF480614A4A286815F050FE9E
S315080025684BF000F9444902462B68002054F057FC02
S315080025784BF0F8F82A6801463F4815F019FE204638
S3150800258805B0BDE8F08315F013FE002C8ED00124A3
S31508002598DFF8EC802A464FF48061D8F8000015F079
S315080025A82FFED8F80010002054F039FC16E0002B4E
S315080025B83FF47DAFB1B11446DFF8C4802A464FF41C
S315080025C88061D8F8000015F01BFE4BF0CBF8D8F858
S315080025D8003002462849002054F021FC013466E7F9
S315080025E80124E9E70C46D3E70134E4B29EE7234819
S315080025F8FFF7BAFE064610B90134E4B2BFE7204D24
S315080026084FF48061204A286815F0FAFD4BF0AAF8BD
S315080026182B6802461849002054F001FC4BF0A2F832
S315080026282A680146144815F0C3FD41F2356302933A
S31508002638164BB6B20193164B03961B68154A0093B8
S315080026484FF4806140F2CD33286815F0D9FD296822
S31508002658002054F0E4FB286815F0AAFD8FE700BFB0
S31508002668398B060870600708C75B0020F81E00202B
S31508002678EF5F00203F8B0608AA880608C757002080
S31508002688841F00209D8B0608A4CF0608C75F002074
S31508002698D01E0020098C0608D41E00202DE9F74311
S315080026A800F0E8FFBF4DC04815F082FDBF4EC04A8E
S315080026B8C049C148C14C15F08FFD64212846C04B56
S315080026C8BC4A15F09DFD019500964FF48061BA4BFA
S315080026D8BC4A206815F094FD4BF044F82368024676
S315080026E8B949002054F09BFB4BF03CF82268014698
S315080026F8B54815F05DFDB54B3221B54A0093B54886
S31508002708B54B15F07DFD4FF48061AB4BB34A206895
S3150800271815F076FD4BF026F823680246AA490020EC
S3150800272854F07DFB4BF01EF822680146A64815F0C2
S315080027383FFD33464FF48061A84A206815F060FDCE
S315080027484BF010F8236802469F49002054F067FBAF
S315080027584BF008F8226801469B4815F029FD2B46D8
S315080027684FF480619D4A206815F04AFD4AF0FAFF41
S31508002778236802469449002054F051FB4AF0F2FFB8
S3150800278822680146904815F013FD4FF48061914B75
S31508002798924A206815F034FD4AF0E4FF2368024699
S315080027A88949002054F03BFB4AF0DCFF22680146C1
S315080027B8854815F0FDFC0121042000F015FD0122CD
S315080027C82220114600F038FD01220B20114600F0A0
S315080027D833FD01222520114600F02EFD01221D2079
S315080027E8114600F029FD7E4B4FF48061714A7D48F9
S315080027F815F006FD4FF480617B4A206815F000FD48
S315080028084AF0B0FF236802466F49002054F007FBD8
S315080028184AF0A8FF226801466B4815F0C9FC4FF430
S315080028288061724B724A206815F0EAFC4AF09AFFF2
S31508002838236802466449002054F0F1FA4AF092FFE8
S3150800284822680146604815F0B3FC4FF48061674B6F
S31508002858684A206815F0D4FC4AF084FF23680246C3
S315080028685949002054F0DBFA4AF07CFF624D0146CC
S315080028782268554815F09CFC284655F011FCEB795A
S31508002888AA795E495E4815F0A7FC4FF480615C4B4F
S315080028985C4A206815F0B4FC4AF064FF23680246CF
S315080028A84949002054F0BBFA4AF05CFF2268014601
S315080028B8454815F07DFC5449544815F08DFC4FF4ED
S315080028C88061524B524A206815F09AFC4AF04AFF32
S315080028D8236802463C49002054F0A1FA4AF042FF10
S315080028E822680146384815F063FC4A498B2002F0ED
S315080028F81FFF00F05DFF484B484FC3E9000155F03C
S31508002908BEFB4FF48061464A206815F079FC4AF008
S3150800291829FF236802462C49002054F080FA4AF019
S3150800292821FF22680146284815F042FC4AF086FF2E
S315080029380121042000F058FC01222220114600F04B
S315080029487BFC01220B20114600F076FC012225208B
S31508002958114600F071FC0122012411461D2000F0E1
S315080029686BFCFFF73BFC00F0C9FC00F04BFF2D4958
S315080029782D4800F0B9FA1A48FFF716FA23462246F0
S315080029882146CDE90044FFF777FDDFF8A0803B78BC
S31508002998052B71D100F0F4FD4FF0010901F004F898
S315080029A846E000BFD4680020A4CF06089B8C06081A
S315080029B8B98706087060070848690020841F002040
S315080029C8738C0608918C0608AA880608C58C06081A
S315080029D8B08C0608A2680020A48C06080E8906088A
S315080029E86CCB060887600020CE8C0608E58C06089E
S315080029F8F58C06080D8D06087F60002015870608E1
S31508002A0840690020258D0608348D06088968002047
S31508002A184C8D06088D2A000880100020876800203B
S31508002A285C8D0608176000203F60002098B50020D6
S31508002A3800F0BEFE0023B8F8002006460D4649F009
S31508002A4845FE1A430BD14CB10D48FFF7F3F901239C
S31508002A58CDE900991A461946FFF70EFD00243046B7
S31508002A6829463C22002349F031FE013A1A4308BF99
S31508002A7801244AF0F1FE8AE74FF00009D8E700BFBB
S31508002A886CCB06082DE9FF478268C84DD2B2052ADD
S31508002A982A7000F2F381C64E33889A4200F0EE8116
S31508002AA8C44C00924FF48061C34A206815F0A8FB0D
S31508002AB84AF058FE23680246C049002054F0AFF988
S31508002AC84AF050FE22680146BC4815F071FB297881
S31508002AD84B1E042B0DD8BA4815F06AFBB94B1F686C
S31508002AE838464BF0EBFD64200CF05AFA38464BF0A2
S31508002AF8F7FD2F787B1E042B35D800F059FE0246C1
S31508002B080B46B14901EBC707C7E900232B785F1EB7
S31508002B1851F8332001EBC70C01EBC30051F8371005
S31508002B284068DCF80470521A60EB0701A74800EB06
S31508002B38C30740F833207960CDE900214FF4806156
S31508002B48A34A206815F05CFB4AF00CFE9B4902462E
S31508002B582368002054F063F94AF004FE2268014607
S31508002B68964815F025FB2B78052B40F0A080954B49
S31508002B78DFF8949218684BF0A1FD964815F018FBF3
S31508002B88954815F015FB954815F012FB2A788E4BD3
S31508002B98934803EBC20153F8323002884968013278
S31508002BA892B2012AC9E900318E4F028040F0698144
S31508002BB8CDE900318C4A4FF48061206815F020FB76
S31508002BC84AF0D0FD236802467C49002054F027F9CC
S31508002BD84AF0C8FD22680146784815F0E9FA002344
S31508002BE81A46DFF83082C7E90032404662F0AEFF7F
S31508002BF87E4B87B295F8009018804AF0B3FDC7F562
S31508002C0880614B467A4A009008EB070015F0F8FAF7
S31508002C18276895F800804AF0A5FD43464FF4806179
S31508002C28734A0090384615F0EBFA4AF09BFD23687C
S31508002C3802466249002054F0F2F84AF093FD2268E9
S31508002C4801465E4815F0B4FA02A8FFF753F8694F2B
S31508002C58029B69493B60039B68487B60FB79BA79A4
S31508002C6815F0BAFA664B1B684BB16648FFF79CF82D
S31508002C7801231A461946CDE90033FFF7FDFB012162
S31508002C88042000F0B1FA01222220114600F0D4FAF5
S31508002C9801220B20114600F0CFFA01222520114601
S31508002CA800F0CAFA01221D20114600F0C5FA338839
S31508002CB8052B40F0E180444F4FF00009BA46B84664
S31508002CC800F076FD2A7809F101094A45EAE8020181
S31508002CD8F6DA0020DFF8F4C03B46B968D3F80CE00A
S31508002CE80130D3E90093B1EB09016EEB03034CF805
S31508002CF8081F824207F10807CCF80430ECDA08EB1B
S31508002D08C20158F83230404F4A68DFF80C81D7E9D3
S31508002D180001C8E900321B1A62EB0102CDE900324C
S31508002D284FF48061394A206815F06AFA4AF01AFDA4
S31508002D38236802462149002054F071F84AF012FD2A
S31508002D48226801461D4815F033FAD8E90032DFF83B
S31508002D58CCC0DFF8C080DCE900011B1842EB010291
S31508002D68D7E900105B1A62EB00024046CCE900324C
S31508002D7862F0ECFE1D4B87B295F8009018804AF071
S31508002D88F1FCC7F580614B46214A009008EB07001D
S31508002D9815F036FA276895F800804AF0E3FC4346AA
S31508002DA84FF480611A4A0090384639E0876800204F
S31508002DB88C570020841F0020768D0608AA880608E6
S31508002DC88B8D06084CA40608301000200010002039
S31508002DD89D8D0608C68D0608F18D0608078E060815
S31508002DE89057002060100020338E06088E57002062
S31508002DF8708E06087760002015870608386900204F
S31508002E08D41E00206CCB0608781000207B8E060896
S31508002E18988E060887600020701000206810002029
S31508002E2815F0EEF94AF09EFC236802462A49002066
S31508002E3853F0F5FF4AF096FC226801240146264815
S31508002E4815F0B6F9254B214604201C7000F0CCF97C
S31508002E5822462146222000F0EFF9224621460B2079
S31508002E6800F0EAF922462146252000F0E5F922462F
S31508002E7821461D2000F0E0F92B78338004B0BDE820
S31508002E88F087DFF86080D8E900021B1A61EB0201B7
S31508002E98CDE90031124A4FF48061206815F0B0F97F
S31508002EA84AF060FC236802460B49002053F0B7FF36
S31508002EB84AF058FC22680146074815F079F9D7E917
S31508002EC80001D9E900321B1842EB0102D8E90010C3
S31508002ED85B1A62EB000284E6AA880608886800205E
S31508002EE8548E06087010002070B50D4604461A4E12
S31508002EF8304615F05DF9194815F05AF941F2356268
S31508002F082946174815F054F9164815F051F9214677
S31508002F18154815F04DF9154815F04AF9214614488B
S31508002F2815F046F902F006F8124815F041F9124864
S31508002F3815F03EF9114815F03BF9114815F038F91E
S31508002F48104815F035F9104815F032F93046BDE83D
S31508002F58704015F02DB900BFA4CF0608A38E060841
S31508002F68D78E0608F88E0608098F0608498F0608B8
S31508002F785D8F0608B58F06080B9006085B9006084D
S31508002F8897900608F19006084C9106081FB504465E
S31508002F98124815F00DF902F059FD02A802F07CFD59
S31508002FA8B0B19DF80B3040210D4A00930D489DF8A5
S31508002FB80A3015F025F99DF80B209DF80A100A48DD
S31508002FC815F0F6F8214607484AF0B8FB04B010BDD4
S31508002FD84021064A034815F013F9F3E78A910608CB
S31508002FE8A891060850690020BE910608D5910608DA
S31508002FF81FB50446124815F0DBF802F027FD02A8AB
S3150800300802F04AFDB0B19DF8093040210D4A0093F7
S315080030180D489DF8083015F0F3F89DF809209DF835
S3150800302808100A4815F0C4F8214607484AF086FBEE
S3150800303804B010BD4021064A034815F0E1F8F3E745
S31508003048E4910608029206085069002016920608B6
S31508003058D591060810B586B00446184815F0A8F89C
S3150800306802F0F4FC04A802F017FD08B39DF8113025
S31508003078402102939DF81030114A01939DF81330A8
S31508003088104800939DF8123015F0BAF89DF81130DB
S315080030989DF8132000939DF812109DF810300A48E1
S315080030A815F086F8214607484AF048FB06B010BDD1
S315080030B84021064A034815F0A3F8F3E72B920608B9
S315080030C8499206085069002070920608D5910608A4
S315080030D870B588B001241422002103A862F0C0FC48
S315080030E81F4B204E204D0093204B684601960295AB
S315080030F804938DF80C4001F0D3FE30B140F21B3131
S315080031081B4B1C4A1C4849F071FC1C4B6846CDE908
S3150800311800361B4B029504938DF80C4001F0C0FE4F
S3150800312820B14FF44971124B124AEBE7154B684622
S315080031380093154B8DF80C40CDE90135134B0493D4
S3150800314801F0AEFE20B140F22D31094B094AD9E704
S315080031581E2203210E4815F02BF8032008B070BD6F
S3150800316898920608C61608089E920608952F00081B
S31508003178A59206083F930608E5920608F3920608FC
S31508003188F92F0008F9920608039306085D30000827
S315080031980893060800B58BB0FFF79AFF202200218E
S315080031A802A862F05DFC0B4B41F2883201931823A2
S315080031B80021CDE90623084801AA06F031FC28B9FA
S315080031C85721064B064A074849F010FC0BB05DF82C
S315080031D804FB00BF57930608A5260008609306084F
S315080031E881930608739306082DE9F041074680205F
S315080031F888464EF036F80024054605EB440305F8DC
S3150800320814400134232C5F70F7D1294620461DF057
S3150800321897FB0646B8F1000F05D003463A462146FD
S31508003228044814F0C5FF28464EF01FF93046BDE895
S31508003238F08100BF8A930608F7B58DF804008DF863
S31508003248051005460E46012001A917461DF078FB0C
S3150800325804462FB1034632462946034814F0A8FF08
S31508003268204603B0F0BD00BFB593060810B58378AD
S315080032780446852B0CD1164B164A174918681EF0B2
S3150800328869F8164B1860164802F044FB154B186087
S31508003298A378832B1BD1A068134B104C186023689E
S315080032A8984214D140F2CF42002310491EF026F85E
S315080032B880B2002814BF012200220D4B18800D4B3E
S315080032C81A7004D1206854F0AFFD0B4B186010BD76
S315080032D844AF002048AF0020201F002040AF002040
S315080032E82C1F00201C1F00203CAF002091690020DD
S315080032F8925700209069002038AF00202DE9F34145
S31508003308884C4FF48061884A206814F079FF4AF09F
S3150800331829FA236802468549002053F080FD4AF0B9
S3150800332821FA22680146814814F042FF0222012147
S3150800333800201DF0CBFE7E4E03464FF480617D4A81
S315080033483060206814F05CFF4AF00CFA23680246DD
S315080033587649002053F063FD4AF004FA22680146CC
S31508003368724814F025FF32687349744B7448B2F1F1
S31508003378FF3F08BF0B46734914F01AFF35686A1CE5
S315080033880CD162F067FF4BF0EBFF2A4601466E4800
S3150800339814F00EFF62F05EFF4BF0E7FFDFF8BC8122
S315080033A80023424642F80C3B684B03F110071546C2
S315080033B818685968083303C5BB422A46F7D1644FCB
S315080033C8644D388854F01BFD634BA8F804001A6846
S315080033D8624930681DF0A6FE5749584B0246B0F1B7
S315080033E8FF3F08BF0B4628605D49554814F0E0FEC4
S315080033F8D5F80080B8F1FF3F0CD162F02BFF4BF0EF
S31508003408AFFF42460146504814F0D2FE62F022FF4A
S315080034184BF0ABFF5349852002F08AF94649474BDA
S315080034280246B0F1FF3F08BF0B4628604E4944489C
S3150800343814F0BEFED5F80080B8F1FF3F0CD162F053
S3150800344809FF4BF08DFF424601463F4814F0B0FE8F
S3150800345862F000FF4BF089FF4249832002F068F9C1
S315080034683549364B0246B0F1FF3F08BF0B46286080
S315080034783E49334814F09CFED5F80080B8F1FF3F62
S315080034880CD162F0E7FE4BF06BFF424601462E4828
S3150800349814F08EFE62F0DEFE4BF067FF00213068FE
S315080034A854F0DEFC2449254B2860B0F1FF3F08BFDD
S315080034B80B4602462E49224814F07AFE2D686B1CE4
S315080034C80CD162F0C7FE4BF04BFF2A4601461E4850
S315080034D814F06EFE62F0BEFE4BF047FF254802F078
S315080034E819FA254D3A882860009203464FF48061F8
S315080034F8224A206814F084FE4AF034F92368024602
S315080035080A49002053F08BFC4AF02CF92268014638
S31508003518064814F04DFE286802B0BDE8F0414BF0A5
S3150800352811B800BF841F0020DA930608AA8806087F
S3150800353844AF0020FD930608572A0808C7670708F6
S315080035482894060814940608369406086D2307086E
S315080035589AB5002038AF002048AF0020401F002049
S31508003568459406087532000857940608B194060863
S31508003578059506084C1F00201C1F002019950608EB
S315080035882DE9FF472B4C2668C6B92B4D4FF48061A9
S315080035982A4A286814F034FE4AF0E4F82B680246EA
S315080035A82749304653F03BFC4AF0DCF82A680146BE
S315080035B8234814F0FDFD236801332360214F3B7827
S315080035C8A3B300252368DFF888900133DFF884A0C1
S315080035D82360B9F800301C480AF8035002F09AF933
S315080035E8DFF87480144EC8F80000CDF808A0B9F8BA
S315080035F800304FF48061CDE90003144A2368306827
S3150800360814F0FEFD4AF0AEF8336802460C4928461F
S3150800361853F005FC4AF0A6F832680146084814F043
S31508003628C7FDD8F800004AF08DFF3D7004B0BDE824
S31508003638F08700BF181F0020841F00204C95060835
S31508003648AA880608906900202C1F0020629506089B
S3150800365892570020916900201C1F0020044AD2E9CD
S315080036680031013341F10001C2E90031704700BF5A
S315080036788810002013B5174806F058F9164B186035
S3150800368828B96721154B164A164849F0AFF900209C
S315080036980021154B154A1A60154BC3E900010BF0B2
S315080036A845FC044630B10146124814F081FD20460F
S315080036B802B010BD64F0B4F823460146CDE90044CB
S315080036C80D4A0E4864F066FF04460028EFD0014606
S315080036D80B48EAE7F4960608601F00208695060850
S315080036E8CE960608A3950608841F0020736E002048
S315080036F888100020B695060865360008641F00205D
S31508003708E19506082DE9F84316469946144A002312
S3150800371805460C4648F0DAFF214630803C22284602
S31508003728002348F0D3FF002380460F46164628464E
S315080037384FF46162214648F0C9FF1822002348F071
S31508003748C5FF404689F8002039463C22002348F040
S31508003758BDFF089B00201A70099B1E70BDE8F883F8
S315080037688051010010B586B00DF11503019305AB1C
S3150800377800930DF116020DF11303FFF7C3FF9DF829
S315080037881530094C02939DF81430122101939DF8BF
S31508003798133020460093054ABDF8163014F030FD5C
S315080037A8204606B010BD00BF616E002018960608B0
S315080037B8D0B50D4C4FF0FF31206864F083FA28B174
S315080037C84F210A4B0A4A0B4849F010F90A4B206858
S315080037D8D3E9006764F0AAFA18B15521074B084AD5
S315080037E8F1E730463946D0BD601F00202B960608FB
S315080037F8B1960608A3950608881000206796060855
S3150800380894960608F7B5544C4FF48061534A2068D5
S3150800381814F0F6FC49F0A6FF236802465049002032
S3150800382853F0FDFA49F09EFF226801464C4814F009
S31508003838BFFC03224B4900201DF048FC4A4D0346AD
S315080038484FF48061494A2860206814F0D9FC49F089
S3150800385889FF236802464249002053F0E0FA49F0F6
S3150800386881FF226801463E4814F0A2FC2A684049AE
S31508003878404B4148B2F1FF3F08BF0B463F4914F099
S3150800388897FC2E68721C0CD162F0E4FC4BF068FDBC
S31508003898324601463A4814F08BFC62F0DBFC4BF0E2
S315080038A864FD384F00233A4642F80C3B364B03F181
S315080038B8100C164618685968083303C66345324615
S315080038C8F7D1324E308854F09AFA314B2D491A6896
S315080038D8B88028681DF026FC2E4D2549254B2860FA
S315080038E8B0F1FF3F08BF0B4602462B49224814F0A1
S315080038F85FFC2D686B1C0CD162F0ACFC4BF030FDFC
S315080039082A4601461E4814F053FC62F0A3FC4BF005
S315080039182CFD224801F0FEFF214D328828600092CE
S3150800392803464FF480611F4A206814F069FC49F081
S3150800393819FF236802460A49002053F070FA49F02D
S3150800394811FF22680146064814F032FC286803B0BD
S31508003958BDE8F0404AF0F6BD841F00200497060823
S31508003968AA8806080200010050AF00202D9706080D
S31508003978572A0808C76707082894060844970608B0
S3150800398836940608B01F00206D2307089CB500204A
S3150800399854AF00204CAF002058970608BC1F0020DB
S315080039A88C1F00206A9706082DE9F04385B0314C2C
S315080039B82668C6B9304D4FF48061304A286814F035
S315080039C81FFC49F0CFFE2B6802462D49304653F0B6
S315080039D826FA49F0C7FE2A680146294814F0E8FB82
S315080039E8236801332360274B274D284E284801931F
S315080039F80095002340F2CF42314600681DF020FCAE
S31508003A08DFF894800028C8F800002FDD002723680F
S31508003A183754013305F10C00236001F07BFFDFF80A
S31508003A287C90154DC9F800000296D8F800304FF476
S31508003A388061CDE90003174A2368286814F0E0FB7B
S31508003A4849F090FE2B6802460D49384653F0E7F9C7
S31508003A5849F088FE2A680146094814F0A9FBD9F8EE
S31508003A68000005B0BDE8F0434AF06CBD05B0BDE8F6
S31508003A78F08300BF881F0020841F0020929706083D
S31508003A88AA88060854AF0020901F002073720020E9
S31508003A9850AF0020AA9706084CAF00208C1F0020BC
S31508003AA810B52A4C04F09EFF05F036F9236F01205D
S31508003AB823F0070343F00303236705F057F9244B5C
S31508003AC801219B6A3E20DB015EBF4FF48032214B01
S31508003AD89A62D4F8203123F0070343F00203C4F8A6
S31508003AE82031D4F8283123F0070343F00203C4F839
S31508003AF82831D4F8403123F0030343F00203C4F80D
S31508003B084031D4F8603123F0030343F00203C4F8C4
S31508003B18603104F0ADFCD4F84032002023F00303EA
S31508003B2843F00203C4F84032D4F8003223F00703FE
S31508003B3843F00203C4F80032D4F8083223F0070326
S31508003B4843F00203C4F8083210BD00BF00800050D5
S31508003B580040005A0060005A064B1B681A7A022A67
S31508003B6804D812B11B68044A13607047032AF9D0AF
S31508003B78704700BF68AF0020D01F002070B5A2B0FC
S31508003B881B4D0BAC0FCD0FC495E80F0084E80F004A
S31508003B9800244FF48013CDE902440494019313AD2D
S31508003BA801AE0FCE0FC5134B06AE2B60124B18ADE0
S31508003BB8CDE90744099406930FCE0FC520220F4B6B
S31508003BC813A92B600E4B0F481D930F4B2094CDE974
S31508003BD81E230E4B0BAA21930D4B0AF045FC0546EE
S31508003BE821464FF4E1304AF006FD284622B070BD5A
S31508003BF82CA406083C00015B010010004400015B88
S31508003C0843770020E4200020010101007CAF002052
S31508003C18D41F002001484DF03EB800BFE42000201C
S31508003C2801484AF048BD00BF4CA40608F8B50C463A
S31508003C38064611462046154654F077F9074628469B
S31508003C4801F068FE033C012C054604D947B1314604
S31508003C58064814F0ADFA2846BDE8F8404AF072BCA2
S31508003C6802463146024814F0A3FAF4E7A9AA060858
S31508003C78C9AA06080121024B8140186863F06EBF7D
S31508003C884421002008B5074B4FF0FF31186864F047
S31508003C9819F830B140F2BA31034B044A044848F0DF
S31508003CA8A5FE08BD48210020D6AA060825AF06089D
S31508003CB80BAB060808B5064B186864F037F830B138
S31508003CC84FF47071034B044A044848F08FFE08BD48
S31508003CD84821002070AB06080CAF06080BAB06088F
S31508003CE873B5002300220546CDE9002363F07EFD5F
S31508003CF86A4663F0ADFD00982D4A0199D2E9023269
S31508003D08C01A61EB02012B4ACDE90001FCF708FB52
S31508003D18284801F027FE284B002814BF06461E46E9
S31508003D286B68002B41D1AC6814F001040DD0012151
S31508003D38224A2348FFF77AFF204801F0EBFD31466F
S31508003D48044602461F4814F033FAAB689A070DD59D
S31508003D5803211D4A1D48FFF769FF1B4801F0DAFDD4
S31508003D683146044602461A4814F022FAAB685B073D
S31508003D780DD50421174A1848FFF758FF154801F0CA
S31508003D88C9FD314604460246144814F011FA20467D
S31508003D984AF0D8FB30464AF0D5FB6A681AB110498A
S31508003DA8104814F005FA02B070BD0024EFE700BF0A
S31508003DB8A0100020901000206CCB0608747700200D
S31508003DC896AB06089DAB060894770020BDAB060897
S31508003DD8C9AB0608A4770020F1AB0608FCAB0608B1
S31508003DE8CCB0060826AC0608F7B500220023CDE9AC
S31508003DF8002344680646344D64B12146334814F016
S31508003E08D7F90120FFF736FF0121286863F0DFFE9E
S31508003E1803B0F0BD502221462D4861F021FE2D48F9
S31508003E2814F0C6F901212C4A2C48FFF7FFFE214653
S31508003E38274A2B48FFF7FAFE02212A4A2A48FFF79B
S31508003E48F5FE0321294A2A48FFF7F0FE294A0421E4
S31508003E582948FFF7EBFE63F0C9FC6A4663F0F8FCED
S31508003E68DDE90017254BD3E908208A1847EB000C2B
S31508003E789868C3E90017121AD868C3E902176CEBE1
S31508003E880000C3E908209A6A1D4801329A62D3E9F4
S31508003E980623891A67EB0303CDE900134FF47A73EF
S31508003EA8B1FBF3F114F084F92046FFF7E3FE02218B
S31508003EB8286863F08CFE7268002AA9D0114912484E
S31508003EC814F076F9A4E700BF4421002040AC0608A0
S31508003ED86477002062AC06087477002096AB06085B
S31508003EE86FAC0608847700207AAC06089477002019
S31508003EF888AC0608A477002097AC0608A01000200E
S31508003F08A8AC0608AFB0060826AC0608F7B500231D
S31508003F18002205461548CDE9002314F049F963F04F
S31508003F2865FC6A4663F094FCDDE90010104BD3E99A
S31508003F3804248A18D3E9067640EB0404D21B64EBFA
S31508003F480604C3E90424C3E90010C3E906106A682D
S31508003F581AB10849084814F02BF90120FFF78AFE18
S31508003F680022064B1A7003B0F0BD00BFB1AC0608B4
S31508003F78A01000208FB0060826AC06086377002034
S31508003F8810B50F490446A1F1280053F085FF18B962
S31508003F980C490D4814F00CF90220FFF76BFE0120B6
S31508003FA8FFF768FE094B0121186863F010FE62687E
S31508003FB82AB1BDE810400649064814F0F9B810BDFC
S31508003FC83021002008210020C1AC06084421002021
S31508003FD86CB0060826AC06084168014814F0E8B82B
S31508003FE8E8AC060810B50B4B044680681870C0B2D2
S31508003FF801F0A6FC014618B1A268074814F0D8F8DB
S3150800400862682AB1BDE810400449054814F0D0B8DA
S3150800401810BD00BF6377002015AD06084EB0060828
S3150800402826AC060842681AB10249034814F0C0B813
S31508004038704700BF35B0060826AC060842681AB1AC
S315080040480249034814F0B4B8704700BF13B006080D
S3150800405826AC060842681AB10249034814F0A8B8FB
S31508004068704700BFF5AF060826AC060842681AB1BD
S315080040780249034814F09CB8704700BFDDAF06082C
S3150800408826AC060842681AB10249034814F090B8E3
S31508004098704700BFB2AF060826AC060842681AB1D0
S315080040A80249034814F084B8704700BF8FAF060862
S315080040B826AC060842681AB10249034814F078B8CB
S315080040C8704700BF77AF060826AC060808B50C483F
S315080040D805F02CFC0B4B186030B94FF4DE710A4B0F
S315080040E80A4A0B4848F082FC0A4805F0E5FB0A4BE1
S315080040F8186020B940F2BF11084B044AF1E708BD19
S3150800410820B10608482100202DAD060860AF06082C
S315080041180BAB060810B106084421002043AD060873
S3150800412808B50B46014603480322006863F06DFD8F
S31508004138C00F08BD4421002030B5B3B000230022C3
S315080041488DF807300023CDE90223FFF79BFD3C22B3
S315080041585A495B4861F0EDFC0DF1070053F07BFF07
S31508004168024618B15749584814F022F89DF807101E
S3150800417831B1564814F01CF8FFF79CFD33B030BD32
S315080041884F4CB22205A861F06BFC94F8210001F0A7
S31508004198DDFB054694F8240053F0E6FF014618B1FE
S315080041A84B4814F005F8E7E72946B22205A861F056
S315080041B8C0FC022305A88DF8803053F0E8FF0146B5
S315080041C830B1444813F0F4FF0520FFF753FDD3E751
S315080041D8B4F9220053F00FFF014620B13E4813F008
S315080041E8E7FF0620F1E73D4854F002F8014608B112
S315080041F83B48D6E73B4B13F8012B0AB989B203E0CB
S315080042080131B1F5006FF6D1013189B20220354A7C
S3150800421853F0ACFE014628B9334B13F8012B32B9D3
S3150800422889B208E0314813F0C3FF0B20CDE7013106
S31508004238B1F5006FF1D1013189B206202A4A53F047
S31508004248ACFE014628B92A4B13F8012B32B989B2B4
S3150800425808E0284813F0ACFF0C20B6E70131B1F5A1
S31508004268006FF1D1013189B20120214A53F0ACFE21
S31508004278014620B1204813F09BFF0D20A5E71F49EA
S31508004288A1F1280053F008FE044680B963F0AEFA97
S3150800429802AA63F0DDFADDE90201194BC3E9000158
S315080042A8C3E90201C3E906010549164879E7042066
S315080042B8FFF7E0FC2146144873E700BF30B106084B
S315080042C8082100203EAF060826AC06085BAD06089E
S315080042D886AD0608B0AD0608E4AD060889AA06083C
S315080042E80BAE060864A40608E1A606083AAE060850
S315080042F894A9060870AE0608A5AE0608302100205F
S31508004308A0100020DAAE0608F1AE060810B5FFF7C9
S31508004318B9FC034B1C78FFF7CDFC204610BD00BF3F
S3150800432863770020402906D1C378202B08D005D802
S3150800433813F0EF0F04D04FF0FF307047302BFAD147
S315080043488078A528F7D8872806D85F2802D013D8F2
S3150800435804280AD800207047094B7830C0B2C340F1
S3150800436803F00103013B58B27047413804284FF05F
S31508004378FF3098BF0020704780F080000628F6E7CF
S31508004388B100003F2DE9F04F89B000260F461546C3
S3150800439804469846149B9DF84CA0CDE9063203902E
S315080043A8059000EB0209079B23B90795002E45D10E
S315080043B800264CE0BAF1080F069B2CD1FF2B26D80D
S315080043C89D42059A23D31A44944220D84A451ED8B2
S315080043D85A1C2146164405A82A4649F02DFE079078
S315080043E80028E2D0059B1B781909DED121460693D9
S315080043F805A8012349F020FE07AB0790009322463B
S315080044082B4605A906A849F025FE0028CBD000208A
S3150800441809B0BDE8F08FBAF10B0FCFD0BAF10F0F7C
S31508004428CCD0BAF1140FC9D0BAF1110F01D1022BA9
S31508004438C5E7BAF1040FC3D1082BC0E7013EB7D0C8
S31508004448FB68B0B29847C8F800000028DFD0129B6E
S31508004458AAF1040A1E800123D8F800705FFA8AFBBD
S31508004468D8F80020B91AB14201DA079909B90398A8
S31508004478CEE76BB90123234903FA0BF30B4204D1A0
S3150800448813F0900F03D02F2300E026233B70013743
S31508004498DDF85090BA1A4A44B242B8DCA9450399DD
S315080044A8B5D801EB09039C42B1D862199342AED834
S315080044B84A46384661F03DFB4B462A46214603A83C
S315080044C849F0BAFD034607904F440398002B9FD03E
S315080044D803785FEA13199BD10DF1480A4AF8083F91
S315080044E82146012303A849F0A7FD07AB07900093C7
S315080044F822462B46504603A949F0ACFD4B460028F0
S31508004508AED084E7012801002DE9F04F8BB081462B
S315080045180F461D46164622B9002420460BB0BDE8AC
S31508004528F08F0329F8D90028F6D049F0DBFD0446B0
S315080045380028F1D03278314622F03F032B70737881
S3150800454802F03002C270837073883A465BBA0381F8
S31508004558331D069306A8002349F06EFD32780790A6
S3150800456802F00F022270CAB1082A6DD82369002BF7
S315080045786AD19742069967D38B189E4264D8F01970
S31508004588834261D8484649F0EDFD206100285BD092
S315080045983A463146237806A849F04EFD4FF0000BF7
S315080045A8069BDFF8BCA39B1BFB1A0793DDE90632BB
S315080045B8002A00F0D0811A78FF2A0FD19A1BBA422E
S315080045C80ADA1A78FF2A3FD101339E1BBF1BBFB2EE
S315080045D8A781002F38D0A361002336E002F00F0325
S315080045E8120931460893099201233A4606A849F062
S315080045F823FD07AD07903B463246009506A909A84C
S3150800460849F028FD00BB099B03EB0B081FFA88F83D
S31508004618434519D8C34517D83B463246009506A9D7
S3150800462808A8CDF8248049F015FD68B9B8F11C0F1B
S315080046380DD8B8F1020F07D92AFA08F3DB070CD404
S31508004648DDE90725954215D90123637065E7B8F1B1
S31508004658230F02D0B8F13C0FF6D12146484649F057
S315080046684BFD0028F0D0DDE90725AA42ECD3B8F1BE
S31508004678230F4BD8B8F1020FE6D9A8F10303202B6C
S31508004688E2D801A151F823F0F3470008C14700080A
S31508004698514600089D480008474800082148000870
S315080046A85146000851460008834800083F47000855
S315080046B85146000865470008BF48000851460008E3
S315080046C81549000851460008514600086948000877
S315080046D85146000851460008D148000851460008C6
S315080046E85146000851460008F348000837490008AB
S315080046F85146000851460008514600085146000828
S3150800470851460008514600087D470008B8F13C0F95
S315080047189AD1042D98D8D4F81CB09BF80130002BF0
S3150800472892D1012329468BF8013006A849F076FC70
S31508004738CBF8180009E0022D86D86368013383D1BF
S31508004748294606A849F06AFC6060069B9B1B9F429F
S31508004758FFF47AAFFB1AC346079327E7042D3FF6FB
S3150800476873AF294606A8D4F81CB049F057FCCBF80D
S315080047781400EAE740F209436A1E9A423FF664AF14
S31508004788D4F81CB0DBF83030002B7FF45DAF2A462E
S3150800479848460699ABF8045049F0E4FCE369CBF8B7
S315080047A830001B6B002B3FF44FAF2B463A46314679
S315080047B806A849F041FCC8E7E369596B00297FF464
S315080047C843AF042101910DF1160100910698494657
S315080047D802953433FFF7D6FD069000283FF434AF28
S315080047E8E369BDF816201A70AFE76B1EFE2B3FF675
S315080047F82BAFD4F81CB0DBF83830002B7FF424AF85
S315080048082A4648460699ABF8065049F0ABFCE369D0
S31508004818CBF838009B6BC5E7E369D96B00297FF4A9
S3150800482813AF082101915918029500913C3349465E
S315080048380698FFF7A7FD0690002886D104E7022DFB
S315080048483FF602AFD4F81CB0DBF8203001337FF40A
S31508004858FBAE294606A849F0E1FBCBF8200074E729
S31508004868E369196C00297FF4EFAE1421019103F16D
S315080048780A01029500914033D9E76369002B7FF452
S31508004888E3AE0B23019304F10A030093029504F19E
S315080048981403CCE7022D3FF6D7AED4F81CB0DBF8E4
S315080048A8243001337FF4D0AE294606A849F0B6FB72
S315080048B8CBF8240049E70F21E369019103F10C01BC
S315080048C8029500914433B2E7032D3FF6BDAED4F8FE
S315080048D81CB0DBF82C3001337FF4B6AE294606A89F
S315080048E849F09CFBCBF82C002FE7032D3FF6ACAE1E
S315080048F8D4F81CB0DBF8283001337FF4A5AE294676
S3150800490806A849F08BFBCBF828001EE7022D3FF6D0
S315080049189BAED4F81CB0DBF8103001337FF494AEA4
S31508004928294606A849F07AFBCBF810000DE7042DAE
S315080049383FF68AAED4F81CB09BF80230002B7FF4F9
S3150800494883AE012329468BF8023006A849F066FB90
S31508004958CBF81C00F9E6002B7FF430AE74E600BFEE
S31508004968D8C192182DE9F0410E46174698460546CD
S3150800497828B121B11AB12C20A847044618B9002431
S315080049882046BDE8F0812C22002161F069F8012350
S31508004998224623710023C4E90467E560C4F8188031
S315080049A842F81C3F226240F2023222800A22A27092
S315080049B8014AA3621380E3E79457002008B561F01B
S315080049C817FC02280DD1074B4FF0FF31186863F022
S315080049D879F930B140F29121034B044A044848F06A
S315080049E805F808BD4C2100206CB106085AB206081D
S315080049F8A3B1060808B561F0FBFB02280BD1064BE4
S31508004A08186863F093F930B140F29921034B044AC8
S31508004A18044847F0EBFF08BD4C21002000B2060801
S31508004A2840B20608A3B10608F8B5044617480D4665
S31508004A38174604F07BFF164B186028B99821154BC2
S31508004A48154A164847F0D2FFFFF7B8FF49F0E7FBC3
S31508004A58134B144E002C08BF1C46134B1349002D44
S31508004A6808BF1D4612482B462246B1607060F4609E
S31508004A7835613775FFF776FF3060FFF7BBFF00F043
S31508004A88D1F9BDE8F84000F083B800BF98B2060827
S31508004A984C21002028B2060874B20608A3B10608F5
S31508004AA8A5E1040850210020A9E10408C5E1040885
S31508004AB8ADE1040838B504460D46FFF77FFF064BF7
S31508004AC821462A4653F8140CFFF71EFD0446FFF73D
S31508004AD891FF204638BD00BF6421002038B504463A
S31508004AE80D46FFF76BFF054B21462A46186848F01E
S31508004AF8F0FF0446FFF77EFF204638BD5021002008
S31508004B0810B5044650B1806908B149F057FB044B03
S31508004B182146BDE81040186849F005BB10BD00BF1E
S31508004B285021002008B561F063FB02280DD1074B18
S31508004B384FF0FF31186863F0C5F830B14FF4CC71FF
S31508004B48034B044A044847F051FF08BD8823002050
S31508004B58A8B2060846B40608DBB2060808B561F026
S31508004B6847FB02280BD1064B186863F0DFF830B10B
S31508004B7840F29F11034B044A044847F037FF08BD23
S31508004B88882300203FB306082DB40608DBB20608BA
S31508004B9837B5194804F0CAFE184B186028B9D12148
S31508004BA8174B184A184847F021FF4FF40273342266
S31508004BB800930A21154B164849F0A1FB044618B17B
S31508004BC8D921144B0F4AEDE7134D2871134804F001
S31508004BD873FEA86018B9E021114B0A4AE2E7214694
S31508004BE8104A114804F01CFF18B9E4210F4B054A6E
S31508004BF8D8E703B030BD00BFB0B406088823002044
S31508004C0863B306085FB40608DBB2060880210020ED
S31508004C186821002077B3060890AF00207CB4060800
S31508004C288CB306088CB40608D54C00089EB306084B
S31508004C38F7B5436A044663B19847054648B1A36A77
S31508004C4853B90322022100201CF040FA431C0646E9
S31508004C5808D1012003B0F0BD204698470028F0D1B6
S31508004C680020F7E7284649F0B4FA431E9BB2B3F585
S31508004C78806F0746EDD2FFF755FF29460E4849F0DB
S31508004C88AAFA002802DAFFF769FFE2E720230434C4
S31508004C9801933A4600233046074900941CF086FAE1
S31508004CA80130F0D02846FFF72BFFFFF757FF3046AD
S31508004CB853F0BAF8D4E700BFB47700200168D0E902
S31508004CC80B32014813F074BAB2B3060870B5174C1C
S31508004CD848F0AFFD237933B1D4E902014FF0FF3329
S31508004CE8002262F092FFFFF71DFF114B1E6946B9B5
S31508004CF8FFF734FF2379002BEAD1206862F019FF01
S31508004D08E6E7237935683BB9D5E90B239A4203D0F8
S31508004D18013376682B63EAE72846FFF789FF10B15F
S31508004D282846FFF7CBFF0023F3E700BF90AF002024
S31508004D386821002070B50646074B1C6914B9254634
S31508004D48284670BD256880223046296860F09DFE91
S31508004D580028F5D06468F1E7CC23002008B561F08F
S31508004D6847FA02280DD1074B4FF0FF31186862F051
S31508004D78A9FF30B14FF4C971034B044A044847F0F8
S31508004D8835FE08BD642B0020C0B4060857B70608C8
S31508004D9800B5060808B5074B4FF0FF31186862F0EA
S31508004DA891FF30B140F2A111034B044A044847F079
S31508004DB81DFE08BD642B0020C0B4060817B70608F0
S31508004DC800B5060808B561F013FA02280BD1064B98
S31508004DD8186862F0ABFF30B14FF4CD71034B044A43
S31508004DE8044847F003FE08BD642B002062B5060890
S31508004DF834B7060800B5060808B5064B186862F001
S31508004E0895FF30B140F2A711034B044A044847F00E
S31508004E18EDFD08BD642B002062B50608FAB606083B
S31508004E2800B5060807B5134804F080FD124B18604C
S31508004E3828B9B421114B124A124847F0D7FD4FF446
S31508004E4870731E21009320220F4B104849F057FA19
S31508004E58014618B1BC210E4B094AEDE70D4A0E4822
S31508004E6804F0DEFD18B9C1210C4B054AE4E703B086
S31508004E785DF804FBF0B70608642B002093B506080E
S31508004E8888B7060800B50608A4270020CC23002002
S31508004E9877B30608CCB70608BD4F0008B4B50608A8
S31508004EA838B50F4B05461C69FFF758FF5CB90C481F
S31508004EB849F03AFA70B12022294660F03AFEFFF71F
S31508004EC881FF204609E0236880222968186860F06F
S31508004ED8DCFD18B9FFF776FF012038BD6468E5E7F9
S31508004EE8CC230020F8B5114B00241D69FFF736FFBF
S31508004EF84FF4707200210E4860F0B2FD0C4E35B9B9
S31508004F08FFF760FF0A48002C08BF2846F8BD1D2C85
S31508004F180AD806EB441720223846296860F009FEA5
S31508004F280CB147F8047C01346D68E8E7CC23002007
S31508004F38E423002038B5084B084D1C69FFF72AFFFB
S31508004F481CB9BDE83840FFF757BF236828461968D3
S31508004F5813F02EF96468F3E7CC2300200E890608B7
S31508004F68014813F025B900BFC6B5060808B50846AE
S31508004F78FFF7F6FFBDE80840014813F019B900BF66
S31508004F88C6B50608014813F013B900BFF5B50608F3
S31508004F98014813F00DB900BF2FB60608014813F0EB
S31508004FA807B900BF5EB60608014813F001B900BF85
S31508004FB892B606082DE9F04F85B00026DFF8ECB161
S31508004FC8DFF8EC910396ADF80A6048F032FC032244
S31508004FD8022100201CF07AF8431C074606D140F245
S31508004FE8E5116C4B6C4A6D4847F000FD0023CBF879
S31508004FF800306B4B6B4C03F110052246186859684C
S31508005008083303C2AB421446F7D141F2336052F073
S31508005018F6FE2022ABF804005946384603921CF0DF
S3150800502881F8013004D14FF4F8715F4B5A4ADAE730
S315080050380024DFF880A103ABCDE900934FF4806222
S315080050480023514638461CF0FBF8002840F38C80AC
S31508005058514680B2FFF72EFD04460028EBD0837828
S31508005068013B032B04D901464846FFF77FFFE2E7D1
S31508005078FFF738FF21460DF10A0200F0C3F8064685
S3150800508890B12246BDF80A1049F020F905460028CD
S315080050983CD12046FFF734FD2846FFF731FD304658
S315080050A849F08CF80024C6E7204649F096F80546E4
S315080050B818B92046FFF766FFBDE7FFF73BFE8046AF
S315080050C8284649F07BF8B8F1000F2BD0D8F81030ED
S315080050D89BB9D8F814302BB3214648469847054655
S315080050E870B92046FFF70CFD2846FFF709FD284644
S315080050F849F064F82C462E469DE720469847EEE781
S31508005108D8F8183013B1214648469847284649F032
S3150800511860F8B0F5806F804629460BD92046FFF718
S3150800512837FFB6E784212046FFF7D8FC054600284E
S31508005138ECD1D6E7504649F04EF8002804DA294655
S315080051482046FFF72BFFA4E7039B4246CDE90093C9
S315080051585146002338461CF029F8013099D12946CA
S315080051682046FFF721FF94E701307FF464AF48F043
S315080051786CFB054600287FF45EAF384652F054FEAD
S315080051882046FFF7BDFC2846FFF7BAFC304649F02B
S3150800519815F81AE7C5B606087AB7060800B5060860
S315080051A86D230708B8230020E1B60608AC230020BB
S315080051B88C230020B47B0020012808D0022814BFBD
S315080051C8022301232820034A00FB032070470023F3
S315080051D8F8E700BF40B8060838B50D4609682C2315
S315080051E8074A0131044613F00BF8031E06DB2A6842
S315080051F89A4203D3D21AE0182A6038BD0020FCE781
S315080052089DFB07082DE9F04F91B007460C46059215
S31508005218002118220AA860F023FC002F4CD0002C85
S315080052284AD06389013B9BB27F2B45D8A378012BCB
S3150800523842D1204648F0D1FF029000283CD080226F
S31508005248A74960F022FCE3698146002B39D05D6CDA
S315080052581DB19D89003D18BF01253E46D6F8008038
S31508005268404648F0E5FF834668B1DDF83CA0BAF148
S31508005278000F29D10C2048F095FF20B1C0E9008B12
S315080052880F90C0F808A0F669002EE7D1B9F1000F0B
S3150800529840F0EB80002D00F0DF80E3699889013043
S315080052A880B248F07FFF054660BB0F98002840F09B
S315080052B88E80029848F082FF0026304611B0BDE875
S315080052C8F08F1D46C9E79A46DAF804309B4510D090
S315080052D8DAF80830002BF6D10C20039348F062FF61
S315080052E80028D0D0039BC0E9008B8360CAF8080061
S315080052F8C9E75A464146DAF8000060F087FB0028F5
S31508005308E6D1C0E7E369B1469A89596C60F011FCA1
S31508005318E36980219B892846EE5449F09AF9714C2D
S315080053288046A346E169002958D0284660F0DEFB86
S315080053380A90002852D0282303FB09B31C6A0D9348
S315080053480444A54248D8A844444528BF00248021D7
S3150800535820460A9449F07DF90B90002846D1012485
S315080053684FF000080220FFF727FF03900320FFF7F6
S3150800537823FFDDF83CA08146002840F0B7800027C7
S31508005388059BB8B218809CB90746013080B248F028
S3150800539809FF0997064658B1B8F1000F40F0218170
S315080053A880460E9CDFF840B1002C40F01E81F4556B
S315080053B8BAF1000F40F03A810E98002840F03D8176
S315080053C8284648F0FBFE029848F0F8FE75E7846818
S315080053D848F0F4FE204669E70024B8E709F1010910
S315080053E8B9F1030F04F128049CD1B8E7002CB6D00C
S315080053F8B94699F80C302BB10D9B1B78022B09D0AE
S31508005408032B26D0D9F81C90B9F1000FF1D14C46D8
S31508005418C84611E0D9F804000028F3D080220A9972
S3150800542860F033FB80460028ECD148460AA948F0C4
S3150800543817FF01280446E5D10E9B002B92D1012CB3
S3150800544890D038460AA948F030FF4FF001080446BC
S3150800545888E7D9F80800DFE738460AA948F025FF9B
S31508005468354604464FF00108E6E78021029849F0D8
S31508005478F0F804460F9DB5B1D5F804904C452DD1E2
S315080054884A462968029860F0C1FA38BBB846D8F87F
S31508005498000048F0CDFE98F80C3053B9D8F81C80AF
S315080054A8B8F1000FF3D10E9C0025B4FA84F4640908
S315080054B856E78145F2D16A68D8F80010286860F07E
S315080054C8A5FA82460028E9D140460AA948F0C8FE46
S315080054D801280446E2D15546D046ADE7AD68CAE785
S315080054E800B8060840B806081DB80608039B002B2E
S315080054F83FF445AF0120FFF75FFE00283FF43FAFB2
