S0160000434F41505F44485431315F5A4732382E733337B0
S3150800000000100020E54B00080DB504080DB50408DE
S315080000100DB504080DB504080DB504080DB504089A
S315080000200DB504080DB504080DB504080DB504088A
S315080000300DB504080DB50408938F00080DB504081E
S315080000400DB504080DB504080DB504080DB504086A
S315080000500DB504080DB504080DB504080DB504085A
S315080000600DB504080DB504080DB50408D52E00080D
S31508000070DBA604080DB504080DB504080DB504087B
S315080000800DB504080DB504080DB504080DB504082A
S315080000900DB504080DB50408255400080DB5040867
S315080000A00DB504080DB504080DB504080DB504080A
S315080000B00DB504080DB50408F9E50108A5F0010811
S315080000C0AB430508A743050839E80108B7430508FF
S315080000D0AF4305087DF00108B3430508E5F00108BC
S315080000E0D1F101080DB504080DB504080DB50408CD
S315080000F00DB504080DB504080DB504080DB50408BA
S315080001000DB504080DB504080DB504080DB50408A9
S315080001100DB504080DB504080DB504080DB5040899
S315080001200DB504080DB504080DB504080DB5040889
S315080001300DB504080DB504080DB504080DB5040879
S315080001400DB504080DB504080DB504083995000861
S315080001500DB504080DB5040815E00408FDCB010823
S315080001600DB504080DB504088B410508914105082D
S315080001700DB504080DB504080DB504080000000007
S315080001802DE9F04100231546C2E900014FF47A72C1
S3150800019080460F4649F0B0F818A3D3E90023044671
S315080001A00E464046394649F0A7F8134B80B22881D7
S315080001B05843241A66F100064FF46162002320466C
S315080001C0314649F099F84FF46163C0B2A8725843B2
S315080001D0241A20464FF03C024FF0000366F1000156
S315080001E049F08AF8C0B2E872C0EB0010A4EB8004AC
S315080001F02C73BDE8F08100BF80510100005C260524
S3150800020000000000000000002DE9F04F93B0CDE992
S315080002100A32DDE91C530E9353EC102BCDE9080185
S31508000220104619468DED060B1E9E48F08DFE80B1D0
S31508000230DDE906014FF0FF32C54B48F0ADFE40B987
S31508000240DDE906014FF0FF326FF4801348F086FEB1
S3150800025070B1DDE908019DED060B0E9B1E96CDE9F2
S315080002601C53DDE90A3213B0BDE8F04F00F088B937
S315080002700022DDE90601002348F070FE002800F0A0
S315080002803381DDE906A303F1004BCBF30A5016F4DC
S315080002908063A0F2FF3008BF06250F9348F082FB63
S315080002A09BA3D3E9002348F0E7FB9BA3D3E90023EC
S315080002B048F02CFACBF31304894644F07F51804664
S315080002C00022A44B504641F4401148F01DFA94A36D
S315080002D0D3E9002348F0D0FB02460B464046494680
S315080002E048F014FA48F062FE044648F05BFB8EA319
S315080002F0D3E900238046894648F0BEFB0022964B88
S3150800030048F004FA48F052FE89A3D3E900230746C9
S315080003104946404648F0B0FB80463846894648F08C
S3150800032041FB85A3D3E9002348F0A6FB02460B460A
S315080003304046494648F0E8F902460B46CDE90C2303
S3150800034048F09AFBDDE90C23804689461046194693
S3150800035048F0DCF90022CDE91001804B40464946B9
S3150800036048F0B4FC00227E4B48F0D0F902460B4612
S315080003704046494648F0AAFC00227A4B48F0C6F99E
S3150800038002460B464046494648F0A0FCDDE90C23E8
S315080003908046894600204FF0804148F0B5F902466C
S315080003A00B464046494648F0B1F902460B46DDE998
S315080003B0100148F08BFC07F2FF3700226A4B48F021
S315080003C0A5F900223B0548F057FB52465B46804696
S315080003D0894648F0E1FD002840F08980CDE90C897E
S315080003E004F16303C72B34BF0427052731051BD542
S315080003F053A3D3E900235046594648F0C3FD0028C5
S315080004007FD051A3D3E900235046594648F0A6FDAC
S31508000410002876D00027A542C6BF2C1B04F1FF355D
S3150800042000253C4646F480660E9B9F422CBF4FF043
S315080004300008A3EB070816F0020903D0002F18BF1F
S315080004404FF000083CB1DDE90C235046594648F008
S315080004503DFC82468B46DDE906010022002348F072
S315080004607DFD10B10BF100439B46DDE9080126F43A
S315080004700063CDE90183DDE90A324BEC10AB009548
S3150800048000F07EF802465FB3DDE9091316F0200F87
S3150800049000F10105089E0CBF65204520B047DDE93F
S315080004A008010523002205930A23002CCDE9023210
S315080004B007F1FF374FEAD473B8BF64422A4601935F
S315080004C004970A9B009452F0F0FD0246B9F1000F1A
S315080004D006D00B9BC41A0B9B1A190E9BA34245D830
S315080004E0104613B0BDE8F08FDDE906ABCDE6002275
S315080004F0404649461A4B48F0E9FB013CCDE90C0158
S315080005006EE7002D90D00F9B002B8DD0013D8BE719
S31508000510FB799F501344D33FB3C8608B288AC63FE4
S3150800052061436F63A787D23F71A379094F930A4046
S315080005301655B5BBB16B0240EF39FAFE422EE63FBF
S315080005402D431CEBE2361A3F0000000080842E4142
S31508000550FFFFEF7F0000F83F0000E03F00002C405F
S3150800056000002440000018400000F03F2020DDE98C
S315080005700913089DA8470134ADE700BF0000000035
S315080005802DE9F04F97B05BEC10ABDDE92057CDE9CC
S315080005900501CDE90723504652465B465946229E39
S315080005A048F0D2FC70B90323CDE902760193B04B2B
S315080005B00093DDE90501DDE9072352F096FC17B043
S315080005C0BDE8F08F4FF0FF326FF48013504659465E
S315080005D048F0C4FC28B10423CDE902760193A54B63
S315080005E0E6E74FF0FF3250465946A34B48F0D4FC95
S315080005F068B1A24A06F00403002B08BF0322A04BE9
S315080006001CBF13460422CDE902760192D0E7504674
S3150800061093A3D3E90023594648F0BEFC38B992A300
S31508000620D3E900235046594648F098FC68B1DDE9FD
S315080006300723DDE905014BEC10ABCDE921762095C2
S3150800064017B0BDE8F04FFFF7DFBD00220023504684
S31508000650594648F083FC002800F09A805B465246CB
S315080006600020002148F050F8012382468B46099362
S3150800067016F4806400F08E80092D40F28E800024E6
S3150800068030210EABA5F109020134202C03F8011B19
S31508000690A5EB040901D09442F6D15946504648F0D4
S315080006A085FC784B054603EBC90393ED007B8DED7E
S315080006B00A7B48F077F902460B465046594648F0F9
S315080006C023F8DDE90A2348F0D7F902460B46CDE9B7
S315080006D00C2348F093FC804648F054F902460B4632
S315080006E0DDE90C0148F010F802460B46CDE90C236B
S315080006F00022654B48F050FC002851D008F101084B
S31508000700404648F03FF902460B46DDE90A0148F043
S315080007102FFC10B14FF000080135B9F1000F50D188
S31508000720284648F03FF902460B465046594647F0D8
S31508000730EBFF0022544B8046894648F00FFC30B147
S31508000740002240464946504B48F026FC10B1E807BF
S3150800075000D501350A210EAB1A19202C0AD095FBB3
S31508000760F1F001FB1055303502F8015B01340546FE
S315080007700028F2D106F00302012A57D1002F55D0DE
S31508000780099A12B916F00C0F00D0013F302245E045
S3150800079009906DE74FF006097FE7A94600247CE734
S315080007A00022DDE90C01384B48F0D8FB0028B4D10B
S315080007B0B8F1000F02D018F0010FAED008F1010809
S315080007C0ABE70A210EAB2344202C0ED0B8FBF1F080
S315080007D001FB1082B8F1090F02F1300209F1FF3965
S315080007E004F1010403F8012B11D83021A1440EAA03
S315080007F0202CAFD0A14504F101030AD11C4609F10A
S3150800080058030DEB03092E2309F8203CA2E780467E
S31508000810DAE7A1541C46EBE71A550134A74205D975
S31508000820202CF9D1CDE902760194C1E6202CF9D025
S31508000830099A3AB12D2104F158026A4402F8201C9B
S315080008400134EFE7710704D504F158022B216A44F5
S31508000850F4E73207E6D504F1580220216A44EDE7A9
S315080008600000000065CDCD410000000065CDCDC17A
S31508000870D3780608D7780608FFFFEF7FCA780608F8
S31508000880CF780608E07806080000E03F0000000080
S3150800089070B5A8B02C2200211DA862F033F94FF0DC
S315080008A002331F9340F20B13814D14ACADF89C3004
S315080008B00FCD0FC40FCD0FC42B687E4923607E4B26
S315080008C07E4807930023CDE908330A931EF08CFD72
S315080008D07B4D286000285BD0012153F079FD20B1BB
S315080008E040F23A41774820F041F8286853F00AFA6E
S315080008F0754E3070286853F007FA744B74491870AF
S3150800090028681FF0EBF8044600283BD13378714E6F
S315080009105BB9714823F048F9306010BB40F26D416D
S315080009206E4B6F4A674848F077FE6E4823F03CF9ED
S3150800093030600028EDD02246C18928681EF0F0FDF7
S3150800094001220321286853F056FD3368214658686A
S3150800095023F0F2F80446A8B95F4823F025F9306079
S31508000960C0B1C189002228681EF0DAFD01220321E0
S31508000970286853F040FD33680421586823F0DCF8F2
S31508000980044638B1234622210220574A53F0F2FF83
S3150800099028B070BD06F046F9544A04ABCDE9040107
S315080009A00393A2F1080113F8010B02F8010D914215
S315080009B0F9D10622FF210BA862F0A4F80622FF212E
S315080009C00DF1320062F09EF8182200210EA862F09E
S315080009D099F808220EA903A862F0FDF841F234231B
S315080009E01C22002120A8ADF82C3062F08BF828686C
S315080009F01DA91FF065FA04460028C3D13C4928689A
S31508000A0053F08CFD04460028BCD13A49286853F0B7
S31508000A106FFD04460028B5D1374928681EF00CFE3C
S31508000A2004460028AED120A3D3E90023CDE900234C
S31508000A30286853F075FD04460028A3D12F4A30498B
S31508000A40286853F0ADFD044600289BD101201EF00E
S31508000A5017FD00289CD0A0232A4A07A8D3802A4A33
S31508000A60136006F0E5F9294B186020B940F2B64143
S31508000A70274B1B4A56E7274A2749284824F050FDA2
S31508000A8026483EF027FD2146254814AA06F084FA92
S31508000A90244B186000287FF47BAF40F2C241224BFA
S31508000AA00F4A3FE7AFF30080488D01C103400000BD
S31508000AB01CF40608213A020830EA06084C140020FD
S31508000AC0586D0020F2E4060860BD00205FBD0020D6
S31508000AD007001100105D00206158050845EA060860
S31508000AE0F8F206084B58050893EA060869BD00207F
S31508000AF01AF4060818F406085C6D0020561600203D
S31508000B00505D00206C140020C46D0020D46D0020B8
S31508000B105DEA060879EA0608753D0208786D002040
S31508000B20314C0208DC6D002082EA0608000000004D
S31508000B302DE9F74305465C4C222110205B4A53F009
S31508000B4019FF18222946204662F045F8A27B584B21
S31508000B50DFF8A4911A70E37C002289F8003000239C
S31508000B60CDE90023534D00224FF40073286853F053
S31508000B70D7FC18B1012003B0BDE8F0834E4B4F4FA8
S31508000B801B787BB94E4823F00FF804463C60F4B94D
S31508000B9002204C4A222153F0EDFE01224A4B212025
S31508000BA01A70E8E7494B4A4C1A884A4B286853F8A2
S31508000BB02210494A8B6821603B601EF019FF2268A3
S31508000BC0464B946824221B8802FB0344DEE7444B09
S31508000BD01C603F4BD3F80080B8F1000F07D0002304
S31508000BE02420D8F80C108B4208D1002623E040F2C6
S31508000BF014713C4B3C4A3D4848F00EFDD8F8086055
S31508000C0000FB0366F2695278120912F00E0F3DD006
S31508000C10052A3BD80022F18928683E601EF080FC30
S31508000C2001220321286853F0E6FB314A002192F994
S31508000C30000023F0D1F81AA3D3E90023CDE9002355
S31508000C40286853F06DFCD8F80830B34210D0D9891B
S31508000C50002228683B601EF063FC012203212868F5
S31508000C6053F0C9FB234A042192F9000023F0B4F893
S31508000C7099F800303C601B0913F00E0F08D023F0DA
S31508000C80AFFD012023F054FA002074E70133AAE7E8
S31508000C9001220721286853F037FD0028EFD069E7BD
S31508000CA0488D01C103420000145D002017ED0608B7
S31508000CB056BD0020586D00205ABD0020105D00204A
S31508000CC0493C020833ED060857BD0020D4740020BD
S31508000CD0045D002068100020B93C0208D274002088
S31508000CE00C5D00206FED0608A6F10608F2E406087A
S31508000CF0691800206A18002055BD00200348044BD7
S31508000D00834202D0034B03B118477047E8220020FC
S31508000D10E822002000000000064B0749C91A89107E
S31508000D2048BF0131491003D0044B0BB1014818479D
S31508000D30704700BFE8220020E822002000000000DB
S31508000D4010B5064C237843B9FFF7D8FF044B13B107
S31508000D500448AFF300800123237010BDF27400200D
S31508000D60000000005493070808B5054B1BB1054958
S31508000D700548AFF30080BDE80840FFF7CDBF00BFC8
S31508000D80000000003841002054930708A3F5803A74
S31508000D90704700BF174B002B08BF134B9D46FFF744
S31508000DA0F5FF00218B460F461348144A121A61F0C4
S31508000DB0A9FE0E4B002B00D098470D4B002B00D0F8
S31508000DC098470020002104000D000D48002802D095
S31508000DD00C48AFF3008049F095F82000290049F047
S31508000DE024FC48F03FFC00BF00000800000000009B
S31508000DF00000000000100020E8220020B4C50020F2
S31508000E0000000000000000002DE9F0439BB000AF91
S31508000E1000230446F81CC7E9013353F046FF18B10E
S31508000E2081B2184815F034FB6A46FB78F81CA2EB29
S31508000E30C3039D466946E84653F04CFF18B181B294
S31508000E40114815F025FB0026FB78F5B2AB4210D900
S31508000E5008EBC509484607F10C0153F054FFFB6A35
S31508000E600136002BF0D158F83500D9F804103B1D8F
S31508000E7003C33B1D03CB206020466C376160BD462B
S31508000E80BDE8F083C0300608F930060813B5684691
S31508000E90FFF7BAFF064C009B06492360019B0648EC
S31508000EA06360E379A27902B0BDE8104015F004BB8F
S31508000EB0A37D00202D3106086486002030B597B042
S31508000EC010A853F068FF49F0A9FB11AD024617496F
S31508000ED0284615F0F1FAFFF7D9FF154BBDF8402063
S31508000EE0D3E90A01CDE90E01D3E90801CDE90C01E0
S31508000EF0D3E90601CDE90A01D3E90401CDE90801E0
S31508000F00D3E902010B4B0C4C01930C4BCDE90601BE
S31508000F10CDE9032200934FF480612046084B094A25
S31508000F20029515F0DDFA204617B030BDCBFD060850
S31508000F30E822002064860020B3810020D13106080B
S31508000F406C860020443106082DE9F04FA9B080468A
S31508000F5049F064FB654C0FAF02466549384615F003
S31508000F60ABFAFFF793FF2378052B65D101F0A2FCB6
S31508000F70604ADFF8B0B1D2E90045041B61EB05050C
S31508000F802946204601F070FC5949024619A815F071
S31508000F9093FADBE90001201845EB010101F064FC36
S31508000FA0554E0DF1780902465149484615F084FA1E
S31508000FB0D6E9000101F058FC0DF18C0A02464C49AD
S31508000FC0504615F079FADBE90032E41845EB0205DC
S31508000FD020462946CDE90A9A47F018FD0022474BD4
S31508000FE047F04AFD82468B46D6E90001201845EBB4
S31508000FF0010147F00BFD0B4602465946504647F09D
S3150800100065FECDE908013E4B1B8806933D4B0593CB
S3150800101019ABCDE903733C4B4FF4806102933B4B0C
S315080010203B4A01933B4B3C480093434615F058FA1C
S31508001030394829B0BDE8F08F01F03CFC374ADFF8A3
S31508001040E490D2E90056451B61EB0606227834493E
S3150800105014A815F031FA3146284601F005FC244952
S31508001060024619A815F028FAD9E9000101F0FCFB97
S31508001070DFF884A00DF1780B02461D49584615F095
S315080010801BFADAE90001281846EB010101F0ECFB2E
S3150800109023AB02461649184615F00EFAD9E9004957
S315080010A023AB20464946CDE90AB347F0AFFC0022F8
S315080010B0124B47F0E1FCCDE90C01DAE90031E418FE
S315080010C049EB0101601946EB010147F09FFC0B460D
S315080010D00246DDE90C0147F0F9FDCDE90801084BA8
S315080010E01B88069319AB059314AB92E7B3850020CA
S315080010F0CBFD060860230020482300200000594045
S3150800110054740020AB32060864860020D1310608E4
S31508001110D63106086C860020B381002058230020AB
S31508001120AE3206085023002037B56049012053F037
S31508001130E9FC05465E495D4803F06EFC5D4C002DF2
S3150800114000F09C804FF480615B4A206815F0C8F96E
S3150800115049F064FA236802465849002052F0C5F857
S3150800116049F05CFA22680146544815F091F94FF4A3
S315080011708061534AABB2206815F0B2F900202168A5
S3150800118052F0B3F8206815F083F94FF480614D4B9F
S315080011904D4A206815F0A4F949F040FA236802463A
S315080011A04649002052F0A1F849F038FA226801466B
S315080011B0424815F06DF9434861F01AFD434A014665
S315080011C040484AF0B4F84249404803F025FC40F24A
S315080011D0D54300934FF480613D4B3E4A206815F095
S315080011E07FF949F01BFA236802463449002052F079
S315080011F07CF849F013FA22680146304815F048F998
S315080012004FF48061344B354A206815F069F949F086
S3150800121005FA236802462949002052F066F849F083
S31508001220FDF922680146254815F032F92A4861F089
S31508001230DFFC2B4A014628484AF079F8294928480C
S3150800124003F0EAFB41F2356300934FF48061254BC6
S31508001250254A206815F044F949F0E0F92368024662
S315080012601649002052F041F849F0D8F9226801469B
S31508001270124815F00DF9284603B030BD4FF48061C9
S315080012800B4B1A4A206815F02BF949F0C7F9236861
S3150800129002460A49284652F028F849F0BFF922685A
S315080012A00146064815F0F4F86FE700BF937D002065
S315080012B06B7D0020F441002058700608C2320608EB
S315080012C0CA3206082A330608373306087C41002046
S315080012D01B7D002052330608793306088633060834
S315080012E060410020F37C0020A23306080733060875
S315080012F070B5FFF719FF03220221002053F047FBC0
S315080013004D4A411C03464D4C106023D14FF4806171
S315080013104B4A206815F0E4F849F080F9236802463C
S315080013204849002051F0E1FF49F078F92268014662
S31508001330444815F0ADF8444A4FF48061206815F02A
S31508001340CFF82168002051F0D0FF206815F0A0F8EA
S31508001350012070BD4FF480613C4A206815F0C0F842
S3150800136049F05CF9236802463649002051F0BDFF72
S3150800137049F054F922680146324815F089F8344B89
S31508001380344A02211A600020032253F000FB324D32
S31508001390421C0346286016D14FF48061284A20680B
S315080013A015F09EF849F03AF92368024625490020C7
S315080013B051F09BFF49F032F922680146214815F0A1
S315080013C067F8264AB8E74FF48061254A206815F081
S315080013D087F849F023F9236802461A49002051F094
S315080013E084FF49F01BF922680146164815F050F8A3
S315080013F01C4E1D4C1D4B23602B68354645F8043B97
S315080014000FCC0FC594E8070041F2030385E80700EF
S3150800141073843223736242F22A3315484FF48C716F
S31508001420338570634AF0A6F870850020306386F825
S315080014302000F0638DE700BF54410020F4410020EE
S3150800144058700608C2320608C9330608FF3306086C
S31508001450744100200000D504504100202F340608AE
S31508001460663406080810002058410020000035168A
S315080014709634060873B53C4D4FF48C71A8634AF050
S3150800148079F8A88505F1200049F0FAFD064649F0E5
S31508001490E0FD0446E8B9354D009640F276334FF440
S315080014A08061334A286815F01BF849F0B7F82B68AD
S315080014B002463049204651F018FF49F0AFF82A682D
S315080014C001462C4814F0E4FF4FF45E75284602B036
S315080014D070BD05F1200149F0D5FD00281CDA234D21
S315080014E04FF45F734FF48061234A286814F0F8FFBD
S315080014F049F094F81F4902462B68002051F0F5FE82
S3150800150049F08CF82A6801461A4814F0C1FF0025EC
S31508001510204649F0AAFDD9E71C230193174B32460A
S3150800152000932146002328681FF042F90130EED1C6
S315080015302B680E4E00934FF480614FF46273104A85
S31508001540306814F0CDFF49F069F833680246094956
S31508001550002051F0CAFE49F061F832680146054894
S3150800156014F096FF3125D3E708100020F441002037
S31508001570A9340608C2320608E9340608584100208C
S31508001580233506082DE9F04385B005461C469DF827
S3150800159030609DF83470002A00F08F80002978D0DA
S315080015A049F03CF80146714814F072FF284614F0D9
S315080015B06FFF002C40F09A800124002E3CD02B4669
S315080015C04FF480616A4A6B4814F08AFF1C23019322
S315080015D0694BDFF8D091009386B2002332466549FD
S315080015E0D9F800001FF0E4F8013040F0838040F29B
S315080015F0D5430293614B03960193D9F80030DFF87F
S315080016008C8100934FF4806140F2BA335C4AD8F873
S31508001610000014F065FF49F001F85A490246D8F867
S315080016200030002051F061FE48F0F8FFD8F800209D
S315080016300146544814F02CFF3FB32B464FF4806103
S315080016404B4A514814F04CFF83B2B3F58C7F54D9FA
S315080016504FF48C734D4D80B20193009040F2C7331E
S315080016604FF480614A4A286814F03AFF48F0D6FFDA
S31508001670444902462B68002051F037FE48F0CEFF59
S315080016802A6801463F4814F003FF204605B0BDE826
S31508001690F08314F0FDFE002C8ED00124DFF8EC80D8
S315080016A02A464FF48061D8F8000014F019FFD8F8DC
S315080016B00010002051F019FE16E0002B3FF47DAF14
S315080016C0B1B11446DFF8C4802A464FF48061D8F8D1
S315080016D0000014F005FF48F0A1FFD8F800300246D4
S315080016E02849002051F001FE013466E70124E9E7A4
S315080016F00C46D3E70134E4B29EE72348FFF7BAFE67
S31508001700064610B90134E4B2BFE7204D4FF48061B4
S31508001710204A286814F0E4FE48F080FF2B68024649
S315080017201849002051F0E1FD48F078FF2A68014683
S31508001730144814F0ADFE41F235630293164BB6B267
S315080017400193164B03961B68154A00934FF4806164
S3150800175040F2CD33286814F0C3FE2968002051F002
S31508001760C4FD286814F094FE8FE700BF51350608BB
S31508001770CBFD0608F3780020744100201B7D00206D
S3150800178057350608C2320608F3740020F4410020D3
S31508001790B535060858700608F37C0020504100202D
S315080017A021360608544100202DE9F74300F0E4FFEE
S315080017B0BF4DC04814F06CFEBF4EC04AC049C14870
S315080017C0C14C14F079FE64212846C04BBC4A14F07B
S315080017D087FE019500964FF48061BA4BBC4A206893
S315080017E014F07EFE48F01AFF23680246B949002025
S315080017F051F07BFD48F012FF22680146B54814F007
S3150800180047FEB54B3221B54A0093B548B54B14F09F
S3150800181067FE4FF48061AB4BB34A206814F060FE54
S3150800182048F0FCFE23680246AA49002051F05DFDF7
S3150800183048F0F4FE22680146A64814F029FE33460D
S315080018404FF48061A84A206814F04AFE48F0E6FE84
S31508001850236802469F49002051F047FD48F0DEFE06
S31508001860226801469B4814F013FE2B464FF480610C
S315080018709D4A206814F034FE48F0D0FE23680246DC
S315080018809449002051F031FD48F0C8FE226801460F
S31508001890904814F0FDFD4FF48061914B924A206800
S315080018A014F01EFE48F0BAFE236802468949002055
S315080018B051F01BFD48F0B2FE22680146854814F037
S315080018C0E7FD0121042000F013FD01222220114624
S315080018D000F036FD01220B20114600F031FD0122F1
S315080018E02520114600F02CFD01221D20114600F08E
S315080018F027FD7E4B4FF48061714A7D4814F0F0FD58
S315080019004FF480617B4A206814F0EAFD48F086FEB1
S31508001910236802466F49002051F0E7FC48F07EFE36
S31508001920226801466B4814F0B3FD4FF48061724B90
S31508001930724A206814F0D4FD48F070FE2368024607
S315080019406449002051F0D1FC48F068FE226801463F
S31508001950604814F09DFD4FF48061674B684A206823
S3150800196014F0BEFD48F05AFE236802465949002085
S3150800197051F0BBFC48F052FE624D014622685548BC
S3150800198014F086FD284653F078F9EB79AA795E4972
S315080019905E4814F091FD4FF480615C4B5C4A206808
S315080019A014F09EFD48F03AFE236802464949002095
S315080019B051F09BFC48F032FE22680146454814F077
S315080019C067FD5449544814F077FD4FF48061524B33
S315080019D0524A206814F084FD48F020FE2368024627
S315080019E03C49002051F081FC48F018FE2268014667
S315080019F0384814F04DFD4A498B2002F0A5FF00F047
S31508001A0059FF484B484FC3E9000153F025F94FF4F5
S31508001A108061464A206814F063FD48F0FFFD23689C
S31508001A2002462C49002051F060FC48F0F7FD226878
S31508001A300146284814F02CFD48F057FE01210420E1
S31508001A4000F056FC01222220114600F079FC012202
S31508001A500B20114600F074FC01222520114600F0E7
S31508001A606FFC0122012411461D2000F069FCFFF7D6
S31508001A703FFC00F0C7FC00F047FF2D492D4800F059
S31508001A80B9FA1A48FFF71AFA234622462146CDE93B
S31508001A900044FFF777FDDFF8A0803B78052B71D16E
S31508001AA000F0F0FD4FF0010900F0FEFF46E000BF30
S31508001AB00086002058700608B3360608D131060895
S31508001AC0CBFD060874860020F44100208B360608F4
S31508001AD0A9360608C2320608DD360608C8360608DC
S31508001AE0CE850020BC36060826330608206C060874
S31508001AF0B37D0020E6360608FD3606080D370608CB
S31508001B0025370608AB7D00202D3106086C86002097
S31508001B103D3706084C370608B585002064370608A1
S31508001B20911B000868230020B38500207437060837
S31508001B30437D00206B7D0020DC15002000F0BAFEF6
S31508001B400023B8F8002006460D4647F0D5FB1A4391
S31508001B500BD14CB10D48FFF7F7F90123CDE90099F0
S31508001B601A461946FFF70EFD0024304629463C2240
S31508001B70002347F0C1FB013A1A4308BF012448F085
S31508001B80C2FD8AE74FF00009D8E700BF206C0608B7
S31508001B902DE9FF478268C84DD2B2052A2A7000F29D
S31508001BA0F381C64E33889A4200F0EE81C44C009207
S31508001BB04FF48061C34A206814F092FC48F02EFD69
S31508001BC023680246C049002051F08FFB48F026FDE5
S31508001BD022680146BC4814F05BFC29784B1E042B8E
S31508001BE00DD8BA4814F054FCB94B1F68384603F0B0
S31508001BF0BDF964200BF09EF9384603F0CBF92F782F
S31508001C007B1E042B35D800F055FE02460B46B1491B
S31508001C1001EBC707C7E900232B785F1E51F833206D
S31508001C2001EBC70C01EBC30051F837104068DCF82C
S31508001C300470521A60EB0701A74800EBC30740F887
S31508001C4033207960CDE900214FF48061A34A2068EA
S31508001C5014F046FC48F0E2FC9B4902462368002043
S31508001C6051F043FB48F0DAFC22680146964814F026
S31508001C700FFC2B78052B40F0A080954BDFF894924B
S31508001C80186803F073F9964814F002FC954814F0A6
S31508001C90FFFB954814F0FCFB2A788E4B934803EB20
S31508001CA0C20153F8323002884968013292B2012AD9
S31508001CB0C9E900318E4F028040F06981CDE90031D3
S31508001CC08C4A4FF48061206814F00AFC48F0A6FCA0
S31508001CD0236802467C49002051F007FB48F09EFC29
S31508001CE022680146784814F0D3FB00231A46DFF829
S31508001CF03082C7E90032404660F07AFF7E4B87B2F1
S31508001D0095F80090188048F089FCC7F580614B4625
S31508001D107A4A009008EB070014F0E2FB276895F86A
S31508001D20008048F07BFC43464FF48061734A00907C
S31508001D30384614F0D5FB48F071FC23680246624920
S31508001D40002051F0D2FA48F069FC226801465E4844
S31508001D5014F09EFB02A8FFF757F8694F029B6949E2
S31508001D603B60039B68487B60FB79BA7914F0A4FB57
S31508001D70664B1B684BB16648FFF7A0F801231A4665
S31508001D801946CDE90033FFF7FDFB0121042000F0D9
S31508001D90AFFA01222220114600F0D2FA01220B20C6
S31508001DA0114600F0CDFA01222520114600F0C8FAA6
S31508001DB001221D20114600F0C3FA3388052B40F096
S31508001DC0E180444F4FF00009BA46B84600F072FD6C
S31508001DD02A7809F101094A45EAE80201F6DA0020FB
S31508001DE0DFF8F4C03B46B968D3F80CE00130D3E914
S31508001DF00093B1EB09016EEB03034CF8081F82420E
S31508001E0007F10807CCF80430ECDA08EBC20158F8F9
S31508001E103230404F4A68DFF80C81D7E90001C8E93B
S31508001E2000321B1A62EB0102CDE900324FF48061E1
S31508001E30394A206814F054FB48F0F0FB2368024640
S31508001E402149002051F051FA48F0E8FB2268014682
S31508001E501D4814F01DFBD8E90032DFF8CCC0DFF8C6
S31508001E60C080DCE900011B1842EB0102D7E900102B
S31508001E705B1A62EB00024046CCE9003260F0B8FE1D
S31508001E801D4B87B295F80090188048F0C7FBC7F538
S31508001E9080614B46214A009008EB070014F020FBAE
S31508001EA0276895F8008048F0B9FB43464FF48061EF
S31508001EB01A4A0090384639E0B3850020507400204D
S31508001EC0F44100208E370608C2320608A3370608F2
S31508001ED0D047060818230020E8220020B537060850
S31508001EE0DE370608093806081F3806085474002025
S31508001EF0482300204B380608527400208838060804
S31508001F00A37D00202D310608648600205441002058
S31508001F10206C06086023002093380608B0380608A7
S31508001F20B37D0020582300205023002014F0D8FA4F
S31508001F3048F074FB236802462A49002051F0D5F977
S31508001F4048F06CFB226801240146264814F0A0FAE2
S31508001F50254B214604201C7000F0CAF9224621466A
S31508001F60222000F0EDF9224621460B2000F0E8F980
S31508001F7022462146252000F0E3F9224621461D2067
S31508001F8000F0DEF92B78338004B0BDE8F087DFF87F
S31508001F906080D8E900021B1A61EB0201CDE9003125
S31508001FA0124A4FF48061206814F09AFA48F036FB1A
S31508001FB0236802460B49002051F097F948F02EFB9A
S31508001FC022680146074814F063FAD7E90001D9E9FF
S31508001FD000321B1842EB0102D8E900105B1A62EBCB
S31508001FE0000284E6C2320608B48500206C3806086A
S31508001FF05823002070B50D4604461A4E304614F094
S3150800200047FA194814F044FA41F235622946174846
S3150800201014F03EFA164814F03BFA2146154814F017
S3150800202037FA154814F034FA2146144814F030FAF1
S3150800203002F096F8124814F02BFA124814F028FA0F
S31508002040114814F025FA114814F022FA104814F031
S315080020501FFA104814F01CFA3046BDE8704014F018
S3150800206017BA00BF58700608BB380608EF380608C6
S31508002070103906082139060861390608753906082F
S31508002080CD390608233A0608733A0608AF3A060811
S31508002090093B0608643B06081FB50446124814F0B7
S315080020A0F7F900F0A3FD02A800F0C6FDB0B19DF84F
S315080020B00B3040210D4A00930D489DF80A3014F064
S315080020C00FFA9DF80B209DF80A100A4814F0E0F95B
S315080020D02146074848F08EFA04B010BD4021064A4A
S315080020E0034814F0FDF9F3E7A23B0608C03B0608CF
S315080020F07C860020D63B0608ED3B06081FB504463D
S31508002100124814F0C5F900F071FD02A800F094FD1C
S31508002110B0B19DF8093040210D4A00930D489DF84D
S31508002120083014F0DDF99DF809209DF808100A48D2
S3150800213014F0AEF92146074848F05CFA04B010BD21
S315080021404021064A034814F0CBF9F3E7FC3B06089E
S315080021501A3C06087C8600202E3C0608ED3B06083D
S3150800216010B586B00446184814F092F900F03EFD02
S3150800217004A800F061FD08B39DF8113040210293D0
S315080021809DF81030114A01939DF8133010480093BA
S315080021909DF8123014F0A4F99DF811309DF813201B
S315080021A000939DF812109DF810300A4814F070F943
S315080021B02146074848F01EFA06B010BD4021064AD7
S315080021C0034814F08DF9F3E7433C0608613C06081A
S315080021D07C860020883C0608ED3B060870B586B06C
S315080021E000230124039305931F4B204E204D009393
S315080021F0204B68460196029504938DF80C4001F031
S315080022005FFF30B140F21B311B4B1C4A1C4847F09C
S3150800221003FA1C4B6846CDE900361B4B029504931E
S315080022208DF80C4001F04CFF20B14FF44971124B68
S31508002230124AEBE7154B68460093154B8DF80C4090
S31508002240CDE90135134B049301F03AFF20B140F272
S315080022502D31094B094AD9E71E2203210E4814F0ED
S3150800226017F9032006B070BDB03C0608E2800708DF
S31508002270B63C060899200008BD3C0608573D0608E6
S31508002280FD3C06080B3D0608FD200008113D060822
S315080022901B3D060861210008203D060800B58BB0E5
S315080022A0FFF79CFF2022002102A860F02BFC0B4BB5
S315080022B041F28832019318230021CDE90623084804
S315080022C001AA04F069FE28B95721064B064A0748B1
S315080022D047F0A2F90BB05DF804FB00BF6F3D060896
S315080022E0A9170008783D0608993D06088B3D06089B
S315080022F02DE9F0410746802088464BF0B7FE0024BA
S31508002300054605EB440305F814400134232C5F7099
S31508002310F7D12946204652F0B5FA0646B8F1000F1D
S3150800232005D003463A462146044814F0B1F8284633
S315080023304BF0BAFE3046BDE8F08100BFA23D060864
S31508002340F7B58DF804008DF8051005460E460120F0
S3150800235001A9174652F096FA04462FB103463246AB
S315080023602946034814F094F8204603B0F0BD00BF90
S31508002370CD3D060810B583780446852B0CD1164B3F
S31508002380164A174918681EF0ADFA164B1860164813
S3150800239002F0B4FB154B1860A378832B1BD1A068F9
S315080023A0134B104C18602368984214D140F2CF4260
S315080023B00023104952F01BFB80B2002814BF0122EB
S315080023C000220D4B18800D4B1A7004D1206852F06C
S315080023D0F8FA0B4B186010BD541000205810002056
S315080023E09841002050100020A04100209441002070
S315080023F04C100020BD86002056740020BC860020A4
S31508002400481000202DE9F341874C4FF48061874A34
S31508002410206814F065F848F001F9236802468449F3
S31508002420002050F062FF48F0F9F82268014680481B
S3150800243014F02EF802220121002052F0A8FA7D4E4F
S3150800244003464FF480617C4A3060206814F048F8EF
S3150800245048F0E4F8236802467549002050F045FF25
S3150800246048F0DCF822680146714814F011F8326821
S315080024707249734B7348B2F1FF3F08BF0B46724966
S3150800248014F006F835686A1C0CD104F02FFE49F0E2
S31508002490C5FB2A4601466D4813F0FAFF04F026FEEE
S315080024A049F0C1FBDFF8B0C10023624622F8083BB9
S315080024B0674B03F11007154618685968083303C5B2
S315080024C0BB422A46F7D1634F63493B883068ACF86C
S315080024D00230624B624D1A681EF03EF95749584B56
S315080024E00246B0F1FF3F08BF0B4628605D495548D4
S315080024F013F0CEFFD5F80080B8F1FF3F0CD104F0F9
S31508002500F5FD49F08BFB42460146504813F0C0FFE3
S3150800251004F0ECFD49F087FB5349852002F014FAD4
S315080025204649474B0246B0F1FF3F08BF0B462860B5
S315080025304E49444813F0ACFFD5F80080B8F1FF3F88
S315080025400CD104F0D3FD49F069FB424601463F48E9
S3150800255013F09EFF04F0CAFD49F065FB424983204B
S3150800256002F0F2F93549364B0246B0F1FF3F08BF93
S315080025700B4628603E49334813F08AFFD5F8008099
S31508002580B8F1FF3F0CD104F0B1FD49F047FB4246D4
S3150800259001462E4813F07CFF04F0A8FD49F043FBE2
S315080025A00021306852F04FFA2449254B2860B0F1D3
S315080025B0FF3F08BF0B4602462E49224813F068FF24
S315080025C02D686B1C0CD104F091FD49F027FB2A46B7
S315080025D001461E4813F05CFF04F088FD49F023FB12
S315080025E0254802F08BFA254D3A8828600092034662
S315080025F04FF48061224A206813F072FF48F00EF803
S31508002600236802460A49002050F06FFE48F006F893
S3150800261022680146064813F03BFF286802B0BDE869
S31508002620F04148F010BF00BFF4410020F23D060813
S31508002630C232060854100020153E0608F26F070835
S31508002640990E0708403E06082C3E06084E3E060828
S3150800265012C20608DE150020B441002058100020DA
S31508002660481000205D3E0608752300086F3E0608E0
S31508002670C93E06081D3F0608BC41002094410020BB
S31508002680313F06082DE9FF472B4C2668C6B92B4D66
S315080026904FF480612A4A286813F022FF47F0BEFFEC
S315080026A02B6802462749304650F01FFE47F0B6FF12
S315080026B02A680146234813F0EBFE2368013323609A
S315080026C0214F3B78A3B300252368DFF888900133B0
S315080026D0DFF884A02360B9F800301C480AF80350D4
S315080026E002F00CFADFF87480144EC8F80000CDF832
S315080026F008A0B9F800304FF48061CDE90003144A08
S315080027002368306813F0ECFE47F088FF336802460A
S315080027100C49284650F0E9FD47F080FF326801462B
S31508002720084813F0B5FED8F8000048F08CFE3D7056
S3150800273004B0BDE8F08700BF90410020F4410020B6
S31508002740643F0608C2320608BC860020A041002065
S315080027507A3F060856740020BD8600209441002062
S31508002760044AD2E90031013341F10001C2E90031DE
S31508002770704700BF7023002013B5174804F092FB7A
S31508002780164B186028B96721154B164A164846F0A5
S3150800279043FF00200021154B154A1A60154BC3E963
S315080027A000010AF00DFB044630B10146124813F049
S315080027B06FFE204602B010BD0AF0A4FB2346014670
S315080027C0CDE900440D4A0E484BF0D5FB04460028D7
S315080027D0EFD001460B48EAE70C410608D041002035
S315080027E09E3F0608E6400608BB3F0608F44100205F
S315080027F09F8B002070230020CE3F06086127000823
S31508002800D4410020F93F06082DE9F84316469946B3
S31508002810144A002305460C4646F06EFD21463080D4
S315080028203C222846002346F067FD002380460F46D3
S31508002830164628464FF46162214646F05DFD182289
S31508002840002346F059FD404689F8002039463C22C7
S31508002850002346F051FD089B00201A70099B1E7044
S31508002860BDE8F8838051010010B586B00DF1150357
S31508002870019305AB00930DF116020DF11303FFF753
S31508002880C3FF9DF81530094C02939DF814301221A8
S3150800289001939DF8133020460093054ABDF816307B
S315080028A013F01EFE204606B010BD00BF8D8B00201B
S315080028B030400608D0B50D4C4FF0FF31206849F07E
S315080028C0D5F828B14F210A4B0A4A0B4846F0A4FE10
S315080028D00A4B2068D3E9006749F0FCF818B155217E
S315080028E0074B084AF1E730463946D0BDD0410020AB
S315080028F043400608C9400608BB3F06087023002067
S315080029007F400608AC400608F7B5534C4FF4806183
S31508002910524A206813F0E4FD47F080FE2368024619
S315080029204F49002050F0E1FC47F078FE2268014646
S315080029304B4813F0ADFD03224A49002052F027F810
S31508002940494D03464FF48061484A2860206813F0D1
S31508002950C7FD47F063FE236802464149002050F050
S31508002960C4FC47F05BFE226801463D4813F090FD23
S315080029702A683F493F4B4048B2F1FF3F08BF0B4624
S315080029803E4913F085FD2E68721C0CD104F0AEFB8F
S3150800299049F044F932460146394813F079FD04F006
S315080029A0A5FB49F040F9374F00233A4622F8083B81
S315080029B0354B03F1100C164618685968083303C6D8
S315080029C063453246F7D1314E2E49338828687B80D5
S315080029D02F4B304D1A681DF0BFFE2549254B286040
S315080029E0B0F1FF3F08BF0B4602462B49224813F0B9
S315080029F04FFD2D686B1C0CD104F078FB49F00EF9DD
S31508002A002A4601461E4813F043FD04F06FFB49F0C1
S31508002A100AF9224802F072F8214D3288286000929D
S31508002A2003464FF480611F4A206813F059FD47F0AA
S31508002A30F5FD236802460A49002050F056FC47F087
S31508002A40EDFD22680146064813F022FD286803B00A
S31508002A50BDE8F04048F0F7BCF44100201C410608E8
S31508002A60C23206080200010060100020454106082F
S31508002A70F26F0708990E0708403E06085C410608EB
S31508002A804E3E06081C42002012C20608E015002029
S31508002A90641000205C1000207041060824420020C3
S31508002AA0FC410020824106082DE9F04385B0314CEF
S31508002AB02668C6B9304D4FF48061304A286813F04D
S31508002AC00FFD47F0ABFD2B6802462D49304650F006
S31508002AD00CFC47F0A3FD2A680146294813F0D8FCE8
S31508002AE0236801332360274B274D284E2848019336
S31508002AF00095002340F2CF42314600681DF09CFE47
S31508002B00DFF894800028C8F800002FDD0027236826
S31508002B103754013305F10800236001F0EFFFDFF8B1
S31508002B207C90154DC9F800000296D8F800304FF48D
S31508002B308061CDE90003174A2368286813F0D0FCA2
S31508002B4047F06CFD2B6802460D49384650F0CDFB20
S31508002B5047F064FD2A680146094813F099FCD9F83C
S31508002B60000005B0BDE8F04348F06DBC05B0BDE80F
S31508002B70F08300BFF8410020F4410020AA4106086E
S31508002B80C232060864100020004200209F8F0020F1
S31508002B9060100020C24106085C100020FC4100209D
S31508002BA0044A054B10685B68012838BF0120B3FB4F
S31508002BB0F0F0704738420020001000E070B5044677
S31508002BC0FFF7EEFF0546084ED6F8A430C3F34003D8
S31508002BD09C4201D1012070BDFFF7E2FF401B8842ED
S31508002BE0F2D90020F7E700BF00C003500D4AD2F81B
S31508002BF0FC3043F08073C2F8FC3000220A4B5A605E
S31508002C001A6842F001021A60084B094A1B68B3FBAE
S31508002C10F2F3084A1360012302221946104603F00C
S31508002C205DBE00BF00ED00E0001000E0E0110020EE
S31508002C3040420F00384200202DE9F04F85B00123AD
S31508002C400222002405461946104602948DF80C40C7
S31508002C50A24603F043FE002304220121022003F0CA
S31508002C603DFE0222454B44F61F66C3F8A020FFF737
S31508002C7097FF0146FFF794FF431AB34224D901236D
S31508002C8004221946022003F029FECDF804A0019B70
S31508002C904F2B1BDD012302221946104603F01EFEA8
S31508002CA078210020FFF78AFFA8B90134032C5FD0EA
S31508002CB0334ACDF800A003E000BF009B0133009320
S31508002CC0009B9342F8DDC6E700BFD3E700BF019B30
S31508002CD001330193DBE70120FFF770FF0028E4D0FA
S31508002CE00026B34602AF4FF0070807F801BB50218C
S31508002CF00020FFF763FF0028D7D078210120FFF7CF
S31508002D005DFF0028D1D0FFF74BFF4FF4967181463F
S31508002D100020FFF753FF01460028C6D0FFF740FF03
S31508002D20A0EB0900322807D9012303FA08F217F89D
S31508002D30013C134307F8013CB8F10108D7D2013624
S31508002D40052ED0D19DF808009DF809709DF80A2037
S31508002D509DF80B3028703844AA7002449DF80C6020
S31508002D60EB701344DBB29E426F702E7101D09CE764
S31508002D700021084605B0BDE8F08F00BF00E003500B
S31508002D803F0D030010B5274C03F000F903F098FA3D
S31508002D90236F23F0070343F00303236748F09DFCE2
S31508002DA0214B00209B6ADB015EBF4FF480321F4B2C
S31508002DB09A62D4F8203123F0070343F00203C4F8DB
S31508002DC02031D4F8283123F0070343F00203C4F86E
S31508002DD02831D4F8403123F0030343F00203C4F842
S31508002DE04031D4F8603123F0030343F00203C4F8FA
S31508002DF06031D4F8403223F0030343F00203C4F8E9
S31508002E004032D4F8003223F0070343F00203C4F833
S31508002E100032D4F8083223F0070343F00203C4F85B
S31508002E20083210BD008000500040005A0060005A69
S31508002E3030B59DB0214D08AC0FCD0FC495E80F00F5
S31508002E4084E80F002C22002111A85FF05BFE1C4BC2
S31508002E504FF48014109301238DF8453056231293AE
S31508002E6008231593092317930A230E2200210DF12F
S31508002E70120019935FF046FE124B08AACDE90243E9
S31508002E800B238DF810300C238DF811300E4B02A948
S31508002E9005932023069340F20113ADF81C300B4B23
S31508002EA00B48009310AB09F0B5FB044600214FF41C
S31508002EB0E13048F01CFB20461DB030BDB04706087F
S31508002EC00000015B3C00015B6F9400203C4200203F
S31508002ED0FC42002001484AF0F1BE00BFFC42002037
S31508002EE0014848F079BB00BFD0470608F8B50C463C
S31508002EF0064611462046154651F004FE0746284662
S31508002F0001F0FCFD033C012C054604D947B13146C6
S31508002F10064813F0BDFA2846BDE8F84048F093BACB
S31508002F2002463146024813F0B3FAF4E72D4E060876
S31508002F304D4E06080121024B8140186848F0E2BC54
S31508002F405443002008B5074B4FF0FF31186848F086
S31508002F508DFD30B140F24D31034B044A044846F02A
S31508002F605BFB08BD584300205A4E06089A520608CD
S31508002F708F4E060808B5064B186848F0ABFD30B109
S31508002F8040F25331034B044A044846F045FB08BD5A
S31508002F9058430020EF4E0608815206088F4E060851
S31508002FA073B5002300220546CDE9002309F090FFFA
S31508002FB06A4609F0DBFF00982D4A0199D2E90232E8
S31508002FC0C01A61EB02012B4ACDE90001FDF7D8F8DA
S31508002FD0284801F0BBFD284B002814BF06461E46AC
S31508002FE06B68002B41D1AC6814F001040DD00121A7
S31508002FF0224A2348FFF77AFF204801F07FFD314631
S31508003000044602461F4813F043FAAB689A070DD5E3
S3150800301003211D4A1D48FFF769FF1B4801F06EFD95
S315080030203146044602461A4813F032FAAB685B0783
S315080030300DD50421174A1848FFF758FF154801F01F
S315080030405DFD314604460246144813F021FA20462F
S3150800305048F0F9F9304648F0F6F96A681AB11049A5
S31508003060104813F015FA02B070BD0024EFE700BF50
S315080030708823002078230020206C0608A0940020CE
S31508003080154F06081C4F0608C09400203C4F06083A
S31508003090484F0608D0940020704F06087B4F060854
S315080030A0A5530608A54F0608F7B500220023CDE963
S315080030B0002344680646344D64B12146334813F06C
S315080030C0E7F90120FFF736FF0121286848F053FC8D
S315080030D003B0F0BD502221462D485FF013FD2D4860
S315080030E013F0D6F901212C4A2C48FFF7FFFE21469A
S315080030F0274A2B48FFF7FAFE02212A4A2A48FFF7F1
S31508003100F5FE0321294A2A48FFF7F0FE294A042139
S315080031102948FFF7EBFE09F0DBFE6A4609F026FFB1
S31508003120DDE90017254BD3E908208A1847EB000C80
S315080031309868C3E90017121AD868C3E902176CEB36
S315080031400000C3E908209A6A1D4801329A62D3E949
S315080031500623891A67EB0303CDE900134FF47A7344
S31508003160B1FBF3F113F094F92046FFF7E3FE0221D1
S31508003170286848F000FC7268002AA9D0114912484C
S3150800318013F086F9A4E700BF54430020BF4F060892
S3150800319090940020E14F0608A0940020154F0608D9
S315080031A0EE4F0608B0940020F94F0608C094002098
S315080031B007500608D09400201650060888230020D9
S315080031C02750060888530608A54F0608F7B50023B2
S315080031D0002205461548CDE9002313F059F909F0F0
S315080031E077FE6A4609F0C2FEDDE90010104BD3E906
S315080031F004248A18D3E9067640EB0404D21B64EB50
S315080032000604C3E90424C3E90010C3E906106A6882
S315080032101AB10849084813F03BF90120FFF78AFE5E
S315080032200022064B1A7003B0F0BD00BF30500608E6
S315080032308823002068530608A54F06088F940020A7
S3150800324010B50F490446A1F1280051F012FC18B92F
S315080032500C490D4813F01CF90220FFF76BFE0120FC
S31508003260FFF768FE094B0121186848F084FB62687D
S315080032702AB1BDE810400649064813F009B910BD41
S31508003280444300201C4300204050060854430020B5
S3150800329045530608A54F06084168014813F0F8B8D3
S315080032A06750060810B50B4B044680681870C0B204
S315080032B001F03AFC014618B1A268074813F0E8F88D
S315080032C062682AB1BDE810400449054813F0E0B821
S315080032D010BD00BF8F940020935006082753060898
S315080032E0A54F060842681AB10249034813F0D0B838
S315080032F0704700BF0E530608A54F060842681AB164
S315080033000249034813F0C4B8704700BFEC520608D8
S31508003310A54F060808B50C4803F0C4FD0B4B18600A
S3150800332030B940F29F110A4B0A4A0B4846F074F925
S315080033300A4803F07DFD0A4B186020B94FF4D17195
S31508003340084B044AF1E708BDF8530608584300201D
S31508003350AB500608D55206088F4E0608E8530608ED
S3150800336054430020C150060808B50B4601460348D9
S315080033700322006848F01DFBC00F08BD5443002017
S3150800338010B5FFF7DFFD034B1C78FFF7F3FD20466A
S3150800339010BD00BF8F94002010B50021254B13F8EF
S315080033A0012B0AB989B203E00131B1F5006FF6D1F4
S315080033B0013102201F4A89B251F0C5FB044628B9DB
S315080033C01D4B13F8012B52B9A4B20CE001461B4859
S315080033D013F05EF80B20FFF7ADFD204610BD013453
S315080033E0B4F5006FEDD10134A1B20620124A51F0AE
S315080033F0C1FB044628B9124B13F8012B3AB9A4B2FB
S3150800340009E001460F4813F043F80C20E3E70134BE
S31508003410B4F5006FF0D10134A1B20120084A51F089
S31508003420C0FB04460028D8D00146074813F030F8F8
S315080034300D20D0E7E8470608654A0608D950060869
S31508003440184D06080F5106084451060830B5A1B0B4
S31508003450002300228DF807300023CDE90223FFF769
S3150800346071FD382239493A485FF0B5FB0DF107007E
S3150800347051F0DEFB024618B13649374813F008F812
S315080034809DF8071031B1354813F002F8FFF772FDC1
S3150800349021B030BD2E4C702204A85FF033FB94F89F
S315080034A0210001F047FB054694F8230051F049FC3A
S315080034B0014618B12A4812F0EBFFE7E729467022C1
S315080034C004A85FF088FB022304A88DF87A3051F02F
S315080034D04BFC014630B1234812F0DAFF0520FFF70E
S315080034E029FDD3E794F9220051F072FB014620B179
S315080034F01D4812F0CDFF0620F1E71C4851F066FC86
S31508003500014608B11A48D6E7FFF746FF0028BDD19D
S31508003510204604F1280151F0ACFA054680B909F0B5
S31508003520D7FC02AA09F022FDDDE90201114BC3E925
S315080035300001C3E90201C3E9060121460E48BAE7BC
S315080035400420FFF7F7FC29460C48B4E70854060898
S315080035501C430020B3520608A54F060879510608F1
S31508003560A4510608CE510608F95106080D4E06085C
S3150800357020520608882300204F520608665206087D
S31508003580402906D1C378202B08D005D813F0EF0FB1
S3150800359004D04FF0FF307047302BFAD18078A52839
S315080035A0F7D8872806D85F2802D013D804280AD85F
S315080035B000207047094B7830C0B2C34003F00103BE
S315080035C0013B58B27047413804284FF0FF3098BF86
S315080035D00020704780F080000628F6E7B100003F1B
S315080035E02DE9F04F89B000260F4615460446984641
S315080035F0149B9DF84CA0CDE906320390059000EB8C
S315080036000209079B23B90795002E45D100264CE0F1
S31508003610BAF1080F069B2CD1FF2B26D89D42059A96
S3150800362023D31A44944220D84A451ED85A1C214608
S31508003630164405A82A4647F056FC07900028E2D00B
S31508003640059B1B781909DED12146069305A8012397
S3150800365047F049FC07AB0790009322462B4605A97D
S3150800366006A847F04EFC0028CBD0002009B0BDE8DC
S31508003670F08FBAF10B0FCFD0BAF10F0FCCD0BAF149
S31508003680140FC9D0BAF1110F01D1022BC5E7BAF14F
S31508003690040FC3D1082BC0E7013EB7D0FB68B0B210
S315080036A09847C8F800000028DFD0129BAAF1040A40
S315080036B01E800123D8F800705FFA8AFBD8F800202C
S315080036C0B91AB14201DA079909B90398CEE76BB975
S315080036D00123234903FA0BF30B4204D113F0900F8D
S315080036E003D02F2300E026233B700137DDF85090E6
S315080036F0BA1A4A44B242B8DCA9450399B5D801EBCF
S3150800370009039C42B1D862199342AED84A46384654
S315080037105FF061FA4B462A46214603A847F0E3FBC9
S31508003720034607904F440398002B9FD003785FEA1F
S3150800373013199BD10DF1480A4AF8083F214601237F
S3150800374003A847F0D0FB07AB0790009322462B4609
S31508003750504603A947F0D5FB4B460028AED084E770
S31508003760012801002DE9F04F8BB081460F461D4612
S31508003770164622B9002420460BB0BDE8F08F03296F
S31508003780F8D90028F6D047F004FC04460028F1D002
S315080037903278314622F03F032B70737802F03002FC
S315080037A0C270837073883A465BBA0381331D0693E9
S315080037B006A8002347F097FB3278079002F00F021D
S315080037C02270CAB1082A6DD82369002B6AD197429C
S315080037D0069967D38B189E4264D8F019834261D83C
S315080037E0484647F016FC206100285BD03A46314629
S315080037F0237806A847F077FB4FF0000B069BDFF807
S31508003800BCA39B1BFB1A0793DDE90632002A00F0CE
S31508003810D0811A78FF2A0FD19A1BBA420ADA1A7887
S31508003820FF2A3FD101339E1BBF1BBFB2A781002FC2
S3150800383038D0A361002336E002F00F03120931469F
S315080038400893099201233A4606A847F04CFB07ADB0
S3150800385007903B463246009506A909A847F051FB52
S3150800386000BB099B03EB0B081FFA88F8434519D8D8
S31508003870C34517D83B463246009506A908A8CDF891
S31508003880248047F03EFB68B9B8F11C0F0DD8B8F193
S31508003890020F07D92AFA08F3DB070CD4DDE9072556
S315080038A0954215D90123637065E7B8F1230F02D055
S315080038B0B8F13C0FF6D12146484647F074FB00287C
S315080038C0F0D0DDE90725AA42ECD3B8F1230F4BD88F
S315080038D0B8F1020FE6D9A8F10303202BE2D801A11B
S315080038E051F823F0473A0008153A0008A5380008A9
S315080038F0F13A00089B3A0008753A0008A53800080E
S31508003900A5380008D73A000893390008A5380008F2
S31508003910B9390008133B0008A5380008693B0008B8
S31508003920A5380008A5380008BD3A0008A5380008DB
S31508003930A5380008253B0008A5380008A538000862
S31508003940A5380008473B00088B3B0008A538000847
S31508003950A5380008A5380008A5380008A5380008C5
S31508003960A5380008D1390008B8F13C0F9AD1042DC2
S3150800397098D8D4F81CB09BF80130002B92D10123BB
S3150800398029468BF8013006A847F09FFACBF81800AD
S3150800399009E0022D86D86368013383D1294606A833
S315080039A047F093FA6060069B9B1B9F42FFF47AAF31
S315080039B0FB1AC346079327E7042D3FF673AF29463C
S315080039C006A8D4F81CB047F080FACBF81400EAE74A
S315080039D040F209436A1E9A423FF664AFD4F81CB017
S315080039E0DBF83030002B7FF45DAF2A46484606994F
S315080039F0ABF8045047F00DFBE369CBF830001B6BBE
S31508003A00002B3FF44FAF2B463A46314606A847F0FF
S31508003A106AFAC8E7E369596B00297FF443AF0421C2
S31508003A2001910DF116010091069849460295343325
S31508003A30FFF7D6FD069000283FF434AFE369BDF8DA
S31508003A4016201A70AFE76B1EFE2B3FF62BAFD4F885
S31508003A501CB0DBF83830002B7FF424AF2A464846E2
S31508003A600699ABF8065047F0D4FAE369CBF8380064
S31508003A709B6BC5E7E369D96B00297FF413AF08216F
S31508003A8001915918029500913C3349460698FFF76B
S31508003A90A7FD0690002886D104E7022D3FF602AF5F
S31508003AA0D4F81CB0DBF8203001337FF4FBAE29468E
S31508003AB006A847F00AFACBF8200074E7E369196C00
S31508003AC000297FF4EFAE1421019103F10A01029552
S31508003AD000914033D9E76369002B7FF4E3AE0B23EB
S31508003AE0019304F10A030093029504F11403CCE749
S31508003AF0022D3FF6D7AED4F81CB0DBF824300133DC
S31508003B007FF4D0AE294606A847F0DFF9CBF82400A3
S31508003B1049E70F21E369019103F10C010295009130
S31508003B204433B2E7032D3FF6BDAED4F81CB0DBF83C
S31508003B302C3001337FF4B6AE294606A847F0C5F9FE
S31508003B40CBF82C002FE7032D3FF6ACAED4F81CB00B
S31508003B50DBF8283001337FF4A5AE294606A847F0DE
S31508003B60B4F9CBF828001EE7022D3FF69BAED4F831
S31508003B701CB0DBF8103001337FF494AE294606A852
S31508003B8047F0A3F9CBF810000DE7042D3FF68AAEEF
S31508003B90D4F81CB09BF80230002B7FF483AE0123C7
S31508003BA029468BF8023006A847F08FF9CBF81C0097
S31508003BB0F9E6002B7FF430AE74E600BFD8C1921840
S31508003BC02DE9F0410E4617469846054628B121B11B
S31508003BD01AB12C20A847044618B900242046BDE887
S31508003BE0F0812C2200215EF08DFF012322462371ED
S31508003BF00023C4E90467E560C4F8188042F81C3F4E
S31508003C00226240F2023222800A22A270014AA3628C
S31508003C101380E3E75874002008B503F0C1F80228BA
S31508003C200DD1074B4FF0FF31186847F01FFF30B131
S31508003C304FF42471034B044A044845F0EDFC08BDD3
S31508003C405C430020405406080E56060877540608BA
S31508003C5008B503F0A5F802280BD1064B186847F0FB
S31508003C6039FF30B14FF42671034B044A044845F036
S31508003C70D3FC08BD5C430020CF540608F45506085B
S31508003C80775406082DE9F8430D4617460646D8B177
S31508003C90D1B10024DFF83480315D7FB1DFF83080A0
S31508003CA0DFF830906F1EBC42ACBF40464846013430
S31508003CB012F0EEFBAC4207D0315DF4E74046013422
S31508003CC012F0E6FBA542E7D1BDE8F883B26807081B
S31508003CD019600708F7540608F8B5044617480D464C
S31508003CE0174603F0DFF8164B186028B99921154BCB
S31508003CF0154A164845F090FCFFF78EFF00F074FB56
S31508003D00134B144E002C08BF1C46134B1349002DA9
S31508003D1008BF1D4612482B462246B1607060F46003
S31508003D2035613775FFF74CFF3060FFF791FF00F0FC
S31508003D3089F9BDE8F84000F0DFB800BF4C56060820
S31508003D405C430020FF5406082856060877540608E0
S31508003D504BB00408604300204FB004086BB0040859
S31508003D6053B0040838B504460D46FFF755FF064B11
S31508003D7021462A4653F8140CFFF7F4FC0446FFF7CD
S31508003D8067FF204638BD00BF7443002038B5044697
S31508003D900D46FFF741FF054B21462A46186846F0AF
S31508003DA0EFFD0446FFF754FF204638BD6043002068
S31508003DB0F8B50D460446002867D0FFF72DFF3348AF
S31508003DC012F066FB2178324812F062FB61783148BE
S31508003DD012F05EFBA178304812F05AFBE1782F48C2
S31508003DE012F056FB61682E4812F052FB21892D48C5
S31508003DF012F04EFBA1892C4812F04AFB61892B4828
S31508003E0012F046FB2A4812F043FB2178C9B9294823
S31508003E1012F03EFB284812F03BFB6189B9B92548E8
S31508003E2012F036FB254812F033FBA389ABB92448B8
S31508003E3012F02EFB234812F02BFBBDE8F840FFF7E3
S31508003E4007BF20692A46FFF71DFF1F48E0E760699C
S31508003E502A46FFF717FF1C48E2E761681B4F1C4E0E
S31508003E601C48322914BF3946314612F011FBA18984
S31508003E70A0692A46FFF706FF61681648322914BF6B
S31508003E803946314612F004FBD4E7F8BD1755060843
S31508003E901A5506082E5506084455060857550608A5
S31508003EA06A5506088355060894550608AA5506084D
S31508003EB0C1550608ED550608CE550608DE5506080E
S31508003EC0EC550608A8320608F0550608DC5506081B
S31508003ED058700608CBFD060810B5044618B1806967
S31508003EE008B147F0C2F8034B2146BDE810401868F0
S31508003EF047F070B86043002007B50E4802F0D2FFBD
S31508003F000D4B186028B9B1210C4B0D4A0D4845F0E8
S31508003F1083FB4FF4F073302200930A210A4B0B48B7
S31508003F2047F03FF918B1B921094B054AEEE703B046
S31508003F305DF804FB5857060870450020EE5606083B
S31508003F403E5706088F5606089043002078430020FF
S31508003F500257060870B50646074B1C6914B925466C
S31508003F60284670BD25688022304629685EF0DFFD48
S31508003F700028F5D06468F1E7AC45002008B502F0E2
S31508003F800FFF02280DD1074B4FF0FF31186847F095
S31508003F906DFD30B140F28B11034B044A044845F0DD
S31508003FA03BFB08BD644B002068570608425A0608C2
S31508003FB0A857060808B5074B4FF0FF31186847F0B1
S31508003FC055FD30B14FF4CD71034B044A044845F012
S31508003FD023FB08BD644B002068570608025A0608EA
S31508003FE0A857060808B502F0DBFE02280BD1064BD7
S31508003FF0186847F06FFD30B140F29311034B044A3D
S31508004000044845F009FB08BD644B0020055806081E
S315080040101F5A0608A857060808B5064B186847F039
S3150800402059FD30B14FF4D071034B044A044845F0AA
S31508004030F3FA08BD644B002005580608E55906083A
S31508004040A857060807B5134802F02CFF124B18604C
S3150800405028B9B621114B124A124845F0DDFA4FF439
S3150800406034731E21009318220F4B104847F099F815
S31508004070014618B1BE210E4B094AEDE70D4A0E4816
S3150800408002F08AFF18B9C3210C4B054AE4E703B0CE
S315080040905DF804FBD85A0608644B00203658060813
S315080040A0735A0608A857060894480020AC4500200D
S315080040B002570608B45A0608C941000857580608A0
S315080040C038B50F4B05461C69FFF758FF5CB90C4815
S315080040D047F07CF870B1182229465EF07CFDFFF7A0
S315080040E081FF204609E023688022296818685EF067
S315080040F01EFD18B9FFF776FF012038BD6468E5E7AD
S31508004100AC4500202DE9F041134B00241D69FFF74B
S3150800411035FF4FF43472002110485EF0F3FC182680
S315080041200E4F3DB9FFF75EFF0C48002C08BF284626
S31508004130BDE8F0811D2C0DD806FB047818224046F0
S3150800414029685EF048FD24B1631E06FB0373C3F8B5
S31508004150148001346D68E4E7AC450020C4450020AE
S3150800416038B5084B084D1C69FFF724FF1CB9BDE894
S315080041703840FFF751BF23682846196812F088F9B6
S315080041806468F3E7AC45002026330608014812F0B8
S315080041907FB900BF69580608014812F079B900BF0F
S315080041A098580608014812F073B900BFD158060896
S315080041B0014812F06DB900BFFF580608014812F011
S315080041C067B900BF325906082DE9F04F85B00026B9
S315080041D034463546DFF8F4B1DFF800A20396ADF8A9
S315080041E00A6046F089FA20B94FF47A7047F075FBF1
S315080041F0F7E703220221002050F0C9FB431C0746BB
S3150800420006D14FF4EE716C4B6C4A6D4845F004FAD2
S315080042106C4BDFF8CCC103F1100E6246186859687A
S31508004220083303C273459446F7D11C22664B3846B9
S315080042306649CBF8003003921CF08EFA013026D07E
S31508004240DFF8A08146F05FFA03ABCDE900A34FF48F
S3150800425080620023414638461CF0EEFA002840F3F7
S315080042609180414680B2FFF77DFD05460028E9D0DA
S31508004270574812F00DF900212846FFF799FDAB784B
S31508004280013B032B08D92846FFF780FFDAE740F2FF
S31508004290E711504B494AB8E7FFF734FF29460DF1B5
S315080042A00A0200F0E3F8064670B12A46BDF80A107D
S315080042B046F05EFF0446C0BB2846FFF70DFE2046C3
S315080042C0FFF70AFE30461CE0284646F0DDFE81462A
S315080042D018B92846FFF760FFB4E7FFF73BFE044628
S315080042E0484646F0C2FE7CB123696BB1284698471A
S315080042F00446D0B92846FFF7EFFD2046FFF7ECFD48
S31508004300204646F0B2FE9DE784212846FFF73EFD8B
S31508004310044650B92846FFF7DFFD2046FFF7DCFDC7
S31508004320204646F0A2FE26468CE7204646F0A8FE22
S31508004330B0F5806F8146214603D92846FFF732FF3C
S31508004340BAE7404646F09EFE002804DA214628468B
S31508004350FFF72EFFB0E7204812F09AF80021204612
S31508004360FFF726FD039B4A46CDE900A341460023F5
S3150800437038461CF01DFA01309ED121462846FFF723
S315080043801DFF99E701307FF45DAF46F0B5F90028C7
S315080043907FF458AF384650F014FB4FF47A7047F064
S315080043A09CFA2846FFF798FD2046FFF795FD30460C
S315080043B046F05BFE15E700BF64590608655A06080D
S315080043C0A857060812C206080000331690450020B2
S315080043D09959060880590608BF59060874450020E9
S315080043E098450020E094002037B56C46204600F03A
S315080043F0F7FC94E80300024D85E8030003B030BDDE
S31508004400684B002048B105490A68904205D34968B7
S315080044100A44904201D249F047BE7047684B0020D3
S31508004420012808D0022814BF022301232820034AA2
S3150800443000FB032070470023F8E700BF285B060847
S3150800444038B50D4609682C23074A0131044612F08F
S3150800445047F8031E06DB2A689A4203D3D21AE018E5
S315080044602A6038BD0020FCE7B26807082DE9F04F3E
S3150800447091B007460C460592002118220AA85EF05C
S3150800448041FB27B90026304611B0BDE8F08F002C55
S31508004490F8D06389013B9BB27F2BF3D8A378012B15
S315080044A0F0D1204646F0F0FD02900028EAD080229E
S315080044B0AE495EF03CFBE3698146002B00F095802F
S315080044C05D6C1DB19D89003D18BF01253E46D6F895
S315080044D00080404646F0FEFD834670B1DDF83CA0FC
S315080044E0BAF1000F40F084800C2046F0B2FD20B1EE
S315080044F0C0E9008B0F90C0F808A07669002EE6D1B7
S31508004500B9F1000F40F0DF80002D00F0D380E36999
S315080045109889013080B246F09CFD05460028B1D046
S31508004520E369B1469A89596C5EF055FBE3698021C7
S315080045309B892846EE5447F01DF88D4C8046A346C5
S31508004540E169002975D028465EF022FB0A9000280A
S315080045506FD0282303FB09B31C6A0D930444A542B4
S3150800456065D8A844444528BF0024802120460A94DB
S3150800457047F000F80B90002864D101244FF000089A
S315080045800220FFF74DFF03900320FFF749FFDDF8F0
S315080045903CA08146002840F0D1800027059BB8B290
S315080045A018809CB90746013080B246F052FD09973B
S315080045B0064658B1B8F1000F40F0418180460E9C7E
S315080045C0DFF8B0B1002C40F03E81F455BAF1000F87
S315080045D040F05A810E98002840F05D81284646F042
S315080045E044FD029846F041FD4DE71D466EE79A46A2
S315080045F0DAF804309B4511D0DAF80830002BF6D1EA
S315080046000C20039346F025FD00283FF476AF039B64
S31508004610C0E9008B8360CAF808006EE75A4641462F
S31508004620DAF800005EF044FA0028E5D165E70024D0
S315080046309BE709F10109B9F1030F04F128047FF496
S315080046407FAF9AE7002C98D0B94699F80C302BB171
S315080046500D9B1B78022B09D0032B28D0D9F8149070
S31508004660B9F1000FF1D14C46C84611E0D9F804005B
S315080046700028F3D080220A995EF059FA804600286D
S31508004680ECD148460AA946F03DFD01280446E5D185
S315080046900E9B002B7FF474AF012C3FF471AF3846A4
S315080046A00AA946F054FD4FF00108044668E7D9F810
S315080046B00800DDE738460AA946F049FD35460446AE
S315080046C04FF00108E4E78021029846F053FF0446BC
S315080046D00F9DB5B1D5F804904C452DD14A462968A9
S315080046E002985EF0E5F938BBB846D8F8000046F0FF
S315080046F0F1FC98F80C3053B9D8F81480B8F1000FCB
S31508004700F3D10E9C0025B4FA84F4640936E7814592
S31508004710F2D16A68D8F8001028685EF0C9F98246AE
S315080047200028E9D140460AA946F0ECFC01280446CF
S31508004730E2D15546D046ABE7AD68CAE7039B002BE6
S315080047403FF42BAF0120FFF76BFE00283FF425AF9F
S31508004750B8F1000F1BD14746DDF838B0BBF1000FA2
S3150800476018D1002F3FF419AF013F17E7E85A06089A
S31508004770285B0608055B0608036A42691344043386
S315080047803B444F6889681F440029F5D1E4E7514640
S315080047900027F9E78021DBF8000046F0EBFE039BD3
S315080047A080211A6A0490DBF80400079246F0E2FEBC
S315080047B0D9F82010079A049B0A4409320690174430
S315080047C0DBF8080080211F4446F0D4FE069BDBF880
S315080047D014B03B441F18C1E7D9F80400013080B271
S315080047E046F037FC044650B9002009A9FFF728FE11
S315080047F08046D9F80890B9F1000FEDD1DFE6D9E97E
S3150800480000125EF0E8F9D9F80420039BDDF824B01D
S31508004810A3540BF10101224A2346404611F060FEDB
S315080048200490204646F021FC049A002ADCDB9345D6
S31508004830DAD308EB0200ABEB02020992D5E7D146C0
S3150800484080460394D7E7A368DDF82490019363684C
S315080048505A4600934046236809F1010111F040FECB
S3150800486000280EDB81450CD38044A9EB0000099093
S31508004870636923B1404609A9FFF7E2FD80466469EA
S31508004880A0E64FF00008F3E7DAF80840504646F08D
S31508004890ECFBA2469AE6446946F0E7FB20469AE610
S315080048A0FA5A060808B5074B4FF0FF31186847F063
S315080048B0DDF830B140F27D11034B044A044844F058
S315080048C0ABFE08BD704B0020065C0608E05C0608D7
S315080048D0A05B060808B5064B186847F0FBF830B128
S315080048E040F28311034B044A044844F095FE08BD80
S315080048F0704B0020465C0608BF5C0608A05B0608ED
S3150800490038B50B4802F0CEFA0A4B186028B9DC21F4
S31508004910094B0A4A0A4844F07FFE0024094D281923
S315080049200121183400F02AF9B4F5B47FF7D138BD5F
S31508004930305D0608704B0020775C0608FF5C0608A9
S31508004940A05B060884100020F8B506460D46D9B1C6
S3150800495002F026FA0228044601D1FFF7A3FF002336
S3150800496018200A4A00FB03F18F18515CB14204D1A2
S31508004970BD60022C05D00020F8BD01330F2BF1D104
S31508004980F7E7FFF7A7FFF6E70120F5E7781000201D
S315080049902DE9F041837805467F33DBB2102B09D920
S315080049A0FFF780FFA978124811F072FDBDE8F041C3
S315080049B0FFF790BF0F4AD456FFF774FF631CF1D078
S315080049C018270D4E284607FB0468D8F80430984780
S315080049D0D8F808300BB1284698477C4333191B6929
S315080049E0002BE3D00C34301946F02FFDDEE700BF6C
S315080049F0985C0608AE5C06087810002030B5545856
S31508004A0055186B6804B1601843601C60014B53501D
S31508004A106B6030BDEFBEADDE2DE9F84F00230F46C3
S31508004A20064601464FF001094FF0FF0831F8022B00
S31508004A3062BB5A1C082A22D1D01A484501D9814698
S31508004A409846531C072BF1D93C4600254FF03A0AE5
S31508004A5018494FEA490BA8451AD1B8F1000F03D1F6
S31508004A60204600F801AB04464D44072D04F801AB77
S31508004A705E44F0D900232370E01BBDE8F88F31F8B7
S31508004A80024B501C002CD7D10246D3E71A46D8E76A
S31508004A903288204652BA92B211F00EFD0135082D21
S31508004AA00444E7D0A845034906F1020604F801AB19
S31508004AB0EED1D9E7F96C07087FB5002380290E46A1
S31508004AC01546CDE90033CDE9023312D80A46014628
S31508004AD0684646F0F9FB29466846FFF79DFF2C18FD
S31508004AE032462046044911F0E7FC2044401B04B036
S31508004AF070BD1846FBE700BF405D060838B5054699
S31508004B0010B9084C204638BD282049F0AFFA0446AB
S31508004B100028F6D001462846FFF77EFF0028F0D089
S31508004B20F0E700BF445D06080146014846F080BC30
S31508004B30945E06080138C0B203289ABF024B53F8A0
S31508004B4020000020704700BF5C5D060830B585B0C0
S31508004B500446202049F08AFA054650B1237B2021D5
S31508004B600293E37A044A0193A37A0093238911F006
S31508004B70B7FC284605B030BD475D060810B50446A3
S31508004B8050B10023C0E90131044802F051F9206010
S31508004B90B0FA80F0400910BD0120FCE7845E0608E3
S31508004BA007B5082046F001FD02238DF80030054BB5
S31508004BB06846019346F05FFC082003B05DF804EBF5
S31508004BC046F0FEBC00D430100348044A0449121AC1
S31508004BD0921046F09CBC00BF50A6070850A60708CE
S31508004BE0B4C5002008B500F02FF8FFF7EDFF124B0B
S31508004BF012498B4212D30020114B12498B4218D30B
S31508004C00FCF7C8F8186850F82240586840F822405F
S31508004C10013298688242F5D30C33EAE70022F8E7B6
S31508004C201C6844F8220001325C68A242F8D30833B3
S31508004C30E4E70022F8E700BF5C93070868930708D3
S31508004C40689307086893070810B54FF480414FF03A
S31508004C50FF30114B114A9A60D3F8882042F470024B
S31508004C60C3F888200E4A91660E4901F5005210666F
S31508004C700D4850660220C3F8D000BFF34F8FBFF32C
S31508004C806F8F01244FF440330848C0F88041D36041
S31508004C9004600B6110BD00BF00ED00E000000008D5
S31508004CA000900050008000447FFF7F0300E100E091
S31508004CB0014B1868704700BFE4110020084B1B6FB2
S31508004CC003F00703022B04D0032B05D0012B05D0D4
S31508004CD0FEE7044B18687047034BFBE70348704729
S31508004CE000800050E4110020EC110020002D310155
S31508004CF008B5FFF7E3FF054B1B6FC3F30333013317
S31508004D00B0FBF3F0024B186008BD00BF00800050EE
S31508004D10E01100200048704700B4C404014B18682D
S31508004D20704700BFEC110020054B1860054B1B6F40
S31508004D3003F00703032B01D1FFF7DABF704700BF63
S31508004D40EC1100200080005000487047002D31010A
S31508004D504FF0B4439868C0F304400C280AD8DFE83B
S31508004D6000F00B0909090909072119091B1D1F006C
S31508004D700F487047002070479B6803F04073B3F1F3
S31508004D80807F11D0B3F1007F10D00A4A002B08BFEC
S31508004D9010467047084870470848704708487047E3
S31508004DA008487047084870470848704708487047D9
S31508004DB0405DC60000093D00C0EA210180BA8C01A9
S31508004DC00048E801005A62020024F40080841E00AC
S31508004DD040420F00014B1868704700BFE8110020D9
S31508004DE00249034A0160521A42607047B8C500205A
S31508004DF0000004200346054A0549106803448B420F
S31508004E008CBF4FF0FF301360704700BFF0110020D1
S31508004E100000042008B501213A2000F0F5FD012321
S31508004E2004220321002001F059FD002046F0E1FC90
S31508004E300122354B3549C3F844244FF40022A3F523
S31508004E4050335A66324BD3F8FC20D20146D4D1F8F7
S31508004E50803023F0030343F00203C1F880304FF497
S31508004E60607000F0EBFD2A4B00F5D520D3F8F02052
S31508004E7000F2FC4042F00102C3F8F020D3F8FC200F
S31508004E8042F08072C3F8FC20224AA3F55D431A60FB
S31508004E90214B0222B0FBF3F0204B01381861C3F80E
S31508004EA0F0204FF48072C3F804234FF060431C4A85
S31508004EB00020C3F8B02F1B4AC3F8802ED3F8002E63
S31508004EC042F48072C3F8002EFF2283F82020D3F81C
S31508004ED0002E22F48072C3F8002E08BDD3F8FC20F9
S31508004EE022F08072C3F8FC20D1F8802022F0030259
S31508004EF042F00202C1F88020D3F8FC2042F080720A
S31508004F00C3F8FC20ABE700BF00D003500080005078
S31508004F1000ED00E0FF030040F8590D00000004E032
S31508004F2055CEACC50900010030B54FF06043D3F843
S31508004F30802ED20715D501240B4D8440D5F8FC20C8
S31508004F4042F08072C5F8FC20D3F8002E2243C3F83D
S31508004F50002E53F82020002AF0D003F82010002055
S31508004F6030BD1120FCE700BF00ED00E010B50122BE
S31508004F7043780178847830209A40054B00FB01334A
S31508004F801CB903F501531A6010BD03F58253FAE7FD
S31508004F9000C0035010B50122437801788478302088
S31508004FA09A40054B00FB01331CB903F582531A607E
S31508004FB010BD03F50153FAE700C0035001224378F8
S31508004FC001789A4030235943014B5A50704700BF25
S31508004FD040F00350102130230246007813FB0013DB
S31508004FE005495B585178CB4003F0010093780BB91B
S31508004FF080F00100704700BF30C003502DE9F04F24
S3150800500085B09A46554B06461B780F461546DDF879
S315080050103C909DF844B0DDF85080002B00F0978056
S31508005020072A00F296800E9B002B00F09280B9F1B9
S31508005030000F00F08E80129BB3F5006F00F3898095
S31508005040012803D1109B002B00F08380444B03EB0F
S3150800505005131B7B002B7ED0424C1022002168468C
S315080050605DF050FD04EB45141022A7BB39462046D7
S315080050705DF048FD43F210036380BBF1000F03D1D6
S31508005080E37843F00303E370364A0E9B02EB451CB4
S31508005090CCE90193129B6901581E9DF84C30C0F368
S315080050A00A0003F003039B0643EA001E53582E48E2
S315080050B0012E00EA03004EEA0003CDF800A0535083
S315080050C017D0B8F1000F2ED19CF8023068F30413FC
S315080050D08CF8023027E0002120465DF013FD4FF4DE
S315080050E044736380BBF1000FCED1E37843F03003FD
S315080050F0C9E713230CF1100ECCF80C309CE80F000E
S315080051008EE80F006FF00301DCF81C20109B61F39A
S315080051109F02012FCCF81C20CCF8143003D1CCF810
S315080051201890CCF8043000270D4A290102EB051324
S3150800513042F80180159A28465A60694622469F60B9
S315080051405E7301F069FC384605B0BDE8F08F074884
S31508005150FAE70748F8E70748F6E700BFE0980020AF
S31508005160744C0020744B00200F80FFF3028000F07F
S31508005170018000F0078000F038B5124B05461B7811
S31508005180DBB1E0B146F0C5FA0F4A00231146147B9D
S3150800519054B92B6001251A0101EB03131D738C50BA
S315080051A046F0BDFA204638BD0133082B02F110023D
S315080051B0EDD146F0B4FA0548F5E70548F3E70548A2
S315080051C0F1E700BFE0980020744C0020048000F04E
S315080051D0028000F0018000F038B546F09AFA002304
S315080051E005460B4A147B6CB90133082B02F11002F1
S315080051F0F8D101F0B3FB074B28461C7046F08FFA2E
S31508005200204603E0284646F08AFA034838BD00BF20
S31508005210744C0020E0980020058000F010B50D4B76
S3150800522004461B7893B1072812D846F072FA0A4B3F
S3150800523003EB04131A7B2AB100241C7346F06FFA99
S31508005240204610BD46F06BFA0448FAE70448F8E72A
S315080052500448F6E7E0980020744C0020068000F029
S31508005260028000F0018000F013B5154B1868002382
S3150800527001908DF8043046F04CFA124B1C7824B194
S3150800528046F04DFA104802B010BD01221A7046F0D9
S3150800529046FA0E4B01A81C731C7783F82C4083F83A
S315080052A03C4083F84C4083F85C4083F86C4083F8B4
S315080052B07C4008238DF8073001F07CFB2046E2E7A6
S315080052C08C600608E0980020038000F0744C0020EB
S315080052D008B50A4A12785AB107280BD8084A02EBC9
S315080052E000131B7B43B1002101F056FB002008BDCB
S315080052F00448FCE70448FAE70448F8E7E098002081
S31508005300744C0020028000F0018000F0078000F055
S3150800531008B50A4A12785AB107280BD8084A02EB88
S3150800532000131B7B43B1012101F036FB002008BDA9
S315080053300448FCE70448FAE70448F8E7E098002040
S31508005340744C0020028000F0018000F0078000F015
S3150800535008B50A4A127852B107280AD8084A02EB51
S3150800536000131B7B3BB101F0A1FB002008BD0548DB
S31508005370FCE70548FAE70548F8E700BFE09800208B
S31508005380744C0020028000F0018000F0078000F0D5
S315080053900D4B1B7893B1072812D889B10B4B03EB39
S315080053A000131B7B73B10A4B1A6D0123834013420A
S315080053B014BF0123002300200B707047054870476F
S315080053C00548704705487047E0980020744C00204F
S315080053D000000450028000F0018000F0078000F011
S315080053E010B50B4A0C46127862B107280CD859B189
S315080053F0084A02EB00131B7B43B101F069FB2070DE
S31508005400002010BD0448FCE70448FAE70448F8E71A
S31508005410E0980020744C0020028000F0018000F023
S31508005420078000F02DE9F041174B1F6D5B6D1F409B
S3150800543000D5FEE701260025144CDFF858803742D0
S3150800544018D02368C8F85060A3B1A168284601316E
S315080054506268A1609847637B012B0BD150B90C4B4E
S3150800546003EB45131A7B60F341021A731A7F60F344
S3150800547041021A770135082D4FEA460604F1100451
S31508005480DDD1BDE8F08100BF00000450744C002057
S31508005490744B002000200450024B1968024B186810
S315080054A012F072BBF41100201412002070B594009B
S315080054B0224605460E465DF0E3FD431C0AD058B960
S315080054C02246314628465DF0F3FA0028034808BF0D
S315080054D0002070BD0248FCE70248FAE710E000F039
S315080054E021E000F024E000F010B504465DF0C4FDAC
S315080054F0431C10D088B901F09BFB234620F003001B
