S0160000776973756E5F6468745F636F4150312E73333716
S3150800000000100020256700081F2805081F28050876
S315080000101F2805081F2805081F2805081F28050882
S315080000201F2805081F2805081F2805081F28050872
S315080000301F2805081F2805083FB300081F280508BC
S315080000401F2805081F2805081F2805081F28050852
S315080000501F2805081F2805081F2805081F28050842
S315080000601F2805081F2805081F280508B149000884
S31508000070371A05081F2805081F2805081F28050818
S315080000801F2805081F2805081F2805081F28050812
S315080000901F2805081F280508F56E00081F280508EB
S315080000A01F2805081F280508356B0008156B00086A
S315080000B01F2805081F28050891F901087D0402086C
S315080000C06DB6050869B6050801FC010883B605087A
S315080000D071B605084D04020875B60508BD04020880
S315080000E0AD0502081F2805081F2805081F2805084A
S315080000F01F2805081F2805081F2805081F280508A2
S315080001001F2805081F2805081F2805081F28050891
S315080001101F2805081F2805081F2805081F28050881
S315080001201F2805081F2805081F2805081F28050871
S315080001301F2805081F2805081F2805081F28050861
S315080001401F2805081F2805081F280508B9B800082C
S315080001501F2805081F28050885E60608E5DC0108A6
S315080001601F2805081F2805085DB6050863B6050893
S311080001701F2805081F2805081F28050879
S3150800017CF0B5114A114C124E00F00105E3695F0700
S3150800018C13D40DB9334213D103EA00078F4207D1B2
S3150800019C0B4A1A40002A0CBF00206FF00100F0BD74
S315080001AC013AEBD16FF00200F9E74FF0FF30F6E7B2
S315080001BC6FF00100F3E700BF80969800000003502B
S315080001CC0200010070B50B4BD96911F480310DD1C1
S315080001DC01244FF48072084E084DF46020462C64B6
S315080001EC1A61FFF7C5FF3464EC6070BD6FF001004F
S315080001FCFBE700BF0000035000100350002003501B
S3150800020C38B54FF480320E4B0E4C9A66E56941F6BA
S3150800021C713315400122E3630B4B0021DA6002238C
S3150800022C606121202361FFF7A3FF10B92120FFF796
S3150800023C9FFF0122054BDA600DB10023E36338BD3D
S3150800024C009000500000035000100350002003508B
S3150800025C70B5134C6061E3695B071ED40E4656F8FD
S3150800026C043B8D18A361AE420BD104230021212037
S3150800027C2361FFF77DFF58B9BDE870402120FFF7D1
S3150800028C77BF08210846FFF773FF10B104232361D3
S3150800029C70BD56F8043BA361E5E74FF0FF30F7E76E
S315080002AC000003502DE9F84315464FF48032184BDD
S315080002BC89469A6603F51C33DF690646174041F6EC
S315080002CC7132DA63012203F58053DFF84C80DA6069
S315080002DC55B9284601220F4BDA601FB10022A3F547
S315080002EC0053DA63BDE8F88306F5005404EA0804FB
S315080002FCA41BAC4228BF2C46494622463046FFF77B
S3150800030CA7FF0028E6D12644A1442D1BE0E700BF31
S3110800031C009000500020035000E0FFFF96
S315080003282DE9F04100231546C2E900014FF47A7217
S3150800033880460F464FF046FF18A3D3E90023044624
S315080003480E46404639464FF03DFF134B80B228818A
S315080003585843241A66F100064FF4616200232046C2
S3150800036831464FF02FFF4FF46163C0B2A872584365
S31508000378241A20464FF03C024FF0000366F10001AC
S315080003884FF020FFC0B2E872C0EB0010A4EB80045F
S315080003982C73BDE8F08100BF80510100005C26057A
S315080003A800000000000000002DE9F04F93B0CDE9E9
S315080003B80A32DDE91C530E9353EC102BCDE90801DC
S315080003C8104619468DED060B1E9E4FF0D3FC80B1DC
S315080003D8DDE906014FF0FF32C54B4FF0F3FC40B993
S315080003E8DDE906014FF0FF326FF480134FF0CCFCBD
S315080003F870B1DDE908019DED060B0E9B1E96CDE949
S315080004081C53DDE90A3213B0BDE8F04F00F088B98D
S315080004180022DDE9060100234FF0B6FC002800F0AB
S315080004283381DDE906A303F1004BCBF30A5016F432
S315080004388063A0F2FF3008BF06250F934FF0C8F96E
S315080004489BA3D3E900234FF02DFA9BA3D3E90023F6
S315080004584FF072F8CBF31304894644F07F5180466F
S315080004680022A44B504641F440114FF063F894A378
S31508000478D3E900234FF016FA02460B46404649468A
S315080004884FF05AF84FF0A8FC04464FF0A1F98EA38E
S31508000498D3E90023804689464FF004FA0022964B92
S315080004A84FF04AF84FF098FC89A3D3E9002307468A
S315080004B8494640464FF0F6F98046384689464FF091
S315080004C887F985A3D3E900234FF0ECF902460B46D2
S315080004D8404649464FF02EF802460B46CDE90C230E
S315080004E84FF0E0F9DDE90C2380468946104619469F
S315080004F84FF022F80022CDE91001804B40464946C4
S315080005084FF0FAFA00227E4B4FF016F802460B46D1
S31508000518404649464FF0F0FA00227A4B4FF00CF85D
S3150800052802460B46404649464FF0E6FADDE90C23F3
S315080005388046894600204FF080414EF0FBFF024670
S315080005480B46404649464EF0F7FF02460B46DDE99C
S3150800055810014FF0D1FA07F2FF3700226A4B4EF026
S31508000568EBFF00223B054FF09DF952465B46804655
S3150800057889464FF027FC002840F08980CDE90C8988
S3150800058804F16303C72B34BF0427052731051BD598
S3150800059853A3D3E90023504659464FF009FC0028CF
S315080005A87FD051A3D3E90023504659464FF0ECFBB8
S315080005B8002876D00027A542C6BF2C1B04F1FF35B4
S315080005C800253C4646F480660E9B9F422CBF4FF09A
S315080005D80008A3EB070816F0020903D0002F18BF76
S315080005E84FF000083CB1DDE90C23504659464FF058
S315080005F883FA82468B46DDE90601002200234FF07E
S31508000608C3FB10B10BF100439B46DDE9080126F44C
S315080006180063CDE90183DDE90A324BEC10AB00959E
S3150800062800F07EF802465FB3DDE9091316F0200FDD
S3150800063800F10105089E0CBF65204520B047DDE995
S3150800064808010523002205930A23002CCDE9023266
S3150800065807F1FF374FEAD473B8BF64422A460193B5
S3150800066804970A9B00945AF06CFA0246B9F1000FEF
S3150800067806D00B9BC41A0B9B1A190E9BA34245D886
S31508000688104613B0BDE8F08FDDE906ABCDE60022CB
S31508000698404649461A4B4FF02FFA013CCDE90C0162
S315080006A86EE7002D90D00F9B002B8DD0013D8BE770
S315080006B8FB799F501344D33FB3C8608B288AC63F3B
S315080006C861436F63A787D23F71A379094F930A409D
S315080006D81655B5BBB16B0240EF39FAFE422EE63F16
S315080006E82D431CEBE2361A3F0000000080842E4199
S315080006F8FFFFEF7F0000F83F0000E03F00002C40B6
S3150800070800002440000018400000F03F2020DDE9E2
S315080007180913089DA8470134ADE700BF000000008B
S315080007282DE9F04F97B05BEC10ABDDE92057CDE922
S315080007380501CDE90723504652465B465946229E8F
S315080007484FF018FB70B90323CDE902760193B04B35
S315080007580093DDE90501DDE907235AF012F917B018
S31508000768BDE8F08F4FF0FF326FF4801350465946B4
S315080007784FF00AFB28B10423CDE902760193A54B6D
S31508000788E6E74FF0FF3250465946A34B4FF01AFB9F
S3150800079868B1A24A06F00403002B08BF0322A04B3F
S315080007A81CBF13460422CDE902760192D0E75046CB
S315080007B893A3D3E9002359464FF004FB38B992A30B
S315080007C8D3E90023504659464FF0DEFA68B1DDE909
S315080007D80723DDE905014BEC10ABCDE92176209519
S315080007E817B0BDE8F04FFFF7DFBD002200235046DB
S315080007F859464FF0C9FA002800F09A805B465246D7
S31508000808002000214EF096FE012382468B46099366
S3150800081816F4806400F08E80092D40F28E8000243C
S3150800082830210EABA5F109020134202C03F8011B6F
S31508000838A5EB040901D09442F6D1594650464FF023
S31508000848CBFA784B054603EBC90393ED007B8DED90
S315080008580A7B4EF0BDFF02460B46504659464EF0F7
S3150800086869FEDDE90A234FF01DF802460B46CDE975
S315080008780C234FF0D9FA80464EF09AFF02460B46EB
S31508000888DDE90C014EF056FE02460B46CDE90C236F
S315080008980022654B4FF096FA002851D008F1010856
S315080008A840464EF085FF02460B46DDE90A014FF041
S315080008B875FA10B14FF000080135B9F1000F50D19B
S315080008C828464EF085FF02460B46504659464EF0D6
S315080008D831FE0022544B804689464FF055FA30B10E
S315080008E8002240464946504B4FF06CFA10B1E807CB
S315080008F800D501350A210EAB1A19202C0AD095FB0A
S31508000908F1F001FB1055303502F8015B0134054654
S315080009180028F2D106F00302012A57D1002F55D034
S31508000928099A12B916F00C0F00D0013F302245E09B
S3150800093809906DE74FF006097FE7A94600247CE78A
S315080009480022DDE90C01384B4FF01EFA0028B4D115
S31508000958B8F1000F02D018F0010FAED008F101085F
S31508000968ABE70A210EAB2344202C0ED0B8FBF1F0D6
S3150800097801FB1082B8F1090F02F1300209F1FF39BB
S3150800098804F1010403F8012B11D83021A1440EAA59
S31508000998202CAFD0A14504F101030AD11C4609F160
S315080009A858030DEB03092E2309F8203CA2E78046D5
S315080009B8DAE7A1541C46EBE71A550134A74205D9CC
S315080009C8202CF9D1CDE902760194C1E6202CF9D07C
S315080009D8099A3AB12D2104F158026A4402F8201CF2
S315080009E80134EFE7710704D504F158022B216A444C
S315080009F8F4E73207E6D504F1580220216A44EDE700
S31508000A080000000065CDCD410000000065CDCDC1D0
S31508000A185B3407085F340708FFFFEF7F523407087F
S31508000A2857340708683407080000E03F000000004C
S31508000A3870B5A8B02C2200211DA86BF017F84FF046
S31508000A4802331F9340F20B13874D14ACADF89C3054
S31508000A580FCD0FC40FCD0FC42B6884492360844B70
S31508000A68844807930023CDE908330A931FF0ACFEA0
S31508000A78814D286000284FD001215AF00BFE20B17D
S31508000A8840F24A417D4821F0A3F928685AF0C6F988
S31508000A987B4E307028685AF0C3F97A4B7A49187031
S31508000AA8286820F0CFF9044600282FD13378774EE6
S31508000AB85BB9774824F0B6FD3060E0B940F27B416F
S31508000AC8744B754A6D484FF00DFD744824F0AAFD1D
S31508000AD830600028EDD0C189286820F023F93368EA
S31508000AE82146586824F0D8FD044678B9684824F0A1
S31508000AF899FD306090B1C189286820F013F93368E8
S31508000B080421586824F0C8FD044638B12346222132
S31508000B180220634A5BF05DF928B070BD09F0D8FA7F
S31508000B28604A04ABCDE904010393A2F1080113F85E
S31508000B38010B02F8010D9142F9D10622FF210BA8F3
S31508000B486AF094FF0622FF210DF132006AF08EFF43
S31508000B58182200210EA86AF089FF08220EA903A800
S31508000B686AF0F7FF41F234231C22002120A8ADF8C9
S31508000B782C306AF07BFF28681DA920F05FFB044625
S31508000B880028C3D1484928685AF0A8FE0446002810
S31508000B98BCD1464928685AF08BFE04460028B5D1C8
S31508000BA8434928681FF048FF04460028AED12CA3FD
S31508000BB8D3E90023CDE9002328685AF091FE0446B4
S31508000BC80028A3D13B4A3C4928685AF0E3FE044664
S31508000BD800289BD101205AF075FD00289CD0A02337
S31508000BE8364A07A8D380364A136009F045FB354BC1
S31508000BF8186020B940F2C441334B274A62E72246B7
S31508000C080121082009F096FC304B186020B940F2FB
S31508000C18C7412F4B204A55E700220121082009F031
S31508000C2889FC2C4B186020B940F2CA412A4B1A4A4B
S31508000C3848E72A4A2A492B4826F030FA294843F031
S31508000C4855FC0021284814AA09F0CAFB274B186046
S31508000C5800287FF461AF40F2D641254B0E4A31E7AA
S31508000C68C88D01C10340000040AE0708B153020809
S31508000C78EAA4070840B90020E8510020C7A20708D7
S31508000C88ADA80020ACA8002007001100A04100204C
S31508000C982BD00508FFA4070840AD070815D0050896
S31508000CA88AA50708B6A800203EAE07083CAE07087E
S31508000CB8EC510020EEBA0020E041002060B900207F
S31508000CC8545200206852002017A5070864520020CD
S31508000CD833A507086052002050A5070870A507081D
S31508000CE84958020808520020DD6802086C5200209C
S31508000CF879A50708000000002DE9F3470546584C72
S31508000D0822211020574A5BF064F818222946204603
S31508000D186AF01FFFA27B544BDFF894A11A70E37C94
S31508000D2800228AF800300023CDE90023DFF8848101
S31508000D3800224FF40073D8F800005AF0D1FD064691
S31508000D4820B10126304602B0BDE8F087474B484F28
S31508000D581B787BB9474824F065FC04463C60FCB917
S31508000D68454A222102205BF034F80122434B21260A
S31508000D781A70E7E7424B434C1A88434BD8F80000E9
S31508000D8853F82210414A8B6821603B601FF0B4FF74
S31508000D9822683F4B946824221B8802FB0344DDE73C
S31508000DA83C4B1C60374BD3F80090B9F1000F07D0BD
S31508000DB800232420D9F80C108B4208D100251AE004
S31508000DC840F23671344B354A35484FF08BFBD9F823
S31508000DD8085000FB0355EA695278120912F00E0FFB
S31508000DE82ED0052A2CD82F4B0021EA89B3F9000002
S31508000DF83D6024F089FC18A3D3E90023CDE9002334
S31508000E08D8F800005AF06CFDD9F80820AA4207D08D
S31508000E18254B3A600421D289B3F9000024F074FC02
S31508000E28224BE2893C601A809AF800301B0913F0B5
S31508000E380E0F07D025F02EFC012025F0C3F881E710
S31508000E480133B9E701220721D8F800005AF05AFEFB
S31508000E580028EFD075E700BFC88D01C1034200001E
S31508000E68A44100201BA90708A4A80020A7A80020B9
S31508000E78A04100208957020837A90708A5A8002015
S31508000E88B65B0020944100203CB40020BD530208FC
S31508000E98B45B00209C41002073A90708FEAB07082D
S31508000EA8C7A20708F0BA0020F2BA0020E8BA00205C
S31508000EB8A3A80020E85100202DE9F8434468054610
S31508000EC894F9013090F8E8715A1C1AD17B1E5BB266
S31508000ED8637000EB431393F825302370A0684EF02F
S31508000EE889FC38A3D3E900238046894694F901602A
S31508000EF84EF068FF08B3002E1FDD013E002366701A
S31508000F0826E09F4206DD00EB431393F82520237855
S31508000F189A42E3D0002305F1250263709F4204D85C
S31508000F287B1E637000232371D8E75901505C21782A
S31508000F38884208BF63700133F0E7404623A3D3E924
S31508000F48002349464EF03EFF00B32379F3B1013B2F
S31508000F58237194F9013005EB431393F82530237070
S31508000F6847B385F8EA31052395F8022285F8EC3166
S31508000F7885F8F02100230E2285F8EB3185F8F22151
S31508000F8885F8F13105F5F570BDE8F88340460FA3F5
S31508000F98D3E9002349464EF0F7FE0028D9D023792D
S31508000FA80133DBB2092B2371D3D97B1EB342D0DDBB
S31508000FB80136A3E727210220014A5AF00AFFE1E78A
S31508000FC84E5A0808666666666666E63F9A99999965
S31508000FD89999B93F000000002DE9F8432DED028BD9
S31508000FE887680546384616460C464EF003FC28A37D
S31508000FF8D3E90023804689464EF0E4FE88BB26A33B
S31508001008D3E90023404649464EF0BEFE60BBF7EEDC
S31508001018007A07EE107A87EE878A6B7F607F01224F
S31508001028834224D0002143F0FDFE012204463146BE
S31508001038687F43F0F7FE044404F2D5702860D8B1F7
S3150800104807EE900AF8EE677A9FED0D7A67EE887ACA
S3150800105887EE270ABDEC028B10EE103AEB60BDE866
S31508001068F8839FED088AD8E79FED078AD5E73146C2
S31508001078184643F0D7FEE1E79FED040AEAE700BF02
S3150800108800007A44E4388E3F00401C460000000001
S31508001098CDCCCCCCCCCCEC3F9A9999999999B93FB7
S315080010A82DE9F74F064690F8E8010D469146A0B394
S315080010B87468A3690133A361A37D06EB43131A7FFA
S315080010C802441A77D4E90732C3EB520207EE902A8C
S315080010D84000B8EE677A07EE900AF8EEE76AF4EE8B
S315080010E8C76AF1EE10FA0BD507EE903A37EE667A2C
S315080010F8F8EE677A77EE877AFCEEE77AC4ED077A30
S315080011084FF0000BD9450BD842F21073A2699A42E0
S3150800111882BF0023C4E90633236203B0BDE8F08F13
S31508001128B5F802A02F79BAF1000F2ED038464EF03E
S315080011384FFBCDE9000150464EF04AFB02460B46E6
S31508001148DDE900014EF0D8FC02460B4600204C4962
S315080011584EF0F0F94EF088FE07EE100A96F80332BC
S31508001168AAEB0700034486F8033294F8243033B30D
S3150800117894F825305B4522D1BAF1000F08D1C4F896
S3150800118820A00BF1010B0635BCE7B7EE007AE5E7B8
S31508001198E3690133E3612A78002AF2D000239846E6
S315080011A896F8E8C106F108019C450FD8B8F1000F72
S315080011B814D127210220334A5AF00BFEE1E72A7890
S315080011C8002ADED0BAF1000FDBD0E7E791F81DE078
S315080011D80133964508BF88462031E5E7002288F896
S315080011E81420B8F81020D8F8043017440133BAB2D6
S315080011F8C8F80430A8F810701AB198F81D2086F8AF
S315080012081422F7EE007A012B77EEC77A8CBFB3EE75
S31508001218097A9FED1D7AB8F8122088BF67EE877A93
S315080012280244A8F81220D8F808208CBF9FED177A30
S3150800123867EE877A06EE102ADFED156AE6EE077A74
S3150800124887EEA67A17EE103A17EE100AC8F808308D
S315080012584EF0D0FA08A3D3E900234EF095FD18B14D
S31508001268FF2388F815308CE798F91530013388D1AB
S315080012780423F6E7AFF30080666666666666EE3FA1
S315080012880000F03F6E5A08080000484200009642DF
S315080012980000C842000000002DE9F04F2DED028B32
S315080012A8054600274FF0200A4FF0080B0B46082082
S315080012B84D4A87B0884627215AF08BFD95F8E831BC
S315080012C827210820494A5AF084FD6C6805F1080662
S315080012D8E37D23716371637595F8E891B9450DDC6B
S315080012E83FA7D7E900674FF00008AA46C346C14595
S315080012F846D807B0BDEC028BBDE8F08FE17D4246C3
S315080013081AFB01B130462944FFF766FE96F81D9088
S315080013180495F0684EF06EFACDE90201B0684EF011
S3150800132869FA4B46CDE90001314A272108205AF0C7
S3150800133850FD2379D6ED037A05EB431292ED057A2B
S31508001348F4EEC77AF1EE10FA02DB327F22710EE06C
S3150800135817B995F82420F9E7637905EB431393ED54
S31508001368057AF4EEC77AF1EE10FA04DB337F637177
S3150800137801372036B0E7012FFAD195F84430F6E759
S31508001388E37D434515D09AED048A18EE100A4EF007
S3150800139831FA32463B464EF00BFD10B9BBF1000F49
S315080013A80CD19AF8243022799A4202D062799A4264
S315080013B811D108F101080AF1200A98E7637D05EBBF
S315080013C84313D3ED047AB4EEE78AF1EE10FAE8DAB5
S315080013D84FF0010BEDE76375FAE700BFAFF300803E
S315080013E8666666666666EE3F865A0808A85A080854
S315080013F8B75A0808000000002DE9F047D0F804801D
S3150800140800EB411393F8245098F817300446AB427A
S315080014182DD098F81530AB4229D000EB411ADAF8E6
S3150800142810004FEA41194EF0E5F913A3D3E9002352
S3150800143806460F464EF0B2FC10B99AF91D00A0B13F
S3150800144898F80430AB4212D098F80530AB420ED063
S3150800145809A3D3E90023304639464EF0B3FC18B140
S315080014684C44637F013B63770120BDE8F087002081
S31508001478FBE700BFAFF30080666666666666EE3F02
S315080014882DE9F34704460E46456827210820804A71
S315080014985AF09FFC20463146FFF7FEFE284669F0BB
S315080014A88AFC002800F0BC80204669F097FC0646AE
S315080014B8034627210820774A04EB46175AF089FC81
S315080014C82721082097F82530734A5AF082FC002EFF
S315080014D8C0F2A68094F8E83195F804E09E4295F89B
S315080014E815C080F29D80012204EB4E1185F8242050
S315080014F80B6A386A97F8258098420FFA8CF302D84F
S31508001508387F322877D9012284F8EC21002284F81A
S31508001518EA8184F8EB21A87D287091F8250084F8DB
S31508001528F00191F8261084F8F12184F8F21185F86B
S3150800153801E004EB431393F82510012684F8F61105
S3150800154893F8263084F8F831002384F8F73185F8BB
S3150800155802C085F82520A04605F1FF3904F1120ACC
S3150800156819F8013F5F1C002E00F0868004EB431330
S3150800157818694EF03FF902460B46CDE9002340A309
S31508001588D3E900234EF01EFC40B93FA3D3E9002354
S31508001598DDE900014EF0F8FB00286DD004EB47178B
S315080015A8BB79042B8EBF02230133C3F3460388F89D
S315080015B8EC3108F10608C245D2D1EA7D04F5F57082
S315080015C804EB421393F8253084F8FC31002384F899
S315080015D8FD31EA7085F8243094F8F22194F8EC3154
S315080015E8134494F8F821C3F113039B1A84F8FE31BF
S315080015F802B0BDE8F08791F8250084F8EA0191F869
S31508001608261084F8EC11002184F8EB1185F800E01F
S3150800161884F8F08184F8F22184F8F1116E7088E76D
S3150800162800262A7904EB421393F8251084F8EA1160
S3150800163893F8263084F8EB6184F8EC312A706A79D5
S3150800164804EB421393F8251084F8F01193F8263022
S3150800165884F8F16184F8F2316A706A7D04EB421302
S3150800166893F8251084F8F61193F8263084F8F7616C
S3150800167884F8F831AA706EE704EB4717BB7996E742
S31508001688666666666666EE3F9A9999999999B93F24
S31508001698DB5A0808E95A0808F95A08080000000039
S315080016A82DE9F8432DED028B876805463846164618
S315080016B80C464EF09FF82EA3D3E9002380468946A8
S315080016C84EF080FB00283DD12BA3D3E900234046E2
S315080016D849464EF059FBC0BBF7EE007A07EE107A7A
S315080016E8AB7F87EE878A07EE903AB8EEE77AB4EECC
S315080016F8C87AF1EE10FA01D5B8EE678A6B7F607F73
S315080017080122834224D0002143F08CFB012204469F
S315080017183146687F43F086FB044404F2D570286096
S31508001728D8B107EE900AF8EE677A9FED0D7A67EE5C
S31508001738887A87EE270ABDEC028B10EE103AEB6022
S31508001748BDE8F8839FED078AD8E79FED078AD5E7AE
S315080017583146184643F066FBE1E79FED040AEAE7D7
S3150800176800007A44E4388E3F00401C46000000001A
S31508001778CDCCCCCCCCCCEC3F9A9999999999B93FD0
S315080017882DE9F04F2DED028B90F8E83105460E4607
S31508001798934689B0002B00F0238127210820964A12
S315080017A85AF017FB00226C68A1690131A16195F806
S315080017B8E80190423DD8D4E907230A2779436427E4
S315080017C8B1FBF7F1C2EB53030B4407EE903A43001B
S315080017D806EE903AF8EE677AF8EEE66AF4EEE76A05
S315080017E8F1EE10FA0BD507EE102A77EEE67AB8EE80
S315080017F8477A77EE277AFCEEE77AC4ED077A002768
S31508001808B846BB451DD8B8F1010F00F0E680B8F117
S31508001818130F40F2B9800023A3612721082095F801
S315080018280332764A09B0BDEC028BBDE8F04F5AF090
S31508001838D0BAA37D013205EB43131F7F01371F7703
S31508001848B7E7B6F8029096F804A0B9F1000F41D0A8
S3150800185850464DF0BDFFCDE9060148464DF0B8FFA4
S3150800186802460B46DDE906014EF046F902460B46E6
S31508001878002063494DF05EFE4EF0F6FA08EE100AAF
S31508001888337818EE100A069304954DF0B3FF069BB5
S31508001898CDE902015B4A27210820CDE9009A5AF0CA
S315080018A898FA7288337995F80312D31A0B4485F88F
S315080018B8033294F82430C3B194F82530BB4214D1C6
S315080018C85AB92262272108204F4A5AF082FA013764
S315080018D8063696E7B7EE008AD2E7E3692721013389
S315080018E808204A4AE3615AF074FAB6F802A0BAF12F
S315080018F8000FECD00023E25D05EB4211C8680B77B0
S315080019080130C86096F804C00B8B4FEA4219634445
S315080019189BB20B831BB191F8253085F81432F7EE84
S31508001928007A05EB0902538B01285344A3EB0C03F1
S3150800193877EEC87A53830DD9B2EE0E7AD2ED046AD9
S3150800194827EE877ADFED327AA6EEA77ADFED316AD7
S31508001958C7EE267AA944C9ED047A17EE900A4DF01F
S3150800196849FF23A3D3E900234EF00EFA30B1FF232B
S3150800197889F81D30C2441FFA8AF8A8E799F91D3074
S315080019880133F7D10423F3E7B8F1020FD4ED0B7A44
S31508001998B1EE047A15D977EE877AB3EE047AF4EEBF
S315080019A8477AF1EE10FA77FE277A42F21073A2699F
S315080019B8C4ED0B7A9A4282BF0023C4E90633236230
S315080019C82BE7F2EE046A77EEE67AF4EE477AF1EE5A
S315080019D810FA48BFF0EE477AE7E7DFED0F7AE4E753
S315080019E809B0BDEC028BBDE8F08F00BFAFF30080ED
S315080019F8666666666666EE3F3E5B0808A45B080888
S31508001A080000F03F545B0808855B0808945B0808E3
S31508001A180000AA420000C8420000000000000000BA
S31508001A282DE9F84F2DED028B0546884600274FF01D
S31508001A3820094FF0080B446800F10806E37D237176
S31508001A486371637595F8E8A1BA450CDC0FF2D009FD
S31508001A58D9E9008900262F46B346B24532D8BDECE7
S31508001A68028BBDE8F88FE17D424619FB01B1304685
S31508001A782944FFF715FE2379D6ED037A05EB4312B9
S31508001A8892ED057AF4EEC77AF1EE10FA02DB327FA8
S31508001A9822710EE017B995F82420F9E7637905EB62
S31508001AA8431393ED057AF4EEC77AF1EE10FA04DBE0
S31508001AB8337F637101372036C4E7012FFAD195F8C9
S31508001AC84430F6E7E37DB34215D097ED048A18EE5D
S31508001AD8100A4DF08FFE42464B464EF069F910B98A
S31508001AE8BBF1000F0AD197F8243022799A4202D01E
S31508001AF862799A420FD101362037AEE7637D05EB46
S31508001B084313D3ED047AB4EEE78AF1EE10FAEADA6B
S31508001B184FF0010BEFE76375FAE700BFAFF30080F4
S31508001B28666666666666EE3F2DE9F047456890F88C
S31508001B38E821AB690446B3EB420F2ED900EB4113F3
S31508001B4893F82480EB7D43452AD06B7D434527D0FF
S31508001B5800EB411ADAF810004FEA41194DF04AFE2F
S31508001B6811A3D3E9002306460F464EF017F910B914
S31508001B789AF91D0090B12B79434511D06B794345E5
S31508001B880ED009A3D3E90023304639464EF01AF990
S31508001B9818B14C44637F013B63770120BDE8F087A1
S31508001BA80020FBE7AFF30080666666666666EE3F6A
S31508001BB80348044B834202D0034B03B118477047C6
S31508001BC8ECC60020ECC6002000000000064B0749BA
S31508001BD8C91A891048BF0131491003D0044B0BB103
S31508001BE801481847704700BFECC60020ECC600201D
S31508001BF80000000010B5064C237843B9FFF7D8FF54
S31508001C08044B13B10448AFF300800123237010BDB9
S31508001C18C65B002000000000B86F080808B5054B29
S31508001C281BB105490548AFF30080BDE80840FFF732
S31508001C38CDBF00BF0000000098230020B86F080831
S31508001C48A3F5803A704700BF174B002B08BF134B04
S31508001C589D46FFF7F5FF00218B460F461348144AA1
S31508001C68121A69F003FF0E4B002B00D098470D4B4C
S31508001C78002B00D098470020002104000D000D48CD
S31508001C88002802D00C48AFF300804FF003F8200074
S31508001C9829004FF069FE4EF043FC00BF000008001B
S31508001CA800000000000000000010002000100020BE
S31508001CB810B20020000000000000000008B502F07D
S31508001CC85FFB0022084BC3E90001084BC3E9000182
S31508001CD8074B08491A8000220023C1E90023064950
S31508001CE8C1E9002308BD00BF781000207010002045
S31508001CF83C5B002068100020601000202DE9F043A6
S31508001D089BB000AF00230446F81CC7E901335AF014
S31508001D1828FA18B181B2184817F082F86A46FB788B
S31508001D28F81CA2EBC3039D466946E8465AF02EFA04
S31508001D3818B181B2114817F073F80026FB78F5B286
S31508001D48AB4210D908EBC509484607F10C015AF009
S31508001D5836FAFB6A0136002BF0D158F83500D9F85F
S31508001D6804103B1D03C33B1D03CB206020466C377C
S31508001D786160BD46BDE8F083E8E6060821E706087F
S31508001D8813B56846FFF7BAFF064C009B0649236059
S31508001D98019B06486360E379A27902B0BDE8104062
S31508001DA817F052B87764002055E70608386D002002
S31508001DB830B597B010A85AF04AFA4FF0CEFD11ADD3
S31508001DC802461749284617F03FF8FFF7D9FF154B7B
S31508001DD8BDF84020D3E90A01CDE90E01D3E9080187
S31508001DE8CDE90C01D3E90601CDE90A01D3E90401D5
S31508001DF8CDE90801D3E902010B4B0C4C01930C4BB6
S31508001E08CDE90601CDE9032200934FF48061204607
S31508001E18084B094A029517F02BF8204617B030BD2B
S31508001E28EBB7070800100020386D002087680020E7
S31508001E38F9E70608406D00206CE706082DE9F04F1B
S31508001E48A9B080464FF089FD654C0FAF0246654933
S31508001E58384616F0F9FFFFF793FF2378052B65D167
S31508001E6802F08EFA604ADFF8B0B1D2E90045041BE1
S31508001E7861EB05052946204602F05CFA59490246EF
S31508001E8819A816F0E1FFDBE90001201845EB010166
S31508001E9802F050FA554E0DF178090246514948465E
S31508001EA816F0D2FFD6E9000102F044FA0DF18C0AC1
S31508001EB802464C49504616F0C7FFDBE90032E418DB
S31508001EC845EB020520462946CDE90A9A4DF0B4FCA9
S31508001ED80022474B4DF0E6FC82468B46D6E90001C0
S31508001EE8201845EB01014DF0A7FC0B46024659465A
S31508001EF850464DF001FECDE908013E4B1B88069376
S31508001F083D4B059319ABCDE903733C4B4FF4806100
S31508001F1802933B4B3B4A01933B4B3C480093434651
S31508001F2816F0A6FF394829B0BDE8F08F02F028FA5E
S31508001F38374ADFF8E490D2E90056451B61EB0606F6
S31508001F482278344914A816F07FFF3146284602F04D
S31508001F58F1F92449024619A816F076FFD9E90001CD
S31508001F6802F0E8F9DFF884A00DF1780B02461D495E
S31508001F78584616F069FFDAE90001281846EB010108
S31508001F8802F0D8F923AB02461649184616F05CFF44
S31508001F98D9E9004923AB20464946CDE90AB34DF0AD
S31508001FA84BFC0022124B4DF07DFCCDE90C01DAE919
S31508001FB80031E41849EB0101601946EB01014DF0BF
S31508001FC83BFC0B460246DDE90C014DF095FDCDE9D3
S31508001FD80801084B1B88069319AB059314AB92E7BF
S31508001FE8876C0020EBB707087810002060100020DF
S31508001FF8000059403C5B0020D3E80608386D0020ED
S31508002008F9E70608FEE70608406D002087680020FD
S3150800201870100020D6E806086810002037B5604911
S31508002028012059F0B9FF05465E495D4804F080FA73
S315080020385D4C002D00F09C804FF480615B4A206857
S3150800204816F016FF4FF089FC236802465849002007
S3150800205858F099FE4FF081FC22680146544816F05C
S31508002068DFFE4FF48061534AABB2206816F000FFD2
S315080020780020216858F087FE206816F0D1FE4FF434
S3150800208880614D4B4D4A206816F0F2FE4FF065FC0C
S31508002098236802464649002058F075FE4FF05DFC55
S315080020A822680146424816F0BBFE434869F05EFDC1
S315080020B8434A0146404850F0B8FA4249404804F0B5
S315080020C837FA40F2D54300934FF480613D4B3E4AB8
S315080020D8206816F0CDFE4FF040FC236802463449C6
S315080020E8002058F050FE4FF038FC22680146304868
S315080020F816F096FE4FF48061344B354A206816F080
S31508002108B7FE4FF02AFC236802462949002058F0F2
S315080021183AFE4FF022FC22680146254816F080FE52
S315080021282A4869F023FD2B4A0146284850F07DFACB
S315080021382949284804F0FCF941F2356300934FF41D
S315080021488061254B254A206816F092FE4FF005FC5B
S31508002158236802461649002058F015FE4FF0FDFB85
S3150800216822680146124816F05BFE284603B030BDC1
S315080021784FF480610B4B1A4A206816F079FE4FF027
S31508002188ECFB236802460A49284658F0FCFD4FF03E
S31508002198E4FB22680146064816F042FE6FE700BFD0
S315080021A8676400203F64002064240020BC2B0708CD
S315080021B8EAE80608F2E8060852E906085FE90608A2
S315080021C8E4230020EF6300207AE90608A1E9060857
S315080021D8AEE90608C4230020C7630020CAE9060832
S315080021E82FE90608F8B5FFF719FF03220221002090
S315080021F859F011FE514A411C0346514C106023D12F
S315080022084FF480614F4A206816F032FE4FF0A5FB5E
S31508002218236802464C49002058F0B5FD4FF09DFB4F
S3150800222822680146484816F0FBFD484A4FF4806183
S31508002238206816F01DFE2168002058F0A4FD2068C5
S3150800224816F0EEFD0120F8BD4FF48061404A20687B
S3150800225816F00EFE4FF081FB236802463A49002025
S3150800226858F091FD4FF079FB002501462268394E52
S31508002278354816F0D5FD40F2D540356059F0B6FD1B
S315080022880322B0800221284659F0C5FD324E421C69
S315080022980346306016D14FF480612A4A206816F042
S315080022A8E7FD4FF05AFB236802462749284658F0A7
S315080022B86AFD4FF052FB22680146234816F0B0FD26
S315080022C8264AB3E74FF48061254A206816F0D0FD00
S315080022D84FF043FB236802461B49284658F053FD2E
S315080022E84FF03BFB1F4F0146226817481E4C16F055
S315080022F897FD41F23560256059F078FD33683E460A
S31508002308A08046F8043B0FCC0FC694E80F0086E871
S315080023180F0041F20303FB843223BB6242F22A33DD
S3150800232812484FF48C71BB85B86350F082FA7D6306
S31508002338F88587F8245028463D6484E7B4230020A6
S3150800234864240020BC2B0708EAE80608F1E9060811
S3150800235827EA0608D8230020B023002057EA0608EB
S315080023688EEA0608D8B30020B8230020BEEA060875
S3150800237873B53C4D4FF48C71E86350F05AFA2886C9
S3150800238805F1240050F026F8064650F00CF80446E5
S31508002398E8B9354D009640F267334FF48061334A01
S315080023A8286816F065FD4FF0D8FA2B6802463049BA
S315080023B8204658F0E8FC4FF0D0FA2A6801462C481F
S315080023C816F02EFD40F26935284602B070BD05F1B3
S315080023D8240150F001F800281CDA234D40F26D3329
S315080023E84FF48061234A286816F042FD4FF0B5FA83
S315080023F81F4902462B68002058F0C5FC4FF0ADFA75
S315080024082A6801461A4816F00BFD002520464FF0A3
S31508002418D6FFD9E720230193174B32460093214666
S31508002428002328681FF0F6FB0130EED12B680E4E04
S3150800243800934FF4806140F27933104A306816F0F9
S3150800244817FD4FF08AFA336802460949002058F002
S315080024589AFC4FF082FA32680146054816F0E0FC05
S315080024683125D3E7D8B3002064240020D1EA06082A
S31508002478EAE8060811EB0608B82300204BEB06081D
S315080024882DE9F04385B005461C469DF830609DF851
S315080024983470002A00F08F80002978D04FF05DFA52
S315080024A80146714816F0BCFC284616F0B9FC002C03
S315080024B840F09A800124002E3CD02B464FF48061C8
S315080024C86A4A6B4816F0D4FC20230193694BDFF857
S315080024D8D091009386B2002332466549D9F80000A0
S315080024E81FF098FB013040F0838040F2D5430293F1
S315080024F8614B03960193D9F80030DFF88C81009375
S315080025084FF4806140F2AB335C4AD8F8000016F005
S31508002518AFFC4FF022FA5A490246D8F80030002094
S3150800252858F031FC4FF019FAD8F8002001465448FB
S3150800253816F076FC3FB32B464FF480614B4A514858
S3150800254816F096FC83B2B3F58C7F54D94FF48C7386
S315080025584D4D80B2019300904FF46E734FF480612D
S315080025684A4A286816F084FC4FF0F7F944490246A7
S315080025782B68002058F007FC4FF0EFF92A68014647
S315080025883F4816F04DFC204605B0BDE8F08316F026
S3150800259847FC002C8ED00124DFF8EC802A464FF43D
S315080025A88061D8F8000016F063FCD8F800100020FF
S315080025B858F0E9FB16E0002B3FF47DAFB1B114469D
S315080025C8DFF8C4802A464FF48061D8F8000016F070
S315080025D84FFC4FF0C2F9D8F80030024628490020C7
S315080025E858F0D1FB013466E70124E9E70C46D3E73E
S315080025F80134E4B29EE72348FFF7BAFE064610B947
S315080026080134E4B2BFE7204D4FF48061204A2868B8
S3150800261816F02EFC4FF0A1F92B680246184900203F
S3150800262858F0B1FB4FF099F92A680146144816F094
S31508002638F7FB41F235630293164BB6B20193164B74
S3150800264803961B68154A00934FF4806140F2BE331F
S31508002658286816F00DFC2968002058F094FB2868AD
S3150800266816F0DEFB8FE700BF79EB0608EBB707081D
S31508002678C75F0020D8230020EF6300207FEB0608F9
S31508002688EAE80608C75B002064240020DDEB060894
S31508002698BC2B0708C7630020B023002049EC0608AE
S315080026A8B42300202DE9F74301F0CCFDBF4DC048FF
S315080026B816F0B6FBBF4EC04AC049C148C14C16F011
S315080026C8C3FB64212846C04BBC4A16F0D1FB0195CA
S315080026D800964FF48061BA4BBC4A206816F0C8FBCE
S315080026E84FF03BF923680246B949002058F04BFBDE
S315080026F84FF033F922680146B54816F091FBB54BF9
S315080027083221B54A0093B548B54B16F0B1FB4FF4DC
S315080027188061AB4BB34A206816F0AAFB4FF01DF947
S3150800272823680246AA49002058F02DFB4FF015F9F0
S3150800273822680146A64816F073FB33464FF48061B3
S31508002748A84A206816F094FB4FF007F92368024652
S315080027589F49002058F017FB4FF0FFF822680146FA
S315080027689B4816F05DFB2B464FF480619D4A20680E
S3150800277816F07EFB4FF0F1F82368024694490020CC
S3150800278858F001FB4FF0E9F822680146904816F020
S3150800279847FB4FF48061914B924A206816F068FB14
S315080027A84FF0DBF8236802468949002058F0EBFA0F
S315080027B84FF0D3F822680146854816F031FB012107
S315080027C8042001F0F9FA01222220114601F01CFB27
S315080027D801220B20114601F017FB0122252011467C
S315080027E801F012FB01221D20114601F00DFB7E4B5C
S315080027F84FF48061714A7D4816F03AFB4FF48061C0
S315080028087B4A206816F034FB4FF0A7F8236802467F
S315080028186F49002058F0B7FA4FF09FF8226801462A
S315080028286B4816F0FDFA4FF48061724B724A2068BD
S3150800283816F01EFB4FF091F82368024664490020FB
S3150800284858F0A1FA4FF089F822680146604816F050
S31508002858E7FA4FF48061674B684A206816F008FB68
S315080028684FF07BF8236802465949002058F08BFA3E
S315080028784FF073F8624D01462268554816F0D0FAAB
S31508002888284659F056FCEB79AA795E495E4816F04F
S31508002898DBFA4FF480615C4B5C4A206816F0E8FA6C
S315080028A84FF05BF8236802464949002058F06BFA4E
S315080028B84FF053F822680146454816F0B1FA5449CC
S315080028C8544816F0C1FA4FF48061524B524A2068B0
S315080028D816F0CEFA4FF041F8236802463C49002024
S315080028E858F051FA4FF039F822680146384816F078
S315080028F897FA4A498B2003F0C1FD01F041FD484B80
S31508002908484FC3E9000159F003FC4FF48061464A71
S31508002918206816F0ADFA4FF020F8236802462C49CD
S31508002928002058F030FA4FF018F82268014628486F
S3150800293816F076FA4FF083F80121042001F03CFAE4
S3150800294801222220114601F05FFA01220B201146C6
S3150800295801F05AFA01222520114601F055FA0122FA
S31508002968012411461D2001F04FFAFFF73BFC01F040
S31508002978ADFA01F02FFD2D492D4800F0C1FB1A4884
S31508002988FFF716FA234622462146CDE90044FFF703
S3150800299877FDDFF8A0803B78052B71D101F0D8FBCD
S315080029A84FF0010901F0E8FD46E000BFD46C0020AD
S315080029B8BC2B0708DBEC0608F9E70608EBB7070897
S315080029C8486D002064240020B3EC0608D1EC0608FC
S315080029D8EAE8060805ED0608F0EC0608A26C0020E9
S315080029E8E4EC06084EE906088427070887640020E9
S315080029F80EED060825ED060835ED06084DED060820
S31508002A087F64002055E70608406D002065ED060836
S31508002A1874ED0608896C00208CED0608952A0008CE
S31508002A2880100020876C00209CED0608176400209B
S31508002A383F64002080BA002001F0A2FC0023B8F801
S31508002A48002006460D464DF0BDFB1A430BD14CB186
S31508002A580D48FFF7F3F90123CDE900991A461946F7
S31508002A68FFF70EFD0024304629463C2200234DF088
S31508002A78A9FB013A1A4308BF01244EF0EEFF8AE77C
S31508002A884FF00009D8E700BF842707082DE9FF4754
S31508002A988268CC4DD2B2052A2A7000F2C981CA4E7C
S31508002AA833889A4200F0C481C84C00924FF480617A
S31508002AB8C74A206816F0DCF94EF04FFF236802462D
S31508002AC8C449002058F05FF94EF047FF22680146CE
S31508002AD8C04816F0A5F92F787B1E042B35D801F0C7
S31508002AE84FFC02460B46BC4901EBC707C7E900235A
S31508002AF82B785F1E51F8332001EBC70C01EBC30096
S31508002B0851F837104068DCF80470521A60EB070170
S31508002B18B24800EBC30740F833207960CDE90021B5
S31508002B284FF48061AE4A206816F0A2F94EF015FFF8
S31508002B38A84902462368002058F025F94EF00DFFEB
S31508002B4822680146A34816F06BF92B78052B40F046
S31508002B588F80A14AA349D2E90A3C0A88DFF8AC92D1
S31508002B68013292B2012AC9E9003C20689E4F0A80C0
S31508002B7840F06181CDE9003C4FF480619B4A16F02C
S31508002B8877F94EF0EAFE236802469249002058F083
S31508002B98FAF84EF0E2FE226801468E4816F040F929
S31508002BA800231A46DFF87482C7E90032404668F0FF
S31508002BB8DDFF8F4B87B295F8009018804EF0CDFE52
S31508002BC8C7F580614B468B4A009008EB070016F05C
S31508002BD84FF9276895F800804EF0BFFE43464FF434
S31508002BE88061844A0090384616F042F94EF0B5FEE0
S31508002BF8236802467749002058F0C5F84EF0ADFE1E
S31508002C0822680146734816F00BF902A8FFF776F80A
S31508002C18794F029B79493B60039B79487B60FB792E
S31508002C28BA7916F011F9774B1B684BB17648FFF756
S31508002C38BFF801231A461946CDE90033FFF720FCE9
S31508002C480121042001F0B8F801222220114601F0DA
S31508002C58DBF801220B20114601F0D6F801222520BF
S31508002C68114601F0D1F801221D20114601F0CCF8D1
S31508002C783388052B40F0DA80574F4FF00009BA46DB
S31508002C88B84601F07DFB2A7809F101094A45EAE8C0
S31508002C980201F6DA0020DFF844C13B46B968D3F8E2
S31508002CA80CE00130D3E90093B1EB09016EEB03039D
S31508002CB84CF8081F824207F10807CCF80430ECDA0A
S31508002CC808EBC20158F83230504F4A68DFF850818D
S31508002CD8D7E90001C8E900321B1A62EB0102CDE9FF
S31508002CE800324FF480614A4A206816F0C1F84EF05F
S31508002CF834FE236802463749002058F044F84EF057
S31508002D082CFE22680146334816F08AF8D8E90032BC
S31508002D18DFF810C1DFF80481DCE900011B1842EB73
S31508002D280102D7E900105B1A62EB00024046CCE9BB
S31508002D38003268F01BFF2E4B87B295F80090188072
S31508002D484EF00BFEC7F580614B46324A009008EBF9
S31508002D58070016F08DF8276895F800804EF0FDFDF7
S31508002D6843464FF480612B4A0090384616F080F89F
S31508002D784EF0F3FD236802461649002058F003F87A
S31508002D884EF0EBFD226801240146124816F048F871
S31508002D98214B214604201C7001F00EF822462146D4
S31508002DA8222001F031F8224621460B2001F02CF8A2
S31508002DB822462146252001F027F8224621461D20CD
S31508002DC832E000BF876C0020385B002064240020AE
S31508002DD8B6ED0608EAE806083010002000100020BC
S31508002DE8CBED06083C5B002060100020F4ED0608D1
S31508002DF83A5B002031EE06087764002055E7060896
S31508002E08386D0020B423002084270708781000208E
S31508002E183CEE060859EE0608886C002087640020F0
S31508002E28701000206810002000F0EEFF2B78338021
S31508002E3804B0BDE8F087DFF85C80D8E900125B1AB1
S31508002E486CEB0202CDE900324FF480610F4A16F0A6
S31508002E580FF84EF082FD236802460D49002057F008
S31508002E6892FF4EF07AFD22680146094815F0D8FF08
S31508002E78D7E90001D9E900321B1842EB0102D8E963
S31508002E8800105B1A62EB00028CE600BF15EE060816
S31508002E98EAE806087010002084B0F0B591B016ACC0
S31508002EA884E80F0001F06CFA01F044FA264D024650
S31508002EB82821284615F0DCFF01F062FA234A244E39
S31508002EC8D2E90032C01A61EB020101F033FA214F48
S31508002ED802462821304615F0CBFF38461E4915F01C
S31508002EE8B3FF9DF89F301D4C0C939DF89C304FF40A
S31508002EF88061AE3B0B939DF89D302046AE3B0A9306
S31508002F08BDF89630164A0993BDF89430CDE90E6790
S31508002F180893239B0D950793229B0693219B05935C
S31508002F28209B04931F9B03931E9B02939DF8B43022
S31508002F3801932E9B00930B4B15F09AFF204611B070
S31508002F48BDE8F04004B07047786D0020781000207E
S31508002F58506D0020A06D002064EE060887680020E2
S31508002F686AEE0608406D00202DE9F04F83B000AFE1
S31508002F780446F81D0E469146984659F0F2F818B1D7
S31508002F8881B2224815F04CFFFB7923B900200C378B
S31508002F98BD46BDE8F08F6A46A2EBC3039D46F81DF9
S31508002FA869466D4659F0F2F818B181B2184815F015
S31508002FB837FFFB796CB130789842E7D2414605EB82
S31508002FC8C00059F0FCF8337805EBC301CB798A7948
S31508002FD815E0FB795FFA84FA5345D7D905EBCA0B8E
S31508002FE84146584659F0EBF8D8F820300134002BFA
S31508002FF8EFD19BF807309BF8062086F800A04846CC
S31508003008044915F021FF0120C1E700BFE8E60608D4
S3150800301821E7060855E7060830B5AFB0104D17ACD6
S3150800302823462A4600200DF15B01FFF79DFF03465C
S3150800303870B19DF85B3049221BA96846139314950D
S3150800304868F087FD94E80F00FFF726FF2FB030BD1C
S315080030584FF48061034A044815F00AFF0248F5E769
S31508003068C06D002087EF0608876800202DE9F04123
S31508003078AEB016AF0446F81C59F073F818B181B209
S315080030881A4815F0CDFEFB78A3422DD96A46A2EB5D
S31508003098C3039D4616AD2946F81C59F077F818B1AA
S315080030A881B2134815F0BCFEDFF850803E1D314644
S315080030B805EBC40005EBC40559F081F8EB79AA7944
S315080030C80C49404615F0C0FE492207F11401684626
S315080030D8CDE9134868F03DFD96E80F00FFF7DCFEDA
S315080030E86037BD46BDE8F0810348F9E7E8E6060813
S315080030F821E7060855E7060884270708C06D002053
S3150800310870B50D4604461A4E304615F089FE19481C
S3150800311815F086FE41F235622946174815F080FEF5
S31508003128164815F07DFE2146154815F079FE15480E
S3150800313815F076FE2146144815F072FE02F0BEFD1B
S31508003148124815F06DFE124815F06AFE114815F07A
S3150800315867FE114815F064FE104815F061FE104820
S3150800316815F05EFE3046BDE8704015F059BE00BF42
S31508003178BC2B070897EF0608CBEF0608ECEF0608FE
S31508003188FDEF06083DF0060851F00608A9F00608FE
S31508003198FFF006084FF106088BF10608E5F1060860
S315080031A840F2060810B586B0044601F087FA04A866
S315080031B801F0AAFAA8B19DF81130402102939DF8AA
S315080031C810300B4A01939DF813300A4800939DF86E
S315080031D8123015F04DFE214606484EF0A1FB06B002
S315080031E810BD4021044A034815F042FEF3E700BF24
S315080031F87EF20608C56D0020A5F2060830B587B028
S3150800320804460C4B0C4D04930C4B402103930C4B72
S31508003218284602930B4B0C4A01930C4B00930C4B14
S3150800322815F026FE2146284607B0BDE830404EF080
S3150800323877BB00BFA26C0020C56D0020D46C0020A7
S31508003248896C0020DBEC0608B4F20608486D0020F5
S31508003258406D002070B59AB004460DF1170058F075
S3150800326880FF01F08DF801F065F82821024606A8C6
S3150800327815F0FEFD01F084F8104A10AED2E90032C6
S31508003288C01A61EB020101F055F8282102463046BA
S3150800329815F0EEFD9DF81730094D0293094B0A4AB9
S315080032A8CDE90063402106AB284615F0E1FD214625
S315080032B828464EF035FB1AB070BD00BF78100020BE
S315080032C8C56D0020386D00202CF3060838B504466D
S315080032D8064D40212846064B064A15F0C9FD2146E3
S315080032E82846BDE838404EF01BBB00BFC56D002018
S315080032F8406D0020EBB7070838B50446064D40214F
S315080033082846064B064A15F0B3FD21462846BDE869
S3150800331838404EF005BB00BFC56D0020486D00203B
S31508003328EBB7070838B50446064D40212846064B2C
S31508003338064A15F09DFD21462846BDE838404EF058
S31508003348EFBA00BFC56D0020DBEC0608EBB7070827
S3150800335838B50446064D40212846064B064A15F058
S3150800336887FD21462846BDE838404EF0D9BA00BF41
S31508003378C56D0020896C0020EBB7070810B59AB010
S31508003388838904464BB300218269D154806914495C
S3150800339801AA4DF019FAD8B1124901A868F0C7FB75
S315080033A840B958F01AFE58F0B3FE4EF048FB002014
S315080033B81AB010BD0C4901A868F0B9FB10B958F045
S315080033C80CFEF2E7094A01AB4021094815F050FD01
S315080033D8214607484EF0A4FAEAE7064B004AF3E7FF
S315080033E8EBB7070883F306088DF3060897F306086C
S315080033F8C56D0020D46C002038B50446064D40211A
S315080034082846064B064A15F033FD21462846BDE8E8
S3150800341838404EF085BA00BFC56D0020A26C002062
S31508003428EBB7070838B5044600F0AAFF00F082FF94
S31508003438064D034640212846054A15F019FD21463A
S315080034482846BDE838404EF06BBA00BFC56D002067
S31508003458EBB7070838B50446074DFEF791FC402137
S315080034682846064B064A15F003FD21462846BDE8B8
S3150800347838404EF055BA00BFC56D0020386D00209B
S31508003488EBB7070813B50023019383890446ABB144
S315080034980E49806901AA4DF097F978B19DF804009C
S315080034A8FFF7E4FD03460A4A40210A4815F0E0FCFE
S315080034B8214608484EF034FA02B010BD0DF1030053
S315080034C858F04FFE9DF80330034AEDE774040808E0
S315080034D8EBB70708C56D0020ACF3060830B58BB006
S315080034E80446114B114DD3E90A01CDE90801D3E980
S315080034F80801CDE90601D3E90601CDE90401D3E9B6
S315080035080401CDE902014021D3E902232846CDE981
S315080035180023074A15F0ACFC214628460BB0BDE83F
S3150800352830404EF0FDB900BF00100020C56D0020E0
S31508003538BFF3060838B50446064D40212846064B0B
S31508003548064A15F095FC21462846BDE838404EF04F
S31508003558E7B900BFC56D002087640020EBB70708E8
S3150800356837B50022838904460C4D01924BB181690F
S31508003578CA5480690A4901AA4DF026F908B1019B7F
S315080035882B802B88074A4021074815F071FC2146ED
S3150800359805484EF0C5F903B030BD00BF80BA002013
S315080035A874040808AD290808C56D002013B500225B
S315080035B883890446019273B18169CA5480690C49A2
S315080035C801AA4DF001F930B19DF80400094B012113
S315080035D8187000F0F1FB019B074A4021074815F0CF
S315080035E847FC214605484EF09BF902B010BD00BFBE
S315080035F87404080874BB0020AD290808C56D0020A6
S3150800360808B582890AB9002008BD0549806968F0A5
S3150800361842FA0028F7D1FEF751FB0120F4E700BF6C
S31508003628DAF3060838B50446084D094B40211B88C5
S315080036382846084A15F01CFC2046FFF7E1FF2146F4
S315080036482846BDE838404EF06BB900BFC56D002066
S315080036583C5B00207404080838B5044600F090FE60
S315080036680B4A0C4DD2E90032C01A61EB020100F090
S3150800367861FE40210346084A284615F0F9FB20460C
S31508003688FFF7BEFF21462846BDE838404EF048B940
S3150800369878100020C56D0020EBB7070870B50446FA
S315080036A800F06EFE0E4E0F4AD6E90056D2E90032F1
S315080036B85B1B62EB0602181842EB010100F03AFEA2
S315080036C8094D034640212846084A15F0D1FB2046ED
S315080036D8FFF796FF21462846BDE870404EF020B908
S315080036E87810002068100020C56D0020EBB7070881
S315080036F838B50B4B0446D3E9000100F01BFE094D0B
S31508003708034640212846084A15F0B2FB2046FFF72B
S3150800371877FF21462846BDE838404EF001B900BF74
S3150800372860100020C56D0020EBB707082DE9F743A0
S31508003738064600F025FEDFF89490DFF89480D9E96C
S315080037480032D8E900545B1B62EB0402181842EBF6
S3150800375801014CF071F80022194B4CF0A3F8044605
S315080037680D4600F00DFED9E90032DFF868E0154F7E
S31508003778DEE900CE13EB0C0342EB0E02D8E900CEC5
S31508003788B3EB0C0362EB0E02181842EB01014CF07E
S3150800379853F80B460246294620464CF0ADF90A4A24
S315080037A8CDE900014021384615F062FB3046FFF79F
S315080037B827FF3146384603B0BDE8F0434EF0B0B8A7
S315080037C800005940C56D0020E0F30608681000207F
S315080037D878100020601000202DE9F04FA7B0834626
S315080037E800F0CEFD3F4D404CD5E90032D4E90067DC
S315080037F89B1B62EB0702181842EB010100F09AFDC1
S315080038080DF14809394F02462821484615F030FB7C
S31508003818D7E9000100F08EFD0DF1700A024628214D
S31508003828504615F025FB00F0ABFDD5E900322668B1
S31508003838DFF8CC809B1B666862EB0602181842EB19
S3150800384801014BF0F9FF0022294B4CF02BF8CDE982
S31508003858100100F095FDD5E90032D7E900575B1944
S3150800386842EB0702D4E900545B1B62EB0402181802
S3150800387842EB01014BF0E0FF02460B46DDE9100179
S315080038884CF03AF94CF0F0FA4BF0B4FFCDE90B9A44
S31508003898CDE90E01174B1B880A93174BD3E90A0182
S315080038A8CDE90801D3E90801CDE90601D3E90601FE
S315080038B8CDE90401D3E90401CDE902014021D3E9A0
S315080038C802234046CDE900230C4A15F0D1FA58469A
S315080038D8FFF796FE594640464EF022F827B0BDE84F
S315080038E8F08F00BF681000207810002060100020B4
S315080038F8000059403C5B002000100020E6F306084B
S31508003908C56D00202DE9F04389B001251422002150
S3150800391803A868F0ABF8984B984E994C0093994BC6
S3150800392868460196029404938DF80C5002F07CF9C7
S3150800393830B14FF43A71944B944A95484CF0D2FDFD
S31508003948944BDFF8E4920093934B6846CDE90194CB
S3150800395804938DF80C5002F067F920B14FF43C71C6
S31508003968894B8A4AE9E78D4B6846CDE900398C4B7D
S31508003978029404938DF80C5002F056F920B14FF4CE
S315080039883E71814B814AD8E7864B68460093864B39
S315080039988DF80C50CDE90134844B049302F044F9B0
S315080039A820B14FF44071784B784AC6E7804B814F6F
S315080039B80093814B6846CDE9017404938DF80C5041
S315080039C802F032F920B14FF442716F4B6F4AB4E7EF
S315080039D87A4B6846CDE90037794B029404938DF8FB
S315080039E80C5002F021F920B14FF44471664B674A2E
S315080039F8A3E7744B6846CDE90037734B02940493E2
S31508003A088DF80C5002F010F920B14FF446715E4B50
S31508003A185E4A92E76D4B6846CDE900366C4B0294D0
S31508003A2804938DF80C5002F0FFF820B14FF4487152
S31508003A38554B564A81E7674BDFF8F0810093664B8A
S31508003A486846CDE9018404938DF80C5002F0ECF829
S31508003A5820B14FF44A714C4B4C4A6EE75F4B6846A7
S31508003A68CDE900395E4B029404938DF80C5002F0A8
S31508003A78DBF820B14FF44C71434B444A5DE7012506
S31508003A88584B6846CDE90036574B029404938DF88F
S31508003A980C5002F0C9F820B14FF44E713A4B3B4A24
S31508003AA84BE7524B6846CDE90038514B02940493CC
S31508003AB88DF80C5002F0B8F820B140F24131324B7B
S31508003AC8324A3AE74B4B684600934B4B8DF80C50F5
S31508003AD8CDE90134494B049302F0A6F820B140F227
S31508003AE84931294B294A28E7454B6846CDE9003824
S31508003AF8444B029404938DF80C5002F095F820B1C3
S31508003B0840F25131204B214A17E73F4B684600934C
S31508003B183E4B8DF80C50CDE901343D4B049302F029
S31508003B2883F820B140F25931174B184A05E7394B43
S31508003B386846CDE90038384B029404938DF80C5042
S31508003B4802F072F820B140F261310F4B0F4AF4E6E1
S31508003B58324B68460093324B8DF80C50CDE9013448
S31508003B68304B049302F060F8002861D040F26931BE
S31508003B78054B064AE1E600BF85F406088FF40608F1
S31508003B8894F406080532000899F40608DEF60608CD
S31508003B98D9F40608E7F40608D5320008F8F4060842
S31508003BA80133000803F506080FF506082D33000843
S31508003BB813F50608E65808085933000825F50608CF
S31508003BC88533000837F506080134000845F5060860
S31508003BD85D32000851F506082D34000866F5060812
S31508003BE85D34000875F506088D34000886F506085C
S31508003BF86136000898F50608B8F50608E534000899
S31508003C08BEF50608F9360008E1F50608FDF50608C2
S31508003C182D36000801F60608A536000821F6060816
S31508003C283EF6060835370008F4F4060861F506086E
S31508003C38394B6846CDE90037384B029404938DF81A
S31508003C480C5001F0F1FF20B140F27231344B354A7D
S31508003C5873E6354B6846CDE90036344B029404932F
S31508003C688DF80C5001F0E0FF20B140F27D312C4B65
S31508003C782C4A62E62E4B2F4F00932F4B684601932A
S31508003C882E4B029704938DF80C5001F0CDFF20B106
S31508003C9840F2B731224B234A4FE60125284B68469E
S31508003CA80093284B8DF80C50CDE90137264B049321
S31508003CB801F0BAFF20B140F2BF31194B194A3CE668
S31508003CC8224B6846CDE90036214B8DF80C500293F5
S31508003CD8204B049301F0A8FF20B14FF47271104BE2
S31508003CE8104A2AE61C4B6846CDE900361B4B029457
S31508003CF804938DF80C5001F097FF20B14FF47471B6
S31508003D08074B084A19E61E221621154815F088F8A1
S31508003D18162009B0BDE8F08344F606083D350008C4
S31508003D2899F40608DEF606084DF60608E13700088F
S31508003D3861F6060875F60608B4F506086935000832
S31508003D487EF6060813CC0708B535000894F6060863
S31508003D589AF60608AD310008A1F6060851190508AD
S31508003D68A7F6060800B58BB0FFF7CCFD2022002180
S31508003D7802A867F07BFE0B4B41F2883201931823A1
S31508003D880021CDE90623084801AA06F029FB28B927
S31508003D985721064B064A07484CF0A4FB0BB05DF8BA
S31508003DA804FB00BFF6F60608AD260008FFF6060867
S31508003DB820F7060812F706082DE9F041074680207D
S31508003DC8884651F0C2FA0024054605EB440305F86F
S31508003DD814400134232C5F70F7D1294620461DF07C
S31508003DE88DFB0646B8F1000F05D003463A4621462C
S31508003DF8044815F015F8284651F0B9FA3046BDE8D2
S31508003E08F08100BF29F70608F7B58DF804008DF884
S31508003E18051005460E46012001A917461DF06EFB3A
S31508003E2804462FB1034632462946034814F0F8FFDC
S31508003E38204603B0F0BD00BF54F7060810B58378CE
S31508003E480446852B0CD1164B164A174918681DF0D7
S31508003E587BFF164B1860164802F0DCFB154B1860FA
S31508003E68A378832B1BD1A068134B104C18602368C2
S31508003E78984214D140F2CF420023104958F001F86D
S31508003E8880B2002814BF012200220D4B18800D4B62
S31508003E981A7004D1206857F0DEFF0B4B186010BD66
S31508003EA828B400202CB400200024002024B40020C4
S31508003EB80C240020FC23002020B40020066E0020D5
S31508003EC83E5B0020056E00201CB400202DE9F34156
S31508003ED8884C4FF48061884A206814F0C9FF4DF071
S31508003EE83CFD236802468549002056F04CFF4DF0F4
S31508003EF834FD22680146814814F092FF0222012106
S31508003F08002057F088FF7E4E03464FF480617D4AAD
S31508003F183060206814F0ACFF4DF01FFD2368024698
S31508003F287649002056F02FFF4DF017FD2268014606
S31508003F38724814F075FF32687349744B7448B2F1C5
S31508003F48FF3F08BF0B46734914F06AFF35686A1CB9
S31508003F580CD168F02FFA4FF0AAFA2A4601466E489D
S31508003F6814F05EFF68F026FA4FF0A6FADFF8BC816F
S31508003F780023424642F80C3B684B03F110071546E6
S31508003F8818685968083303C5BB422A46F7D1644FEF
S31508003F98644D388857F02AFF634BA8F804001A6856
S31508003FA8624930681DF008FE5749584B0246B0F179
S31508003FB8FF3F08BF0B4628605D49554814F030FF97
S31508003FC8D5F80080B8F1FF3F0CD168F0F3F94FF047
S31508003FD86EFA42460146504814F022FF68F0EAF99C
S31508003FE84FF06AFA5349852002F048FA4649474B82
S31508003FF80246B0F1FF3F08BF0B4628604E494448C1
S3150800400814F00EFFD5F80080B8F1FF3F0CD168F020
S31508004018D1F94FF04CFA424601463F4814F000FFE2
S3150800402868F0C8F94FF048FA4249832002F026FAA0
S315080040383549364B0246B0F1FF3F08BF0B462860A4
S315080040483E49334814F0ECFED5F80080B8F1FF3F36
S315080040580CD168F0AFF94FF02AFA424601462E48C5
S3150800406814F0DEFE68F0A6F94FF026FA002130684B
S3150800407857F033FF2449254B2860B0F1FF3F08BFA6
S315080040880B4602462E49224814F0CAFE2D686B1CB8
S315080040980CD168F08FF94FF00AFA2A4601461E48ED
S315080040A814F0BEFE68F086F94FF006FA254802F0C5
S315080040B8B1FA254D3A882860009203464FF4806184
S315080040C8224A206814F0D4FE4DF047FC23680246BD
S315080040D80A49002056F057FE4DF03FFC2268014673
S315080040E8064814F09DFE286802B0BDE8F0414EF077
S315080040F82ABB00BF6424002079F70608EAE8060800
S3150800410828B400209CF70608A047080818C007081E
S31508004118C7F70608B3F70608D5F70608F27D0708AD
S3150800412882BA00201CB400202CB4002020240020C9
S31508004138E4F70608453E0008F6F7060850F80608A4
S31508004148A4F806082C240020FC230020B8F8060842
S315080041582DE9FF472B4C2668C6B92B4D4FF48061CD
S315080041682A4A286814F084FE4DF0F7FB2B680246A5
S315080041782749304656F007FE4DF0EFFB2A680146F8
S31508004188234814F04DFE236801332360214F3B78FA
S31508004198A3B300252368DFF888900133DFF884A0E5
S315080041A82360B9F800301C480AF8035002F032FABE
S315080041B8DFF87480144EC8F80000CDF808A0B9F8DE
S315080041C800304FF48061CDE90003144A236830684B
S315080041D814F04EFE4DF0C1FB336802460C492846DA
S315080041E856F0D1FD4DF0B9FB32680146084814F07F
S315080041F817FED8F800004EF0A6FA3D7004B0BDE8E0
S31508004208F08700BFF823002064240020EBF806088E
S31508004218EAE80608056E00200C24002001F90608BD
S315080042283E5B0020066E0020FC230020044AD2E9E3
S315080042380031013341F10001C2E90031704700BF7E
S315080042488810002013B5174806F050F8164B186062
S3150800425828B96721154B164A16484CF043F9002029
S315080042680021154B154A1A60154BC3E900010BF0D6
S3150800427869FC044630B10146124814F0D1FD2046BF
S3150800428802B010BD69F04AFB23460146CDE9004451
S315080042980D4A0E486AF0A3F904460028EFD00146ED
S315080042A80B48EAE794FA06084024002025F9060888
S315080042B86DFA060842F9060864240020E872002008
S315080042C88810002055F906083542000844240020BD
S315080042D880F906082DE9F84316469946144A002334
S315080042E805460C464BF06EFF214630803C22284690
S315080042F800234BF067FF002380460F4616462846DC
S315080043084FF4616221464BF05DFF182200234BF0FB
S3150800431859FF404689F8002039463C2200234BF0CD
S3150800432851FF089B00201A70099B1E70BDE8F88388
S315080043388051010010B586B00DF11503019305AB40
S3150800434800930DF116020DF11303FFF7C3FF9DF84D
S315080043581530094C02939DF81430122101939DF8E3
S31508004368133020460093054ABDF8163014F080FD30
S31508004378204606B010BD00BFD6720020B7F9060859
S31508004388D0B50D4C4FF0FF31206869F00BFD28B108
S315080043984F210A4B0A4A0B484CF0A4F80A4B2068E6
S315080043A8D3E9006769F032FD18B15521074B084A69
S315080043B8F1E730463946D0BD40240020CAF9060838
S315080043C850FA060842F906088810002006FA060870
S315080043D833FA0608F7B5544C4FF48061534A2068F7
S315080043E814F046FD4DF0B9FA2368024650490020F4
S315080043F856F0C9FC4DF0B1FA226801464C4814F04B
S315080044080FFD03224B49002057F005FD4A4D034688
S315080044184FF48061494A2860206814F029FD4DF058
S315080044289CFA236802464249002056F0ACFC4DF037
S3150800443894FA226801463E4814F0F2FC2A68404974
S31508004448404B4148B2F1FF3F08BF0B463F4914F0BD
S31508004458E7FC2E68721C0CD167F0ACFF4FF027F802
S31508004468324601463A4814F0DBFC67F0A3FF4FF0E2
S3150800447823F8384F00233A4642F80C3B364B03F1EB
S31508004488100C164618685968083303C66345324639
S31508004498F7D1324E308857F0A9FC314B2D491A68A6
S315080044A8B88028681DF088FB2E4D2549254B2860BD
S315080044B8B0F1FF3F08BF0B4602462B49224814F0C5
S315080044C8AFFC2D686B1C0CD167F074FF4EF0EFFF3C
S315080044D82A4601461E4814F0A3FC67F06BFF4EF007
S315080044E8EBFF224802F096F8214D328828600092A0
S315080044F803464FF480611F4A206814F0B9FC4DF052
S315080045082CFA236802460A49002056F03CFC4DF06E
S3150800451824FA22680146064814F082FC286803B083
S31508004528BDE8F0404EF00FB964240020A4FA060846
S31508004538EAE806080200010034B40020CDFA0608A5
S31508004548A047080818C00708C7F70608E4FA0608BF
S31508004558D5F7060890240020F27D070884BA0020BB
S3150800456838B4002030B40020F8FA06089C24002045
S315080045786C2400200AFB06082DE9F04385B0314C67
S315080045882668C6B9304D4FF48061304A286814F059
S315080045986FFC4DF0E2F92B6802462D49304656F075
S315080045A8F2FB4DF0DAF92A680146294814F038FC76
S315080045B8236801332360274B274D284E2848019343
S315080045C80095002340F2CF42314600681DF066FB8D
S315080045D8DFF894800028C8F800002FDD0027236834
S315080045E83754013305F10C00236002F013F8DFF89D
S315080045F87C90154DC9F800000296D8F800304FF49B
S315080046088061CDE90003174A2368286814F030FC4E
S315080046184DF0A3F92B6802460D49384656F0B3FB08
S315080046284DF09BF92A680146094814F0F9FBD9F8B0
S31508004638000005B0BDE8F0434EF085B805B0BDE802
S31508004648F08300BF682400206424002032FB060893
S31508004658EAE8060838B4002070240020E876002026
S3150800466834B400204AFB060830B400206C24002025
S31508004678044A054B10685B68012838BF0120B3FB5C
S31508004688F0F07047B0240020001000E070B504462A
S31508004698FFF7EEFF0546084ED6F8A430C3F34003E5
S315080046A89C4201D1012070BDFFF7E2FF401B8842FA
S315080046B8F2D90020F7E700BF00C003500D4AD2F828
S315080046C8FC3043F08073C2F8FC3000220A4B5A606B
S315080046D81A6842F001021A60084B094A1B68B3FBBC
S315080046E8F2F3084A1360012302221946104605F018
S315080046F83BBB00BF00ED00E0001000E050B600200C
S3150800470840420F00B02400202DE9F04F85B0012360
S315080047180222002405461946104602948DF80C40D4
S31508004728A24605F021FB002304220121022005F0F8
S315080047381BFB0222454B44F61F66C3F8A020FFF769
S3150800474897FF0146FFF794FF431AB34224D901237A
S3150800475804221946022005F007FBCDF804A0019BA0
S315080047684F2B1BDD012302221946104605F0FCFAD9
S3150800477878210020FFF78AFFA8B90134032C5FD0F7
S31508004788334ACDF800A003E000BF009B013300932D
S31508004798009B9342F8DDC6E700BFD3E700BF019B3D
S315080047A801330193DBE70120FFF770FF0028E4D007
S315080047B80026B34602AF4FF0070807F801BB502199
S315080047C80020FFF763FF0028D7D078210120FFF7DC
S315080047D85DFF0028D1D0FFF74BFF4FF4967181464D
S315080047E80020FFF753FF01460028C6D0FFF740FF11
S315080047F8A0EB0900322807D9012303FA08F217F8AB
S31508004808013C134307F8013CB8F10108D7D2013631
S31508004818052ED0D19DF808009DF809709DF80A2044
S315080048289DF80B3028703844AA7002449DF80C602D
S31508004838EB701344DBB29E426F702E7101D09CE771
S315080048480021084605B0BDE8F08F00BF00E0035018
S315080048583F0D030010B52A4C04F0C0FD04F058FFBC
S31508004868236F012023F0070343F00303236704F0AB
S3150800487879FF244B01219B6A3E20DB015EBF4FF47A
S315080048888032214B9A62D4F8203123F0070343F08B
S315080048980203C4F82031D4F8283123F0070343F07B
S315080048A80203C4F82831D4F8403123F0030343F04F
S315080048B80203C4F84031D4F8603123F0030343F007
S315080048C80203C4F8603104F0CFFAD4F84032002065
S315080048D823F0030343F00203C4F84032D4F8003245
S315080048E823F0070343F00203C4F80032D4F8083269
S315080048F823F0070343F00203C4F8083210BD00BFCB
S31508004908008000500040005A0060005A064B1B6899
S315080049181A7A022A04D812B11B68044A1360704727
S31508004928032AF9D0704700BF4CB40020B4240020ED
S3150800493830B58FB0174D06AC0FCD0FC495E80F00EC
S3150800494884E80F000E2200210DF10A0067F08EF8A0
S315080049584FF48012104B6946CDE900230B238DF8D6
S3150800496808300C238DF809300C4B06AA039320232C
S31508004978049340F201130A48ADF81430094B0AF0BB
S3150800498853FA044600214FF4E1304DF035FF20462E
S315080049980FB030BD480107083C00015BB87B002012
S315080049A878250020B8240020014850F06CBA00BFCA
S315080049B878250020F8B50C460646114620461546C1
S315080049C857F0EAFA0746284601F024FE033C012C6C
S315080049D8054604D947B13146064814F021FA28464F
S315080049E8BDE8F8404DF0AFBE02463146024814F01D
S315080049F817FAF4E7AD070708CD0707080121024BA0
S31508004A088140186869F01AB9D025002008B5074BFF
S31508004A184FF0FF31186869F0C5F930B14FF45C7189
S31508004A28034B044A04484BF05DFD08BDD425002015
S31508004A38DA070708290C07080F08070808B5064BF8
S31508004A48186869F0E3F930B140F27631034B044A45
S31508004A5804484BF047FD08BDD4250020740807080C
S31508004A68100C07080F08070873B500230022054627
S31508004A78CDE9002368F038FF6A4668F055FF0098C4
S31508004A882D4A0199D2E90232C01A61EB02012B4A72
S31508004A98CDE90001FBF744FC284801F0E3FD284B63
S31508004AA8002814BF06461E466B68002B41D1AC6821
S31508004AB814F001040DD00121224A2348FFF77AFF92
S31508004AC8204801F0A7FD3146044602461F4814F05F
S31508004AD8A7F9AB689A070DD503211D4A1D48FFF7A4
S31508004AE869FF1B4801F096FD3146044602461A48F6
S31508004AF814F096F9AB685B070DD50421174A1848D0
S31508004B08FFF758FF154801F085FD31460446024669
S31508004B18144814F085F920464DF015FE30464DF038
S31508004B2812FE6A681AB11049104814F079F902B0E9
S31508004B3870BD0024EFE700BFA010002090100020E9
S31508004B4884270708E97B00209A080708A1080708A8
S31508004B58097C0020C1080708CD080708197C002029
S31508004B68F508070800090708D00D07082A090708DD
S31508004B78F7B500220023CDE9002344680646344DDC
S31508004B8864B12146334814F04BF90120FFF736FF84
S31508004B980121286869F08BF803B0F0BD5022214638
S31508004BA82D4866F063FF2D4814F03AF901212C4A7E
S31508004BB82C48FFF7FFFE2146274A2B48FFF7FAFE3F
S31508004BC802212A4A2A48FFF7F5FE0321294A2A48D4
S31508004BD8FFF7F0FE294A04212948FFF7EBFE68F09B
S31508004BE883FE6A4668F0A0FEDDE90017254BD3E97F
S31508004BF808208A1847EB000C9868C3E90017121AA8
S31508004C08D868C3E902176CEB0000C3E908209A6A5A
S31508004C181D4801329A62D3E90623891A67EB03030A
S31508004C28CDE900134FF47A73B1FBF3F114F0F8F8F1
S31508004C382046FFF7E3FE0221286869F038F872680B
S31508004C48002AA9D01149124814F0EAF8A4E700BFC7
S31508004C58D025002044090708D97B002066090708DB
S31508004C68E97B00209A08070873090708F97B0020DA
S31508004C787E090708097C00208C090708197C00208A
S31508004C889B090708A0100020AC090708B30D0708F8
S31508004C982A090708F7B50023002205461548CDE96D
S31508004CA8002314F0BDF868F01FFE6A4668F03CFE5B
S31508004CB8DDE90010104BD3E904248A18D3E90676EF
S31508004CC840EB0404D21B64EB0604C3E90424C3E9D5
S31508004CD80010C3E906106A681AB10849084814F0AA
S31508004CE89FF80120FFF78AFE0022064B1A7003B0C8
S31508004CF8F0BD00BFB5090708A0100020930D0708E6
S31508004D082A090708D87B002010B50F490446A1F1DF
S31508004D18280057F0F8F818B90C490D4814F080F827
S31508004D280220FFF76BFE0120FFF768FE094B0121F9
S31508004D38186868F0BCFF62682AB1BDE810400649E1
S31508004D48064814F06DB810BDC02500209825002027
S31508004D58C5090708D0250020700D07082A0907087D
S31508004D684168014814F05CB8EC09070810B50B4B04
S31508004D78044680681870C0B201F062FC014618B192
S31508004D88A268074814F04CF862682AB1BDE81040D2
S31508004D980449054814F044B810BD00BFD87B002064
S31508004DA8190A0708520D07082A09070842681AB196
S31508004DB80249034814F034B8704700BF390D07088C
S31508004DC82A09070842681AB10249034814F028B89C
S31508004DD8704700BF170D07082A09070842681AB15D
S31508004DE80249034814F01CB8704700BFF90C0708B5
S31508004DF82A09070842681AB10249034814F010B884
S31508004E08704700BFE10C07082A09070842681AB163
S31508004E180249034814F004B8704700BFB60C0708DF
S31508004E282A09070842681AB10249034813F0F8BF65
S31508004E38704700BF930C07082A09070842681AB181
S31508004E480249034813F0ECBF704700BF7B0C0708FC
S31508004E582A09070808B50C4805F048FA0B4B1860E4
S31508004E6830B940F2B7110A4B0A4A0B484BF03AFBDD
S31508004E780A4805F001FA0A4B186020B94FF4DD71A3
S31508004E88084B044AF1E708BD240E0708D425002074
S31508004E98310A0708640C07080F080708140E0708DC
S31508004EA8D0250020470A070808B50B4601460348D7
S31508004EB80322006868F019FFC00F08BDD025002036
S31508004EC830B5AFB0002300228DF807300023CDE9AE
S31508004ED80223FFF79BFD38225A495B4866F039FEDC
S31508004EE80DF1070057F000F9024618B15749584816
S31508004EF813F096FF9DF8071031B1564813F090FF46
S31508004F08FFF79CFD2FB030BD4F4CA22205A866F0CE
S31508004F18ADFD94F8210001F099FB054694F82400A4
S31508004F2857F06BF9014618B14B4813F079FFE7E7D4
S31508004F382946A22205A866F00CFE022305A88DF8C4
S31508004F48803057F06DF9014630B1444813F068FFD0
S31508004F580520FFF753FDD3E7B4F9220057F094F874
S31508004F68014620B13E4813F05BFF0620F1E73D48AD
S31508004F7857F088F9014608B13B48D6E73B4B13F882
S31508004F88012B0AB989B203E00131B1F5006FF6D1F0
S31508004F98013189B20220354A57F031F8014628B955
S31508004FA8334B13F8012B32B989B208E0314813F0AC
S31508004FB837FF0B20CDE70131B1F5006FF1D101318B
S31508004FC889B206202A4A57F031F8014628B92A4BE9
S31508004FD813F8012B32B989B208E0284813F020FFE4
S31508004FE80C20B6E70131B1F5006FF1D1013189B26C
S31508004FF80120214A57F031F8014620B1204813F01C
S315080050080FFF0D20A5E71F49A1F1280056F07BFFE1
S31508005018044680B968F068FC02AA68F085FCDDE9F0
S315080050280201194BC3E90001C3E90201C3E90601F4
S315080050380549164879E70420FFF7E0FC2146144895
S3150800504873E700BF340E070898250020420C0708A6
S315080050582A0907085F0A07088A0A0708B40A070810
S31508005068E80A07088D0707080F0B070868010708E5
S31508005078E50307083E0B070898060708740B070890
S31508005088A90B0708C0250020A0100020DE0B07087A
S31508005098F50B070810B5FFF7B9FC034B1C78FFF7A3
S315080050A8CDFC204610BD00BFD87B0020402906D17C
S315080050B8C378202B08D005D813F0EF0F04D04FF08B
S315080050C8FF307047302BFAD18078A528F7D887287B
S315080050D806D85F2802D013D804280AD800207047B3
S315080050E8094B7830C0B2C34003F00103013B58B2FC
S315080050F87047413804284FF0FF3098BF00207047A2
S3150800510880F080000628F6E7B100003F2DE9F04F49
S3150800511889B000260F46154604469846149B9DF8FE
S315080051284CA0CDE906320390059000EB0209079BCF
S3150800513823B90795002E45D100264CE0BAF1080F89
S31508005148069B2CD1FF2B26D89D42059A23D31A44B1
S31508005158944220D84A451ED85A1C2146164405A802
S315080051682A464DF06AF807900028E2D0059B1B7876
S315080051781909DED12146069305A801234DF05DF8E5
S3150800518807AB0790009322462B4605A906A84DF0BB
S3150800519862F80028CBD0002009B0BDE8F08FBAF134
S315080051A80B0FCFD0BAF10F0FCCD0BAF1140FC9D064
S315080051B8BAF1110F01D1022BC5E7BAF1040FC3D111
S315080051C8082BC0E7013EB7D0FB68B0B29847C8F8C5
S315080051D800000028DFD0129BAAF1040A1E800123CA
S315080051E8D8F800705FFA8AFBD8F80020B91AB142D5
S315080051F801DA079909B90398CEE76BB90123234958
S3150800520803FA0BF30B4204D113F0900F03D02F23A4
S3150800521800E026233B700137DDF85090BA1A4A4455
S31508005228B242B8DCA9450399B5D801EB09039C42F3
S31508005238B1D862199342AED84A46384666F089FC10
S315080052484B462A46214603A84CF0F7FF0346079023
S315080052584F440398002B9FD003785FEA13199BD114
S315080052680DF1480A4AF8083F2146012303A84CF0DD
S31508005278E4FF07AB0790009322462B46504603A93E
S315080052884CF0E9FF4B460028AED084E70128010018
S315080052982DE9F04F8BB081460F461D46164622B9B2
S315080052A8002420460BB0BDE8F08F0329F8D900285A
S315080052B8F6D04DF018F804460028F1D03278314671
S315080052C822F03F032B70737802F03002C2708370A5
S315080052D873883A465BBA0381331D069306A80023EA
S315080052E84CF0ABFF3278079002F00F022270CAB171
S315080052F8082A6DD82369002B6AD19742069967D37D
S315080053088B189E4264D8F019834261D848464DF0F6
S315080053182AF8206100285BD03A463146237806A841
S315080053284CF08BFF4FF0000B069BDFF8BCA39B1BCA
S31508005338FB1A0793DDE90632002A00F0D0811A78AD
S31508005348FF2A0FD19A1BBA420ADA1A78FF2A3FD1DE
S3150800535801339E1BBF1BBFB2A781002F38D0A3619C
S31508005368002336E002F00F03120931460893099222
S3150800537801233A4606A84CF060FF07AD07903B465E
S315080053883246009506A909A84CF065FF00BB099B9B
S3150800539803EB0B081FFA88F8434519D8C34517D8ED
S315080053A83B463246009506A908A8CDF824804CF055
S315080053B852FF68B9B8F11C0F0DD8B8F1020F07D912
S315080053C82AFA08F3DB070CD4DDE90725954215D92F
S315080053D80123637065E7B8F1230F02D0B8F13C0FD3
S315080053E8F6D1214648464CF088FF0028F0D0DDE97A
S315080053F80725AA42ECD3B8F1230F4BD8B8F1020F08
S31508005408E6D9A8F10303202BE2D801A151F823F025
S315080054187B55000849550008D95300082556000841
S31508005428CF550008A9550008D9530008D9530008CC
S315080054380B560008C7540008D9530008ED5400084D
S3150800544847560008D95300089D560008D95300083E
S31508005458D9530008F1550008D9530008D95300084C
S3150800546859560008D9530008D9530008D9530008D3
S315080054787B560008BF560008D9530008D9530008B8
S31508005488D9530008D9530008D9530008D953000836
S3150800549805550008B8F13C0F9AD1042D98D8D4F8C8
S315080054A81CB09BF80130002B92D1012329468BF8B2
S315080054B8013006A84CF0B3FECBF8180009E0022D17
S315080054C886D86368013383D1294606A84CF0A7FE17
S315080054D86060069B9B1B9F42FFF47AAFFB1AC34684
S315080054E8079327E7042D3FF673AF294606A8D4F88D
S315080054F81CB04CF094FECBF81400EAE740F20943D6
