S011000044485431315F434F41502E7333371F
S3150800000000100020015C000823E6040823E6040823
S3150800001023E6040823E6040823E6040823E604087E
S3150800002023E6040823E6040823E6040823E604086E
S3150800003023E6040823E60408B1A8000823E6040812
S3150800004023E6040823E6040823E6040823E604084E
S3150800005023E6040823E6040823E6040823E604083E
S3150800006023E6040823E6040823E60408F93D000805
S315080000703DD8040823E6040823E6040823E6040812
S3150800008023E6040823E6040823E6040823E604080E
S3150800009023E6040823E604086964000823E604083E
S315080000A023E6040823E6040875600008556000087E
S315080000B023E6040823E60408D1ED0108C9F8010877
S315080000C0117705080D77050841F001082777050817
S315080000D01577050899F801081977050809F9010837
S315080000E0F5F9010823E6040823E6040823E60408CC
S315080000F023E6040823E6040823E6040823E604089E
S3150800010023E6040823E6040823E6040823E604088D
S3150800011023E6040823E6040823E6040823E604087D
S3150800012023E6040823E6040823E6040823E604086D
S3150800013023E6040823E6040823E6040823E604085D
S3150800014023E6040823E6040823E6040819AF000892
S3150800015023E6040823E60408438606081DD1010899
S3150800016023E6040823E60408017705080777050847
S3110800017023E6040823E6040823E6040836
S3150800017CF0B5114A114C124E00F00105E3695F0700
S3150800018C13D40DB9334213D103EA00078F4207D1B2
S3150800019C0B4A1A40002A0CBF00206FF00100F0BD74
S315080001AC013AEBD16FF00200F9E74FF0FF30F6E7B2
S315080001BC6FF00100F3E700BF80969800000003502B
S315080001CC0200010070B50B4BD96911F480310DD1C1
S315080001DC01244FF48072084E084DF46020462C64B6
S315080001EC1A61FFF7C5FF3464EC6070BD6FF001004F
S315080001FCFBE700BF0000035000100350002003501B
S3150800020C38B54FF480320E4B0E4C9A66E56941F6BA
S3150800021C713315400122E3630B4B0021DA6002238C
S3150800022C606121202361FFF7A3FF10B92120FFF796
S3150800023C9FFF0122054BDA600DB10023E36338BD3D
S3150800024C009000500000035000100350002003508B
S3150800025C70B5134C6061E3695B071ED40E4656F8FD
S3150800026C043B8D18A361AE420BD104230021212037
S3150800027C2361FFF77DFF58B9BDE870402120FFF7D1
S3150800028C77BF08210846FFF773FF10B104232361D3
S3150800029C70BD56F8043BA361E5E74FF0FF30F7E76E
S315080002AC000003502DE9F84315464FF48032184BDD
S315080002BC89469A6603F51C33DF690646174041F6EC
S315080002CC7132DA63012203F58053DFF84C80DA6069
S315080002DC55B9284601220F4BDA601FB10022A3F547
S315080002EC0053DA63BDE8F88306F5005404EA0804FB
S315080002FCA41BAC4228BF2C46494622463046FFF77B
S3150800030CA7FF0028E6D12644A1442D1BE0E700BF31
S3110800031C009000500020035000E0FFFF96
S315080003282DE9F04100231546C2E900014FF47A7217
S3150800033880460F464CF0CEF918A3D3E900230446A5
S315080003480E46404639464CF0C5F9134B80B228810B
S315080003585843241A66F100064FF4616200232046C2
S3150800036831464CF0B7F94FF46163C0B2A8725843E6
S31508000378241A20464FF03C024FF0000366F10001AC
S315080003884CF0A8F9C0B2E872C0EB0010A4EB8004E0
S315080003982C73BDE8F08100BF80510100005C26057A
S315080003A800000000000000002DE9F04F93B0CDE9E9
S315080003B80A32DDE91C530E9353EC102BCDE90801DC
S315080003C8104619468DED060B1E9E4BF05BFF80B155
S315080003D8DDE906014FF0FF32C54B4BF07BFF40B90C
S315080003E8DDE906014FF0FF326FF480134BF054FF36
S315080003F870B1DDE908019DED060B0E9B1E96CDE949
S315080004081C53DDE90A3213B0BDE8F04F00F088B98D
S315080004180022DDE9060100234BF03EFF002800F024
S315080004283381DDE906A303F1004BCBF30A5016F432
S315080004388063A0F2FF3008BF06250F934BF050FCE7
S315080004489BA3D3E900234BF0B5FC9BA3D3E9002370
S315080004584BF0FAFACBF31304894644F07F518046E9
S315080004680022A44B504641F440114BF0EBFA94A3F2
S31508000478D3E900234BF09EFC02460B464046494604
S315080004884BF0E2FA4BF030FF04464BF029FC8EA3FA
S31508000498D3E90023804689464BF08CFC0022964B0C
S315080004A84BF0D2FA4BF020FF89A3D3E9002307467D
S315080004B8494640464BF07EFC8046384689464BF00E
S315080004C80FFC85A3D3E900234BF074FC02460B46C0
S315080004D8404649464BF0B6FA02460B46CDE90C2388
S315080004E84BF068FCDDE90C23804689461046194618
S315080004F84BF0AAFA0022CDE91001804B404649463E
S315080005084BF082FD00227E4B4BF09EFA02460B46C4
S31508000518404649464BF078FD00227A4B4BF094FA50
S3150800052802460B46404649464BF06EFDDDE90C236C
S315080005388046894600204FF080414BF083FA0246F0
S315080005480B46404649464BF07FFA02460B46DDE91C
S3150800055810014BF059FD07F2FF3700226A4B4BF0A2
S3150800056873FA00223B054BF025FC52465B4680464B
S3150800057889464BF0AFFE002840F08980CDE90C8902
S3150800058804F16303C72B34BF0427052731051BD598
S3150800059853A3D3E90023504659464BF091FE002849
S315080005A87FD051A3D3E90023504659464BF074FE31
S315080005B8002876D00027A542C6BF2C1B04F1FF35B4
S315080005C800253C4646F480660E9B9F422CBF4FF09A
S315080005D80008A3EB070816F0020903D0002F18BF76
S315080005E84FF000083CB1DDE90C23504659464BF05C
S315080005F80BFD82468B46DDE90601002200234BF0F7
S315080006084BFE10B10BF100439B46DDE9080126F4C1
S315080006180063CDE90183DDE90A324BEC10AB00959E
S3150800062800F07EF802465FB3DDE9091316F0200FDD
S3150800063800F10105089E0CBF65204520B047DDE995
S3150800064808010523002205930A23002CCDE9023266
S3150800065807F1FF374FEAD473B8BF64422A460193B5
S3150800066804970A9B009456F0BEFA0246B9F1000FA1
S3150800067806D00B9BC41A0B9B1A190E9BA34245D886
S31508000688104613B0BDE8F08FDDE906ABCDE60022CB
S31508000698404649461A4B4BF0B7FC013CCDE90C01DC
S315080006A86EE7002D90D00F9B002B8DD0013D8BE770
S315080006B8FB799F501344D33FB3C8608B288AC63F3B
S315080006C861436F63A787D23F71A379094F930A409D
S315080006D81655B5BBB16B0240EF39FAFE422EE63F16
S315080006E82D431CEBE2361A3F0000000080842E4199
S315080006F8FFFFEF7F0000F83F0000E03F00002C40B6
S3150800070800002440000018400000F03F2020DDE9E2
S315080007180913089DA8470134ADE700BF000000008B
S315080007282DE9F04F97B05BEC10ABDDE92057CDE922
S315080007380501CDE90723504652465B465946229E8F
S315080007484BF0A0FD70B90323CDE902760193B04BAF
S315080007580093DDE90501DDE9072356F064F917B0CA
S31508000768BDE8F08F4FF0FF326FF4801350465946B4
S315080007784BF092FD28B10423CDE902760193A54BE7
S31508000788E6E74FF0FF3250465946A34B4BF0A2FD19
S3150800079868B1A24A06F00403002B08BF0322A04B3F
S315080007A81CBF13460422CDE902760192D0E75046CB
S315080007B893A3D3E9002359464BF08CFD38B992A385
S315080007C8D3E90023504659464BF066FD68B1DDE982
S315080007D80723DDE905014BEC10ABCDE92176209519
S315080007E817B0BDE8F04FFFF7DFBD002200235046DB
S315080007F859464BF051FD002800F09A805B46524650
S31508000808002000214BF01EF9012382468B460993E6
S3150800081816F4806400F08E80092D40F28E8000243C
S3150800082830210EABA5F109020134202C03F8011B6F
S31508000838A5EB040901D09442F6D1594650464BF027
S3150800084853FD784B054603EBC90393ED007B8DED05
S315080008580A7B4BF045FA02460B46504659464BF07A
S31508000868F1F8DDE90A234BF0A5FA02460B46CDE96D
S315080008780C234BF061FD80464BF022FA02460B46E4
S31508000888DDE90C014BF0DEF802460B46CDE90C23F0
S315080008980022654B4BF01EFD002851D008F10108CF
S315080008A840464BF00DFA02460B46DDE90A014BF0C5
S315080008B8FDFC10B14FF000080135B9F1000F50D111
S315080008C828464BF00DFA02460B46504659464BF059
S315080008D8B9F80022544B804689464BF0DDFC30B106
S315080008E8002240464946504B4BF0F4FC10B1E80745
S315080008F800D501350A210EAB1A19202C0AD095FB0A
S31508000908F1F001FB1055303502F8015B0134054654
S315080009180028F2D106F00302012A57D1002F55D034
S31508000928099A12B916F00C0F00D0013F302245E09B
S3150800093809906DE74FF006097FE7A94600247CE78A
S315080009480022DDE90C01384B4BF0A6FC0028B4D18F
S31508000958B8F1000F02D018F0010FAED008F101085F
S31508000968ABE70A210EAB2344202C0ED0B8FBF1F0D6
S3150800097801FB1082B8F1090F02F1300209F1FF39BB
S3150800098804F1010403F8012B11D83021A1440EAA59
S31508000998202CAFD0A14504F101030AD11C4609F160
S315080009A858030DEB03092E2309F8203CA2E78046D5
S315080009B8DAE7A1541C46EBE71A550134A74205D9CC
S315080009C8202CF9D1CDE902760194C1E6202CF9D07C
S315080009D8099A3AB12D2104F158026A4402F8201CF2
S315080009E80134EFE7710704D504F158022B216A444C
S315080009F8F4E73207E6D504F1580220216A44EDE700
S31508000A080000000065CDCD410000000065CDCDC1D0
S31508000A1817D806081BD80608FFFFEF7F0ED8060862
S31508000A2813D8060820D806080000E03F0000000092
S31508000A38F0B5934C9FB02288A3780021ADF80C2016
S31508000A4813A82C228DF80E3065F00EF84FF00233F5
S31508000A58159340F20B130AAD0434ADF874300FCC75
S31508000A680FC50FCC0FC52368864A2B60864B874D62
S31508000A7806930023CDE9073309934FF0FF33284639
S31508000A8883492B601FF0BEF80446002853D128680E
S31508000A98431C06D140F2A4417E4B7F4A7F484BF05F
S31508000AA8A9FF03A91FF0ECF80446002843D12868D3
S31508000AB856F004FA7A4E7B4F3070286856F000FADA
S31508000AC83870286856F0FEF9774B78491870286800
S31508000AD81FF0D4FB044600282DD13378744E4BB941
S31508000AE8744823F0D3FD3060D0B940F2DC41724B2C
S31508000AF8694AD3E7714823F0C9FD30600028EFD06A
S31508000B08C18928681FF01EFB33682146586823F0F8
S31508000B18F7FD044678B9674823F0B8FD306090B108
S31508000B28C18928681FF00EFB33680421586823F02A
S31508000B38E7FD044638B1234622210220604A57F0C9
S31508000B4855F91FB0F0BD08F0DFFD5E4BCDE904018D
S31508000B5804AAA3F1080112F8010B03F8010D99423A
S31508000B68F9D13B78002B46D15749286856F0D2FE6A
S31508000B7804460028DFD15549286856F0B5FE0446CC
S31508000B880028D8D1524928681FF07CF9044600285D
S31508000B98D1D139A3D3E90023CDE90023286856F033
S31508000BA8BBFE04460028C6D14A4A4B49286856F06F
S31508000BB813FF04460028BED1484A4949286856F012
S31508000BC80FFF04460028B6D1012128681FF076F8D9
S31508000BD804460028AFD1A023424A06A8D380424A31
S31508000BE8136008F065FE414B186088B940F2255134
S31508000BF83F4B294A52E71C22002116A864F034FF05
S31508000C08286813A91FF040FD04460028ACD092E7CF
S31508000C1822460121082008F0A5FF364B186020B99E
S31508000C284FF4A561344B1C4A38E7224601210820AF
S31508000C3808F098FF314B186020B940F22B51304B19
S31508000C48154A2BE72F4A3049304825F04FFB2F48DD
S31508000C583FF0ACFF00212E480AAA08F0DDFE2D4B0E
S31508000C68186000287FF46DAF40F237512A4B0A4ABC
S31508000C7814E700BFAFF30080C88D01C10340000028
S31508000C8828560708F5430208434B0708444E002030
S31508000C9870B40020584B0708295507081249070851
S31508000CA83BA400203AA4002039A40020070011001C
S31508000CB8003E0020479105087F4B07083191050833
S31508000CC80A4C070844A4002026560708245607088D
S31508000CD8484E002006B60020D814002008B6002082
S31508000CE83C3E0020B0B40020B04E0020C44E002080
S31508000CF8974B0708C04E0020B34B0708BC4E002088
S31508000D08D04B0708F04B0708B1480208644E002084
S31508000D18195A0208C84E0020F94B070800000000B7
S31508000D282DE9F34705465A4C22211020594A57F00F
S31508000D385DF814222946204664F0FFFEA27B564B2E
S31508000D48DFF8A0A11A70637C00228AF80030002315
S31508000D58CDE90023DFF8908100224FF40073D8F814
S31508000D68000056F0D9FD064620B10126304602B0E5
S31508000D78BDE8F087494B4A4F1B787BB9494823F0A9
S31508000D8885FC04463C60FCB9474A2221022057F0F4
S31508000D982DF80122454B21261A70E7E7444B454CA6
S31508000DA81A88454BD8F8000053F82210434A8B682E
S31508000DB821603B601FF050F82268414B9468242252
S31508000DC81B8802FB0344DDE73E4B1C60394BD3F80E
S31508000DD80090B9F1000F07D000232420D9F80C1089
S31508000DE88B4208D100251AE040F2ED71364B374A96
S31508000DF837484BF0FFFDD9F8085000FB0355EA6958
S31508000E085278120912F00E0F2BD0052A29D8314B21
S31508000E180021EA89B3F900003D6023F0A9FC1AA36A
S31508000E28D3E90023CDE90023D8F8000056F074FD6D
S31508000E38D9F80820AA4207D0274B3A600421D28954
S31508000E48B3F9000023F094FC244BE2893C601A802D
S31508000E58234B1B783BB924F093FC012024F01EF998
S31508000E6884E70133BCE79AF800301B0913F00E0F24
S31508000E78F1D101220721D8F8000056F07BFE002898
S31508000E88E9D072E7AFF30080C88D01C103420000BC
S31508000E98043E0020DF4F070830A4002034A40020B1
S31508000EA8003E0020F1470208FB4F070832A400203D
S31508000EB8B6570020F43D002058AF00200144020828
S31508000EC8B4570020FC3D002037500708E7530708A9
S31508000ED8124907080AB600200CB6002000B60020FA
S31508000EE83AA400202FA40020444E00200000000049
S31508000EF82DE9F84390F8E861054644683EB90220AA
S31508000F082721414A56F072FF3046BDE8F88394F91E
S31508000F180130002B1ADA731E5BB2637000EB4313B9
S31508000F2893F825302370A0684AF0ECFE32A3D3E97B
S31508000F3800238046894694F901704BF0CBF9F8B13D
S31508000F48002F1DDD013F0023677024E09E422278AA
S31508000F5805DD00EB431393F825309342E3D00023CD
S31508000F6805F1250163705801085C904208BF637053
S31508000F7801339E42F7D8731E637000232371D2E7A4
S31508000F8840461FA3D3E9002349464BF0A3F9F0B11D
S31508000F982379E3B1013B237194F9013005F5F5701E
S31508000FA805EB431393F82530237085F8EA310523B2
S31508000FB895F8022285F8EC3185F8F02100230E22EF
S31508000FC885F8EB3185F8F22185F8F1319DE7404639
S31508000FD80BA3D3E9002349464BF05EF90028DBD07A
S31508000FE823790133DBB2092B2371D5D9013EBE42D9
S31508000FF8D2DD0137A7E700BF666666666666E63F1E
S315080010089A9999999999B93FB21708080000000062
S315080010182DE9F8432DED028B8768054638461646AE
S315080010280C464AF06FFE28A3D3E900238046894672
S315080010384BF050F988BB26A3D3E900234046494616
S315080010484BF02AF960BBF7EE007A07EE107A87EEBE
S31508001058878A6B7F607F0122834224D0002140F073
S315080010683FFA012204463146687F40F039FA0444BB
S3150800107804F2D5702860D8B107EE900AF8EE677AB8
S315080010889FED0D7A67EE887A87EE270ABDEC028B04
S3150800109810EE103AEB60BDE8F8839FED088AD8E7AA
S315080010A89FED078AD5E73146184640F019FAE1E771
S315080010B89FED040AEAE700BF00007A44E4388E3F49
S315080010C800401C4600000000CDCCCCCCCCCCEC3F74
S315080010D89A9999999999B93F2DE9F74F064690F83B
S315080010E8E8010D469146A0B37468A3690133A36164
S315080010F8A37D06EB43131A7F02441A77D4E907320D
S31508001108C3EB520207EE902A4000B8EE677A07EE5C
S31508001118900AF8EEE76AF4EEC76AF1EE10FA0BD50C
S3150800112807EE903A37EE667AF8EE677A77EE877AB8
S31508001138FCEEE77AC4ED077A4FF0000BD9450BD8D1
S3150800114842F21073A2699A4282BF0023C4E90633A1
S31508001158236203B0BDE8F08FB5F802A02F79BAF17B
S31508001168000F2ED038464AF0BBFDCDE9000150469F
S315080011784AF0B6FD02460B46DDE900014AF044FF8F
S3150800118802460B4600204C494AF05CFC4BF0F4F842
S3150800119807EE100A96F80332AAEB0700034486F806
S315080011A8033294F8243033B394F825305B4522D1BA
S315080011B8BAF1000F08D1C4F820A00BF1010B0635C7
S315080011C8BCE7B7EE007AE5E7E3690133E3612A7815
S315080011D8002AF2D00023984696F8E8C106F10801D5
S315080011E89C450FD8B8F1000F14D127210220334A9D
S315080011F856F0FCFDE1E72A78002ADED0BAF1000F9E
S31508001208DBD0E7E791F81DE00133964508BF884625
S315080012182031E5E7002288F81420B8F81020D8F815
S31508001228043017440133BAB2C8F80430A8F8107065
S315080012381AB198F81D2086F81422F7EE007A012BC1
S3150800124877EEC77A8CBFB3EE097A9FED1D7AB8F8A0
S31508001258122088BF67EE877A0244A8F81220D8F8C1
S3150800126808208CBF9FED177A67EE877A06EE102A54
S31508001278DFED156AE6EE077A87EEA67A17EE103AD4
S3150800128817EE100AC8F808304AF03CFD08A3D3E957
S3150800129800234BF001F818B1FF2388F815308CE7BE
S315080012A898F91530013388D10423F6E7AFF300809F
S315080012B8666666666666EE3F0000F03FD21708085F
S315080012C800004842000096420000C842000000009C
S315080012D82DE9F04F2DED028B054600274FF0200A21
S315080012E84FF0080B0B4608204D4A87B08846272139
S315080012F856F07CFD95F8E83127210820494A56F02A
S3150800130875FD6C6805F10806E37D237163716375DD
S3150800131895F8E891B9450DDC3FA7D7E900674FF07E
S315080013280008AA46C346C14546D807B0BDEC028B95
S31508001338BDE8F08FE17D42461AFB01B130462944E3
S31508001348FFF766FE96F81D900495F0684AF0DAFCF1
S31508001358CDE90201B0684AF0D5FC4B46CDE9000153
S31508001368314A2721082056F041FD2379D6ED037A1C
S3150800137805EB431292ED057AF4EEC77AF1EE10FA08
S3150800138802DB327F22710EE017B995F82420F9E7B7
S31508001398637905EB431393ED057AF4EEC77AF1EE14
S315080013A810FA04DB337F637101372036B0E7012F63
S315080013B8FAD195F84430F6E7E37D434515D09AED1A
S315080013C8048A18EE100A4AF09DFC32463B464AF053
S315080013D877FF10B9BBF1000F0CD19AF8243022799F
S315080013E89A4202D062799A4211D108F101080AF1A3
S315080013F8200A98E7637D05EB4313D3ED047AB4EE28
S31508001408E78AF1EE10FAE8DA4FF0010BEDE76375B3
S31508001418FAE700BFAFF30080666666666666EE3F63
S31508001428EA1708080C1808081B180808000000001E
S315080014382DE9F047D0F8048000EB411393F82450BF
S3150800144898F817300446AB422DD098F81530AB42B9
S3150800145829D000EB411ADAF810004FEA41194AF088
S3150800146851FC13A3D3E9002306460F464AF01EFF8C
S3150800147810B99AF91D00A0B198F80430AB4212D0F9
S3150800148898F80530AB420ED009A3D3E900233046B5
S3150800149839464AF01FFF18B14C44637F013B63770E
S315080014A80120BDE8F0870020FBE700BFAFF3008006
S315080014B8666666666666EE3F2DE9F34704460E4697
S315080014C8456827210820804A56F090FC2046314670
S315080014D8FFF7FEFE284663F067FA002800F0BA8090
S315080014E8204663F074FA061EC0F2B48094F8E83110
S315080014F89E4280F2AF8004EB461733462721082020
S31508001508724A56F073FC2721082097F82530704A46
S3150800151856F06CFC012295F804C085F8242004EBE3
S315080015284C13386A196A884297F8250002D8397F11
S31508001538322977D9012284F8EC21002284F8EA01B5
S3150800154884F8EB21A97D297093F8251084F8F01101
S3150800155893F8263084F8F12184F8F231697D85F804
S3150800156801C004EB411393F82500012684F8F60117
S3150800157893F8263084F8F831002384F8F731A970EF
S3150800158885F82520A04605F1FF3904F1120A19F84D
S31508001598013F5F1C002E00F0898004EB431318698D
S315080015A84AF0B0FB02460B46CDE9002342A3D3E92D
S315080015B800234AF08FFE40B941A3D3E90023DDE9A9
S315080015C800014AF069FE002870D004EB4717BB797A
S315080015D8042B8EBF02230133C3F3460388F8EC3184
S315080015E808F10608C245D2D1EA7D04F5F57004EB80
S315080015F8421393F8253084F8FC31002384F8FD312A
S31508001608EA7085F8243094F8F22194F8EC311344FA
S3150800161894F8F821C3F113039B1A84F8FE3102B033
S31508001628BDE8F08793F82570697D84F8EA7193F820
S31508001638263084F8EC31002384F8EB3185F800C0AD
S3150800164884F8F13184F8F00184F8F22104EB4113A7
S315080016586E7088E700262A7904EB421393F825105A
S3150800166884F8EA1193F8263084F8EB6184F8EC31AB
S315080016782A706A7904EB421393F8251084F8F01156
S3150800168893F8263084F8F16184F8F2316A706A7D35
S3150800169804EB421393F8251084F8F61193F82630CC
S315080016A884F8F76184F8F831AA706BE704EB4717F2
S315080016B8BB7993E7AFF30080666666666666EE3FB3
S315080016C89A9999999999B93F3F1808084D18080899
S315080016D85D180808000000002DE9F8432DED028B77
S315080016E887680546384616460C464AF00BFB2EA36D
S315080016F8D3E90023804689464AF0ECFD00283DD107
S315080017082BA3D3E90023404649464AF0C5FDC0BB8A
S31508001718F7EE007A07EE107AAB7F87EE878A07EE30
S31508001728903AB8EEE77AB4EEC87AF1EE10FA01D52F
S31508001738B8EE678A6B7F607F0122834224D0002136
S315080017483FF0CEFE012204463146687F3FF0C8FEC8
S31508001758044404F2D5702860D8B107EE900AF8EE6A
S31508001768677A9FED0D7A67EE887A87EE270ABDECC9
S31508001778028B10EE103AEB60BDE8F8839FED078AF6
S31508001788D8E79FED078AD5E7314618463FF0A8FE01
S31508001798E1E79FED040AEAE700007A44E4388E3F59
S315080017A800401C4600000000CDCCCCCCCCCCEC3F8D
S315080017B89A9999999999B93F2DE9F04F2DED028B88
S315080017C890F8E83105460E46934689B0002B00F096
S315080017D8238127210820964A56F008FB00226C68C0
S315080017E8A1690131A16195F8E80190423DD8D4E98B
S315080017F807230A2779436427B1FBF7F1C2EB53039A
S315080018080B4407EE903A430006EE903AF8EE677AEC
S31508001818F8EEE66AF4EEE76AF1EE10FA0BD507EE8B
S31508001828102A77EEE67AB8EE477A77EE277AFCEE4C
S31508001838E77AC4ED077A0027B846BB451DD8B8F13C
S31508001848010F00F0E680B8F1130F40F2B9800023C3
S31508001858A3612721082095F80332764A09B0BDEC1A
S31508001868028BBDE8F04F56F0C1BAA37D013205EBED
S3150800187843131F7F01371F77B7E7B6F8029096F824
S3150800188804A0B9F1000F41D050464AF029FACDE92B
S31508001898060148464AF024FA02460B46DDE90601DF
S315080018A84AF0B2FB02460B46002063494AF0CAF8DA
S315080018B84AF062FD08EE100A337818EE100A069305
S315080018C804954AF01FFA069BCDE902015B4A2721CF
S315080018D80820CDE9009A56F089FA7288337995F87E
S315080018E80312D31A0B4485F8033294F82430C3B18B
S315080018F894F82530BB4214D15AB922622721082008
S315080019084F4A56F073FA0137063696E7B7EE008A55
S31508001918D2E7E3692721013308204A4AE36156F0EA
S3150800192865FAB6F802A0BAF1000FECD00023E25D1A
S3150800193805EB4211C8680B770130C86096F804C0F1
S315080019480B8B4FEA421963449BB20B831BB191F880
S31508001958253085F81432F7EE007A05EB0902538B21
S3150800196801285344A3EB0C0377EEC87A53830DD9A1
S31508001978B2EE0E7AD2ED046A27EE877ADFED327A6E
S31508001988A6EEA77ADFED316AC7EE267AA944C9ED2D
S31508001998047A17EE900A4AF0B5F923A3D3E9002387
S315080019A84AF07AFC30B1FF2389F81D30C2441FFA81
S315080019B88AF8A8E799F91D300133F7D10423F3E724
S315080019C8B8F1020FD4ED0B7AB1EE047A15D977EE91
S315080019D8877AB3EE047AF4EE477AF1EE10FA77FED0
S315080019E8277A42F21073A269C4ED0B7A9A4282BF2B
S315080019F80023C4E9063323622BE7F2EE046A77EE7E
S31508001A08E67AF4EE477AF1EE10FA48BFF0EE477A2E
S31508001A18E7E7DFED0F7AE4E709B0BDEC028BBDE82E
S31508001A28F08F00BFAFF30080666666666666EE3FAF
S31508001A38A2180808081908080000F03FB818080886
S31508001A48E9180808F81808080000AA420000C84259
S31508001A5800000000000000002DE9F84F2DED028B6C
S31508001A680546884600274FF020094FF0080B4468BA
S31508001A7800F10806E37D23716371637595F8E8A19B
S31508001A88BA450CDC0FF2D009D9E9008900262F4699
S31508001A98B346B24532D8BDEC028BBDE8F88FE17D76
S31508001AA8424619FB01B130462944FFF715FE23794A
S31508001AB8D6ED037A05EB431292ED057AF4EEC77A6A
S31508001AC8F1EE10FA02DB327F22710EE017B995F8AB
S31508001AD82420F9E7637905EB431393ED057AF4EEC9
S31508001AE8C77AF1EE10FA04DB337F637101372036C3
S31508001AF8C4E7012FFAD195F84430F6E7E37DB342F7
S31508001B0815D097ED048A18EE100A4AF0FBF84246F3
S31508001B184B464AF0D5FB10B9BBF1000F0AD197F826
S31508001B28243022799A4202D062799A420FD1013634
S31508001B382037AEE7637D05EB4313D3ED047AB4EE9D
S31508001B48E78AF1EE10FAEADA4FF0010BEFE7637568
S31508001B58FAE700BFAFF30080666666666666EE3F1C
S31508001B682DE9F047456890F8E821AB690446B3EBD8
S31508001B78420F2ED900EB411393F82480EB7D434599
S31508001B882AD06B7D434527D000EB411ADAF81000B6
S31508001B984FEA41194AF0B6F811A3D3E900230646D5
S31508001BA80F464AF083FB10B99AF91D0090B12B79B4
S31508001BB8434511D06B7943450ED009A3D3E90023D1
S31508001BC8304639464AF086FB18B14C44637F013BD8
S31508001BD863770120BDE8F0870020FBE7AFF30080B4
S31508001BE8666666666666EE3F0348044B834202D01D
S31508001BF8034B03B1184770472CC200202CC200209B
S31508001C0800000000064B0749C91A891048BF013168
S31508001C18491003D0044B0BB101481847704700BF59
S31508001C282CC200202CC200200000000010B5064C6B
S31508001C38237843B9FFF7D8FF044B13B10448AFF329
S31508001C4800800123237010BDC6570020000000003D
S31508001C589830080808B5054B1BB105490548AFF380
S31508001C680080BDE80840FFF7CDBF00BF00000000B0
S31508001C78B81E002098300808A3F5803A704700BFB8
S31508001C88174B002B08BF134B9D46FFF7F5FF00219E
S31508001C988B460F461348144A121A63F0E5FE0E4B94
S31508001CA8002B00D098470D4B002B00D098470020F2
S31508001CB8002104000D000D48002802D00C48AFF397
S31508001CC800804BF045FA200029004BF056FD4AF0F3
S31508001CD8AFFE00BF0000080000000000000000007A
S31508001CE800100020001000203CAD00200000000075
S31508001CF8000000002DE9F0439BB000AF002304461E
S31508001D08F81CC7E9013356F0E7F918B181B2184843
S31508001D1816F04AFA6A46FB78F81CA2EBC3039D46F6
S31508001D286946E84656F0EDF918B181B2114816F039
S31508001D383BFA0026FB78F5B2AB4210D908EBC50981
S31508001D48484607F10C0156F0F5F9FB6A0136002BEF
S31508001D58F0D158F83500D9F804103B1D03C33B1DCC
S31508001D6803CB206020466C376160BD46BDE8F0832A
S31508001D78A8860608E186060813B56846FFF7BAFF77
S31508001D88064C009B06492360019B06486360E37975
S31508001D98A27902B0BDE8104016F01ABA776000209A
S31508001DA8158706083869002030B597B010A856F088
S31508001DB809FA4BF0DBFC11AD02461749284616F01E
S31508001DC807FAFFF7D9FF154BBDF84020D3E90A01F2
S31508001DD8CDE90E01D3E90801CDE90C01D3E90601DD
S31508001DE8CDE90A01D3E90401CDE90801D3E90201DD
S31508001DF80B4B0C4C01930C4BCDE90601CDE903229C
S31508001E0800934FF480612046084B094A029516F05C
S31508001E18F3F9204617B030BD4060070800100020C7
S31508001E283869002087640020B987060840690020B9
S31508001E382C8706082DE9F04FA9B080464BF096FC8A
S31508001E48654C0FAF02466549384616F0C1F9FFF7E3
S31508001E5893FF2378052B65D101F0A6FC604ADFF8C5
S31508001E68B0B1D2E90045041B61EB050529462046B1
S31508001E7801F074FC5949024619A816F0A9F9DBE9D4
S31508001E880001201845EB010101F068FC554E0DF1DB
S31508001E98780902465149484616F09AF9D6E90001E2
S31508001EA801F05CFC0DF18C0A02464C49504616F0C6
S31508001EB88FF9DBE90032E41845EB02052046294686
S31508001EC8CDE90A9A49F040FF0022474B49F072FFCC
S31508001ED882468B46D6E90001201845EB010149F0F0
S31508001EE833FF0B460246594650464AF08DF8CDE967
S31508001EF808013E4B1B8806933D4B059319ABCDE964
S31508001F0803733C4B4FF4806102933B4B3B4A019366
S31508001F183B4B3C480093434616F06EF9394829B0BE
S31508001F28BDE8F08F01F040FC374ADFF8E490D2E9C3
S31508001F380056451B61EB06062278344914A816F0A4
S31508001F4847F93146284601F009FC2449024619A8EA
S31508001F5816F03EF9D9E9000101F000FCDFF884A083
S31508001F680DF1780B02461D49584616F031F9DAE99B
S31508001F780001281846EB010101F0F0FB23AB0246E5
S31508001F881649184616F024F9D9E9004923AB20461C
S31508001F984946CDE90AB349F0D7FE0022124B49F063
S31508001FA809FFCDE90C01DAE90031E41849EB01012A
S31508001FB8601946EB010149F0C7FE0B460246DDE902
S31508001FC80C014AF021F8CDE90801084B1B8806934D
S31508001FD819AB059314AB92E7876800204060070899
S31508001FE87810002060100020000059409057002003
S31508001FF89388060838690020B9870608BE87060840
S31508002008406900208764002070100020968806081A
S315080020186810002037B56049012055F08AFF054643
S315080020285E495D4803F0F2FC5D4C002D00F09C808B
S315080020384FF480615B4A206816F0DEF84BF096FB91
S31508002048236802465849002054F0EDFE4BF08EFBF3
S3150800205822680146544816F0A7F84FF48061534A97
S31508002068ABB2206816F0C8F80020216854F0DBFEE9
S31508002078206816F099F84FF480614D4B4D4A206850
S3150800208816F0BAF84BF072FB236802464649002058
S3150800209854F0C9FE4BF06AFB22680146424816F01E
S315080020A883F8434863F056FD434A014640484CF0D6
S315080020B8BFF94249404803F0A9FC40F2D5430093CA
S315080020C84FF480613D4B3E4A206816F095F84BF070
S315080020D84DFB236802463449002054F0A4FE4BF011
S315080020E845FB22680146304816F05EF84FF48061D1
S315080020F8344B354A206816F07FF84BF037FB2368CF
S3150800210802462949002054F08EFE4BF02FFB226820
S315080021180146254816F048F82A4863F01BFD2B4A5D
S31508002128014628484CF084F92949284803F06EFCEA
S3150800213841F2356300934FF48061254B254A2068A0
S3150800214816F05AF84BF012FB236802461649002087
S3150800215854F069FE4BF00AFB22680146124816F04D
S3150800216823F8284603B030BD4FF480610B4B1A4A52
S31508002178206816F041F84BF0F9FA236802460A492E
S31508002188284654F050FE4BF0F1FA226801460648F4
S3150800219816F00AF86FE700BF676000203F60002066
S315080021A8841F002078CF0608AA880608B288060879
S315080021B8128906081F890608041F0020EF5F0020F9
S315080021C83A890608618906086E890608E41E002009
S315080021D8C75F00208A890608EF880608F8B5FFF75A
S315080021E819FF0322022100201EF074FF514A411CE0
S315080021F80346514C106023D14FF480614F4A20683A
S3150800220815F0FAFF4BF0B2FA236802464C4900204B
S3150800221854F009FE4BF0AAFA22680146484815F018
S31508002228C3FF484A4FF48061206815F0E5FF216826
S31508002238002054F0F8FD206815F0B6FF0120F8BD17
S315080022484FF48061404A206815F0D6FF4BF08EFAA5
S31508002258236802463A49002054F0E5FD4BF086FA11
S31508002268002501462268394E354815F09DFF40F28B
S31508002278D540356055F0C7FD0322B08002212846AF
S315080022881EF028FF324E421C0346306016D14FF422
S3150800229880612A4A206815F0AFFF4BF067FA236871
S315080022A802462749284654F0BEFD4BF05FFA2268D5
S315080022B80146234815F078FF264AB3E74FF48061AC
S315080022C8254A206815F098FF4BF050FA236802460D
S315080022D81B49284654F0A7FD4BF048FA1F4F0146FC
S315080022E8226817481E4C15F05FFF41F235602560D5
S315080022F855F089FD33683E46A08046F8043B0FCC66
S315080023080FC694E80F0086E80F0041F20303FB8422
S315080023183223BB6242F22A3312484FF48C71BB85CA
S31508002328B8634CF09AF97D63F88587F824502846EF
S315080023383D6484E7D41E0020841F002078CF060851
S31508002348AA880608B1890608E7890608F81E00203B
S31508002358D01E0020178A06084E8A0608F4AE002002
S31508002368D81E00207E8A060873B53C4D4FF48C713A
S31508002378E8634CF072F9288605F124004BF02DFF26
S3150800238806464BF013FF0446E8B9354D009640F269
S3150800239876334FF48061334A286815F02DFF4BF0E1
S315080023A8E5F92B6802463049204654F03CFD4BF0C7
S315080023B8DDF92A6801462C4815F0F6FE4FF45E75D5
S315080023C8284602B070BD05F124014BF008FF002825
S315080023D81CDA234D4FF45F734FF48061234A28684B
S315080023E815F00AFF4BF0C2F91F4902462B68002070
S315080023F854F019FD4BF0BAF92A6801461A4815F03F
S31508002408D3FE002520464BF0DDFED9E720230193AD
S31508002418174B324600932146002328681EF0CAFE49
S315080024280130EED12B680E4E00934FF480614FF4BD
S315080024386273104A306815F0DFFE4BF097F9336877
S3150800244802460949002054F0EEFC4BF08FF9326831
S315080024580146054815F0A8FE3125D3E7F4AE002055
S31508002468841F0020918A0608AA880608D18A0608C1
S31508002478D81E00200B8B06082DE9F04385B00546C3
S315080024881C469DF830609DF83470002A00F08F804D
S31508002498002978D04BF06AF90146714815F084FE90
S315080024A8284615F081FE002C40F09A800124002E5B
S315080024B83CD02B464FF480616A4A6B4815F09CFE5F
S315080024C820230193694BDFF8D091009386B2002345
S315080024D832466549D9F800001EF06CFE013040F016
S315080024E8838040F2D5430293614B03960193D9F84A
S315080024F80030DFF88C8100934FF4806140F2BA33DC
S315080025085C4AD8F8000015F077FE4BF02FF95A49BF
S315080025180246D8F80030002054F085FC4BF026F91E
S31508002528D8F800200146544815F03EFE3FB32B461E
S315080025384FF480614B4A514815F05EFE83B2B3F5F5
S315080025488C7F54D94FF48C734D4D80B2019300900B
S3150800255840F2C7334FF480614A4A286815F04CFEA2
S315080025684BF004F9444902462B68002054F05BFCFA
S315080025784BF0FCF82A6801463F4815F015FE204638
S3150800258805B0BDE8F08315F00FFE002C8ED00124A7
S31508002598DFF8EC802A464FF48061D8F8000015F079
S315080025A82BFED8F80010002054F03DFC16E0002B4E
S315080025B83FF47DAFB1B11446DFF8C4802A464FF41C
S315080025C88061D8F8000015F017FE4BF0CFF8D8F858
S315080025D8003002462849002054F025FC013466E7F5
S315080025E80124E9E70C46D3E70134E4B29EE7234819
S315080025F8FFF7BAFE064610B90134E4B2BFE7204D24
S315080026084FF48061204A286815F0F6FD4BF0AEF8BD
S315080026182B6802461849002054F005FC4BF0A6F82A
S315080026282A680146144815F0BFFD41F2356302933E
S31508002638164BB6B20193164B03961B68154A0093B8
S315080026484FF4806140F2CD33286815F0D5FD296826
S31508002658002054F0E8FB286815F0A6FD8FE700BFB0
S31508002668398B060840600708C75B0020F81E00205B
S31508002678EF5F00203F8B0608AA880608C757002080
S31508002688841F00209D8B060878CF0608C75F0020A0
S31508002698D01E0020098C0608D41E00202DE9F74311
S315080026A800F0E4FFBF4DC04815F07EFDBF4EC04A96
S315080026B8C049C148C14C15F08BFD64212846C04B5A
S315080026C8BC4A15F099FD019500964FF48061BA4BFE
S315080026D8BC4A206815F090FD4BF048F82368024676
S315080026E8B949002054F09FFB4BF040F82268014690
S315080026F8B54815F059FDB54B3221B54A0093B5488A
S31508002708B54B15F079FD4FF48061AB4BB34A206899
S3150800271815F072FD4BF02AF823680246AA490020EC
S3150800272854F081FB4BF022F822680146A64815F0BA
S315080027383BFD33464FF48061A84A206815F05CFDD6
S315080027484BF014F8236802469F49002054F06BFBA7
S315080027584BF00CF8226801469B4815F025FD2B46D8
S315080027684FF480619D4A206815F046FD4AF0FEFF41
S31508002778236802469449002054F055FB4AF0F6FFB0
S3150800278822680146904815F00FFD4FF48061914B79
S31508002798924A206815F030FD4AF0E8FF2368024699
S315080027A88949002054F03FFB4AF0E0FF22680146B9
S315080027B8854815F0F9FC0121042000F011FD0122D5
S315080027C82220114600F034FD01220B20114600F0A4
S315080027D82FFD01222520114600F02AFD01221D2081
S315080027E8114600F025FD7E4B4FF48061714A7D48FD
S315080027F815F002FD4FF480617B4A206815F0FCFC51
S315080028084AF0B4FF236802466F49002054F00BFBD0
S315080028184AF0ACFF226801466B4815F0C5FC4FF430
S315080028288061724B724A206815F0E6FC4AF09EFFF2
S31508002838236802466449002054F0F5FA4AF096FFE0
S3150800284822680146604815F0AFFC4FF48061674B73
S31508002858684A206815F0D0FC4AF088FF23680246C3
S315080028685949002054F0DFFA4AF080FF624D0146C4
S315080028782268554815F098FC284655F015FCEB795A
S31508002888AA795E495E4815F0A3FC4FF480615C4B53
S315080028985C4A206815F0B0FC4AF068FF23680246CF
S315080028A84949002054F0BFFA4AF060FF22680146F9
S315080028B8454815F079FC5449544815F089FC4FF4F5
S315080028C88061524B524A206815F096FC4AF04EFF32
S315080028D8236802463C49002054F0A5FA4AF046FF08
S315080028E822680146384815F05FFC4A498B2003F0F0
S315080028F80DF800F059FF484B484FC3E9000155F059
S31508002908C2FB4FF48061464A206815F075FC4AF008
S315080029182DFF236802462C49002054F084FA4AF011
S3150800292825FF22680146284815F03EFC4AF08AFF2A
S315080029380121042000F054FC01222220114600F04F
S3150800294877FC01220B20114600F072FC0122252093
S31508002958114600F06DFC0122012411461D2000F0E5
S3150800296867FCFFF73BFC00F0C5FC00F047FF2D4964
S315080029782D4800F0B9FA1A48FFF716FA23462246F0
S315080029882146CDE90044FFF777FDDFF8A0803B78BC
S31508002998052B71D100F0F0FD4FF0010901F000F8A0
S315080029A846E000BFD468002078CF06089B8C060846
S315080029B8B98706084060070848690020841F002070
S315080029C8738C0608918C0608AA880608C58C06081A
S315080029D8B08C0608A2680020A48C06080E8906088A
S315080029E840CB060887600020CE8C0608E58C0608CA
S315080029F8F58C06080D8D06087F60002015870608E1
S31508002A0840690020258D0608348D06088968002047
S31508002A184C8D06088D2A000880100020876800203B
S31508002A285C8D0608176000203F60002098B50020D6
S31508002A3800F0BAFE0023B8F8002006460D4649F00D
S31508002A4849FE1A430BD14CB10D48FFF7F3F9012398
S31508002A58CDE900991A461946FFF70EFD00243046B7
S31508002A6829463C22002349F035FE013A1A4308BF95
S31508002A7801244AF0F5FE8AE74FF00009D8E700BFB7
S31508002A8840CB06082DE9FF478268C84DD2B2052A09
S31508002A982A7000F2F381C64E33889A4200F0EE8116
S31508002AA8C44C00924FF48061C34A206815F0A4FB11
S31508002AB84AF05CFE23680246C049002054F0B3F980
S31508002AC84AF054FE22680146BC4815F06DFB297881
S31508002AD84B1E042B0DD8BA4815F066FBB94B1F6870
S31508002AE838464BF0EFFD64200CF056FA38464BF0A2
S31508002AF8FBFD2F787B1E042B35D800F055FE0246C1
S31508002B080B46B14901EBC707C7E900232B785F1EB7
S31508002B1851F8332001EBC70C01EBC30051F8371005
S31508002B284068DCF80470521A60EB0701A74800EB06
S31508002B38C30740F833207960CDE900214FF4806156
S31508002B48A34A206815F058FB4AF010FE9B4902462E
S31508002B582368002054F067F94AF008FE22680146FF
S31508002B68964815F021FB2B78052B40F0A080954B4D
S31508002B78DFF8949218684BF0A5FD964815F014FBF3
S31508002B88954815F011FB954815F00EFB2A788E4BDB
S31508002B98934803EBC20153F8323002884968013278
S31508002BA892B2012AC9E900318E4F028040F0698144
S31508002BB8CDE900318C4A4FF48061206815F01CFB7A
S31508002BC84AF0D4FD236802467C49002054F02BF9C4
S31508002BD84AF0CCFD22680146784815F0E5FA002344
S31508002BE81A46DFF83082C7E90032404662F0B2FF7B
S31508002BF87E4B87B295F8009018804AF0B7FDC7F55E
S31508002C0880614B467A4A009008EB070015F0F4FAFB
S31508002C18276895F800804AF0A9FD43464FF4806175
S31508002C28734A0090384615F0E7FA4AF09FFD23687C
S31508002C3802466249002054F0F6F84AF097FD2268E1
S31508002C4801465E4815F0B0FA02A8FFF753F8694F2F
S31508002C58029B69493B60039B68487B60FB79BA79A4
S31508002C6815F0B6FA664B1B684BB16648FFF79CF831
S31508002C7801231A461946CDE90033FFF7FDFB012162
S31508002C88042000F0ADFA01222220114600F0D0FAFD
S31508002C9801220B20114600F0CBFA01222520114605
S31508002CA800F0C6FA01221D20114600F0C1FA338841
S31508002CB8052B40F0E180444F4FF00009BA46B84664
S31508002CC800F072FD2A7809F101094A45EAE8020185
S31508002CD8F6DA0020DFF8F4C03B46B968D3F80CE00A
S31508002CE80130D3E90093B1EB09016EEB03034CF805
S31508002CF8081F824207F10807CCF80430ECDA08EB1B
S31508002D08C20158F83230404F4A68DFF80C81D7E9D3
S31508002D180001C8E900321B1A62EB0102CDE900324C
S31508002D284FF48061394A206815F066FA4AF01EFDA4
S31508002D38236802462149002054F075F84AF016FD22
S31508002D48226801461D4815F02FFAD8E90032DFF83F
S31508002D58CCC0DFF8C080DCE900011B1842EB010291
S31508002D68D7E900105B1A62EB00024046CCE900324C
S31508002D7862F0F0FE1D4B87B295F8009018804AF06D
S31508002D88F5FCC7F580614B46214A009008EB070019
S31508002D9815F032FA276895F800804AF0E7FC4346AA
S31508002DA84FF480611A4A0090384639E0876800204F
S31508002DB88C570020841F0020768D0608AA880608E6
S31508002DC88B8D060820A40608301000200010002065
S31508002DD89D8D0608C68D0608F18D0608078E060815
S31508002DE89057002060100020338E06088E57002062
S31508002DF8708E06087760002015870608386900204F
S31508002E08D41E002040CB0608781000207B8E0608C2
S31508002E18988E060887600020701000206810002029
S31508002E2815F0EAF94AF0A2FC236802462A49002066
S31508002E3853F0F9FF4AF09AFC22680124014626480D
S31508002E4815F0B2F9254B214604201C7000F0C8F984
S31508002E5822462146222000F0EBF9224621460B207D
S31508002E6800F0E6F922462146252000F0E1F9224637
S31508002E7821461D2000F0DCF92B78338004B0BDE824
S31508002E88F087DFF86080D8E900021B1A61EB0201B7
S31508002E98CDE90031124A4FF48061206815F0ACF983
S31508002EA84AF064FC236802460B49002053F0BBFF2E
S31508002EB84AF05CFC22680146074815F075F9D7E917
S31508002EC80001D9E900321B1842EB0102D8E90010C3
S31508002ED85B1A62EB000284E6AA880608886800205E
S31508002EE8548E06087010002070B50D4604461A4E12
S31508002EF8304615F059F9194815F056F941F2356270
S31508002F082946174815F050F9164815F04DF921467F
S31508002F18154815F049F9154815F046F92146144893
S31508002F2815F042F902F0F4F8124815F03DF912487E
S31508002F3815F03AF9114815F037F9114815F034F92A
S31508002F48104815F031F9104815F02EF93046BDE845
S31508002F58704015F029B900BF78CF0608A38E060871
S31508002F68D78E0608F88E0608098F0608498F0608B8
S31508002F785D8F0608B58F06080B9006085B9006084D
S31508002F8897900608F19006084C9106081FB504465E
S31508002F98124815F009F900F0A5FD02A800F0C8FDC9
S31508002FA8B0B19DF80B3040210D4A00930D489DF8A5
S31508002FB80A3015F021F99DF80B209DF80A100848E3
S31508002FC815F0F2F8214607484AF0BCFB04B010BDD4
S31508002FD84021054A034815F00FF9F3E78A910608D0
S31508002FE8A891060850690020BE9106081FB5044630
S31508002FF8124815F0D9F800F075FD02A800F098FDFA
S31508003008B0B19DF8093040210D4A00930D489DF846
S31508003018083015F0F1F89DF809209DF808100848B9
S3150800302815F0C2F8214607484AF08CFB04B010BDD3
S315080030384021054A034815F0DFF8F3E7CD9106085D
S31508003048EB91060850690020BE91060810B586B0AF
S315080030580446184815F0A8F800F044FD04A800F03E
S3150800306867FD08B39DF81130402102939DF810308A
S31508003078114A01939DF81330104800939DF81230B1
S3150800308815F0BAF89DF811309DF8132000939DF8AD
S3150800309812109DF810300A4815F086F82146074898
S315080030A84AF050FB06B010BD4021064A034815F001
S315080030B8A3F8F3E7FF9106081D9206085069002051
S315080030C844920608BE91060870B588B001241422F1
S315080030D8002103A862F0C8FC1F4B204E204D009320
S315080030E8204B68460196029504938DF80C4001F02A
S315080030F8C5FF30B140F21B311B4B1C4A1C4849F02E
S3150800310879FC1C4B6846CDE900361B4B029504939F
S315080031188DF80C4001F0B2FF20B14FF44971124BFB
S31508003128124AEBE7154B68460093154B8DF80C4089
S31508003138CDE90135134B049301F0A0FF20B140F205
S315080031482D31094B094AD9E71E2203210E4815F0E5
S315080031582BF8032008B070BD6C9206089616080866
S3150800316872920608952F000879920608139306089E
S31508003178B9920608C7920608F52F0008CD920608E0
S31508003188D792060855300008DC92060800B58BB0B9
S31508003198FFF79AFF2022002102A862F065FC0B4B74
S315080031A841F28832019318230021CDE906230848FD
S315080031B801AA06F031FC28B95721064B064A0748E2
S315080031C849F018FC0BB05DF804FB00BF2B93060802
S315080031D8A526000834930608559306084793060853
S315080031E82DE9F0410746802088464EF03EF800242F
S315080031F80546431C05F8144003F814700134232CBB
S31508003208F8D1294620461DF09FFB0646B8F1000F5F
S3150800321805D003463A462146044814F0C5FF284611
S315080032284EF027F93046BDE8F08100BF5E930608E0
S31508003238F7B58DF804008DF8051005460E460120E9
S3150800324801A917461DF080FB04462FB103463246EE
S315080032582946034814F0A8FF204603B0F0BD00BF6E
S315080032688993060810B583780446852B0CD1164B26
S31508003278164A174918681EF071F8164B186016484A
S3150800328802F036FC154B1860A378832B1BD1A0686F
S31508003298134B104C18602368984214D140F2CF4259
S315080032A8002310491EF02EF880B2002814BF012208
S315080032B800220D4B18800D4B1A7004D1206854F063
S315080032C8B7FD0B4B186010BD44AF002048AF00206F
S315080032D8201F002040AF00202C1F00201C1F0020A4
S315080032E83CAF002091690020925700209069002081
S315080032F838AF00202DE9F341884C4FF48061884A9D
S31508003308206814F079FF4AF031FA2368024685499D
S31508003318002053F088FD4AF029FA226801468148B8
S3150800332814F042FF0222012100201DF0D3FE7E4E32
S3150800333803464FF480617D4A3060206814F05CFFCC
S315080033484AF014FA236802467649002053F06BFDC2
S315080033584AF00CFA22680146724814F025FF3268CA
S315080033687349744B7448B2F1FF3F08BF0B4673495B
S3150800337814F01AFF35686A1C0CD162F06FFF4BF01F
S31508003388F3FF2A4601466E4814F00EFF62F066FF00
S315080033984BF0EFFFDFF8BC810023424642F80C3BAE
S315080033A8684B03F11007154618685968083303C5AA
S315080033B8BB422A46F7D1644F644D388854F023FD3A
S315080033C8634BA8F804001A68624930681DF0AEFE17
S315080033D85749584B0246B0F1FF3F08BF0B462860CD
S315080033E85D49554814F0E0FED5F80080B8F1FF3F6E
S315080033F80CD162F033FF4BF0B7FF424601465048FE
S3150800340814F0D2FE62F02AFF4BF0B3FF5349852029
S3150800341802F07CFA4649474B0246B0F1FF3F08BF1F
S315080034280B4628604E49444814F0BEFED5F800807D
S31508003438B8F1FF3F0CD162F011FF4BF095FF4246F9
S3150800344801463F4814F0B0FE62F008FF4BF091FFC2
S315080034584249832002F05AFA3549364B0246B0F1FA
S31508003468FF3F08BF0B4628603E49334814F09CFEC8
S31508003478D5F80080B8F1FF3F0CD162F0EFFE4BF0AB
S3150800348873FF424601462E4814F08EFE62F0E6FEA9
S315080034984BF06FFF0021306854F0E6FC2449254BB1
S315080034A82860B0F1FF3F08BF0B4602462E4922485E
S315080034B814F07AFE2D686B1C0CD162F0CFFE4BF027
S315080034C853FF2A4601461E4814F06EFE62F0C6FEF1
S315080034D84BF04FFF254802F00BFB254D3A8828602C
S315080034E8009203464FF48061224A206814F084FE4D
S315080034F84AF03CF9236802460A49002053F093FC2F
S315080035084AF034F922680146064814F04DFE286840
S3150800351802B0BDE8F0414BF019B800BF841F00207F
S31508003528AE930608AA88060844AF0020D193060871
S31508003538272A080897670708FC930608E8930608E1
S315080035480A9406083D2307089AB5002038AF0020D4
S3150800355848AF0020401F0020199406086D3200085D
S315080035682B94060885940608D99406084C1F00204B
S315080035781C1F0020ED9406082DE9FF472B4C2668EA
S31508003588C6B92B4D4FF480612A4A286814F034FED0
S315080035984AF0ECF82B6802462749304653F043FCB4
S315080035A84AF0E4F82A680146234814F0FDFD236822
S315080035B801332360214F3B78A3B300252368DFF83E
S315080035C888900133DFF884A02360B9F800301C48D6
S315080035D80AF8035002F08CFADFF87480144EC8F81B
S315080035E80000CDF808A0B9F800304FF48061CDE99D
S315080035F80003144A2368306814F0FEFD4AF0B6F84A
S31508003608336802460C49284653F00DFC4AF0AEF8D2
S3150800361832680146084814F0C7FDD8F800004AF091
S3150800362895FF3D7004B0BDE8F08700BF181F00205D
S31508003638841F002020950608AA8806089069002095
S315080036482C1F0020369506089257002091690020FD
S315080036581C1F0020044AD2E90031013341F1000158
S31508003668C2E90031704700BF8810002013B5174813
S3150800367806F058F9164B186028B96821154B164AEA
S31508003688164849F0B7F900200021154B154A1A6063
S31508003698154BC3E900010BF045FC044630B1014659
S315080036A8124814F081FD204602B010BD64F0BCF83B
S315080036B823460146CDE900440D4A0E4864F06EFFDC
S315080036C804460028EFD001460B48EAE7C8960608DC
S315080036D8601F00205A950608A296060877950608D8
S315080036E8841F0020736E0020881000208A9506081B
S315080036F85D360008641F0020B59506082DE9F843CD
S3150800370816469946144A002305460C4648F0E2FF31
S31508003718214630803C222846002348F0DBFF002358
S3150800372880460F46164628464FF46162214648F0F9
S31508003738D1FF1822002348F0CDFF404689F800201B
S3150800374839463C22002348F0C5FF089B00201A701A
S31508003758099B1E70BDE8F8838051010010B586B034
S315080037680DF11503019305AB00930DF116020DF142
S315080037781303FFF7C3FF9DF81530094C02939DF80C
S315080037881430122101939DF8133020460093054AF8
S31508003798BDF8163014F030FD204606B010BD00BF3F
S315080037A8616E0020EC950608D0B50D4C4FF0FF3138
S315080037B8206864F08BFA28B14E210A4B0A4A0B484E
S315080037C849F018F90A4B2068D3E9006764F0B2FA99
S315080037D818B15421074B084AF1E730463946D0BD97
S315080037E8601F0020FF95060885960608779506083F
S315080037F8881000203B96060868960608F7B5544CC4
S315080038084FF48061534A206814F0F6FC49F0AEFF7D
S31508003818236802465049002053F005FB49F0A6FFE5
S31508003828226801464C4814F0BFFC03224B49002085
S315080038381DF050FC4A4D03464FF48061494A2860FA
S31508003848206814F0D9FC49F091FF236802464249DA
S31508003858002053F0E8FA49F089FF226801463E48F5
S3150800386814F0A2FC2A684049404B4148B2F1FF3F90
S3150800387808BF0B463F4914F097FC2E68721C0CD1FA
S3150800388862F0ECFC4BF070FD324601463A4814F0FB
S315080038988BFC62F0E3FC4BF06CFD384F00233A468C
S315080038A842F80C3B364B03F1100C16461868596853
S315080038B8083303C663453246F7D1324E308854F08A
S315080038C8A2FA314B2D491A68B88028681DF02EFCD3
S315080038D82E4D2549254B2860B0F1FF3F08BF0B46FA
S315080038E802462B49224814F05FFC2D686B1C0CD144
S315080038F862F0B4FC4BF038FD2A4601461E4814F01F
S3150800390853FC62F0ABFC4BF034FD224802F0F0F8A9
S31508003918214D32882860009203464FF480611F4A79
S31508003928206814F069FC49F021FF236802460A4911
S31508003938002053F078FA49F019FF2268014606482C
S3150800394814F032FC286803B0BDE8F0404AF0FEBD22
S31508003958841F0020D8960608AA88060802000100CF
S3150800396850AF002001970608272A0808976707080E
S31508003978FC930608189706080A940608B01F00203C
S315080039883D2307089CB5002054AF00204CAF002003
S315080039982C970608BC1F00208C1F00203E97060897
S315080039A82DE9F04385B0314C2668C6B9304D4FF439
S315080039B88061304A286814F01FFC49F0D7FE2B6846
S315080039C802462D49304653F02EFA49F0CFFE2A68AA
S315080039D80146294814F0E8FB236801332360274B7E
S315080039E8274D284E284801930095002340F2CF42D8
S315080039F8314600681DF028FCDFF894800028C8F8CE
S31508003A0800002FDD002723683754013305F10C0021
S31508003A18236002F06DF8DFF87C90154DC9F80000B0
S31508003A280296D8F800304FF48061CDE90003174AAA
S31508003A382368286814F0E0FB49F098FE2B680246CC
S31508003A480D49384653F0EFF949F090FE2A680146C1
S31508003A58094814F0A9FBD9F8000005B0BDE8F043F9
S31508003A684AF074BD05B0BDE8F08300BF881F002082
S31508003A78841F002066970608AA88060854AF0020FF
S31508003A88901F00207372002050AF00207E9706080A
S31508003A984CAF00208C1F0020044A054B10685B6851
S31508003AA8012838BF0120B3FBF0F07047D01F00206B
S31508003AB8001000E070B50446FFF7EEFF0546084E0D
S31508003AC8D6F8A430C3F340039C4201D1012070BD47
S31508003AD8FFF7E2FF401B8842F2D90020F7E700BF4C
S31508003AE800C003500D4AD2F8FC3043F08073C2F880
S31508003AF8FC3000220A4B5A601A6842F001021A6022
S31508003B08084B094A1B68B3FBF2F3084A13600123FA
S31508003B1802221946104605F045BC00BF00ED00E034
S31508003B28001000E080B1002040420F00D01F00209E
S31508003B382DE9F04F85B001230222002405461946CF
S31508003B48104602948DF80C40A24605F02BFC00237B
S31508003B5804220121022005F025FC0222454B44F6E1
S31508003B681F66C3F8A020FFF797FF0146FFF794FFE3
S31508003B78431AB34224D9012304221946022005F020
S31508003B8811FCCDF804A0019B4F2B1BDD0123022253
S31508003B981946104605F006FC78210020FFF78AFF2B
S31508003BA8A8B90134032C5FD0334ACDF800A003E046
S31508003BB800BF009B01330093009B9342F8DDC6E7DC
S31508003BC800BFD3E700BF019B01330193DBE7012060
S31508003BD8FFF770FF0028E4D00026B34602AF4FF07F
S31508003BE8070807F801BB50210020FFF763FF0028E4
S31508003BF8D7D078210120FFF75DFF0028D1D0FFF73D
S31508003C084BFF4FF4967181460020FFF753FF014694
S31508003C180028C6D0FFF740FFA0EB0900322807D9CD
S31508003C28012303FA08F217F8013C134307F8013C85
S31508003C38B8F10108D7D20136052ED0D19DF808006B
S31508003C489DF809709DF80A209DF80B3028703844AD
S31508003C58AA7002449DF80C60EB701344DBB29E42CE
S31508003C686F702E7101D09CE70021084605B0BDE8A3
S31508003C78F08F00BF00E003503F0D030010B52A4C33
S31508003C8804F0ACFE05F044F8236F012023F007037F
S31508003C9843F00303236705F065F8244B01219B6A63
S31508003CA83E20DB015EBF4FF48032214B9A62D4F87E
S31508003CB8203123F0070343F00203C4F82031D4F86F
S31508003CC8283123F0070343F00203C4F82831D4F84F
S31508003CD8403123F0030343F00203C4F84031D4F813
S31508003CE8603123F0030343F00203C4F8603104F09B
S31508003CF8BBFBD4F84032002023F0030343F0020349
S31508003D08C4F84032D4F8003223F0070343F002031C
S31508003D18C4F80032D4F8083223F0070343F0020344
S31508003D28C4F8083210BD00BF008000500040005A91
S31508003D380060005A064B1B681A7A022A04D812B180
S31508003D481B68044A13607047032AF9D0704700BFF6
S31508003D5868AF0020D41F002070B5A2B01B4D0BAC6D
S31508003D680FCD0FC495E80F0084E80F0000244FF420
S31508003D788013CDE902440494019313AD01AE0FCE26
S31508003D880FC5134B06AE2B60124B18ADCDE9074489
S31508003D98099406930FCE0FC520220F4B13A92B6043
S31508003DA80E4B0F481D930F4B2094CDE91E230E4B3F
S31508003DB80BAA21930D4B0AF053FB054621464FF4EF
S31508003DC8E1304AF01CFC284622B070BD00A406085B
S31508003DD83C00015B010010004400015B43770020AA
S31508003DE8E8200020010101007CAF0020D81F002030
S31508003DF801484CF054BF00BFE820002001484AF0AB
S31508003E085EBC00BF20A40608F8B50C46064611464F
S31508003E182046154654F08DF80746284601F068FEF0
S31508003E28033C012C054604D947B13146064814F027
S31508003E38BBF92846BDE8F8404AF088BB0246314631
S31508003E48024814F0B1F9F4E77DAA06089DAA0608FF
S31508003E580121024B8140186863F084BE482100207E
S31508003E6808B5074B4FF0FF31186863F02FFF30B1DC
S31508003E7840F2BA31034B044A044848F0BBFD08BD72
S31508003E884C210020AAAA0608F9AE0608DFAA0608E1
S31508003E9808B5064B186863F04DFF30B14FF47071DA
S31508003EA8034B044A044848F0A5FD08BD4C210020E8
S31508003EB844AB0608E0AE0608DFAA060873B5002371
S31508003EC800220546CDE9002363F094FC6A4663F0B0
S31508003ED8C3FC00982D4A0199D2E90232C01A61EB4F
S31508003EE802012B4ACDE90001FCF71AFA284801F025
S31508003EF827FE284B002814BF06461E466B68002B6B
S31508003F0841D1AC6814F001040DD00121224A234896
S31508003F18FFF77AFF204801F0EBFD314604460246D2
S31508003F281F4814F041F9AB689A070DD503211D4AB5
S31508003F381D48FFF769FF1B4801F0DAFD31460446BC
S31508003F4802461A4814F030F9AB685B070DD5042108
S31508003F58174A1848FFF758FF154801F0C9FD3146B2
S31508003F6804460246144814F01FF920464AF0EEFAA9
S31508003F7830464AF0EBFA6A681AB11049104814F044
S31508003F8813F902B070BD0024EFE700BFA0100020A7
S31508003F989010002040CB0608747700206AAB060804
S31508003FA871AB06089477002091AB06089DAB060806
S31508003FB8A4770020C5AB0608D0AB0608A0B006084B
S31508003FC8FAAB0608F7B500220023CDE900234468B2
S31508003FD80646344D64B12146334814F0E5F8012005
S31508003FE8FFF736FF0121286863F0F5FD03B0F0BD39
S31508003FF8502221462D4861F037FD2D4814F0D4F893
S3150800400801212C4A2C48FFF7FFFE2146274A2B4850
S31508004018FFF7FAFE02212A4A2A48FFF7F5FE032186
S31508004028294A2A48FFF7F0FE294A04212948FFF7B2
S31508004038EBFE63F0DFFB6A4663F00EFCDDE900176A
S31508004048254BD3E908208A1847EB000C9868C3E97A
S315080040580017121AD868C3E902176CEB0000C3E9FF
S3150800406808209A6A1D4801329A62D3E90623891AF2
S3150800407867EB0303CDE900134FF47A73B1FBF3F149
S3150800408814F092F82046FFF7E3FE0221286863F049
S31508004098A2FD7268002AA9D01149124814F084F8BA
S315080040A8A4E700BF4821002014AC0608647700205E
S315080040B836AC0608747700206AAB060843AC0608CF
S315080040C8847700204EAC0608947700205CAC060876
S315080040D8A47700206BAC0608A01000207CAC060864
S315080040E883B00608FAAB0608F7B50023002205468A
S315080040F81548CDE9002314F057F863F07BFB6A46A8
S3150800410863F0AAFBDDE90010104BD3E904248A18EA
S31508004118D3E9067640EB0404D21B64EB0604C3E92C
S315080041280424C3E90010C3E906106A681AB10849E5
S31508004138084814F039F80120FFF78AFE0022064BD2
S315080041481A7003B0F0BD00BF85AC0608A0100020A1
S3150800415863B00608FAAB06086377002010B50F495E
S315080041680446A1F1280053F09BFE18B90C490D48DE
S3150800417814F01AF80220FFF76BFE0120FFF768FE15
S31508004188094B0121186863F026FD62682AB1BDE863
S3150800419810400649064814F007B810BD3421002017
S315080041A80C21002095AC06084821002040B00608D6
S315080041B8FAAB06084168014813F0F6BFBCAC060816
S315080041C810B50B4B044680681870C0B201F0A6FCFF
S315080041D8014618B1A268074813F0E6FF62682AB1D3
S315080041E8BDE810400449054813F0DEBF10BD00BFFE
S315080041F863770020E9AC060822B00608FAAB060879
S3150800420842681AB10249034813F0CEBF704700BF87
S3150800421809B00608FAAB060842681AB10249034803
S3150800422813F0C2BF704700BFE7AF0608FAAB060827
S3150800423842681AB10249034813F0B6BF704700BF6F
S31508004248C9AF0608FAAB060842681AB10249034814
S3150800425813F0AABF704700BFB1AF0608FAAB060845
S3150800426842681AB10249034813F09EBF704700BF57
S3150800427886AF0608FAAB060842681AB10249034827
S3150800428813F092BF704700BF63AF0608FAAB06087B
S3150800429842681AB10249034813F086BF704700BF3F
S315080042A84BAF0608FAAB060808B50C4805F03AFB02
S315080042B80B4B186030B94FF4DE710A4B0A4A0B48A3
S315080042C848F098FB0A4805F0F3FA0A4B186020B933
S315080042D840F2BF11084B044AF1E708BDF4B00608D6
S315080042E84C21002001AD060834AF0608DFAA0608E7
S315080042F8E4B006084821002017AD060808B50B469D
S31508004308014603480322006863F083FCC00F08BD12
S315080043184821002030B5B3B0002300228DF80730B5
S315080043280023CDE90223FFF79BFD3C225A495B4847
S3150800433861F003FC0DF1070053F091FE024618B12F
S315080043485749584813F030FF9DF8071031B15648B9
S3150800435813F02AFFFFF79CFD33B030BD4F4CB2224D
S3150800436805A861F081FB94F8210001F0DDFB0546FC
S3150800437894F8240053F0FCFE014618B14B4813F094
S3150800438813FFE7E72946B22205A861F0D6FB022300
S3150800439805A88DF8803053F0FEFE014630B1444832
S315080043A813F002FF0520FFF753FDD3E7B4F92200FF
S315080043B853F025FE014620B13E4813F0F5FE0620C7
S315080043C8F1E73D4853F018FF014608B13B48D6E7E0
S315080043D83B4B13F8012B0AB989B203E00131B1F551
S315080043E8006FF6D1013189B20220354A53F0C2FD71
S315080043F8014628B9334B13F8012B32B989B208E0BC
S31508004408314813F0D1FE0B20CDE70131B1F5006F25
S31508004418F1D1013189B206202A4A53F0C2FD014674
S3150800442828B92A4B13F8012B32B989B208E028486B
S3150800443813F0BAFE0C20B6E70131B1F5006FF1D1D9
S31508004448013189B20120214A53F0C2FD014620B143
S31508004458204813F0A9FE0D20A5E71F49A1F1280059
S3150800446853F01EFD044680B963F0C4F902AA63F046
S31508004478F3F9DDE90201194BC3E90001C3E90201B1
S31508004488C3E906010549164879E70420FFF7E0FC61
S315080044982146144873E700BF04B106080C2100201A
S315080044A812AF0608FAAB06082FAD06085AAD060875
S315080044B884AD0608B8AD06085DAA0608DFAD060885
S315080044C838A40608B5A606080EAE060868A906089A
S315080044D844AE060879AE060834210020A01000204C
S315080044E8AEAE0608C5AE060810B5FFF7B9FC034B0D
S315080044F81C78FFF7CDFC204610BD00BF6377002067
S31508004508402906D1C378202B08D005D813F0EF0F19
S3150800451804D04FF0FF307047302BFAD18078A528A1
S31508004528F7D8872806D85F2802D013D804280AD8C7
S3150800453800207047094B7830C0B2C34003F0010326
S31508004548013B58B27047413804284FF0FF3098BFEE
S315080045580020704780F080000628F6E7B100003F83
S315080045682DE9F04F89B000260F46154604469846A9
S31508004578149B9DF84CA0CDE906320390059000EBF4
S315080045880209079B23B90795002E45D100264CE05A
S31508004598BAF1080F069B2CD1FF2B26D89D42059AFF
S315080045A823D31A44944220D84A451ED85A1C214671
S315080045B8164405A82A4649F043FD07900028E2D084
S315080045C8059B1B781909DED12146069305A8012300
S315080045D849F036FD07AB0790009322462B4605A9F6
S315080045E806A849F03BFD0028CBD0002009B0BDE855
S315080045F8F08FBAF10B0FCFD0BAF10F0FCCD0BAF1B2
S31508004608140FC9D0BAF1110F01D1022BC5E7BAF1B7
S31508004618040FC3D1082BC0E7013EB7D0FB68B0B278
S315080046289847C8F800000028DFD0129BAAF1040AA8
S315080046381E800123D8F800705FFA8AFBD8F8002094
S31508004648B91AB14201DA079909B90398CEE76BB9DD
S315080046580123234903FA0BF30B4204D113F0900FF5
S3150800466803D02F2300E026233B700137DDF850904E
S31508004678BA1A4A44B242B8DCA9450399B5D801EB37
S3150800468809039C42B1D862199342AED84A463846BD
S3150800469861F053FA4B462A46214603A849F0D0FC4E
S315080046A8034607904F440398002B9FD003785FEA88
S315080046B813199BD10DF1480A4AF8083F21460123E8
S315080046C803A849F0BDFC07AB0790009322462B4682
S315080046D8504603A949F0C2FC4B460028AED084E7E9
S315080046E8012801002DE9F04F8BB081460F461D467B
S315080046F8164622B9002420460BB0BDE8F08F0329D8
S31508004708F8D90028F6D049F0F1FC04460028F1D07B
S315080047183278314622F03F032B70737802F0300264
S31508004728C270837073883A465BBA0381331D069351
S3150800473806A8002349F084FC3278079002F00F0295
S315080047482270CAB1082A6DD82369002B6AD1974204
S31508004758069967D38B189E4264D8F019834261D8A4
S31508004768484649F003FD206100285BD03A463146A1
S31508004778237806A849F064FC4FF0000B069BDFF87F
S31508004788BCA39B1BFB1A0793DDE90632002A00F037
S31508004798D0811A78FF2A0FD19A1BBA420ADA1A78F0
S315080047A8FF2A3FD101339E1BBF1BBFB2A781002F2B
S315080047B838D0A361002336E002F00F031209314608
S315080047C80893099201233A4606A849F039FC07AD29
S315080047D807903B463246009506A909A849F03EFCCB
S315080047E800BB099B03EB0B081FFA88F8434519D841
S315080047F8C34517D83B463246009506A908A8CDF8FA
S31508004808248049F02BFC68B9B8F11C0F0DD8B8F10B
S31508004818020F07D92AFA08F3DB070CD4DDE90725BE
S31508004828954215D90123637065E7B8F1230F02D0BD
S31508004838B8F13C0FF6D12146484649F061FC0028F4
S31508004848F0D0DDE90725AA42ECD3B8F1230F4BD8F7
S31508004858B8F1020FE6D9A8F10303202BE2D801A183
S3150800486851F823F0CF4900089D4900082D4800084B
S31508004878794A0008234A0008FD4900082D48000817
S315080048882D4800085F4A00081B4900082D480008FB
S31508004898414900089B4A00082D480008F14A0008C3
S315080048A82D4800082D480008454A00082D480008E4
S315080048B82D480008AD4A00082D4800082D4800086C
S315080048C82D480008CF4A0008134B00082D48000851
S315080048D82D4800082D4800082D4800082D480008CE
S315080048E82D48000859490008B8F13C0F9AD1042DFB
S315080048F898D8D4F81CB09BF80130002B92D1012324
S3150800490829468BF8013006A849F08CFBCBF8180025
S3150800491809E0022D86D86368013383D1294606A89B
S3150800492849F080FB6060069B9B1B9F42FFF47AAFA9
S31508004938FB1AC346079327E7042D3FF673AF2946A4
S3150800494806A8D4F81CB049F06DFBCBF81400EAE7C2
S3150800495840F209436A1E9A423FF664AFD4F81CB07F
S31508004968DBF83030002B7FF45DAF2A4648460699B7
S31508004978ABF8045049F0FAFBE369CBF830001B6B37
S31508004988002B3FF44FAF2B463A46314606A849F066
S3150800499857FBC8E7E369596B00297FF443AF04213D
S315080049A801910DF11601009106984946029534338E
S315080049B8FFF7D6FD069000283FF434AFE369BDF843
S315080049C816201A70AFE76B1EFE2B3FF62BAFD4F8EE
S315080049D81CB0DBF83830002B7FF424AF2A4648464B
S315080049E80699ABF8065049F0C1FBE369CBF83800DD
S315080049F89B6BC5E7E369D96B00297FF413AF0821D8
S31508004A0801915918029500913C3349460698FFF7D3
S31508004A18A7FD0690002886D104E7022D3FF602AFC7
S31508004A28D4F81CB0DBF8203001337FF4FBAE2946F6
S31508004A3806A849F0F7FACBF8200074E7E369196C79
S31508004A4800297FF4EFAE1421019103F10A010295BA
S31508004A5800914033D9E76369002B7FF4E3AE0B2353
S31508004A68019304F10A030093029504F11403CCE7B1
S31508004A78022D3FF6D7AED4F81CB0DBF82430013344
S31508004A887FF4D0AE294606A849F0CCFACBF824001C
S31508004A9849E70F21E369019103F10C010295009199
S31508004AA84433B2E7032D3FF6BDAED4F81CB0DBF8A5
S31508004AB82C3001337FF4B6AE294606A849F0B2FA77
S31508004AC8CBF82C002FE7032D3FF6ACAED4F81CB074
S31508004AD8DBF8283001337FF4A5AE294606A849F045
S31508004AE8A1FACBF828001EE7022D3FF69BAED4F8AC
S31508004AF81CB0DBF8103001337FF494AE294606A8BB
S31508004B0849F090FACBF810000DE7042D3FF68AAE67
S31508004B18D4F81CB09BF80230002B7FF483AE01232F
S31508004B2829468BF8023006A849F07CFACBF81C000F
S31508004B38F9E6002B7FF430AE74E600BFD8C19218A8
S31508004B482DE9F0410E4617469846054628B121B183
S31508004B581AB12C20A847044618B900242046BDE8EF
S31508004B68F0812C22002160F07FFF01232246237161
S31508004B780023C4E90467E560C4F8188042F81C3FB6
S31508004B88226240F2023222800A22A270014AA362F5
S31508004B981380E3E79457002008B561F02DFB022837
S31508004BA80DD1074B4FF0FF31186863F08FF830B115
S31508004BB840F29121034B044A044847F01BFF08BDFD
S31508004BC85021002040B106082EB2060877B106081B
S31508004BD808B561F011FB02280BD1064B186863F07B
S31508004BE8A9F830B140F29921034B044A044847F022
S31508004BF801FF08BD50210020D4B1060814B20608E2
S31508004C0877B10608F8B5044617480D46174604F05E
S31508004C1889FE164B186028B99821154B154A164867
S31508004C2847F0E8FEFFF7B8FF49F0FDFA134B144EB4
S31508004C38002C08BF1C46134B1349002D08BF1D46F8
S31508004C4812482B462246B1607060F46035613775A4
S31508004C58FFF776FF3060FFF7BBFF00F0D1F9BDE834
S31508004C68F84000F083B800BF6CB20608502100204F
S31508004C78FCB1060848B2060877B10608ADE104088B
S31508004C8854210020B1E10408CDE10408B5E104087F
S31508004C9838B504460D46FFF77FFF064B21462A46D8
S31508004CA853F8140CFFF71EFD0446FFF791FF20463C
S31508004CB838BD00BF6821002038B504460D46FFF701
S31508004CC86BFF054B21462A46186848F006FF044636
S31508004CD8FFF77EFF204638BD5421002010B504464C
S31508004CE850B1806908B149F06DFA044B2146BDE810
S31508004CF81040186849F01BBA10BD00BF542100209F
S31508004D0808B561F079FA02280DD1074B4FF0FF3143
S31508004D18186862F0DBFF30B14FF4CC71034B044AD4
S31508004D28044847F067FE08BD8C2300207CB20608B5
S31508004D381AB40608AFB2060808B561F05DFA022883
S31508004D480BD1064B186862F0F5FF30B140F29F1197
S31508004D58034B044A044847F04DFE08BD8C2300203F
S31508004D6813B3060801B40608AFB2060837B51948DA
S31508004D7804F0D8FD184B186028B9D121174B184AE2
S31508004D88184847F037FE4FF40273342200930A2175
S31508004D98154B164849F0B7FA044618B1D921144BE9
S31508004DA80F4AEDE7134D2871134804F081FDA860F2
S31508004DB818B9E021114B0A4AE2E72146104A114878
S31508004DC804F02AFE18B9E4210F4B054AD8E703B0C0
S31508004DD830BD00BF84B406088C23002037B3060804
S31508004DE833B40608AFB20608842100206C210020D7
S31508004DF84BB3060890AF002050B4060860B30608FF
S31508004E0860B40608B14E000872B30608F7B5436AD7
S31508004E18044663B19847054648B1A36A53B90322BD
S31508004E28022100201CF056F9431C064608D1012029
S31508004E3803B0F0BD204698470028F0D10020F7E7D0
S31508004E48284649F0CAF9431E9BB2B3F5806F074650
S31508004E58EDD2FFF755FF29460E4849F0C0F9002854
S31508004E6802DAFFF769FFE2E72023043401933A469A
S31508004E7800233046074900941CF09CF90130F0D00D
S31508004E882846FFF72BFFFFF757FF304652F0D0FFAB
S31508004E98D4E700BFB47700200168D0E90B3201488F
S31508004EA813F082B986B3060870B5174C48F0C5FCE6
S31508004EB8237933B1D4E902014FF0FF33002262F0B7
S31508004EC8A8FEFFF71DFF114B1E6946B9FFF734FF09
S31508004ED82379002BEAD1206862F02FFEE6E72379CA
S31508004EE835683BB9D5E90B239A4203D0013376686E
S31508004EF82B63EAE72846FFF789FF10B12846FFF72C
S31508004F08CBFF0023F3E700BF90AF00206C210020F9
S31508004F1870B50646074B1C6914B92546284670BD60
S31508004F28256880223046296860F0B3FD0028F5D048
S31508004F386468F1E7D023002008B561F05DF9022816
S31508004F480DD1074B4FF0FF31186862F0BFFE30B13C
S31508004F584FF4C971034B044A044847F04BFD08BD92
S31508004F68682B002094B406082BB70608D4B406089C
S31508004F7808B5074B4FF0FF31186862F0A7FE30B145
S31508004F8840F2A111034B044A044847F033FD08BD13
S31508004F98682B002094B40608EBB60608D4B40608AD
S31508004FA808B561F029F902280BD1064B186862F092
S31508004FB8C1FE30B14FF4CD71034B044A044847F09B
S31508004FC819FD08BD682B002036B5060808B7060877
S31508004FD8D4B4060808B5064B186862F0ABFE30B1BB
S31508004FE840F2A711034B044A044847F003FD08BDDD
S31508004FF8682B002036B50608CEB60608D4B40608C7
S3150800500807B5134804F08EFC124B186028B9B4216A
S31508005018114B124A124847F0EDFC4FF470731E21E3
S31508005028009320220F4B104849F06DF9014618B134
S31508005038BC210E4B094AEDE70D4A0E4804F0ECFC74
S3150800504818B9C1210C4B054AE4E703B05DF804FB1F
S31508005058C4B70608682B002067B506085CB70608B3
S31508005068D4B40608A8270020D02300204BB3060886
S31508005078A0B706089951000888B5060838B50F4B31
S3150800508805461C69FFF758FF5CB90C4849F050F902
S3150800509870B12022294660F050FDFFF781FF2046AF
S315080050A809E0236880222968186860F0F2FC18B9B4
S315080050B8FFF776FF012038BD6468E5E7D0230020AE
S315080050C8F8B5114B00241D69FFF736FF4FF47072C7
S315080050D800210E4860F0C8FC0C4E35B9FFF760FF92
S315080050E80A48002C08BF2846F8BD1D2C0AD806EB26
S315080050F8441720223846296860F01FFD0CB147F886
S31508005108047C01346D68E8E7D0230020E8230020F2
S3150800511838B5084B084D1C69FFF72AFF1CB9BDE8C6
S315080051283840FFF757BF23682846196813F03CF834
S315080051386468F3E7D02300200E890608014813F0AF
S3150800514833B800BF9AB5060808B50846FFF7F6FF4C
S31508005158BDE80840014813F027B800BF9AB5060805
S31508005168014813F021B800BFC9B50608014813F06D
S315080051781BB800BF03B60608014813F015B800BFE8
S3150800518832B60608014813F00FB800BF66B6060817
S315080051982DE9F04F85B00026DFF8ECB1DFF8EC9181
S315080051A80396ADF80A6048F048FB0322022100205E
S315080051B81BF090FF431C074606D140F2E5116C4BDD
S315080051C86C4A6D4847F016FC0023CBF800306B4B49
S315080051D86B4C03F11005224618685968083303C250
S315080051E8AB421446F7D141F2336052F00CFE202246
S315080051F8ABF804005946384603921BF097FF01306E
S3150800520804D14FF4F8715F4B5A4ADAE70024DFF8FD
S3150800521880A103ABCDE900934FF480620023514681
S3150800522838461CF011F8002840F38C80514680B2A5
S31508005238FFF72EFD04460028EBD08378013B032BA5
S3150800524804D901464846FFF77FFFE2E7FFF738FF2C
S3150800525821460DF10A0200F0C3F8064690B1224627
S31508005268BDF80A1049F036F8054600283CD120460C
S31508005278FFF734FD2846FFF731FD304648F0A2FF10
S315080052880024C6E7204648F0ACFF054618B920466C
S31508005298FFF766FFBDE7FFF73BFE8046284648F05E
S315080052A891FFB8F1000F2BD0D8F810309BB9D8F871
S315080052B814302BB3214648469847054670B9204608
S315080052C8FFF70CFD2846FFF709FD284648F07AFF40
S315080052D82C462E469DE720469847EEE7D8F818301C
S315080052E813B1214648469847284648F076FFB0F550
S315080052F8806F804629460BD92046FFF737FFB6E761
S3150800530884212046FFF7D8FC05460028ECD1D6E7C5
S31508005318504648F064FF002804DA29462046FFF775
S315080053282BFFA4E7039B4246CDE900935146002389
S3150800533838461BF03FFF013099D129462046FFF72A
S3150800534821FF94E701307FF464AF48F082FA0546F6
S3150800535800287FF45EAF384652F06AFD2046FFF70C
S31508005368BDFC2846FFF7BAFC304648F02BFF1AE77B
S3150800537899B606084EB70608D4B406083D230708A2
S31508005388BC230020B5B60608B023002090230020C9
S31508005398B47B0020012808D0022814BF0223012361
S315080053A82820034A00FB032070470023F8E700BFBC
S315080053B814B8060838B50D4609682C23074A01317A
S315080053C8044612F019FF031E06DB2A689A4203D31D
S315080053D8D21AE0182A6038BD0020FCE76DFB0708DA
S315080053E82DE9F04F91B007460C4605920021182280
S315080053F80AA860F039FB002F4CD0002C4AD06389E4
S31508005408013B9BB27F2B45D8A378012B42D1204676
S3150800541848F0E7FE029000283CD08022A74960F0B1
S3150800542838FBE3698146002B39D05D6C1DB19D892F
S31508005438003D18BF01253E46D6F80080404648F08C
S31508005448FBFE834668B1DDF83CA0BAF1000F29D106
S315080054580C2048F0ABFE20B1C0E9008B0F90C0F8CD
S3150800546808A0F669002EE7D1B9F1000F40F0EB80E5
S31508005478002D00F0DF80E3699889013080B248F092
S3150800548895FE054660BB0F98002840F08E80029866
S3150800549848F098FE0026304611B0BDE8F08F1D4644
S315080054A8C9E79A46DAF804309B4510D0DAF8083086
S315080054B8002BF6D10C20039348F078FE0028D0D0AC
S315080054C8039BC0E9008B8360CAF80800C9E75A46F7
S315080054D84146DAF8000060F09DFA0028E6D1C0E7F0
S315080054E8E369B1469A89596C60F027FBE36980211C
S315080054F89B892846EE5449F0B0F8714C8046A34675
