:020000040800F2
:1000000000100020591C0008F7EF0408F7EF04085F
:10001000F7EF0408F7EF0408F7EF0408F7EF040818
:10002000F7EF0408F7EF0408F7EF0408F7EF040808
:10003000F7EF0408F7EF040837700008F7EF04083B
:10004000F7EF0408F7EF0408F7EF0408F7EF0408E8
:10005000F7EF0408F7EF0408F7EF0408F7EF0408D8
:10006000F7EF0408F7EF0408F7EF04083514000869
:1000700025140008F7EF0408F7EF0408F7EF040869
:10008000F7EF0408F7EF0408F7EF0408F7EF0408A8
:10009000F7EF0408F7EF040811250008F7EF04084C
:1000A000F7EF0408F7EF0408F7EF0408F7EF040888
:1000B000F7EF0408F7EF040869E5010815F00108F7
:1000C0000BA5050807A50508A9E7010817A5050858
:1000D0000FA50508EDEF010813A5050855F0010867
:1000E00041F10108F7EF0408F7EF0408F7EF0408FF
:1000F000F7EF0408F7EF0408F7EF0408F7EF040838
:10010000F7EF0408F7EF0408F7EF0408F7EF040827
:10011000F7EF0408F7EF0408F7EF0408F7EF040817
:10012000F7EF0408F7EF0408F7EF0408F7EF040807
:10013000F7EF0408F7EF0408F7EF0408F7EF0408F7
:10014000F7EF0408F7EF0408F7EF04084D7700080D
:10015000F7EF0408F7EF04081B2005086DCB010832
:10016000F7EF0408F7EF0408EBA20508F1A2050871
:10017000F7EF0408F7EF0408F7EF040800000000A9
:100180002DE9F04180460F461546106051604FF44E
:100190007A7200234DF024FC06460C461FA3D3E9D7
:1001A0000023404639464DF01BFC83B22B81184A90
:1001B00002FB03F3F61A64F100044FF461620023BA
:1001C000304621464DF00CFCC0B2A8724FF461637A
:1001D00003FB00F0301A64F100040022031915D269
:1001E00013440C4AA2FB0312D208C2EB02129B1A60
:1001F000C31A094AA3FB0232C3F38703EB72C3EBB2
:100200000313A0EB83002873BDE8F0810122E7E728
:100210008051010089888888EFEEEEEE005C2605AB
:1002200000000000000000002DE9F04F2DED028BD2
:1002300093B082460C4693461D4657EC106B8DEDED
:10024000080B32463B46304639464DF0F1F900285E
:1002500000F009814FF0FF32B14B304639464DF086
:100260000FFA002840F0FF804FF0FF326FF4801348
:10027000304639464DF0E6F9002840F0F48000227F
:100280000023DDE90867304639464DF0DBF90028E8
:1002900040F0FC809DED087B8DED067B209B13F4E8
:1002A0008063119301D106231E93DDE90601024606
:1002B000C1F30A50C1F31303904643F07F5949F448
:1002C0004019A0F2FF304CF0E1FE83A3D3E90023F4
:1002D0004CF046FF82A3D3E900234CF08BFD064689
:1002E0000F4600228F4B404649464CF081FD7EA3CD
:1002F000D3E900234CF034FF02460B463046394622
:100300004CF078FD4DF0C6F906464CF0BFFE804635
:10031000894677A3D3E900234CF022FF0022824BC9
:100320004CF068FD4DF0B6F9074673A3D3E90023FE
:10033000404649464CF014FF8046894638464CF00A
:10034000A5FE6FA3D3E900234CF00AFF02460B463B
:10035000404649464CF04CFD8046894602460B46D5
:100360004CF0FEFECDE90C0107F2FF370021002220
:10037000CDE90A123B050B9300230A9342464B46F4
:10038000404649464CF036FDCDE90E0142464B460B
:1003900000204FF080414CF02BFD80468946002222
:1003A000624BDDE90C014DF005F80022604B4CF08A
:1003B00021FD02460B46DDE90C014CF0FBFF00225B
:1003C0005C4B4CF017FD02460B46DDE90C014CF08E
:1003D000F1FF02460B46404649464CF00BFD0246F3
:1003E0000B46DDE90E014CF0E5FF0022524B4CF0CC
:1003F00001FDDDE90A234CF0B3FE8046894649EC55
:10040000188BDDE906234DF03BF940B1013E002297
:10041000474B404649464CF0CDFF41EC180B06F1E6
:100420006303C62B3BD80427209B13F4006F40D0F6
:1004300035A3D3E90023DDE90689404649464DF05E
:1004400015F900283BD032A3D3E9002340464946A2
:100450004DF0F8F8002832D01E9BB34221DD9E1BE0
:10046000731E1E931FE0209B02931F9B01931E9BF4
:1004700000939DED080B2B465A462146504600F04E
:10048000CBF813B0BDEC028BBDE8F08F9FED227B63
:100490008DED067B069607F100430793FEE60527E0
:1004A000C2E700231E93209B43F480632093002720
:1004B0003E461F9B9F4241D2A3EB070840E01E9B94
:1004C000002BF6D0119B002BF3D01E9B013B1E93FB
:1004D000EFE700BFAFF30080FB799F501344D33F99
:1004E000B3C8608B288AC63F61436F63A787D23F3A
:1004F00071A379094F930A401655B5BBB16B024001
:10050000EF39FAFE422EE63F2D431CEBE2361A3F4E
:100510000000000080842E41000000000000000068
:10052000FFFFEF7F0000F83F0000E03F00002C409D
:1005300000002440000018400000F03F4FF0000889
:10054000209B13F0020902D00FB14FF000083EB11A
:1005500053EC182BDDE906014CF02CFFCDE9060128
:1005600000220023DDE908014DF06CF800283BD1A2
:10057000209B23F400630293CDF804801E9B00931C
:100580009DED060B2B465A462146504600F044F896
:10059000002F3FF476AF209B13F0200F2CD04FF0AC
:1005A000450C00F101082B46024621466046D04723
:1005B00086EAE672A2EBE67205230593013F0497F3
:1005C000002303930A230293F30F019300922B4617
:1005D00042462146504658F018FEB9F1000F3FF44C
:1005E00050AF02461F9F10E0DDE90601024601F10F
:1005F0000043CDE90623BBE74FF0650CD1E7561C5D
:100600002B4621462020D0473246A2EB0B03BB42AB
:10061000F5D3104635E700BF2DE9F04F2DED028BE5
:1006200093B00590089192469B4659EC108B1E9D05
:1006300042464B46404649464CF0FAFF002840D01F
:100640004FF0FF326FF48013404649464CF0FAFFFA
:10065000002845D14FF0FF32B14B404649464DF09E
:100660000FF800284BD1AAA3D3E9002340464946FE
:100670004DF006F800285AD1A7A3D3E9002340463D
:1006800049464CF0DFFF002851D1002200234046AC
:1006900049464CF0D7FF002857D100230993209BEF
:1006A00013F4806F5CD000241F2C5BD8092D59D91E
:1006B00004F148036B44302203F8202C013D01343F
:1006C000F2E7209B03931F9B029303230193954B17
:1006D00000935B4652460899059858F0BCFC10E11F
:1006E000209B03931F9B0293042301938E4B009343
:1006F0005B4652460899059858F0ADFC01E1209BF5
:1007000013F004030FD0894A7BB10423209903918D
:100710001F990291019300925B46524608990598F1
:1007200058F099FCEDE0824AEEE70323EEE7209BC8
:1007300002931F9B0193009549EC108B5B46524638
:1007400008990598FFF770FDDBE042464B46002014
:1007500000214CF04DFB80468946012309939EE71A
:100760000625A0E7404649464CF094FF06464CF06B
:100770008DFC02460B46404649464CF039FB6D4B1A
:1007800003EBC50393ED008B53EC182B4CF0E8FC06
:1007900002460B46CDE906234CF0A4FF07464CF079
:1007A00065FC02460B46DDE906014CF021FB0246E2
:1007B0000B46CDE9062300225F4B4CF061FF50B39E
:1007C000013738464CF052FC02460B4651EC180BF0
:1007D0004CF042FF08B10136002755BB30464CF0C3
:1007E00055FC02460B46404649464CF001FB80460C
:1007F00089460022504B4CF025FF38B100224E4B69
:10080000404649464CF03CFF002842D016F0010F0C
:100810003FD001363DE00022474BDDE906014CF0B8
:1008200011FF0028D9D117B117F0010FD5D001372A
:10083000D3E71F2C17D8013D404BA3FB0723DB0850
:10084000194603EB8303A7EB4303621C303304F127
:1008500048000DEB000404F8203C092F02D90F4694
:100860001446E6E714461F2C0AD86B1E45B104F166
:1008700048026A44302102F8201C1D460134F2E788
:100880001F2C06D804F148036B442E2203F8202CB9
:1008900001341F2C17D82A4A82FB0632F317C3EB08
:1008A000A2031A4603EB8303A6EB4303611C303318
:1008B00004F148000DEB000404F8203C16460AB190
:1008C0000C46E6E70C46209B03F00303012B39D0CE
:1008D0001F2C09D8099B002B51D004F148036B440D
:1008E0002D2203F8202C0134209B03931F9B02939D
:1008F00001940AAB00935B4652460899059858F05C
:10090000AAFB13B0BDEC028BBDE8F08FAFF3008003
:100910000000000065CDCD410000000065CDCDC1D7
:10092000FFFFEF7F1CD2060820D2060810D206086F
:1009300018D2060828D206080000E03FCDCCCCCC67
:10094000676666661F9BB3B1099B1BB9209B13F0BA
:100950000C0F12D01F9B013B1F93194606E004F1B8
:1009600048036B44302203F8202C01348C42AFD270
:100970001F2CF4D9ACE71F99F8E71F99F6E7209BE5
:1009800013F0040F07D004F148036B442B2203F843
:10099000202C0134A8E7209B13F0080FA4D004F109
:1009A00048036B44202203F8202C01349CE700BF4D
:1009B00070B5A8B02C2200211DA869F0C2F94FF033
:1009C00002331F9340F20B13814D14ACADF89C30F1
:1009D0000FCD0FC40FCD0FC42B687E4923607E4B13
:1009E0007E4807930023CDE908330A931EF0B4FC38
:1009F0007B4D286000285BD0012159F099FD20B182
:100A000040F23A4177484EF00BFB286859F02AFA39
:100A1000754E3070286859F027FA744B7449187075
:100A200028681FF013F8044600283BD13378714E34
:100A30005BB9714822F00EFC306010BB40F26D4192
:100A40006E4B6F4A67484DF05BF96E4822F002FC2E
:100A500030600028EDD02246C18928681EF018FDBC
:100A600001220321286859F076FD33682146586831
:100A700022F0B8FB0446A8B95F4822F0EBFB3060D7
:100A8000C0B1C189002228681EF002FD01220321A5
:100A9000286859F060FD33680421586822F0A2FBF1
:100AA000044638B1234622210220574A67F0BCFA97
:100AB00028B070BD03F022FF544A04ABCDE9040115
:100AC0000393A2F1080113F8010B02F8010D914202
:100AD000F9D10622FF210BA869F033F90622FF2184
:100AE0000DF1320069F02DF9182200210EA869F0ED
:100AF00028F908220EA903A869F07AF941F23423F3
:100B00001C22002120A8ADF82C3069F01AF92868C1
:100B10001DA91FF08DF904460028C3D13C4928685F
:100B200059F0ACFD04460028BCD13A49286859F078
:100B30008FFD04460028B5D1374928681EF034FDE2
:100B400004460028AED120A3D3E90023CDE9002339
:100B5000286859F095FD04460028A3D12F4A304952
:100B6000286859F0CDFD044600289BD101201EF0D5
:100B70003FFC00289CD0A0232A4A07A8D3802A4AF9
:100B8000136004F003F8294B186020B940F2B64115
:100B9000274B1B4A56E7274A2749284824F016F8CE
:100BA000264842F00DFA2146254814AA04F0CCF854
:100BB000244B186000287FF47BAF40F2C241224BE7
:100BC0000F4A3FE7AFF30080488D01C103400000AA
:100BD000DC4B0708CD300208F04107089C130020C9
:100BE0005C880020B23C0708D4900020D3900020FD
:100BF000070011001478002059B5050805420708C0
:100C0000B84A070843B5050853420708DD9000209D
:100C1000DA4B0708D84B070860880020F815002039
:100C200054780020BC130020C8880020D8880020F9
:100C30001D42070839420708213402087C88002039
:100C4000DD420208E0880020424207080000000060
:100C50002DE9F74305465C4C222110205B4A67F0E2
:100C6000E3F918222946204669F0C2F8A27B584BC6
:100C7000DFF8A4911A70E37C002289F80030002389
:100C8000CDE90023534D00224FF40073286859F03A
:100C9000F7FC18B1012003B0BDE8F0834E4B4F4F75
:100CA0001B787BB94E4822F0D5FA04463C60F4B973
:100CB00002204C4A222167F0B7F901224A4B212039
:100CC0001A70E8E7494B4A4C1A884A4B286853F88F
:100CD0002210494A8B6821603B601EF041FE226869
:100CE000464B946824221B8802FB0344DEE7444BF6
:100CF0001C603F4BD3F80080B8F1000F07D00023F1
:100D00002420D8F80C108B4208D1002623E040F2B2
:100D100014713C4B3C4A3D484CF0F2FFD8F8086057
:100D200000FB0366F2695278120912F00E0F3DD0F3
:100D3000052A3BD80022F18928683E601EF0A8FBF6
:100D400001220321286859F006FC314A002192F95A
:100D5000000022F097FB1AA3D3E90023CDE900237A
:100D6000286859F08DFCD8F80830B34210D0D989E2
:100D7000002228683B601EF08BFB012203212868BB
:100D800059F0E9FB234A042192F9000022F07AFB92
:100D900099F800303C601B0913F00E0F08D023F0C7
:100DA00075F8012022F01AFD002074E70133AAE74C
:100DB00001220721286859F057FD0028EFD069E784
:100DC000488D01C10342000018780020D74407086D
:100DD000CA9000205C880020CE900020147800206B
:100DE000F5320208F3440708CB900020369000202B
:100DF0000878002008100020653302083490002095
:100E0000107800202F45070866490708B23C0708FC
:100E10008816002089160020C99000200348044B42
:100E2000834202D0034B03B11847704710230020C0
:100E30001023002000000000064B0749C91A891042
:100E400048BF0131491003D0044B0BB1014818478A
:100E5000704700BF10230020102300200000000076
:100E600010B5064C237843B9FFF7D8FF044B13B1F4
:100E70000448AFF300800123237010BD549000207C
:100E8000000000008001080808B5054B1BB10549AA
:100E90000548AFF30080BDE80840FFF7CDBF00BFB5
:100EA000000000000841002080010808A3F5803AF6
:100EB000704700BF174B002B08BF134B9D46FFF731
:100EC000F5FF00218B460F461348144A121A68F0AA
:100ED00038FF0E4B002B00D098470D4B002B00D055
:100EE00098470020002104000D000D48002802D082
:100EF0000C48AFF300804DF079FB200029004DF045
:100F00000BFF4CF023FF00BF0000080000000000B2
:100F1000000000000010002010230020289900206D
:100F2000000000000000000000B585B0104815F07A
:100F3000FBFB4DF0E7FE08E00E4815F0F5FB002343
:100F40000193019A0C4B9A420CDB02A800F000F9C5
:100F50000028F1D09DF808209DF80A10074815F0E8
:100F6000E3FBECE700BF019B01330193E9E700BF1E
:100F7000E0A2060818A3060800127A00FCA20608E0
:100F800000B58BB02422002101A868F0DAFE0B4BDB
:100F900001934FF4007306931823079301AA0021CD
:100FA000074803F0D1FE10B10BB05DF804FB054B10
:100FB000054A4D2105484CF0A3FE00BF30A30608AA
:100FC000290F000838A306085CA306084CA30608EE
:100FD0000B4AD2F8FC3043F08073C2F8FC30094B66
:100FE00000225A601A6842F001021A60064B1B6820
:100FF000064AA2FB03239B0C054A1360704700BFFF
:1010000000ED00E0001000E08011002083DE1B43B3
:10101000204100200D4B59680D4B1B6803B901237B
:10102000B1FBF3F109E0B3FBF2F35B1A4FF47A7210
:1010300000FB02F2934208D200BF044B5B68044AF3
:101040001268002AEFD10122EDE77047001000E09E
:101050002041002038B504460D46032803D8DFE8B8
:1010600000F00B040609002308E00F2306E040F21D
:10107000FF3303E03F2301E040F2FF73EB4013F046
:10108000010F07D00122AA4004EB44042401044BC1
:101090001A5138BD40F2014102484DF0C1FFF1E75D
:1010A00040E0035068A3060838B504460D460328FF
:1010B00003D8DFE800F00B040609002308E00F2343
:1010C00006E040F2FF3303E03F2301E040F2FF730C
:1010D000EB4013F0010F09D004EB44042401143455
:1010E000054BE058E84000F0010038BD40F2D23135
:1010F00002484DF095FFEFE730C0035068A30608A3
:1011000070B504460E46104B5D68104B1B6803B962
:101110000123B5FBF3F504E0B3FBF2F35B1BB34231
:101120000FD801210220FFF7BFFFA04207D0064BD6
:101130005B68064A1268002AEED10122ECE7012022
:1011400070BD0020FCE700BF001000E0204100203F
:101150002DE9F04385B00546002402948DF80C403B
:101160004DF0BCFD2BE000BF009B01330093009AC3
:101170004B4B9A42F7DD4DF0B9FD1420FFF74AFFC3
:10118000012304221946022003F090F80023019362
:1011900003E000BF019B01330193019B4F2BF8DD5E
:1011A0004DF09CFD78210020FFF7AAFF30B1782197
:1011B0000120FFF7A5FF804600284ED10134022C04
:1011C00068DC002CD7DD00230093D0E70136072E22
:1011D00032DC50210020FFF793FF60B3782101201B
:1011E000FFF78EFFA8B32F4B5A682F4B1B6803B92C
:1011F0000123B2FBF3F94FF496710020FFF780FF53
:1012000048B3284B5B68284A126802B90122B3FB35
:10121000F2F3A3EB0903322BD8D907F110030DEB3E
:10122000030111F8083CC6F1070001228240134374
:1012300001F8083CCAE780460137042F0FDCB8F1FB
:10124000000F0CD0002607F110036B4403F8086C64
:10125000BDE78046F0E78046EEE70027EDE7B8F10E
:10126000000FABD09DF808302B709DF809606E70B0
:101270009DF80A00A8709DF80B10E9709DF80C20ED
:101280002A71334450FA83F351FA83F3DBB29A4262
:1012900002D093E74FF00008404605B0BDE8F08368
:1012A0003F0D0300001000E02041002008B502F0CF
:1012B00049F84DF07FFF264A136F23F0070343F0F0
:1012C0000303136702F0BEFA224B9B6A13F0807F80
:1012D00003D1214B4FF480329A621D4BD3F8202169
:1012E00022F0070242F00202C3F82021D3F828219D
:1012F00022F0070242F00202C3F82821D3F840216D
:1013000022F0030242F00202C3F84021D3F8602128
:1013100022F0030242F00202C3F86021D3F8402217
:1013200022F0030242F00202C3F84022D3F8002266
:1013300022F0070242F00202C3F80022D3F808228A
:1013400022F0070242F00202C3F80822002008BD82
:10135000008000500040005A0060005A10B59EB056
:101360002A4C0DF1580CA646BEE80F00ACE80F0061
:101370009EE80F008CE80F00302200210AA868F0D8
:10138000E0FC234B0A934FF0010E8DF82DE056231D
:101390000C9308230F93092311930A23139308AA8C
:1013A000203494E8030082E803000DF1080C0023C8
:1013B0000293039304930593069307938CE8030029
:1013C0000B238DF810300C238DF81130114B059341
:1013D000202306938DF81CE08DF81DE00E4B009342
:1013E0000AAB16AA61460D4809F088FE044638B9D2
:1013F00000214FF4E1304DF0EFFD20461EB010BD4E
:101400007C2107484DF00CFEF2E700BFACA90608AE
:101410000000015B244100204441002004420020E0
:101420007CA9060808B5024809F08AFF08BD00BF7C
:101430000442002008B5024809F082FF08BD00BF41
:1014400004420020F8B506460C461546022904D190
:10145000104B93F82330012B14D02946204659F025
:1014600006FB0746284600F041FB0546033CE4B274
:10147000012C04D93FB13146074815F055F92846EB
:101480004DF070FDF8BD02463146044815F04CF9A8
:10149000F5E700BF24420020D4A90608F4A90608F5
:1014A00010B5134C50220021204668F04AFC114828
:1014B00015F03AF904F1100201210F48FFF7C2FFBD
:1014C000224600210D48FFF7BDFF04F12002022152
:1014D0000B48FFF7B7FF04F1300203210948FFF77B
:1014E000B1FF04F1400204210748FFF7ABFF10BD34
:1014F0006042002004AA060814AA06081CAA0608CE
:1015000028AA060838AA060848AA060870B582B0B4
:10151000044600220023CDE900230AF0DBFC6A46E2
:101520000AF0FAFC324A9368D2680098C01A01990E
:1015300061EB0201009001912E4D2A46FEF720FE3C
:10154000284600F0F1FA0646F8B16368002B3ED158
:10155000A36813F0010F1AD10025A36813F0020F3E
:1015600025D1A36813F0040F32D0234D2A4604215D
:101570002248FFF767FF284600F0B8FA0546024602
:1015800031461F4815F0D0F822E01E4EDDE71E4D13
:101590002A4601211D48FFF755FF284600F0A6FA0C
:1015A0000546024631461A4815F0BEF8D5E7194DF2
:1015B0002A4603211848FFF745FF284600F096FA0F
:1015C000054602463146154815F0AEF8C9E7002534
:1015D00028464DF0C7FC30464DF0C4FC62680AB99D
:1015E00002B070BD0E490F4815F09EF8F8E700BF35
:1015F0002023002010230020A042002048AB060832
:1016000054AB0608ECC406087042002014AA060871
:10161000F4AA06089042002014AB060820AB060886
:1016200054AD060880AB060870B582B000220023D6
:10163000CDE90023416800293AD10446FFF730FF85
:101640000AF048FC6A460AF067FC224B186A0099C7
:10165000019ADD689E68B1EB060C62EB050510EBA4
:101660000C005E6A46EB050518625D6219605A60FF
:101670009960DA60986A013098629869DB69091AA2
:1016800062EB030200910192134BA3FB0131890924
:10169000124815F049F8124D012128684DF00EFE50
:1016A000022128684DF04AFE626872B902B070BD2E
:1016B0000C4815F039F80A4C022120684DF0FEFD67
:1016C000012120684DF03AFEF0E70749074815F080
:1016D0002BF8EBE720230020D34D6210C0AB0608A7
:1016E0005C4200209CAB060834AD060880AB0608BF
:1016F000F0B583B0054600220023CDE9002316484B
:1017000015F012F80AF0E6FB6A460AF005FC134BE6
:101710001A695869009C019E9969611ADF6966EB34
:10172000070C521840EB0C001A6158611C605E6097
:101730009C61DE616A684AB90221094B18684DF064
:10174000BDFD084B00221A7003B0F0BD06490748E2
:1017500014F0EAFFF0E700BFCCAB0608202300201E
:101760005C4200205590002014AD060880AB0608AE
:1017700038B504460F49A1F1280059F02FF978B186
:101780000D4D042128684DF099FD022128684DF087
:1017900095FD012128684DF0D1FD62682AB938BD58
:1017A0000649074814F0C0FFEAE70649064814F066
:1017B000BBFFF4E74C4200205C42002024420020A2
:1017C000DCAB0608F0AC060880AB060808B541683B
:1017D000014814F0A9FF08BD04AC060810B5044682
:1017E0008068C0B2084B187000F096F920B101462D
:1017F000A268064814F098FF626802B910BD044957
:10180000044814F091FFF9E75590002030AC060829
:10181000D0AC060880AB0608426802B9704708B52C
:101820000249034814F080FF08BD00BFB4AC0608AD
:1018300080AB0608426802B9704708B50249034800
:1018400014F072FF08BD00BF90AC060880AB06081C
:1018500008B50D4803F0E0F90C4B186030B10C48A6
:1018600003F094F90B4B186038B108BD0A4B0B4AD2
:1018700040F29F110A484CF043FA0A4B074A4FF4D2
:10188000D17107484CF03CFAACAD0608B0420020DC
:101890009CAD06085C42002048AC060878AC0608FF
:1018A00094AA060860AC060808B54FF0FF31064B55
:1018B00018684DF0D6FD00B908BD044B044A40F24B
:1018C0007D1104484CF01CFAB44200202CAE0608EE
:1018D00000AF0608C4AD060808B5064B18684DF001
:1018E000F7FD00B908BD044B044A40F283110448D7
:1018F0004CF006FAB44200206CAE0608DCAE0608D6
:10190000C4AD060810B50E4803F086F90D4B1860FB
:1019100008B1002411E00C4B0C4ADC210C484CF0BF
:10192000EFF904EB4400C00008300A4B18440121D1
:10193000043000F011F90134A4B20E2CF1D910BD1D
:1019400054AF0608B4420020A0AE060820AF060837
:10195000C4AD06081810002070B5054680784DF01B
:1019600030FA0446FFF7A0FFB4F1FF3F15D004EBB7
:101970004403104E06EBC306736828469847B368C5
:101980000BB12846984704EB44020A4B03EBC20311
:101990001B693BB9FFF7A0FF70BDA978064814F09A
:1019A000C3FEF7E7D0000830024B184404304DF076
:1019B000DDFAEFE718100020C4AE060810B402EB01
:1019C000010C5358DCF804404BB1581844602360B4
:1019D000044B5350CCF804305DF8044B704744601E
:1019E000F5E700BFEFBEADDE2DE9F8430E46024637
:1019F00000270124FF2507E01346ACEB0702A242B3
:101A00001BD8674601371A46072F1AD8134613F812
:101A1000021B527852EA0122F4D107F1010CBCF109
:101A2000070FEAD81A4612F8021B5B7853EA012323
:101A3000E2D10CF1010C1346F1E714463D4667462E
:101A4000E0E737464FF000080BE0B8F1000F02D195
:101A50003A2307F8013B3A2307F8013B00EB440027
:101A6000A044B8F1070F18D84545EED0814619F8C3
:101A7000022B437808F1010843EA0222094938465B
:101A800014F068FE0744B8F1080F04D03A2307F8B1
:101A9000013B4846E5E74846E3E700233B70B81BB7
:101AA000BDE8F88364AF060870B584B000230093E6
:101AB000019302930393802902D9002004B070BDE2
:101AC0000D4616460A46014668464DF00DFA314667
:101AD0006846FFF789FF34182A460349204614F068
:101AE00039FE2044801BE9E768AF060838B560B1CD
:101AF000054628204DF032FA044648B101462846F2
:101B0000FFF772FF10B9034C00E0024C204638BDCD
:101B1000004CFBE76CAF060808B5014601484DF0E4
:101B200014FA08BD0CB1060830B585B00446202073
:101B30004DF014FA054650B1A37AE27A217B029166
:101B4000019200932389034A202114F019FE2846AC
:101B500005B030BD70AF060858B110B5044600237B
:101B600043608160054803F011F8206018B100203F
:101B700010BD012070470120FAE700BFFCB0060845
:101B80002DE9F04180460F4601F109050026344653
:101B900004E05B21082000F04DFA0134AC4233D25E
:101BA000052C1BD801A353F824F000BF931B000899
:101BB000C51B0008F91B0008CD1B0008D11B00083D
:101BC000D51B0008FBB20433D9B2E3E78021E1E77B
:101BD0000021DFE7731C3146DEB2DBE7BB1DA34209
:101BE0000CD0FB1DA3420BD007F10803A34209D080
:101BF000A31F18F80310CDE7D121CBE75A21C9E77D
:101C00005A21C7E75D21C5E70020BDE8F08100BF8C
:101C100000B583B002218DF80010002205484DF078
:101C2000C5F9019008216846FFF7AAFF03B05DF8E7
:101C300004FB00BF00D4300008B50448044A121A5F
:101C4000921004494DF0D8F908BD00BFA41408084B
:101C5000A41408082899002008B500F02FF8FFF711
:101C6000EBFF124A0AE01068516850F8230041F86F
:101C70002300013391688B42F5D30C320C4B9A420E
:101C800001D20023F6E70B4A08E01168002041F872
:101C90002300013351688B42F7D30832064B9A4236
:101CA00001D20023F6E7FFF705F900BF8801080815
:101CB00094010808940108089401080810B4144B12
:101CC000144A9A60D3F8882042F47002C3F888203E
:101CD000114A4FF480419166104901F500524FF0CE
:101CE000FF3010660E4850660220C3F8D000BFF3E4
:101CF0004F8FBFF36F8F0B480124C0F880414FF422
:101D00004033D36004600B615DF8044B704700BF43
:101D100000ED00E00000000800900050008000444A
:101D20007FFF7F0300E100E0014B1868704700BFB0
:101D30008411002008B5094B1B6F03F00703022B29
:101D400004D0032B05D0012B06D0FEE7FFF7ECFFF4
:101D500003E0034B186800E0024808BD0080005013
:101D60008C110020002D310108B5FFF7E3FF054B72
:101D70001B6FC3F303330133B0FBF3F0024B186066
:101D800008BD00BF0080005080110020004870474F
:101D900000B4C404014B1868704700BF8C110020C8
:101DA00008B5064B1860064B1B6F03F00703032BA7
:101DB00000D008BDFFF7D8FFFBE700BF8C11002063
:101DC0000080005000487047002D31014FF0B443AF
:101DD0009868C0F304400C2808D8DFE800F0090731
:101DE0000707070722181A071C1E2000002070474B
:101DF0004FF0B4439B6803F04073B3F1807F12D07F
:101E0000B3F1007F11D003B170470948704709480A
:101E100070470948704709487047094870470948A2
:101E2000704709487047094870470948ECE700BF08
:101E300000093D000024F400C0EA210180BA8C01B1
:101E40000048E801005A6202405DC60080841E001E
:101E500040420F00014B1868704700BF88110020F6
:101E600038B504460D4621B118B123682B602560B2
:101E700038BD372101484DF0D3F8F6E744B10608E4
:101E800038B504460D4601B128B9452105484DF045
:101E9000C7F800E01C462368002BFBD12B602560AF
:101EA00038BD00BF44B1060810B5044630B1206803
:101EB00018B1036823600023036010BD5621024857
:101EC0004DF0AEF8F3E700BF44B1060838B504465C
:101ED0000D4601B128B9782109484DF0A1F800E07C
:101EE0001C46236823B1AB42FAD12B68236038BD6E
:101EF000002CFCD1812102484DF092F8F7E700BF99
:101F000044B106080346064A10680344054A934252
:101F100002D8034A136070474FF0FF30704700BF8C
:101F2000901100200000042008B501213A2000F0A3
:101F300003FF012304220321002002F0B7F900204F
:101F40004DF089F9334B0122C3F84424A3F55033F3
:101F50004FF400225A66304BD3F8FC2012F0807206
:101F600006D01946D3F8FC3023F08073C1F8FC305A
:101F70002A49D1F8803023F0030343F00203C1F86B
:101F8000803032B1244AD2F8FC3043F08073C2F87A
:101F9000FC304FF4607000F0F5FE1F4BD3F8F020DA
:101FA00042F00102C3F8F020D3F8FC2042F0807226
:101FB000C3F8FC20A3F55D43194A1A6000F5D5204B
:101FC00000F2FC40C008174BA3FB0030800A013828
:101FD000154B18610222C3F8F0204FF48072C3F849
:101FE00004234FF06043114AC3F8B02F104AC3F8DE
:101FF000802ED3F8002E42F48072C3F8002EFF2208
:1020000083F82020D3F8002E22F48072C3F8002E2B
:10201000002008BD00D0035000ED00E0008000501B
:10202000FF03004017916502000004E055CEACC5E7
:10203000090001004FF06043D3F8803E13F0010F18
:1020400001D1112070470E4AD2F8FC3043F0807362
:10205000C2F8FC304FF06043D3F8002E4FF0010C73
:102060000CFA00FC42EA0C02C3F8002E53F82030B0
:10207000002BE8D04FF0604303F820100020704799
:1020800000ED00E0F0B585B00C4694469DF83410A4
:10209000664A1278002A00F0BD800546BCF1070FA1
:1020A00000F2BA800A9A002A00F0B8800B9A002A3F
:1020B00000F0B6800E9AB2F5006F00F3B3800128ED
:1020C0005BD05B4A02EB0C12127B002A00F0AC8062
:1020D00000220092019202920392564A02EB4C1E99
:1020E000002C4FD14FEA4C1600209051CEF804003E
:1020F000CEF80800CEF80C009EF8020040F0100068
:102100008EF802009EF8030040F030008EF80300C5
:1021100021B9C1B241F003018EF8031000930E9B68
:10212000013B444A4FEA4C1002EB4C11165A63F340
:102130000E1616520A9B8B600B9B4B60CB789DF85A
:102140003C2062F38303CB70012D36D0109B002B13
:1021500056D0374A4FEA0C1102EB0C13109850502E
:10216000119A5A6000249C605D737246694660460D
:1021700002F092F9204605B0F0BD0C9A002AA0D1D9
:102180002D48F8E72B4F4FEA4C1607EB4C12002076
:10219000B85150609060D060907840F0100090701E
:1021A000D07840F00300D0700029B7D107EB4C1273
:1021B000C1B241F03001D170B0E70E460A7B42F067
:1021C00001020A73D2B242F002020A73CA68042101
:1021D00061F39F02F26006F1100796E80F0087E8AE
:1021E0000F00F2696FF0030161F39F02F2610C9B33
:1021F0007361012CAAD10B9AB2610C9A7260A5E7A7
:10220000002DA6D10B4B03EB4C139A786FF30412FD
:102210009A709EE70948AEE70748ACE70648AAE788
:102220000548A8E70448A6E70548A4E7569000201B
:10223000B8430020B8420020018000F0028000F086
:10224000078000F0134B1B78FBB110B50446F0B1CA
:102250004CF0C3FF0023072B13D80F4A02EB0312E5
:10226000127B0AB10133F6E723600B4A190102EB36
:10227000031301241C73002454504CF0B4FF204677
:1022800002E04CF0B0FF054810BD05487047054816
:10229000FAE700BF56900020B8430020048000F009
:1022A000028000F0018000F038B54CF096FF044643
:1022B0000023072B06DC0C4A02EB0312127B12B937
:1022C0000133F6E7002222B120464CF08CFF07488C
:1022D00038BD02F05FF80025054B1D7020464CF01C
:1022E00082FF2846F4E700BFB8430020058000F0D5
:1022F000569000200F4B1B78BBB110B50446072841
:1023000015D84CF06AFF0C4B03EB04131B7B1BB975
:102310004CF069FF09480BE0074B03EB0413002462
:102320001C734CF060FF204602E0054870470548EA
:1023300010BD00BF56900020B8430020068000F07A
:10234000028000F0018000F000B583B0134B1B68E1
:10235000019300238DF804304CF03FFF104B1B78A5
:1023600033B90F4B01221A704CF03DFF002309E0F6
:102370004CF039FF0B480EE00B4A02EB0312002130
:1023800011730133072BF7DD08238DF8073001A8FF
:1023900002F034F8002003B05DF804FB94B10608A5
:1023A00056900020038000F0B843002008B50A4B87
:1023B0001B785BB107280BD8084B03EB00131B7B82
:1023C00043B1002102F004F8002008BD0448FCE7F6
:1023D0000448FAE70448F8E756900020B843002084
:1023E000028000F0018000F0078000F008B50A4B81
:1023F0001B785BB107280BD8084B03EB00131B7B42
:1024000043B1012101F0E4FF002008BD0448FCE7CE
:102410000448FAE70448F8E756900020B843002043
:10242000028000F0018000F0078000F008B50A4B40
:102430001B7853B107280AD8084B03EB00131B7B0A
:102440003BB102F0AFF8002008BD0548FCE70548A5
:10245000FAE70548F8E700BF56900020B84300208F
:10246000028000F0018000F0078000F0104B1B7824
:10247000ABB1072815D8B1B10E4B03EB00131B7B92
:102480009BB10D4B1B6D0122824013EA020003D069
:1024900001230B700020704700230B707047074822
:1024A000704707487047064870470648704700BFA6
:1024B00056900020B843002000000450028000F035
:1024C000018000F0078000F00C4B1B7873B110B551
:1024D0000C4607280CD869B1094B03EB00131B7B92
:1024E00053B102F07BF82070002010BD0548704702
:1024F0000548FAE70448F8E70448F6E75690002054
:10250000B8430020028000F0018000F0078000F056
:10251000F8B5194B1F6D5B6D1F4002D401250024D7
:1025200002E0FEE701346D00072C24D83D42F9D0CB
:10253000124B1D652301124AD358002BF2D002EB37
:102540000416B1680131B16072682046984780F086
:102550000100C0B2737B012BE4D10028E2D0094B0B
:1025600003EB44131A7B6FF341021A731A7F6FF364
:1025700041021A77D6E7F8BD00000450002004504D
:10258000B8430020B842002008B5034B1968034B3C
:10259000186815F0B1FA08BD94110020B41100209C
:1025A000B0F1FF3F01D010B97047024870470248B0
:1025B000704700BF21E000F024E000F0F8B50546C8
:1025C0000E469400224667F067FEFFF7E9FF0746D4
:1025D00028B922463146284667F089FB08B93846B3
:1025E000F8BD014FFBE700BF10E000F038B504462E
:1025F00067F056FEFFF7D4FF054608B1284638BD00
:1026000002F082F9014620464CF059FD0028F5D130
:10261000004DF3E70EE000F008B54CF0D7FD014B9C
:10262000186008BD284B002008B5024B18684CF014
:10263000D1FD08BD284B0020024B4FF480321A67B1
:10264000704700BF0090005070B504460D46164616
:102650001F2906D856B104F580540123AB402360EE
:1026600070BD912103484CF0DBFCF3E704F5005406
:10267000F3E700BFBCB1060838B505460C46114B60
:10268000D3F8803003F00303022B13D0032B15D0B3
:10269000012B07D041F2DF110B484CF0C1FC0023A5
:1026A000184602E0FFF746FB0D2305B1286004B190
:1026B000236038BDFFF78AFB0723F6E7FFF734FBFB
:1026C0000623F2E70080005008B2060838B5054638
:1026D0000C46194BD3F8200100F0070006281DD83E
:1026E000DFE800F0240408100C141800FFF71CFBAE
:1026F00005231CE0FFF74EFB032318E0FFF766FB02
:10270000072314E0FFF75EFB022310E0FFF70CFB4A
:1027100006230CE0FFF73EFB042308E041F25C21B6
:1027200006484CF07DFC0023184600E0012305B16B
:10273000286004B1236038BD0080005008B206084C
:1027400038B505460C46184BD3F8283103F007037B
:10275000013B052B20D8DFE803F003131B0F0B17F9
:10276000FFF7E2FA052305B1286004B1236038BD04
:10277000FFF7DAFA0623F6E7FFF728FB0723F2E76D
:10278000FFF708FB0323EEE7FFF704FB0423EAE768
:10279000FFF718FB0223E6E741F2640103484CF01F
:1027A0003FFC00231846DEE70080005008B2060810
:1027B00070B582B006460D4600230193134BD3F843
:1027C000804104F00304022C1BD0032C14D0012CF4
:1027D00006D041F2B1310E484CF022FC002404E056
:1027E000002101A8FFF772FF0F240EB1019B336097
:1027F00005B12C6002B070BDFFF7E8FA0190072424
:10280000F3E7FFF7DFFA0190EFE700BF0080005029
:1028100008B2060838B505460C460E4BD3F8903280
:1028200003F00303012B09D0022B0BD1FFF7CEFAE3
:10283000072305B1286004B1236038BDFFF7C2FA51
:102840000223F6E741F2501103484CF0E9FB002364
:102850001846EEE70080005008B2060830B583B095
:1028600005460C4600230193174BD3F8203203F0A2
:102870000703042B19D8DFE803F01F03090E130028
:10288000002101A8FFF75CFF112316E0FFF79EFA75
:102890000190072311E04CF0BDFB01900A230CE0EE
:1028A000FFF7D8FA0190092307E041F22301074816
:1028B0004CF0B6FB002300E001230DB1019A2A6021
:1028C00004B1236003B030BD0080005008B2060898
:1028D00038B505460C46124BD3F8400100F0030012
:1028E00003280FD8DFE800F01602060A4CF092FB2E
:1028F0000A2310E0FFF7AEFA09230CE04CF08DFB41
:102900000B2308E041F28E2106484CF089FB00239E
:10291000184600E0012305B1286004B1236038BDEA
:102920000080005008B2060830B583B005460C465A
:1029300000230193174BD3F8603203F00703013BE8
:10294000032B1FD8DFE803F0020E1914002101A8A1
:10295000FFF7BCFE0F230DB1019A2A6004B123607A
:1029600003B030BD002101A8FFF7B2FF1023F2E74A
:10297000FFF72CFA01900723EDE7FFF723FA019008
:102980000223E8E741F2C80103484CF049FB002369
:10299000E1E700BF0080005008B2060830B583B000
:1029A00005460C46002301930E4BD3F8703203F01A
:1029B0000303012B08D0022B0CD041F226110A4848
:1029C0004CF02EFB002306E0002101A8FFF780FF5A
:1029D000102300E014230DB1019A2A6004B1236092
:1029E00003B030BD0080005008B2060838B5054677
:1029F0000C46154BD3F8000200F00700042815D848
:102A0000DFE800F01C03070B0F004CF003FB0A2368
:102A100015E0FFF71FFA092311E04CF0FEFA0B2333
:102A20000DE0FFF7A1F9800A0E2308E041F26F41A3
:102A300006484CF0F5FA0023184600E0012305B1E2
:102A4000286004B1236038BD0080005008B2060839
:102A500038B505460C46154BD3F8080200F00700C0
:102A6000042815D8DFE800F01C03070B0F004CF01A
:102A7000D1FA0A2315E0FFF7EDF9092311E04CF034
:102A8000CCFA0B230DE0FFF76FF9800A0E2308E064
:102A900041F2A74106484CF0C3FA0023184600E073
:102AA000012305B1286004B1236038BD00800050C7
:102AB00008B2060838B505460C46124BD3F840025A
:102AC00000F0030003280FD8DFE800F01602060A22
:102AD0004CF0A0FA0A2310E0FFF7BCF909230CE040
:102AE0004CF09BFA0B2308E041F22E4106484CF0D3
:102AF00097FA0023184600E0012305B1286004B1CD
:102B0000236038BD0080005008B2060838B505467D
:102B10000C46114BD3F8503203F00303022B17D0AD
:102B2000032B09D0012B0FD041F294010B484CF03C
:102B300077FA0023184602E04CF06FFA0B2305B138
:102B4000286004B1236038BD4CF064FA0A23F6E72C
:102B5000FFF780F90923F2E70080005008B2060869
:102B600038B505460C46124BD3F8600100F003005F
:102B700003280FD8DFE800F01602060A4CF04AFAE4
:102B80000A2310E0FFF766F909230CE04CF045FA40
:102B90000B2308E04FF4965106484CF041FA00230D
:102BA000184600E0012305B1286004B1236038BD58
:102BB0000080005008B2060838B505460C46124B96
:102BC000D3F8000100F0030003280FD8DFE800F07D
:102BD0001602060AFFF7DEF8032310E0FFF73AF9C2
:102BE00009230CE04CF014FA082308E041F2152107
:102BF00006484CF015FA0023184600E0012305B101
:102C0000286004B1236038BD0080005008B2060877
:102C1000F8B505460F4614464CF0D8FA064645B1BD
:102C20002B685C403C405C402C6030464CF0D2FA53
:102C3000F8BD4FF49C7102484CF0F2F9F0E700BF88
:102C4000BCB1060810B5B0F5207F2FD01DD8B0F567
:102C5000007F25D02FD810B1B0F5C07F13D1174B0E
:102C60001C6F230BC4F3033413F00E0F24D048F26F
:102C70008803E34013F0010F1ED140F28521104874
:102C80004CF0CEF918E0002416E0B0F5607F05D1D5
:102C90000A4BD3F88040C4F301140DE000240BE08C
:102CA000064BD3F89040C4F3046405E0034B1C6F5B
:102CB000C4F3802400E00024601C10BD008000509C
:102CC00008B2060838B505460C46174B4FF480325B
:102CD0009A660020FFF7B6FF05FB00F0134BDA6998
:102CE00002F4803241F67131D9635B6823F44013FA
:102CF0006CB90F49884207D800210B430B494B6040
:102D00000AB10022CA6338BD4FF48011F5E7002CE8
:102D100007DD0849884201D80021EEE74FF4801111
:102D2000EBE74FF44011E8E700900050000003503B
:102D3000005A6202002D310138B504460D464309A0
:102D400005D0012B16D0022B0DD10B4805E040F227
:102D50002F310A484CF064F900202A4604F01F0184
:102D6000FFF772FC38BD40F23D3104484CF058F991
:102D70000020F2E70248F0E76880005008B2060839
:102D80006480005010B582B0002301930093B0F529
:102D9000807F00F20781B0F5807F00F27581DFE867
:102DA00010F04C017301730173017301730173011E
:102DB0007301730173017301730173017301730173
:102DC0007301730173017301730173017301730163
:102DD0007301730173017301730173017301730153
:102DE00073014C018A014C018A01A201A201A201D6
:102DF000A201A2018A01A7013D01B10123013D0108
:102E00008A018A018A0173017301730173017301DD
:102E100073017301B1018A018A018A01C501B601FA
:102E20008A017301730173017301730173017301EB
:102E300073017301730173017301BB01A2014C01A2
:102E40004C014C016D013D013D016201C001560183
:102E50007F017F0173017301730173014C017301E1
:102E600073017301730173017301730173017301C2
:102E700073017301730173017301730173017301B2
:102E800073017301730173017301730173017301A2
:102E90007301730173017301730173017301730192
:102EA0007301840173017301730173017301730171
:102EB0007301730173017301730173017301730172
:102EC0007301730173017301730173017301730162
:102ED0007301730173017301730173017301730152
:102EE0007301730173017301730173017301730142
:102EF0007301730173017301730173017301730132
:102F00007301730173017301730173017301730121
:102F10007301730173017301730173017301730111
:102F20007301730173017301730173017301730101
:102F300073017301730173017301730173017301F1
:102F400073017301730173017301730173017301E1
:102F500073017301730173017301730173017301D1
:102F600073017301730173017301730173017301C1
:102F700073017301730173017301730173017301B1
:102F800073017301730173017301730173017301A1
:102F90007301730173017301730173017301730191
:102FA0007301AC01B0F5E06F00F0B1800CD9B0F561
:102FB000286F00F0B6804FD9B0F5306F63D1002193
:102FC00001A8FFF727FC73E0B0F5607F7ED010D931
:102FD000B0F5B06F00F08C8033D9B0F5C06F00F061
:102FE0009180B0F5D06F4FD1002101A8FFF7FEFC12
:102FF0005EE0B0F5007F0AD1FEF79CFE04464FF478
:103000000070FFF71FFEB4FBF0F4019450E011D9FB
:10301000B0F5207F4FD0B0F5407F35D1FEF7A4FE4C
:1030200004464FF42070FFF70DFEB4FBF0F4640883
:1030300001943DE0B0F5C07F26D1FEF795FE0190EA
:1030400036E0B0F5806F4ED0B0F5A06F1CD10021F6
:1030500001A8FFF703FC2BE0B0F5186F5CD007D98F
:10306000B0F5206F10D1002101A8FFF75DFC1FE033
:10307000B0F5F06F5AD0B0F5106F05D1002101A85E
:10308000FFF7E6FC14E005D240F294412A484BF0E9
:10309000C7FF0DE0B0F5386F34D0B0F5406FF3D115
:1030A000002101A8FFF74CFB02E0FEF743FE019070
:1030B000019802B010BDFEF757FE04464FF4207091
:1030C000FFF7C0FDB4FBF0F40194F1E7002168467E
:1030D000FFF7D2FA009C4FF46070FFF7B3FDB4FB2A
:1030E000F0F40194E4E7002101A8FFF7EFFADFE72D
:1030F000002101A8FFF75CFBDAE7002101A84CF0F2
:1031000022F8D5E7002101A8FFF7E2FBD0E7002174
:1031100001A8FFF7CFFCCBE7002101A8FFF7F6FCE1
:10312000C6E7002101A8FFF739FCC1E7002101A88B
:10313000FFF716FDBCE700BF08B2060808B58020FF
:10314000FFF720FE034B984203D8034B4FF4803225
:103150001A6708BD005A620200A0005000B583B093
:1031600000230193B0F5607F00F0C88042D880282A
:1031700037D82428C0F0DB8024385C2800F2D780C0
:10318000DFE800F06969696969D55ED5B271D5D5A6
:10319000D5D5D5D5D5D5D5D5D5B2D5D5D553C6D593
:1031A000D5D5D5D5D5D5D5D5D5D5D5D5CB69D5D545
:1031B000D584D5D57CD0C19090D5D5D5D5D5D5D50C
:1031C000D5D5D5D5D5D5D5D5D5D5D5D5D5D5D5D5AF
:1031D000D5D5D5D5D5D5D5D5D5D5D5D5D5D5D5D59F
:1031E0009500B0F5807F40F0A28001A900204BF04F
:1031F000AAFF29E0B0F5086F7BD00CD9B0F5286F95
:1032000000F0908034D9B0F5306F44D101A900208E
:10321000FFF700FB18E0B0F5C06F65D00AD9B0F534
:10322000E06F75D0B0F5F06F1AD101A90020FFF75B
:1032300097FC09E0B0F5A06F65D0B0F5B06F07D18D
:1032400001A90020FFF7B4FA019803B05DF804FB70
:10325000B0F5806F6BD101A90020FFF737FAF3E7D3
:10326000B0F5D06F63D101A90020FFF7BFFBEBE7FA
:10327000B0F5186F51D0B0F5206F04D101A900202E
:10328000FFF752FBE0E7B0F5106F50D101A9002025
:10329000FFF7DEFBD8E74AD3B0F5386F24D0B0F59E
:1032A000406F44D101A90020FFF74AFACCE7234B35
:1032B0001B6F03F00703013B032B0FD8DFE803F07C
:1032C0000B02050805230193BEE703230193BBE727
:1032D00008230193B8E702230193B5E740F2C64102
:1032E00017484BF09DFEAFE701A90020FFF7F0FA69
:1032F000AAE701A90020FFF75FFCA5E701A90020CC
:10330000FFF7BAF9A0E701A90020FFF7A7FA9BE7AA
:1033100001A90020FFF7CEFB96E701A90020FFF7E7
:10332000F5FB91E701A90020FFF738FB8CE740F29D
:10333000795103484BF074FE86E700BF00800050CF
:1033400008B20608044B4FF480125A66034B4FF440
:1033500080329A62704700BF009000500050005ABF
:1033600038B5044603680F2B00F2C18063680F2B49
:1033700000F2C380A3680F2B00F2C580237B0F2BC4
:1033800000F2C780637B0F2B00F2C980A37B3F2B29
:1033900000F2CB80E37B3F2B00F2CD802369032B2F
:1033A00000F2CF806369032B00F2D180E369032B25
:1033B00000F2D3808020FFF7D1FE032800F0F380D5
:1033C0007F4B4FF480125A667E4B45F60E02C3F8CF
:1033D000802003F580524FF0A061916203F5005305
:1033E0004FF480329A62774B9B6D13F4803FFAD191
:1033F000744B9B6D13F0804FFAD1226863681B05F4
:1034000043EA0263227B43EA0243627B43EA0233DC
:10341000A27B43EA8213E27B13436A4D2B61AB69C3
:1034200003F00043226943EA8263626943EA02636C
:10343000227E43EA0243627E43EA0223A27E1343D2
:10344000AB614FF400624FF440615F48FFF7E0FB6F
:103450002B6A23F00F03E269002A40F084801146B2
:103460000B43E17E43EA81031A43564B1A62E36938
:10347000002B7AD1534A916A544B0B4094F8201098
:1034800043EA411394F8211043EA011394F82410FD
:1034900043EAC10343F4803393624A4B9A6D4C4B29
:1034A0009343FAD1474A02F580514FF080738B6203
:1034B000136923F47003A06843EA005313614FF0CB
:1034C00000438B6194F822301BB9424B4FF080725D
:1034D0009A6294F82330002B5ED13E4B4FF4803239
:1034E0009A62384B9B6D13F0804FFAD154E040F64E
:1034F0006D3139484BF094FD38E74FF43761364869
:103500004BF08EFD36E740F6733133484BF088FDC3
:1035100034E740F6763130484BF082FD32E740F632
:1035200079312D484BF07CFD30E740F67C312A485C
:103530004BF076FD2EE740F67F3127484BF070FDCB
:103540002CE740F6823124484BF06AFD2AE740F62A
:10355000853121484BF064FD28E740F688311E484C
:103560004BF05EFD26E708217AE7022B1CD0154AB6
:10357000916A164B0B4094F8201043EA411394F8DB
:10358000221043EA016394F8241043EAC10394F83B
:10359000231043EA0143936294F825301BB1094B91
:1035A0000E4AC3F8802038BD064B00221A619A618A
:1035B0004FF408524FF47F410948FFF729FBD6E743
:1035C000009000500040005A3840005AC7FFFEFEED
:1035D000030001000060005A08B20608F1A7FFFFCF
:1035E0003440005A014B93F9000070477E160020CA
:1035F00010B504464368072B46D8A368032B49D867
:103600002378032B4CD894F90130002B4EDB6378E0
:103610004F2B28BF4F231A46274B4FF40001596602
:1036200003F5B8334FF4D151596203F580510220AC
:10363000486003F5005301215960204B1B6913F4C6
:10364000803FFAD1237842EA03231C4A5361616820
:10365000A3681B0143EA0123217B43EA4103617B09
:103660000B439360A17BE37B1B0143EA4113217C65
:1036700043EA4103617C0B435360A37C1BB11346B7
:103680006FF4D1525A6210BD40F6B3510C484BF062
:10369000C7FCB2E740F6B55109484BF0C1FCAFE7B3
:1036A00040F6B75106484BF0BBFCACE740F6B951C9
:1036B00003484BF0B5FCAAE7009000500000025010
:1036C00008B20608014B1880704700BFA6150020FD
:1036D000014B1880704700BFA415002038B5B0F525
:1036E000207F7BD03BD8B0F5007F64D000F287808C
:1036F00018B1B0F5C07F40F082804C1E012C0BD970
:10370000102904D8414BCB4013F0010F04D140F2F3
:10371000C7213F484BF084FC4BF033FD4BF043FD99
:10372000FEF78AFF3B4A136F23F4704343EA0433E6
:103730001367FEF719FB384BD3F8843013F0100FE2
:10374000F9D1354BD3F88410C1F38111C1F10201D5
:103750004BF01EFD00F064F8FFF7F0FC38BDB0F54B
:10376000607F4CD12D4BD3F8FC5015F0807506D0FE
:103770001A46D3F8FC3023F08073C2F8FC304C1E9C
:10378000032C12D8234AD2F8803023F0300343EAC6
:103790000413C2F88030002DE0D0204AD2F8FC306B
:1037A00043F08073C2F8FC30D8E740F2F2211848A9
:1037B0004BF036FCE6E74C1E1F2C09D8154AD2F810
:1037C000903023F0F85343EA0463C2F89030C5E721
:1037D00040F206310E484BF023FCEFE74C1E012C63
:1037E00007D80C4A136F23F4806343EA84231367DA
:1037F000B4E74FF4437106484BF012FCF1E740F296
:10380000123103484BF00CFCA8E700BF1001010087
:1038100008B20608008000500040005000ED00E0B3
:1038200008B54FF4C070FFF7ADFA054B984205D9C3
:1038300002214FF42070FFF751FF08BD0121F8E786
:1038400080F0FA0208B5FEF78FFA0C4BD3F88430FB
:1038500013F0100FF9D1094BD3F88410C1F3811183
:10386000C1F102014BF094FC0121002000F078F836
:10387000FFF7D6FFFFF762FC08BD00BF0040005015
:10388000034B5868C0F30800003818BF0120704788
:1038900000ED00E0034AD36E23F0300301790B43BF
:1038A000D366704700400050F8B50446294BD3F862
:1038B000843013F0100FF9D1264BD3F88430C3F3C2
:1038C00081139C423FD0FEF735FA0646012C27D0E3
:1038D0004BF07CFC05461F4F07F500534FF000727C
:1038E0005A6620464BF091FC621E4FF48063934071
:1038F0003B67184B5B6E13F0007F1FD1154BD3F85D
:10390000843013F0200F19D1124BD3F8843013F008
:10391000200FEED04FF4F4610F484BF081FBE8E745
:103920000E4B984204D8012130464BF031FCCFE7D2
:1039300040F2927108484BF073FBF4E728464BF0D5
:1039400049FC022C00D0F8BD002130464BF020FC91
:10395000F9E700BF0040005054B20608005A620266
:1039600010B50C46034650B1094A127812B1094A03
:10397000934208D921460220FFF796FF10BDFEF7BB
:10398000D9F90346F0E721460120FFF78DFFF5E75F
:103990002C4B0020005A620238B52F4B4FF00042EA
:1039A0005A6603F50B235C6C04F001044AF6CD3231
:1039B0001A64E8B9294B5B6B13F00103FAD1274A6B
:1039C000556815F0010539D002F50052012151600A
:1039D0001A462249096B11F0010F04D120498A428D
:1039E00001D80132F5E71E498A422FD81D4625E04D
:1039F00000231A4A126B12F0080F04D0184A93429F
:103A000001D80133F5E7164A934221D8134B03F549
:103A100000522021916203F5805301225A60002355
:103A200000E001330D4A926A12F0200F02D10C4AD5
:103A30009342F6D90A4A93420CD8002514B1074B99
:103A4000084A1A6456F02BFE284638BD0725F5E7CC
:103A50000725F3E70725F1E70090005000400950E3
:103A60003F420F003254FFFF10B51A4B4FF0004297
:103A70005A6603F50B235C6C04F001044AF6CD3260
:103A80001A6443785B0043F00103134AD363134B7A
:103A90005B6B13F00B0FFAD1104A536823F4F873E1
:103AA000817843EA01135360C178437943EA0123E3
:103AB00093600179837943EA012313610078FFF76A
:103AC0006BFF14B1054B064A1A6456F0E8FD01205D
:103AD00010BD00BF00900050004000500040095051
:103AE0003254FFFF10B50F2825D8164B5C6E03F536
:103AF00080534FF000425A6603F50B235A6C02F0D4
:103B000001024AF6CD3119640F4B5B6B13F0800F45
:103B1000FAD10D490B6A23F00F0303430B620AB17C
:103B20000A4A0A64002C03DB094B4FF000425A6634
:103B300056F0B5FD10BD40F6396106484BF070FAFD
:103B40000F20D2E700800050004009503254FFFFA0
:103B500000A0005054B2060810B5134B5C6E03F57C
:103B600080534FF000425A6603F50B235A6C02F063
:103B700001024AF6CD3119640C4B5B6B13F0800FD8
:103B8000FAD10A490B6A23F4F85343EA00230B6283
:103B90000AB1074A0A64002C03DB064B4FF00042CF
:103BA0005A6656F07CFD10BD008000500040095060
:103BB0003254FFFF00A0005008B50B4B98420DD0C7
:103BC0000A4B98420CD003F5804398420AD040F249
:103BD000763107484BF024FA002008BD5620FCE758
:103BE0005720FAE75820F8E70000015B00000A5070
:103BF000A0B2060810B504464BF008FB2023236151
:103C00000023E360A36041F202026261A3614FF40A
:103C1000A0226262E3612362A362E36263632365BD
:103C200004F500520149D164236310BDFF3F0D0329
:103C300038B504460D46194B98420BD0184B9842A4
:103C400008D003F58043984204D04FF4B37115486F
:103C50004BF0E6F9F5B104F5805301225A6005F006
:103C60000F02636DC3F30B03002BFAD1A263636DE4
:103C700013F07803FBD115F0010F00D0012315F0EC
:103C8000040F01D043F00203A26C02F003029A4237
:103C9000FAD138BD20464BF0B9FAFAE70000015BD3
:103CA00000000A50A0B20608F8B504460D461746B3
:103CB0008AB36F4B9C420BD06E4B9C4208D003F5ED
:103CC00080439C4204D040F227216B484BF0A8F976
:103CD0003DB3A36813F0010F52D0BD4228D36668EC
:103CE00006F00106B5FBF7F5013DFF2D26D8002EA5
:103CF00044D0636D13F0280FFBD1A36C13F0030FB6
:103D000029D1A36C13F0010F36D1A36C13F0020F6D
:103D10001AD0062720E04FF4097157484BF080F97C
:103D2000C7E72046FFF748FFFFF72CF80546D0E726
:103D300040F2312150484BF073F9D0E740F239217D
:103D40004D484BF06DF9D2E740F246214A484BF01E
:103D500067F9002700E0052720464BF057FA236952
:103D600023F07F4343EA05632361002E43D03946A5
:103D70002046FFF75DFF3EE00927EDE70027EEE76D
:103D80006368012B0FD1A36803F0E003402B41D0FF
:103D90000FD9602B4DD0802B5ED107EB4703AB4290
:103DA00053D8012311E040F2592133484BF038F940
:103DB000E9E733B1202B4FD1B7EBD50F23D8082338
:103DC00003E0B7EB151F17D810236D0107FB03F3B2
:103DD000B5FBF3F5203DEE00284BB3EBC50F41D307
:103DE000264A3240636D13F0010FFBD12263636DED
:103DF00013F0010FFBD1F8BD40F281211E484BF0BA
:103E00000FF91023E1E740F286211B484BF008F937
:103E10000823DAE71A4BA3FB0523B7EB930F01D86E
:103E20000623D2E740F28B2113484BF0F9F8062322
:103E3000CBE7B7EB950F01D80423C6E74FF4247105
:103E40000D484BF0EDF80423BFE740F295210A48F6
:103E50004BF0E6F80123B8E740F29B2106484BF00F
:103E6000DFF8C8E740F2A62103484BF0D9F8B7E7DE
:103E70000000015B00000A50A0B20608F8FF7F00B6
:103E8000ABAAAAAA70B504460D461646436823B1EC
:103E9000636DC3F30B03002BFAD12046FFF7AAFE94
:103EA000636923F44C5323F00F036A7B1343EA89BD
:103EB00013432A8A13436361A36823F0804323F0EA
:103EC000E2032A7B13432A7E13436A691343A360E8
:103ED000AB681BB9A36843F00043A360EA69002AFA
:103EE00070D0A168694B0B40117A43EA8153917AF3
:103EF00043EA4143918801F4C0410B43517843EABE
:103F00008103517B43EAC103917B43EA0113927819
:103F100043EA8223A360E2685D4B1340EA691169BA
:103F20000B4351690B43917943EA8123D27943EAE8
:103F30004223E360EB691B78012B01D0032B03D1F3
:103F4000E36843F00403E360EB691B78023BDBB2F8
:103F5000012B51D94F4B9C426BD04F4B9C426AD0A6
:103F600003F580439C4262D04FF0FF3303F5937317
:103F70005B0103F1A04303F5703302225A60EB6941
:103F80005A7A04F580539A62EB695B7A1BB1E36855
:103F900043F40063E360EB69DB7A63B1E36843F405
:103FA0000043E3603B4B9C4247D03B4B9C424BD091
:103FB0003A4B9C424FD0636A23F00303EA69D27BF9
:103FC000134363623EB196F82030002B4AD004F5CB
:103FD000805301221A6205212046FFF729FEAA68B4
:103FE000002A4ED129782046FFF722FEA36CDB433E
:103FF00013F4405FFAD170BD264B9C4213D0264B80
:104000009C4212D003F580439C420AD04FF0FF330C
:10401000A6335B0103F1A04303F5703302225A601B
:10402000ADE70223F4E70023F2E70123F0E70223E0
:104030009CE700239AE7012398E7EB691B7B03F0D9
:104040000F03174A5366B0E7EB691B7B03F00F03BE
:10405000134A1367ACE7EB691B7B03F00F03104AAD
:10406000D367A8E7E36923F0090396F822201343F6
:1040700096F82120134343F0010304F58052D361E5
:10408000A9E769682046FFF70FFEABE7E39BBDFF9A
:10409000FFF9F0870000015B00000A5000400A5061
:1040A0000090035038B505460C46154B98420AD08F
:1040B000144B984207D003F58043984203D07021F7
:1040C00011484AF0ADFF64B1237B802B0ED0637B97
:1040D000032B10D800231A4621462846FFF7D2FEAC
:1040E00038BD722108484AF09BFFEDE7762106486B
:1040F0004AF096FFEBE7792103484AF091FFE9E7A0
:104100000000015B00000A50A0B2060838B5054661
:104110000C462D4B984203D08A212C484AF080FF50
:1041200044B3294B9D422AD00020092805D00A28F3
:1041300003D02AD31038012827D8637B032B29D832
:10414000237B802B2BD16369B3F1804F2CD1238A41
:10415000B3F5805F02D0B3F5405F2AD1A368013B7D
:10416000B3F5165F2AD200231A4621462846FFF7E8
:1041700089FE38BD8C2115484AF052FFD1E7562000
:10418000FEF7ECFF0B28D0D1D7E79E210F484AF06D
:1041900047FFD2E7AA210D484AF042FFD0E7AC2101
:1041A0000A484AF03DFFCEE7AE2108484AF038FF02
:1041B000CDE7B02105484AF033FFCFE7B2210348ED
:1041C0004AF02EFFCFE700BF0000015BA0B2060857
:1041D00038B504460D46032803D8DFE800F00B0489
:1041E0000609002308E00F2306E040F2FF3303E056
:1041F0003F2301E040F2FF73EB4013F0010F07D0C3
:104200000122AA4004EB44042401044B1A5138BD96
:104210004FF4866102484AF003FFF1E740D00350B3
:1042200068A3060838B504460D46032803D8DFE81E
:1042300000F00B040609002308E00F2306E040F21B
:10424000FF3303E03F2301E040F2FF73EB4013F044
:10425000010F07D00122AA4004EB44042401044BBF
:104260001A5138BD40F2014102484AF0D9FEF1E747
:1042700040E0035068A30608F8B505460F4614460B
:104280004AF0A4FF064645B12B685C403C405C40C8
:104290002C6030464AF09EFFF8BD4FF49C710248F6
:1042A0004AF0BEFEF0E700BFBCB10608F8B5044610
:1042B0000D4616461F46032803D8DFE800F00B041E
:1042C0000609002308E00F2306E040F2FF3303E075
:1042D0003F2301E040F2FF73EB4013F0010F1BD0CE
:1042E00026B1FFB129462046FFF772FF072D1ED8E1
:1042F000A90004EB44031B0106FA01F20F2000FAA7
:1043000001F115481844FFF7B7FF26B9FFB1294658
:104310002046FFF75DFFF8BD4FF4B0710F484AF03B
:104320007FFEDDE729462046FFF77CFFDEE7A5F1AB
:1043300008039B0004EB440C4FEA0C1C06FA03F242
:104340000F21994006486044FFF796FFDDE72946B4
:104350002046FFF767FFDEE734C00350F0B20608DF
:104360003CC0035070B504460D4616461F2906D8BA
:1043700056B104F580540123AB40236070BD9121F8
:1043800003484AF04DFEF3E704F50054F3E700BF9D
:10439000BCB1060810B50C4B4FF48002C3F8802066
:1043A000BFF34F8FBFF36F8F084B00245C65FF2274
:1043B0009A625C6021462020FEF7BEFC2146212047
:1043C000FEF7BAFC10BD00BF00E100E000000450A1
:1043D00038B504460D46072806DC85F00102214663
:1043E0000448FFF7BFFF38BD772103484AF018FEA5
:1043F000F3E700BF400004503CB3060810B5044684
:10440000002833D023781B0633F0F85333D1E378F8
:104410000F2B35D801212020FEF78EFC0121212011
:10442000FEF78AFC194B01225A60227812069A6024
:104430006178A27842EA01429A61FF229A620022E0
:104440009A631A644FF000425A6503F500534FF027
:10445000FF321A650E4A4FF48001C2F88011E378EA
:104460001B01DBB282F81633116010BD912109489F
:104470004AF0D6FDC6E7922106484AF0D1FDC6E7CC
:10448000952104484AF0CCFDC4E700BF0000045069
:1044900000E100E03CB306082DE9F04105460C467A
:1044A0009046C3B201269E40072856DC002C59D006
:1044B000236823F47C1323F00F03002B57D1A37A36
:1044C0001B0433F4403357D1E37A1B0533F48013D4
:1044D00057D1237B5B0533F4001357D12E4F07F5DB
:1044E00000531E652268AB0003F1A04303F5882347
:1044F0005A60637B05EB450207EB02121366A17A53
:10450000E37A1B0543EA0143217B43EA4153D36528
:1045100028F0030313674AF060FE7B6D33437B652D
:10452000237A0BB11D4B1E64637A0BB11B4B9E6348
:104530002379A27942EA0342174B03F500518A61BD
:104540006579E27942EA054203F58054A2614E633F
:104550009E644AF048FEBDE8F081DE2110484AF032
:104560005FFDA3E7DF210E484AF05AFDA0E7E221F4
:104570000B484AF055FDA2E7E72109484AF050FDF3
:10458000A2E7E92106484AF04BFDA2E7EB210448E7
:104590004AF046FDA2E700BF00000450001004509E
:1045A0003CB3060810B5C3B201249C4007280ADCBE
:1045B0004AF013FE074B5A6D22EA04025A659C62C8
:1045C0004AF011FE10BD40F27B1103484AF028FD6D
:1045D000EEE700BF000004503CB3060810B5C3B2BC
:1045E00001249C4007280BDC4AF0F7FD0B4BDB6AEB
:1045F00023420BD1094B5B6B9C430CD0002406E09B
:1046000040F2991106484AF00BFDEDE700244AF00C
:10461000EAFD204610BD0124F9E700BF0000045068
:104620003CB30608064B4FF480329A6603F51C3300
:1046300041F67132DA6303F500530122DA60704704
:1046400000900050074B41F67132DA6303F50052D7
:104650000121D1600022DA63A3F518334FF48032D0
:104660009A6670470000035008B5322827D8DFE863
:1046700000F01B2C2626262626262626262624263D
:1046800026262626262626262626262626262626CA
:104690002626261A1C1E20262626262626262626DE
:1046A000262626262200012008BD0220FCE7042041
:1046B000FAE70520F8E70620F6E70720F4E7B62139
:1046C00003484AF0ADFC0020EEE70320ECE700BF12
:1046D000D4B3060810B50C460C282AD00CD80128F3
:1046E0000ED101290CD002290AD049B140F207119C
:1046F00017484AF095FC03E0242803D8212803D268
:10470000204610BD3228FBD1042C0DD801A353F84C
:1047100024F000BF014700080147000801470008D6
:104720000147000801470008F62109484AF078FCD3
:10473000E6E7022907D0032907D04FF48B7104481C
:104740004AF06EFCDCE70024DAE70124D8E700BF7A
:10475000D4B3060870B50546C2F3062602F0070476
:1047600081B90B2808D844EA062242F440220635D3
:10477000104B43F8252070BD4FF4FC710E484AF0F1
:104780004FFCF0E703280ED821463046FFF7A2FF82
:1047900004463046FFF768FF44EA00241235054B13
:1047A00043F82540E7E740F2FD1103484AF038FCA2
:1047B000EAE700BF00800350D4B3060810B40C46EB
:1047C00081B90E4942EA034241F8202064B90C49FC
:1047D000D1F84836012282401343C1F848365DF8CB
:1047E000044B70470749EDE70549D1F848360C30CE
:1047F000012282401343C1F84836F0E74CC603500B
:1048000000C003507CC6035070B504460D461646E2
:104810000B2810D80B2D14D80D4A063452F824302A
:1048200023F0706323F4702343EA064343EA0563ED
:1048300042F8243070BD40F2822106484AF0F0FB75
:10484000E8E740F2832103484AF0EAFBE4E700BFCF
:1048500000800350D4B3060808B5C369032B06D8FB
:104860009A1C00EB820251600133C36108BDFA213A
:1048700001484AF0D5FBF9E720B4060808B5C2693B
:10488000042A1DD84FF098431B6C13F4801FF9D0F5
:10489000043292004FF098431A6502681A60426829
:1048A0001A6082681A600023C2699A420DD99A1C64
:1048B00000EB820251684FF0984211600133F3E738
:1048C0004FF48A7101484AF0ABFB08BD20B40608DA
:1048D000094B4FF480325A6603F5E6239B69C3F314
:1048E000461203F00F010A434280C3F303424270B1
:1048F000C3F303330370704700900050014B986C72
:10490000D96C70470080E00F034B9B680A3303F0BB
:104910001F030120984070470080E00F014B58684A
:1049200080B270470080E00F08B5FFF7F7FF0A4B31
:10493000A3FB0023C3F38F1341339BB2422B07D059
:10494000432B07D0412B01D0002008BD0420FCE7F9
:104950000520FAE70320F8E7D34D621030B586460C
:10496000049C94460AB94FF0040C9C4538BF9C4601
:10497000DEF80820CCF1000010400CF1FF351540A6
:1049800000D0654628440144C3F1000C01EA0C0C38
:104990005D1E294000D019460CEB0103DEF804101F
:1049A000891A01319A1A91420BD3CEF808300023AC
:1049B00023700B4B63604FF4E563A360094BE36026
:1049C00030BD039B0BB1521A1A6016232370044B9F
:1049D000636040F22273A360024BE3600020EFE7C4
:1049E0006CB40608CCB406082DE9F04182B00A9DEB
:1049F0004AB908232B701E4B6B604FF4D963AB6030
:104A00001C4BEB60FEE70E461C46174663B1013BAC
:104A1000234209D008232B70154B6B6040F2CB6307
:104A2000AB60144BEB60FEE74AF0D7FB8046019584
:104A3000099B0093089B224639463046FFF78EFFBC
:104A400004462B7833B940464AF0CDFB204602B0ED
:104A5000BDE8F08140464AF0C6FB16232B70044B9C
:104A60006B6040F2D763AB60024BEB600024EDE774
:104A70006CB40608E4B40608F0B585B005460C46EB
:104A800016461F466BB17CB10297002301930123A8
:104A900000930423324621462846FFF7A5FF05B0C0
:104AA000F0BD4AF0EEFBEEE7004CEDE7B811002058
:104AB00000B585B00C4B1B78012B09D0684600F07F
:104AC000B7FC9DF8003063B9002005B05DF804FB29
:104AD000FEF7D6FE10B16FF00500F6E74FF0FF309D
:104AE000F3E74FF0FF30F0E75C900020094B1B78B4
:104AF000012B01D000207047074B1B78012B04D1FC
:104B0000064B1B781BB10320704701207047022021
:104B1000704700BF5B9000205C9000205890002000
:104B200000B585B0FEF7ACFE58B9094B1B78012BD8
:104B30000AD0684600F008FC4FF0FF3005B05DF881
:104B400004FB6FF00500F9E74FF0FF30F6E700BF18
:104B50005C90002000B585B0FEF792FE70B90A4B5C
:104B60001B781BB1012005B05DF804FB684600F01E
:104B700049FB9DF8003023B90020F4E76FF00500F1
:104B8000F1E74FF0FF30EEE75890002030B585B0E8
:104B90000546FEF775FE002836D1BDB1AC68FCB104
:104BA000EB68172B32D914F0030F31D10023237493
:104BB0002968F1B1002262616B46204600F00EFECA
:104BC0009DF80030BBB9204605B030BD182049F033
:104BD000CFF804460028F6D0012303740D49E9E715
:104BE000182049F0C5F804460028ECD001230374CE
:104BF000DEE70849DEE7237C012B01D00024E2E751
:104C0000204649F0BDF8F9E70024DCE70024DAE7A4
:104C10000024D8E7FCB4060830B585B00446FEF79A
:104C20002FFE00283CD1D4B1A5680DB3E3681B2B3F
:104C300038D915F0030F37D100232B762168F9B14D
:104C40006A46284601F0E0F89DF80030D3B914B365
:104C5000636813F0010F1ED001236B761DE01C204A
:104C600049F086F80546C0B1012303760F49E7E70E
:104C70001C2049F07DF8054678B101230376DDE775
:104C80000A49DDE72B7E012B01D0002505E02846EF
:104C900049F076F8F9E700236B76284605B030BD79
:104CA0000025FAE70025F8E70025F6E74CAF0608EF
:104CB00070B584B005460E461446FEF7E1FD0028A7
:104CC00037D1002D37D0B4B1A568F5B1E368172B03
:104CD00033D915F0030F32D100232B742168E9B1C9
:104CE0006B463246284601F0C7FB9DF80030BBB941
:104CF000284604B070BD182049F03AF8054600284F
:104D0000F6D0012303740F49EAE7182049F030F880
:104D100005460028ECD001230374DFE70949DFE7EB
:104D20002B7C012B01D00025E2E7284649F028F82A
:104D3000F9E70025DCE70025DAE70025D8E70025BC
:104D4000D6E700BF08B506082DE9F04F8FB006463C
:104D50000F461446FEF794FD002840F0FC80002E1C
:104D600000F0FB80002C34D0A568002D50D0E36803
:104D7000CB2B40F2F48015F0030F40F0F2800023BB
:104D800085F8C430D4F814B0BBF1000F4AD02369C1
:104D9000002B5DD0002B6ED0D4F8109019F0070FC7
:104DA00069D1002385F8C530D4F80080B8F1000F30
:104DB0006BD0A369002B7DD0B3F1FF3F00F0A4803E
:104DC000372B65DC5FFA83FACAF1370A5FFA8AFA91
:104DD00072E0CC2048F0CCFF0546002800F090801F
:104DE000012380F8C4304FF4806048F0C1FF814651
:104DF00048B1012385F8C5304FF01F0ADFF86C81F8
:104E00004FF4806B58E0284648F0BAFF4D4677E0F3
:104E1000CC2048F0ADFF0546002871D0012380F872
:104E2000C430AFE74FF4806048F0A2FF814628B15C
:104E3000012385F8C5304FF4806BB5E795F8C43091
:104E4000012B01D04D465BE0284648F099FFF9E779
:104E5000584648F08DFF814618B1012385F8C530CA
:104E6000A2E795F8C430012B01D04D4648E0284612
:104E700048F086FFF9E795F8C430012B01D00025F2
:104E80003EE0284648F07CFFF9E7DFF8E08090E755
:104E900095F8C530012B05D095F8C430012B05D00D
:104EA00000252DE0484648F06BFFF5E7284648F01E
:104EB00067FFF5E74FF01F0A0AAB00222A4905F108
:104EC0009C0000F08BFC9DF8283003BB2BF00704FE
:104ED000A4080AAB089307230793002306930593BE
:104EE000049303940293CDF80490CDF800A03B46C0
:104EF00032464146284601F057FD9DF82830C3B997
:104F000028460FB0BDE8F08F4FF0400AD4E795F87F
:104F1000C530012B05D095F8C430012B05D00025F4
:104F2000EEE7484648F02CFFF5E7284648F028FF12
:104F3000F5E795F8C530012B05D095F8C430012B65
:104F400005D00025DCE7484648F01AFFF5E728467B
:104F500048F016FFF5E70025D2E70025D0E7002549
:104F6000CEE70025CCE700BF20B5060814B506083B
:104F7000044B1B78012B01D000207047024B1868AE
:104F8000704700BF5C900020706F00202DE9F04159
:104F900084B007460C461646FEF772FC002840F027
:104FA000DC80002F00F0DB80002C00F0DA8003347E
:104FB00024F003053EB3B468002C3ED0F3683B2BCD
:104FC00040F2D18014F0030F40F0CF80002384F82A
:104FD00024307069002839D0D6F81080B8F1000F5D
:104FE0006AD0B8F1000F00F0888005FB07F3984203
:104FF000C0F08380336913F0030F7ED12362002356
:1050000084F825302CE03C2048F0B2FE044600280D
:1050100044D0012380F8243005FB07F048F0A8FEB7
:105020000646206220B1012384F82530504E1AE054
:10503000204648F0A5FE344630E03C2048F098FE7B
:10504000044658B3012380F82430C2E705FB07F07B
:1050500048F08EFE8046206220B3012384F825307C
:105060003668002E53D0A762E56200232363636392
:10507000A3636B463A463146204601F0FDF99DF8A0
:105080000030002B45D16B460022314604F1100060
:1050900001F0F2F99DF80030002B4CD1204604B00D
:1050A000BDE8F08194F82430012B01D04446F5E7A7
:1050B000204648F065FEF9E705FB07F3984208D360
:1050C00048F056FE8046206268B1012384F82530FE
:1050D000C6E794F82430012B01D04446DEE7204691
:1050E00048F04EFEF9E794F82430012B01D04446F5
:1050F000D4E7204648F044FEF9E794F82430012B29
:1051000001D00024CAE7204648F03AFEF9E7184EDD
:10511000A9E794F82530012B05D094F82430012B11
:1051200005D00024BAE7206A48F02AFEF5E72046B9
:1051300048F026FEF5E794F82530012B05D094F8C9
:105140002430012B05D00024A8E7206A48F018FE7F
:10515000F5E7204648F014FEF5E700249EE700241A
:105160009CE700249AE7002498E7002496E700BF14
:105170002CB506081D4B1B78012B00D0FEE71C4BFD
:105180001B7803B1704770B54AF027F80446194DF3
:105190002E7801F031F9287040281FD0164B53F8B3
:1051A0003020164B1A60402E11D0144B1A68144B45
:1051B0001B689A420ED00F4B1B78402B12D001F087
:1051C00030FF20464AF00FF8BFF36F8F70BDAFF38A
:1051D0000080EAE720464AF006F8F7E7074B00228E
:1051E0001A60E8E7AFF30080E9E700BF5C900020B9
:1051F0005890002059900020746F00206C6F0020A0
:10520000706F002010B5044660B1FEF739FB60B145
:10521000202323701C4B636040F22633A3601B4B9A
:10522000E360FEE74AF02DF8EFE7194B1B78012BFE
:1052300009D002232370144B636040F22A33A36029
:10524000124BE36010BD134B1B78F92B09D91E23B9
:1052500023700D4B636040F22F33A3600B4BE36070
:10526000F0E749F0BAFF0B4A13780133137049F0A5
:10527000BAFF00232370044B636040F23A33A3600B
:10528000024BE360DEE700BF3CB50608D8B5060870
:105290005C9000205890002010B5044660B1FEF7E5
:1052A000EFFA60B120232370234B636040F2523346
:1052B000A360224BE360FEE749F0E3FFEFE7204BFA
:1052C0001B78012B09D0022323701B4B636040F233
:1052D0005633A360194BE36010BD1A4B1B784BB9D2
:1052E0001F232370144B636040F25B33A360134BA6
:1052F000E360F1E749F071FF124A1378013BDBB23A
:1053000013706BB949F06FFFFFF734FF0023237070
:10531000094B636040F26D33A360084BE360DBE749
:1053200049F061FF2D232370034B636040F2633328
:10533000A360024BE360CFE73CB50608C8B506089A
:105340005C9000205890002010B5044668B1264BB0
:105350001B78012B0CD013232370244B636040F285
:105360000343A360224BE360FEE749F08AFFEEE7C8
:10537000204B1B884BB9092323701C4B636040F200
:105380000E43A3601A4BE360FEE71B4B1B784BB147
:105390001F232370154B636040F21143A360144B2D
:1053A000E360FEE749F022FF48B11F2323700F4B53
:1053B000636040F21443A3600D4BE360FEE701F02D
:1053C0001BF80E4A10700E4A10700E4A52F8303018
:1053D0000D4A13600D4A1360074B01221A7001F049
:1053E000D9FD49F04EFF10BD5B9000203CB506088A
:1053F000C0B50608BE8F00205C90002059900020A8
:105400005A900020746F00206C6F0020706F002095
:10541000002307E0054A002142F8331002EBC302E3
:10542000516001333F2BF5D9704700BF746F0020E6
:1054300038B50446002848D0674B5A689AB11B68B3
:10544000002B45D0654A1360644B1A68644B1A60A0
:10545000614B5B68634A13609B00634A1360634956
:105460000A681A440A605C4B1A89DAB102EB4202FC
:10547000234692005849096B5D48FFF7FDFA5D4BE2
:105480001860237803BB5C4B1860534B1B895B4A45
:10549000138003EB43039B00594A136053490A6886
:1054A0001A440A604C4B5A6B564B1A6001F0C8FC08
:1054B00006F084FCC8B101232370534B63604FF4A2
:1054C000DA73A360514BE36038BD49F0DAFEB3E70D
:1054D000234692004049096B4D48FFF7CDFA3F4BF8
:1054E00018602378002BAFD0EEE706F00FFD494B94
:1054F0001860444B1D68A84209D209232370424B0F
:1055000063604FF4DD73A360404BE360FEE7A842A5
:1055100023D0024600230020012148F061FA05FB58
:1055200000F03D4A1060B5F57A7F1AD83B4B002257
:105530001A6000233A4A13703A4A13703A4A1360C9
:105540003A4A13603A4A13703A4A1370254B1B6863
:10555000D3B1234A1268AAB916E02F4B00221A6071
:10556000E1E72A4600230020012148F039FA4FF4F0
:105570007A7300FB03F3294A1360DAE7013B002149
:1055800042F8041B002BF9D100232B4A13602B4A4D
:1055900013602B4A13602B4A13602B4A13602B4A6B
:1055A000137000F01DFFFFF733FF144B1B882BB166
:1055B000204600F0F3FB2378002B85D1204601F034
:1055C000E1F92378002B7FF47FAF4AF0E6F8204B17
:1055D00001221A7078E700BFCC110020506F002024
:1055E000486F0020446F0020406F0020306F002083
:1055F000ACB506084C6F00203C6F0020BC8F00202B
:10560000386F0020346F00203CB50608E4B506086A
:1056100098B50608586F00205C6F0020606F00206E
:105620005C90002058900020706F00206C6F00206C
:105630005A900020599000208C7100208871002021
:1056400084710020807100207C7100205790002020
:105650005B90002090F827300B4A52F833204AB173
:10566000C26000220261084A52F83310086142F811
:1056700033007047C2600261034A42F8330002EB14
:10568000C3025060704700BF746F002090F827205D
:105690000B4B53F832304BB10023C360084B03EB84
:1056A000C2035A680261D06058607047C3600361EA
:1056B000034B43F8320003EBC2035860704700BF4E
:1056C000746F002010B5044690F8270000F0A6FE85
:1056D00094F82720054B1B789A4203D02046FFF709
:1056E000B9FF10BD2046FFF7D1FFFAE75A9000201E
:1056F00010B5044690F827100269C36832B1D36030
:10570000B3B11A6100232361E36010BD2BB1002205
:105710001A610A4A42F83130F4E7084B43F8312065
:1057200003EBC1035A6090F8270000F08DFEE9E713
:10573000024B03EBC1035A60E4E700BF746F002023
:1057400070B582B0044639B9022380F8263020466D
:10575000FFF7CEFF02B070BD0D46002606F0D6FB67
:10576000A5FB00500D4B1A68AD1840F10001681EF2
:10577000334641F1FF3148F033F901460196009676
:105780002346074A04F144004CF0FAFB18B90323FE
:1057900084F82630DBE749F074FDF8E7346F002029
:1057A00073F9040810B504460B4B186880F82410F0
:1057B000002380F825301146FFF7C2FF34B1064BB5
:1057C00019680C62201D49F0EDFF10BD024B1B68EB
:1057D00000221A62F9E700BF706F00202DE9F04146
:1057E000044616461D465BB1FEF74AF858B1202321
:1057F0002B70174B6B605523AB60164BEB60FEE7CD
:1058000049F03FFDF0E7CCB149F0E7FC80460027C6
:1058100027606760A760E7600F4B2360E660201D8C
:1058200049F0BCFF404649F0DEFC2F70084B6B602E
:105830007023AB60074BEB60BDE8F0810A232B704F
:10584000034B6B605823AB60024BEB60FEE700BF7D
:10585000ECB5060860B60608464C414710B5064C44
:105860002468A167A4F880200022E2671A4601217B
:10587000FFF798FF10BD00BF706F00202DE9F04FBB
:1058800083B006460F4600921C460D9D2DB30FFABD
:1058900084F8B8F1000F23DAB8F1000F2EDAA34B29
:1058A00093F80090B9F1010F36D1002E43D048F2A1
:1058B00008039C426AD8B4F5004F46D8082C56D845
:1058C00023B2002B4CD108232B70994B6B604FF403
:1058D000A373AB60974BEB60FEE749F0D2FCD6E7D1
:1058E000FDF7CEFF0028D7D020232B70904B6B60A4
:1058F00040F23513AB608F4BEB60FEE749F076FC6E
:105900000028CCD01F232B70894B6B6040F23913D9
:10591000AB60884BEB60FEE702232B70844B6B601F
:105920004FF49F73AB60834BEB604FF0000A50461F
:1059300003B0BDE8F08F0A232B707D4B6B6040F203
:105940004313AB607B4BEB60FEE704F5FF437F3313
:105950009BB28B2222FA03F313F0010F27D1B2E797
:105960004FF48B73E34013F0010F20D1ABE7B4F594
:10597000847FA8D8B4F5807FA5D9A4F2011292B291
:105980008B23D34013F0010F11D19CE748F2081389
:105990009C4298D8B4F5014F95D904F5FD437F3367
:1059A0009BB28B2222FA03F313F0010F8BD03268E3
:1059B000614B9A4209D00C232B705D4B6B604FF406
:1059C000AC73AB605B4BEB60FEE714F4807F01D1FE
:1059D0004FF000090C9B13B100230C9A136004F0E4
:1059E0000F03019349F0F9FB8346019B042B17D069
:1059F000082B60D049F0F7FB49F043FCFFF7BAFBF6
:105A000049F0EBFB04464D4B1B6893F82530032B04
:105A100000F2EE80DFE813F0A200C200E000CE004A
:105A2000F36803EA070A37EA03020FD0B8F1000F60
:105A300025DB434B1B7883BB009B2246394630460F
:105A4000FFF70CFF584649F0CEFBD7E7B9F1010F3D
:105A500011D03A4B1B680BB1C3F87CA0584649F0F3
:105A6000C2FB00232B70324B6B604FF4BB73AB60F7
:105A7000304BEB605BE723EA0A03F360E9E749F0A8
:105A8000B2FB1D232B702A4B6B6040F27D13AB6081
:105A9000284BEB604FF0000A49E749F0A4FB2D23A7
:105AA0002B70234B6B604FF4C273AB60214BEB60E8
:105AB0004FF0000A3BE7F36813EA070A10D1B8F188
:105AC000000F26DB1E4B1B78002B3BD1009B224690
:105AD00039463046FFF7C2FE584649F084FB8DE751
